:100000000C9495010C94C6010C94C6010C94C60185
:100010000C94C6010C94C6010C94C6010C94C60144
:100020000C94C6010C94D80B0C94D80B0C94D80BE0
:100030000C94C6010C94360E0C94C6010C94C601A7
:100040000C94C6010C9416050C94C6010C94C601C0
:100050000C94C6010C94C6010C94C6010C94EC0DD2
:100060000C94C6010C94A50F0C947B0F0C94C60144
:100070000C94C6010C94C6010C94C6010C94C601E4
:100080000C94C6010C94C6010C94C6010C94C601D4
:100090000C94C6010C94C6010C94C6010C94A60ADB
:1000A0000C94C6010C94C6010C94C6010C94C601B4
:1000B0000C94C6010C94C6010C94C6010C946903FF
:1000C0000C94C6010C94C6010C94C6010C94510FFB
:1000D0000C94270F0C94C6010C94FD0E0C94D30EB7
:1000E0000C94C60169026E0273027D02870200034E
:1000F00091029902A102AB02B502BF02CE02D80260
:100100000003E202EC02F602FD0B000CEF0BF30B16
:10011000F90B370C040C080C0E0C120C160C1C0CF2
:10012000200C240C370C2A0C2E0C320C0C947D0263
:100130000C94040C0C94BF020C9405020C949902CC
:100140000C94AB020C9422030C9473020C940A09D5
:100150000C94CE020C9436090C94900D0C94430D23
:100160000C94B5020C94120C0C9409090C94D8024E
:100170000C941A090C94200C0C942E090C94000C6D
:100180000C94F20C0C94C8010C942A0C0C94E2020E
:100190000C94F6020C9491020C9400030C94EF0B57
:1001A0000C94C80C0C942E0C0C94160C0C9408098E
:1001B0000C94320C0C940E0C0C94A1020C94CF0FE6
:1001C0000C941C0C0C94D50F0C9487020C94F90B16
:1001D0000C94F30B0C9469020C946E020C9463095A
:1001E0000C94370C0C94080C0C94FD0B0C94240C00
:1001F0000C94150D0C940B090C94010D0C94040235
:100200000C94EC02000020002300260029002C00A2
:100210002F00320000010000030106010901000067
:100220002100240027002A002D00300033000101A6
:100230000000040107010A01000022002500280037
:100240002B002E00310034000201000005010801DE
:100250000B0105050505070508080808020202024A
:100260000A0A080804040404010101010101010152
:100270000303030303030303040707070C0C0C0C1D
:100280000C0C0C0C02020202060606060606060606
:100290000B0B0B0B0B0B0B0B010210202008081093
:1002A00020401020408002010201080402010102E6
:1002B00004081020408080402010080402018004BF
:1002C000020180402010080402010804020101021A
:1002D0000408102040800102040810204080000023
:1002E0000A0B02090C0D0E080703040100000000B0
:1002F00000000000000000000000000000000000FE
:1003000000000000000000000000121110000000BA
:1003100000000000000000000000000000000000DD
:10032000000000000200D50FCF0F11241FBECFEF39
:10033000D1E2DEBFCDBF00E00CBF12E0A0E0B2E032
:10034000E8EFF2E300E00BBF02C007900D92AC357E
:10035000B107D9F727E0ACE5B2E001C01D92A133A7
:10036000B207E1F711E0C4E9D1E000E006C021974F
:100370000109802FFE010E942D16C339D10780E0AC
:100380000807A9F70E94BD110C946A190C9400008B
:10039000FC01918D228D892F90E0805C9F4F821B04
:1003A00091098F7399270895E0E0F0E0199480E0B7
:1003B00090E0892B21F00E94390D811119C080E055
:1003C00090E0892B41F080E090E0892B21F00E94A1
:1003D0000000811110C00E942F0D81110FC080E01C
:1003E00090E0892B81F00E94250D81110AC00895AB
:1003F0000E940000E4CF0E940000EDCF0E94D401D3
:10040000EECF0C9400000895089580E090E00895E8
:100410008F929F92AF92BF92CF92DF92EF92FF9214
:100420000F931F93CF93DF938C016A017B0120E030
:1004300030E04FE753E4C701B6010E9441154B017C
:100440005C0120E030E0A9010E944A1718161CF454
:10045000C501B40103C0C501B40190580E9414172E
:10046000EB0120E030E0A901C701B6010E944A1764
:10047000181614F460E001C061E0F80181810E9467
:10048000380CCF3FD10509F014F4DD2702C0CFEFBF
:10049000D0E0F801108161E0812F0E94670C209765
:1004A00009F4B1C0CF3FD10509F4AFC0E12FF0E0AE
:1004B000E252FD4FE4918E2F90E0FC013197E23142
:1004C000F10508F09DC08827EE58FF4F8F4F0C9420
:1004D0002D1684B5806884BDC7BDA7C084B5806271
:1004E00084BDC8BDA2C080918000806880938000D8
:1004F000D0938900C093880098C08091800080626A
:1005000080938000D0938B00C0938A008EC080912E
:100510008000886080938000D0938D00C0938C0011
:1005200084C08091B00080688093B000C093B30015
:100530007CC08091B00080628093B000C093B40012
:1005400074C080919000806880939000D09399004F
:10055000C09398006AC08091900080628093900060
:10056000D0939B00C0939A0060C0809190008860F7
:1005700080939000D0939D00C0939C0056C08091C2
:10058000A00080688093A0008091A0008F7B809362
:10059000A000D093A900C093A80047C08091A000FC
:1005A00080628093A000D093AB00C093AA003DC0AE
:1005B0008091A00088608093A000D093AD00C0938C
:1005C000AC0033C080912001806880932001D093DB
:1005D0002901C093280129C0809120018062809365
:1005E0002001D0932B01C0932A011FC080912001CC
:1005F000886080932001D0932D01C0932C0115C0F9
:10060000C038D10514F460E001C061E0812FDF91B2
:10061000CF911F910F91FF90EF90DF90CF90BF90FF
:10062000AF909F908F900C94380CDF91CF911F91D9
:100630000F91FF90EF90DF90CF90BF90AF909F9081
:100640008F9008950F931F93CF93DF938C01C62F44
:10065000D62FD07FD1606D2F0E94650A6D2FC80103
:100660000E94780A80E1C89FB0011124C62FC160A2
:100670006C2FC8010E94650A6C2FC8010E94780A7D
:1006800081E090E0DF91CF911F910F910895FC01DF
:10069000848DDF01A80FB11DA35ABF4F2C91848D0B
:1006A00090E001968F739927848FA689B7892C9340
:1006B000A089B1898C91837080648C93938D848D93
:1006C000981306C00288F389E02D80818F7D808396
:1006D00008951F920F920FB60F9211240BB60F922E
:1006E0002F933F934F935F936F937F938F939F933A
:1006F000AF93BF93CF93DF93EF93FF932091650464
:1007000030E0F901E252FD4F8491F901E856FD4FC6
:10071000D491F901EE5AFD4FC491CC2379F08111A7
:100720000E94E20BEC2FF0E0EE0FFF1FEC5FFD4F9D
:10073000A591B491EC91ED2381E009F480E0209142
:10074000690430916A042F5F3F4F30936A0420930D
:10075000690490916804953618F096E090936404CB
:10076000909164049430C9F128F4923069F0933088
:10077000D1F05EC0953009F451C0963009F058C0F0
:1007800091E09093350551C0811152C020916904C8
:1007900030916A042436310508F442C010923505C0
:1007A000109268041CC0813009F042C0E0916804D6
:1007B00091E09E0F90936804F0E0209169043091DD
:1007C0006A04EE0FFF1FEC59FB4F3087278310920E
:1007D0006A041092690494E029C0811117C0E09165
:1007E000680491E09E0F90936804F0E02091690402
:1007F00030916A04EE0FFF1FEC59FB4F30872783BF
:1008000010926A041092690493E010C02091690468
:1008100030916A042536310558F007C0811108C0AF
:1008200010926A041092690403C095E090936404E6
:10083000909167049923B9F081110AC080916604F0
:10084000882321F08091660461E009C02F9A0BC0D3
:1008500080916604882331F08091660460E00E94F4
:10086000380C01C02F98FF91EF91DF91CF91BF918C
:10087000AF919F918F917F916F915F914F913F9138
:100880002F910F900BBE0F900FBE0F901F901895D9
:100890008EBD00000DB407FEFDCF8EB50895CF9339
:1008A000DF93EC0160E088810E94380C88E90E94A7
:1008B000480480E00E94480480E00E94480480E0F0
:1008C0000E94480480E00E94480461E088810E9400
:1008D000380C8BE891E00197F1F760E088810E9485
:1008E000380C80EE0E94480461E08881DF91CF914E
:1008F0000C94380CAF92BF92CF92DF92EF92FF929E
:100900000F931F93CF93DF93CDB7DEB760970FB6EA
:10091000F894DEBF0FBECDBF5C0160E0FC018081BA
:100920000E94380C80E60E9448048E010F5F1F4F22
:100930007E01F1E1EF0EF11C680180E00E944804A5
:1009400090E0A0E0B0E0F60181939193A193B19380
:100950006F01EE15FF0589F761E0F50180810E94C6
:10096000380C80E090E0DC01F801419151916191F7
:1009700071918F01BA2FA92F982F8827840F951F67
:10098000A61FB71FEE15FF0579F79C01AD0166277D
:100990007727CB01621B730B840B950B60960FB608
:1009A000F894DEBF0FBECDBFDF91CF911F910F91A5
:1009B000FF90EF90DF90CF90BF90AF900895CF92CF
:1009C000DF92EF92FF92823060F08FE392E00E941C
:1009D000BA0983E592E00E94BA0960E070E0CB01B9
:1009E00020C0811112C087E995E00E947A046B0152
:1009F0007C0187E995E00E944F0466277727CB01A9
:100A00006C197D098E099F090CC089E995E00E9447
:100A10007A046B017C0189E995E00E944F04B601DC
:100A2000C701FF90EF90DF90CF9008951F920F9233
:100A30000FB60F9211240BB60F922F933F934F9343
:100A40005F936F937F938F939F93AF93BF93EF9336
:100A5000FF938091750287FF05C010928500109268
:100A6000840016C020917502022E000C330B809179
:100A7000720590E0281739075CF43091750225E083
:100A80003203F0011124EA5CFA4F808186FD15C023
:100A9000809175028F5F8093750220917502022EFE
:100AA000000C330B8091720590E02817390794F4FD
:100AB000809175028C302CF10DC03091750232039B
:100AC000F0011124EA5CFA4F808160E08F730E948C
:100AD000380CDECF809184009091850084349C494D
:100AE00018F480E49CE905C0809184009091850011
:100AF000049690938900809388008FEF809375020D
:100B00002AC040918400509185003091750225E003
:100B10003203F0011124EA5CFA4F81819281840F43
:100B2000951F90938900809388003091750232035D
:100B3000F0011124EA5CFA4F808186FF0CC03091ED
:100B400075023203F0011124EA5CFA4F808161E002
:100B50008F730E94380CFF91EF91BF91AF919F91DD
:100B60008F917F916F915F914F913F912F910F9056
:100B70000BBE0F900FBE0F901F901895CF92DF9273
:100B8000EF92FF9280E00E94DF0481E00E94DF0488
:100B90004AE06FE37FE080E090E00E94CC0983E5CB
:100BA00092E00E94BA094DEC5CEC6CE47EE383E9D0
:100BB00095E00E9408024DEC5CEC6CE47EE385E974
:100BC00095E00E9408026FE070E080E090E00E94F3
:100BD000B20D89E995E00E947A046B017C0187E9F6
:100BE00095E00E947A049B01AC0188279927DC01DB
:100BF000821B930BA40BB50B8F339F40A105B1054E
:100C0000DCF040E050E0BA0183E995E00E94080280
:100C100042ECC41640EFD4064FEFE406F4069CF60F
:100C200040E050E060E070E885E995E0FF90EF90EB
:100C3000DF90CF900C94080252ECC51650EFD50609
:100C40005FEFE506F5060CF0BECF40E050E060E057
:100C500070E8B5CFCF92DF92EF92FF926B017C01EB
:100C600080E00E94DF0481E00E94DF04C701B6013A
:100C70000E94E21427E33DE847EA5EE30E94411543
:100C800021EF32E84FEB51E40E94A21620E030E061
:100C900048E455E40E9441150E9414176B017C0141
:100CA000161617061806190634F540E050E060E8FD
:100CB0007EE383E995E00E9408026FE070E080E047
:100CC00090E00E94B20D87E995E00E947A049B01B2
:100CD000AC0188279927DC01821B930BA40BB50B71
:100CE0008C159D05AE05BF0544F340E050E0BA0108
:100CF00083E995E029C040E050E060E87EEB85E9BB
:100D000095E00E94080260E070E0CB01F094E0946E
:100D1000D094C094C11CD11CE11CF11C6C157D0544
:100D20008E059F055CF46FE070E080E090E00E942B
:100D3000B20D89E995E00E947A04F0CF40E050E0DE
:100D400060E070E885E995E0FF90EF90DF90CF904C
:100D50000C9408022F923F924F925F926F927F9273
:100D60008F929F92AF92BF92CF92DF92EF92FF92BB
:100D70000F931F93CF93DF93CDB7DEB72A970FB6AC
:100D8000F894DEBF0FBECDBF21EF32E84FEB51E448
:100D90000E94A21620E030E048E455E40E9441158C
:100DA0000E94141769837A838B839C8380E00E945E
:100DB000DF0481E00E94DF044DEC5CEC6CE47EE338
:100DC00083E995E00E9408024DEC5CEC6CE47EEB5C
:100DD00085E995E00E9408022FE130E03E832D83F3
:100DE0009DECC92E9CECD92E9CE4E92E9EE3F92EB5
:100DF0002AE037ED43E25CE3C701B6010E943616F4
:100E00006B017C01AB01BC0183E995E00E94080203
:100E1000B701A601705885E995E00E94080264E1D7
:100E200070E080E090E00E94B20D4D815E81415003
:100E300051095E834D83452BD9F64601570182EC5B
:100E4000282E3324339400E010E01A861986898115
:100E50009A81AB81BC8180589C40A109B1098D83E6
:100E60009E83AF83B88729853A85C901330FAA0BC2
:100E7000BB0B2D813E814F81588582179307A407B4
:100E8000B5070CF07CC064E670E080E090E00E9462
:100E9000B20D87E995E00E947A044B015C0189E973
:100EA00095E00E947A0444245524320148185908D8
:100EB0006A087B084201861A970A49855A85440DBB
:100EC000551D5A874987060F171F1A01201A310A24
:100ED000092C000CAA08BB08B7FE05C0C501B40167
:100EE0000E940D0A05C04AE0C501B4010E94CC0968
:100EF00086E592E00E94BA092101032C000C6608E5
:100F0000770877FE05C0C301B2010E940D0A05C033
:100F10004AE0C301B2010E94CC0983E592E00E943D
:100F2000BA09C501B4010E94E21424E330E847E3A2
:100F30005AE30E944115A70196010E9436164B0103
:100F40005C01C301B2010E94E21427E137EB41E5E5
:100F500059E30E944115A50194010E9436164B01E8
:100F60005C01AB01BC01705885E995E00E94080264
:100F700080E00E94DF0481E00E94DF0474CF2DEC4A
:100F80003CEC4CE45EE3C701B6010E944A1787FDC2
:100F900020C02AE037ED43E25CE3C701B6010E94BE
:100FA00035166B017C01AB01BC0183E995E00E9421
:100FB0000802B701A601705885E995E00E94080271
:100FC0006AE070E080E090E00E94B20D46015701B7
:100FD000D6CF29853A85C901330FAA0BBB0B2981CE
:100FE0003A814B815C8182179307A407B5070CF007
:100FF0005AC064E670E080E090E00E94B20D87E99C
:1010000095E00E947A046B017C0189E995E00E94D9
:101010007A04F094E094D094C094C11CD11CE11CDB
:10102000F11C49855A854C0D5D1D5A874987060F6D
:10103000171F9A01201B310B220E331EC61AD70A26
:10104000B601DD0C880B990B0E94E21424E330E812
:1010500047E35AE30E944115A50194010E94361608
:101060006B017C01B101032C000C880B990B0E94D1
:10107000E21427E137EB41E559E30E944115A7014E
:1010800096010E9436164B015C01AB01BC01705801
:1010900085E995E00E94080280E00E94DF0481E07B
:1010A0000E94DF0496CF40E050E0BA0183E995E06A
:1010B0000E94080240E050E060E070E885E995E0B9
:1010C0002A960FB6F894DEBF0FBECDBFDF91CF9149
:1010D0001F910F91FF90EF90DF90CF90BF90AF9056
:1010E0009F908F907F906F905F904F903F902F9048
:1010F0000C94080230918002313208F04BC080918C
:101100007E028111FCCF90915B0622E020937E024B
:1011100021E020937D022FEF2093390610923806AC
:1011200030933706EBE3F6E0A7E1B6E020E03217B4
:1011300021F041914D932F5FFACF10921606209126
:101140001606990F922B9093160690917C0291307F
:1011500061F410927C02909116069093BB009091DE
:10116000BC0093FDF8CF95EC01C095EE9093BC00C8
:1011700090917E029230E1F3909139069F3F79F091
:1011800080913906803241F080913906803331F008
:1011900084E005C081E003C082E001C083E01092DA
:1011A0007F021092800210923A06089585ED809396
:1011B000BC008091BC0084FDFCCF10927E0208959B
:1011C0004091F305262F30E0240F311D21323105E7
:1011D000DCF420917E022430C9F4FC0180E090E030
:1011E000861758F43091F3052191DC01AD52BA4FC6
:1011F000A30FB11D2C930196F3CF8091F305680FD7
:101200006093F30580E0089581E0089582E00895F9
:10121000089508950895E091770280917602E81785
:1012200030F4F0E0ED54FA4F808190E008958FEFB4
:101230009FEF08959091770280917602981750F46D
:10124000E92FF0E0ED54FA4F208130E09F5F90935A
:10125000770202C02FEF3FEFC90108958091760217
:1012600090E020917702821B91090895CF92DF923E
:10127000EF92FF920F931F93CF93DF937C01CB01EB
:101280008A0120913A06222389F0EB016B01C40EFA
:10129000D51ECC15DD0569F06991D701ED91FC9162
:1012A0000190F081E02DC7011995F3CF642F0E94C2
:1012B000E008C801DF91CF911F910F91FF90EF904F
:1012C000DF90CF900895CF93DF931F92CDB7DEB715
:1012D000698320913A062223D1F0209180022032A6
:1012E00040F021E030E0FC013383228380E090E095
:1012F00015C080917F02E82FF0E0E55CF94F9981FD
:1013000090838F5F80937F028093800205C061E0AD
:10131000CE0101960E94E00881E090E00F90DF91FD
:10132000CF910895E7ECF3E0A089B18982E08C9336
:10133000A485B5851C92A685B7858FEC8C93108EFD
:10134000A489B58986E08C93A289B3898C91806148
:101350008C93A289B3898C9188608C93A289B3897C
:101360008C9180688C930288F389E02D80818F7D39
:1013700080830895009769F0FC0101900020E9F74F
:101380003197AF01481B590BBC0187EC93E00C94DB
:10139000C80C80E090E008958F929F92AF92BF9228
:1013A0000F931F93CF93DF93CDB7DEB7A1970FB6FF
:1013B000F894DEBF0FBECDBF19A2423008F44AE058
:1013C0008E010F5D1F4F842E912CA12CB12CA501F5
:1013D00094010E94FF15E62FB901CA0101501109BD
:1013E000EA3014F4E05D01C0E95CD801EC93232BF2
:1013F000242B252B61F7C8010E94BA09A1960FB6CC
:10140000F894DEBF0FBECDBFDF91CF911F910F913A
:10141000BF90AF909F908F900895CF92DF92EF9200
:10142000FF92CF93DF936B017C016DE287EC93E039
:101430000E94430DEC0166277727CB016C197D09CB
:101440008E099F094AE00E94CC098C0F9D1FDF91F5
:10145000CF91FF90EF90DF90CF9008950F931F935F
:10146000CF93DF93162F072FCAE7D5E09C8521E0A5
:1014700020933A0690935B0610927F0210928002AE
:10148000AA85BB85ED91FC9111970190F081E02D2B
:10149000682FCD0119958A859B85DC01ED91FC9122
:1014A0000190F081E02D602F19958A859B85DC01E4
:1014B000ED91FC910190F081E02D612F1995DF9164
:1014C000CF911F910F910C947A08FC01248131E097
:1014D00030933A0620935B0610927F0210928002AE
:1014E0008485682B81E892E00E9463090C947A0855
:1014F0000F931F93CF938C01C62F64600E94650ADF
:101500006C2F6B7FC8010E94650A83EC90E0019705
:10151000F1F7CF911F910F910895FC01A089B18936
:101520008C91A689B78982FD0FC09C91818D8F5FB8
:101530008F73228D821749F0218DDF01A20FB11D1B
:101540005D969C93818F08958C9108951F920F92C0
:101550000FB60F9211240BB60F922F933F934F9318
:101560005F936F937F938F939F93AF93BF93EF930B
:10157000FF938091B900887F803609F49CC068F59C
:10158000883209F45BC090F4803109F454C038F417
:10159000882309F4F6C0883009F44DC0F6C08831BC
:1015A00009F44CC0803209F45DC0EFC0803409F406
:1015B00068C048F4803309F455C0883309F0E5C0A9
:1015C00080933906D8C0803509F44FC0883509F4B6
:1015D0005DC0883409F0D9C0D6C0883909F4C7C0C5
:1015E000A8F4883709F467C038F4883609F463C072
:1015F000803709F460C0C9C0883809F4B8C08039A0
:1016000009F45FC0803809F0C0C05BC0803B09F4BA
:1016100086C038F4803A09F466C0883A09F47FC07D
:10162000B4C0803C09F4A7C0883C09F4A4C0883B3E
:1016300009F48AC0AAC08091160610C0909138069D
:1016400080913706981770F5E091380681E08E0F8B
:1016500080933806F0E0E95EF94F80818093BB000B
:1016600085EC86C0809339068EC0E091380681E013
:101670008E0F809338068091BB00F0E0E95EF94F51
:10168000808390913806809137066EC0E0913806CD
:1016900081E08E0F809338068091BB00F0E0E95E18
:1016A000F94F808380917D0281116DC081E080932C
:1016B0007C0284EA61C083E080937E02109215066A
:1016C000CFCF80911506803208F051C0E091150609
:1016D00081E08E0F809315068091BB00F0E0EB5007
:1016E000FA4F8083BDCF85EC8093BC0010927E02C0
:1016F00080911506803230F4E0911506F0E0EB5051
:10170000FA4F10826091150670E0E0917A02F09134
:101710007B0285EF95E019951092150636C084E09E
:1017200080937E021092F4051092F305E091780206
:10173000F091790219958091F305811105C081E03E
:101740008093F3051092D305E091F40581E08E0FAC
:101750008093F405F0E0ED52FA4F80818093BB0056
:101760009091F4058091F305981708F479CF85E8F6
:101770008093BC000AC085EC8093BC0010927E026E
:1017800004C0109239060E94D608FF91EF91BF91D4
:10179000AF919F918F917F916F915F914F913F9109
:1017A0002F910F900BBE0F900FBE0F901F901895AA
:1017B0001F920F920FB60F9211240F900FBE0F9031
:1017C0001F90189590E0FC013197E231F10508F087
:1017D0004EC08827EC57FF4F8F4F0C942D168091E9
:1017E00080008F7703C0809180008F7D8093800080
:1017F000089580918000877FF9CF84B58F7702C0EC
:1018000084B58F7D84BD08958091B0008F7703C02B
:101810008091B0008F7D8093B000089580919000FA
:101820008F7707C0809190008F7D03C080919000DA
:10183000877F8093900008958091A0008F7707C0E4
:101840008091A0008F7D03C08091A000877F80934E
:10185000A0000895809120018F7707C0809120011A
:101860008F7D03C080912001877F809320010895A0
:101870001F93CF93DF93282F30E0F901E252FD4F01
:101880008491F901E856FD4FD491F901EE5AFD4FCC
:10189000C491CC23C1F0162F81110E94E20BEC2FD2
:1018A000F0E0EE0FFF1FE85CFD4FA591B4919FB7EC
:1018B000F894111104C08C91D095D82302C0EC91FA
:1018C000DE2BDC939FBFDF91CF911F910895CF93C3
:1018D000DF9390E0FC01E856FD4F2491FC01EE5AA5
:1018E000FD4F8491882361F190E0880F991FFC01DE
:1018F000E25EFD4FC591D491FC01E85CFD4FA591DE
:10190000B491611109C09FB7F89488812095822312
:101910008883EC912E230BC0623061F49FB7F8945A
:101920008881322F309583238883EC912E2B2C9342
:101930009FBF06C08FB7F894E8812E2B28838FBFF6
:10194000DF91CF9108953FB7F89480912907909146
:101950002A07A0912B07B0912C0726B5A89B05C09C
:101960002F3F19F00196A11DB11D3FBFBA2FA92F1E
:10197000982F8827820F911DA11DB11DBC01CD019B
:1019800042E0660F771F881F991F4A95D1F7089587
:10199000CF92DF92EF92FF920F931F93CF93DF933B
:1019A0006C017A018B01C0E0D0E0CE15DF0581F03B
:1019B000D8016D918D01D601ED91FC910190F081DE
:1019C000E02DC6011995892B11F02196EECF7E01ED
:1019D000C701DF91CF911F910F91FF90EF90DF90A2
:1019E000CF900895FC01538D448D252F30E0842F36
:1019F00090E0821B930B541710F0CF960895019737
:101A00000895FC01918D828D981761F0828DDF0120
:101A1000A80FB11D5D968C91928D9F5F9F73928FE1
:101A200090E008958FEF9FEF0895FC01918D828DD6
:101A3000981731F0828DE80FF11D858D90E00895A3
:101A40008FEF9FEF08950E9455198DE892E00E9454
:101A5000C80121E0892B09F420E0822F08958AE251
:101A600093E00E94C80121E0892B09F420E0822F35
:101A7000089587EC93E00E94C80121E0892B09F4C6
:101A800020E0822F0895EF92FF920F931F93CF9340
:101A9000DF93EC0181E0888F9B8D8C8D981305C0BE
:101AA000E889F989808185FD26C0F62E0B8D10E02E
:101AB0000F5F1F4F0F731127E02E8C8DE8120CC0A3
:101AC0000FB607FCFACFE889F989808185FFF5CF49
:101AD000CE010E944703F1CF8B8DFE01E80FF11D6F
:101AE000E35AFF4FF0829FB7F8940B8FEA89FB8986
:101AF000808180620AC09FB7F894EE89FF89608375
:101B0000E889F98980818370806480839FBF81E048
:101B100090E0DF91CF911F910F91FF90EF9008958A
:101B2000CF93DF93EC01888D8823C9F0EA89FB8984
:101B3000808185FD05C0A889B9898C9186FD0FC07B
:101B40000FB607FCF5CF808185FFF2CFA889B98950
:101B50008C9185FFEDCFCE010E944703E7CFDF9147
:101B6000CF9108958F929F92AF92BF92CF92DF92C2
:101B7000EF92FF926B017C010E94A30C4B015C0170
:101B8000C114D104E104F104F1F00E94A30CDC01C2
:101B9000CB0188199909AA09BB09883E9340A10580
:101BA000B10570F321E0C21AD108E108F10888EE0E
:101BB000880E83E0981EA11CB11CC114D104E1045D
:101BC000F10419F7DDCFFF90EF90DF90CF90BF9039
:101BD000AF909F908F9008951F920F920FB60F9223
:101BE00011242F933F938F939F93AF93BF93809133
:101BF000250790912607A0912707B09128073091DB
:101C0000240723E0230F2D3720F40196A11DB11DD9
:101C100005C026E8230F0296A11DB11D20932407BD
:101C20008093250790932607A0932707B093280752
:101C30008091290790912A07A0912B07B0912C073A
:101C40000196A11DB11D8093290790932A07A093A7
:101C50002B07B0932C07BF91AF919F918F913F912C
:101C60002F910F900FBE0F901F9018951F920F92FB
:101C70000FB60F9211240BB60F922F933F934F93F1
:101C80005F936F937F938F939F93AF93BF93EF93E4
:101C9000FF9380911F0790912007A0912107B09199
:101CA0002207892B8A2B8B2B49F190911E0780915B
:101CB000000089278093000080911F0790912007E2
:101CC000A0912107B0912207181619061A061B06C3
:101CD0000CF056C080911F0790912007A09121071A
:101CE000B09122070197A109B10980931F07909332
:101CF0002007A0932107B093220742C080910002E1
:101D0000E4E2F3E0E4919FEF90930002E230C9F047
:101D100050F4EE2399F0E13081F590916F009D7FB2
:101D200090936F002AC0E43019F1E0F0E53029F516
:101D3000909173009D7F909373001FC010926E006E
:101D40001CC0909170009D7F9093700091E09093E3
:101D5000B0009091B100987F94609093B100109280
:101D6000B3000BC0909171009D7F9093710005C0EE
:101D7000909172009D7F9093720060E00E94380CF9
:101D8000FF91EF91BF91AF919F918F917F916F9153
:101D90005F914F913F912F910F900BBE0F900FBE0F
:101DA0000F901F9018951F920F920FB60F9211244B
:101DB0000BB60F922F933F934F935F936F937F9345
:101DC0008F939F93AF93BF93EF93FF938DE892E030
:101DD0000E944703FF91EF91BF91AF919F918F9127
:101DE0007F916F915F914F913F912F910F900BBE1B
:101DF0000F900FBE0F901F9018951F920F920FB665
:101E00000F9211240BB60F922F933F934F935F9332
:101E10006F937F938F939F93AF93BF93EF93FF93B2
:101E20008DE892E00E948D0AFF91EF91BF91AF91F2
:101E30009F918F917F916F915F914F913F912F91E2
:101E40000F900BBE0F900FBE0F901F9018951F9212
:101E50000F920FB60F9211240BB60F922F933F9350
:101E60004F935F936F937F938F939F93AF93BF93A2
:101E7000EF93FF938AE293E00E944703FF91EF9173
:101E8000BF91AF919F918F917F916F915F914F9192
:101E90003F912F910F900BBE0F900FBE0F901F9090
:101EA00018951F920F920FB60F9211240BB60F9236
:101EB0002F933F934F935F936F937F938F939F9352
:101EC000AF93BF93EF93FF938AE293E00E948D0A52
:101ED000FF91EF91BF91AF919F918F917F916F9102
:101EE0005F914F913F912F910F900BBE0F900FBEBE
:101EF0000F901F9018951F920F920FB60F921124FA
:101F00000BB60F922F933F934F935F936F937F93F3
:101F10008F939F93AF93BF93EF93FF9387EC93E0DF
:101F20000E944703FF91EF91BF91AF919F918F91D5
:101F30007F916F915F914F913F912F910F900BBEC9
:101F40000F900FBE0F901F9018951F920F920FB613
:101F50000F9211240BB60F922F933F934F935F93E1
:101F60006F937F938F939F93AF93BF93EF93FF9361
:101F700087EC93E00E948D0AFF91EF91BF91AF91A2
:101F80009F918F917F916F915F914F913F912F9191
:101F90000F900BBE0F900FBE0F901F901895809161
:101FA0007305909174050C94E717109284021092B7
:101FB000830288EE93E0A0E0B0E0809385029093E6
:101FC0008602A0938702B093880223E132E0309327
:101FD0008202209381021092900210928F028093CD
:101FE000910290939202A0939302B093940225E2FF
:101FF00032E030938E0220938D0245E351E05093FE
:102000009A024093990244E351E050939C0240931A
:102010009B0240E351E050939E0240939D0241E3B6
:1020200051E05093A00240939F0242E351E050934D
:10203000A2024093A10246E351E05093A4024093D0
:10204000A3021092A6021092A7021092A802109268
:10205000A90210922D0310922C0380932E039093CB
:102060002F03A0933003B093310330932B032093BD
:102070002A0345ED50E0509337034093360344ED77
:1020800050E0509339034093380340ED50E05093B3
:102090003B0340933A0341ED50E050933D0340939E
:1020A0003C0342ED50E050933F0340933E0346ED26
:1020B00050E0509341034093400310924303109229
:1020C000440310924503109246031092CA031092E3
:1020D000C9038093CB039093CC03A093CD03B0931B
:1020E000CE033093C8032093C70385EC90E0909310
:1020F000D4038093D30384EC90E09093D603809331
:10210000D50380EC90E09093D8038093D70381ECC3
:1021100090E09093DA038093D90382EC90E090935F
:10212000DC038093DB0386EC90E09093DE038093E6
:10213000DD031092E0031092E1031092E20310928B
:10214000E3038091070290910802A0910902B091E7
:102150000A0280939B0590939C05A0939D05B093E4
:102160009E0580910B0290910C02A0910D02B091FE
:102170000E0280939F059093A005A093A105B093B4
:10218000A20584E08093A30587E08093A4051092C4
:10219000A50584EB8093A60586E18093A70588E1D9
:1021A0008093A80587E18093A90589E18093AA051A
:1021B000E0917205EC3020F08FEF8093AB0510C0FA
:1021C00081E08E0F80937205E093AB0585E0E89F78
:1021D000F0011124EA5CFA4F88EB9BE09283818343
:1021E000E0917205EC3020F08FEF8093AC0510C0C9
:1021F00081E08E0F80937205E093AC0585E0E89F47
:10220000F0011124EA5CFA4F88EB9BE09283818312
:102210008CE080937A0584E280937B0586E080934E
:102220007C0585E080937D058FE180937E058EE1BE
:1022300080937F0583E28093800582E2809381050D
:1022400085E48093820584E48093830580E4809311
:10225000860510928B0510928C0510928D051092B8
:102260008E0510928F051092900510929105109294
:102270009205E0E6F6E02EE137E08FEF9FEFDC011C
:10228000128213821482158216821782108611869A
:1022900083879487A587B6878787908BA18BB28B1E
:1022A00012861182108273962E173F0749F78DE030
:1022B00090E00E944F17FC011382128287E392E0A4
:1022C00091838083118687E2848384E1828784E01E
:1022D00083871486F0935D06E0935C0610925E0699
:1022E00010925F0685E28093650410926704109255
:1022F0007405109273051092760510927505109270
:1023000078051092770561E070E080E090E00E942F
:102310007018009789F0909374058093730510925C
:102320007605109275052091770530917805232B5D
:10233000C1F4FC01108215C0809173059091740561
:10234000009711F00E94E717109274051092730520
:102350001092780510927705109276051092750507
:102360000895109278051092770565E572E08091E6
:102370007305909174050C946319789484B5826008
:1023800084BD84B5816084BD85B5826085BD85B519
:10239000816085BD80916E00816080936E00109297
:1023A0008100809181008260809381008091810012
:1023B00081608093810080918000816080938000A3
:1023C0008091B10084608093B1008091B000816001
:1023D0008093B00080919100826080939100809101
:1023E0009100816080939100809190008160809342
:1023F00090008091A10082608093A1008091A10053
:1024000081608093A1008091A00081608093A000F2
:10241000809121018260809321018091210181605E
:10242000809321018091200181608093200180911F
:102430007A00846080937A0080917A008260809331
:102440007A0080917A00816080937A0080917A008E
:10245000806880937A001092C1000E94920961E026
:1024600080917B050E94670C60E080917B050E9453
:10247000380C60E080917A050E94670C81E892E058
:1024800090938505809384051092770210927602CE
:1024900010927F021092800210927E0281E080935F
:1024A0007D0210927C0261E084E10E94380C61E0C0
:1024B00085E10E94380C8091B9008E7F8093B9002D
:1024C0008091B9008D7F8093B90088E48093B80033
:1024D00085E48093BC0088E099E090937902809332
:1024E000780289E099E090937B0280937A0280E001
:1024F00090E1A0E0B0E08093870590938805A093D9
:102500008905B0938A058AE090E0A0E0B0E080936E
:102510008B0590938C05A0938D05B0938E0580E07C
:1025200090E0A0E0B0E480938F0590939005A09395
:102530009105B093920560E070E185E00E942E0A5B
:102540006FE979E380E00E942E0ACAE7D5E08E01A8
:1025500052E0752E67E8A62E62E0B62E7DEC872E3F
:1025600072E0972EEBECEE2EE7E0FE2EF801948160
:102570008281898F9A8F61E00E94670C61E08A8D69
:102580000E94670CF801908586816E01FDE1CF0EF7
:10259000D11C8D8F9E8F61E00E94670C60E08E8D54
:1025A0000E94670C61E08D8D0E94380C6FB6F89424
:1025B00080912307811126C0F5018491F4012491B3
:1025C000E82FF0E0EE0FFF1FE25EFD4FA591B49102
:1025D0009C91822F892321F461E085E30E94380CCD
:1025E00061E085E30E94670C8CB580618CBD8CB581
:1025F00080648CBD61E084E30E94670C61E083E34A
:102600000E94670C809123078F5F809323076FBE22
:10261000C7010197F1F760E08D8D0E94380C88E8C2
:102620000E94480483E00E94480461E08D8D0E946E
:10263000380CC7010197F1F7C6010E944F047A9444
:102640000F5F1F4F2296711091CF0FE915E0C3EA7B
:10265000D5E060E0F80181918F010E94670CF5E000
:10266000033A1F07B1F70BE915E085EAE82E85E08C
:10267000F82E95E0D92E2CE0B22E32E0C32EA99090
:102680008F818C3008F044C061E08A2D0E94670C75
:102690008F81D89EF0011124EA5CFA4F9A2D9F7326
:1026A0002081207CA22EA92AA082138214826B2D65
:1026B0000E9421162CE0829FA001112420E030E02E
:1026C000BA01620F731FD69EF001D79EF00D112440
:1026D000EA5CFA4F908196FD12C02F5F3F4F2C307D
:1026E000310571F781110BC010928000C0928100FA
:1026F0001092850010928400C6BAC0926F00EF81DC
:10270000DE9EF0011124EA5CFA4F808180648083B0
:102710009D818B81F801828B938B60E00E94670C16
:1027200061E0F80183890E94670C60E0F801838909
:102730000E94380C0E5F1F4FEC16FD0609F09FCF6C
:10274000F8941092200189E08093210180E293E0C7
:102750009093290180932801109225011092240161
:1027600082E08093730078948093640410926804EC
:102770008091650460E00E94670C0E94920960E00D
:1027800070E080EF92E40E94AA0668EC70E080E0BE
:1027900090E00E94B20D66EA7FEF8FEF9FEF0E94FC
:1027A0002A0668EC70E080E090E00E94B20D60E0E4
:1027B00070E08CE892E40E94AA0668EC70E080E089
:1027C00090E00E94B20D6AE570E080E090E00E9427
:1027D0002A0668EC70E080E090E00E94B20D60E0B4
:1027E00070E086E992E40E94AA0668EC70E080E05E
:1027F00090E00E94B20D69E270E080E090E00E94FB
:102800002A0668EC70E080E090E00E94B20D60E083
:1028100070E08FE293E40E94AA0668EC70E080E02A
:1028200090E00E94B20D66EA7FEF8FEF9FEF0E946B
:102830002A0668EC70E080E090E00E94B20D60E053
:1028400070E084E392E40E94AA0668EC70E080E005
:1028500090E00E94B20D6DE270E080E090E00E9496
:102860002A0668EC70E080E090E00E94B20D60E023
:1028700070E088EC92E40E94AA0668EC70E080E0C8
:1028800090E00E94B20D0E94BE0568EC70E080E00E
:1028900090E00E94B20D60E070E088EC92E40E944B
:1028A000AA0668EC70E080E090E00E94B20D63ED53
:1028B0007FEF8FEF9FEF0E942A0668EC70E080E0C8
:1028C00090E00E94B20D60E070E084E392E40E9428
:1028D000AA0668EC70E080E090E00E94B20D6AE524
:1028E00070E080E090E00E942A0668EC70E080E0F2
:1028F00090E00E94B20D60E070E08FE293E40E94ED
:10290000AA0668EC70E080E090E00E94B20D63EDF2
:102910007FEF8FEF9FEF0E942A0668EC70E080E067
:1029200090E00E94B20D60E070E086E992E40E94BF
:10293000AA0668EC70E080E090E00E94B20D69EABF
:102940007FEF8FEF9FEF0E942A0668EC70E080E037
:1029500090E00E94B20D60E070E08EE892E40E9488
:10296000AA0668EC70E080E090E00E94B20D6CE591
:1029700070E080E090E00E942A0668EC70E080E061
:1029800090E00E94B20D60E070E082E093E40E946B
:10299000AA0668EC70E080E090E00E94B20D0E9410
:1029A000BE050E94BE0560ED77E080E090E00E94E9
:1029B000B20D0E94BE050E94BE050E94D701FDCF48
:1029C000E89409C097FB3EF49095809570956195C9
:1029D0007F4F8F4F9F4F9923A9F0F92F96E9BB277F
:1029E0009395F695879577956795B795F111F8CFFB
:1029F000FAF4BB0F11F460FF1BC06F5F7F4F8F4F66
:102A00009F4F16C0882311F096E911C0772321F05B
:102A10009EE8872F762F05C0662371F096E8862FF3
:102A200070E060E02AF09A95660F771F881FDAF74A
:102A3000880F9695879597F90895990F0008550F77
:102A4000AA0BE0E8FEEF16161706E807F907C0F034
:102A500012161306E407F50798F0621B730B840B3C
:102A6000950B39F40A2661F0232B242B252B21F416
:102A700008950A2609F4A140A6958FEF811D811DB6
:102A800008950E9454150C94C5150E94B71538F08E
:102A90000E94BE1520F0952311F00C94AE150C94F5
:102AA000B41511240C94F9150E94D61570F3959F56
:102AB000C1F3950F50E0551F629FF001729FBB2735
:102AC000F00DB11D639FAA27F00DB11DAA1F649FD1
:102AD0006627B00DA11D661F829F2227B00DA11D84
:102AE000621F739FB00DA11D621F839FA00D611D0A
:102AF000221F749F3327A00D611D231F849F600D2B
:102B0000211D822F762F6A2F11249F5750409AF053
:102B1000F1F088234AF0EE0FFF1FBB1F661F771FDF
:102B2000881F91505040A9F79E3F510580F00C94AA
:102B3000AE150C94F9155F3FE4F3983ED4F38695F7
:102B400077956795B795F795E7959F5FC1F7FE2B4A
:102B5000880F911D9695879597F9089597F99F6726
:102B600080E870E060E008959FEF80EC0895002415
:102B70000A941616170618060906089500240A94E2
:102B800012161306140605060895092E0394000C68
:102B900011F4882352F0BB0F40F4BF2B11F460FFF7
:102BA00004C06F5F7F4F8F4F9F4F089557FD905820
:102BB000440F551F59F05F3F71F04795880F97FB01
:102BC000991F61F09F3F79F08795089512161306BB
:102BD0001406551FF2CF4695F1DF08C016161706EA
:102BE0001806991FF1CF869571056105089408951F
:102BF000E894BB2766277727CB0197F90895A1E2D0
:102C00001A2EAA1BBB1BFD010DC0AA1FBB1FEE1F66
:102C1000FF1FA217B307E407F50720F0A21BB30BB1
:102C2000E40BF50B661F771F881F991F1A9469F72D
:102C300060957095809590959B01AC01BD01CF0189
:102C40000895991B79E004C0991F961708F0961B08
:102C5000881F7A95C9F780950895EE0FFF1F881F8A
:102C60008BBF0790F691E02D19945058BB27AA27E7
:102C70000E944D160C94C5150E94B71538F00E949D
:102C8000BE1520F039F49F3F19F426F40C94B415C6
:102C90000EF4E095E7FB0C94AE15E92F0E94D615D3
:102CA00058F3BA17620773078407950720F079F481
:102CB000A6F50C94F8150EF4E0950B2EBA2FA02D66
:102CC0000B01B90190010C01CA01A0011124FF27D9
:102CD000591B99F0593F50F4503E68F11A16F040D4
:102CE000A22F232F342F4427585FF3CF46953795D3
:102CF0002795A795F0405395C9F77EF41F16BA0B98
:102D0000620B730B840BBAF09150A1F0FF0FBB1F45
:102D1000661F771F881FC2F70EC0BA0F621F731F8E
:102D2000841F48F4879577956795B795F7959E3FEB
:102D300008F0B0CF9395880F08F09927EE0F97957C
:102D4000879508950E94B6160C94C5150E94BE156D
:102D500058F00E94B71540F029F45F3F29F00C9419
:102D6000AE1551110C94F9150C94B4150E94D6159A
:102D700068F39923B1F3552391F3951B550BBB27AA
:102D8000AA2762177307840738F09F5F5F4F220FEF
:102D9000331F441FAA1FA9F335D00E2E3AF0E0E8E6
:102DA00032D091505040E695001CCAF72BD0FE2F30
:102DB00029D0660F771F881FBB1F261737074807C4
:102DC000AB07B0E809F0BB0B802DBF01FF2793587C
:102DD0005F4F3AF09E3F510578F00C94AE150C947D
:102DE000F9155F3FE4F3983ED4F3869577956795A0
:102DF000B795F7959F5FC9F7880F911D96958795B1
:102E000097F90895E1E0660F771F881FBB1F6217CF
:102E100073078407BA0720F0621B730B840BBA0B8D
:102E2000EE1F88F7E09508950E941B176894B11172
:102E30000C94F91508950E94DE1588F09F5798F0BC
:102E4000B92F9927B751B0F0E1F0660F771F881FAF
:102E5000991F1AF0BA95C9F714C0B13091F00E94C9
:102E6000F815B1E008950C94F815672F782F88278E
:102E7000B85F39F0B93FCCF3869577956795B395F0
:102E8000D9F73EF490958095709561957F4F8F4F5F
:102E90009F4F08950E941D1508F48FEF08950F931A
:102EA0001F93CF93DF938230910510F482E090E07E
:102EB000E0912F07F091300720E030E0A0E0B0E093
:102EC000309719F1408151810281138148175907C8
:102ED000C8F08417950769F4109731F012960C9397
:102EE000129713961C9327C000932F071093300757
:102EF00022C02115310519F04217530718F49A0121
:102F0000BD01EF01DF01F801DBCF21153105F9F03B
:102F1000281B390B2430310580F48A819B8161158F
:102F2000710521F0FB019383828304C090933007E5
:102F300080932F07FE01329644C0FE01E20FF31F7B
:102F40008193919322503109398328833AC020918B
:102F50002D0730912E07232B41F42091030230914D
:102F6000040230932E0720932D0720910102309107
:102F700002022115310541F42DB73EB740910502FB
:102F800050910602241B350BE0912D07F0912E077E
:102F9000E217F307A0F42E1B3F0B2817390778F030
:102FA000AC014E5F5F4F2417350748F04E0F5F1F8F
:102FB00050932E0740932D078193919302C0E0E038
:102FC000F0E0CF01DF91CF911F910F910895CF9342
:102FD000DF93009709F481C0FC01329713821282BB
:102FE000A0912F07B0913007109781F42081318193
:102FF000820F931F20912D0730912E072817390734
:1030000051F5F0932E07E0932D0767C0ED0120E006
:1030100030E0CE17DF0740F44A815B819E01411505
:103020005105F1F0EA01F5CFD383C283408151818C
:10303000840F951FC817D90759F488819981840F87
:10304000951F0296918380838A819B8193838283DB
:103050002115310529F4F0933007E0932F073DC087
:10306000E901FB83EA8349915991C40FD51FEC17FD
:10307000FD0761F480819181840F951F0296E9011B
:1030800099838883828193819B838A83E0E0F0E047
:1030900012968D919C911397009719F0FD01DC0118
:1030A000F7CF8D919C9111979D012E5F3F4F820F1D
:1030B000931F20912D0730912E072817390769F4A7
:1030C000309729F41092300710922F0702C0138214
:1030D0001282B0932E07A0932D07DF91CF91089510
:1030E0006F927F928F929F92AF92BF92CF92DF9218
:1030F000EF92FF920F931F93CF93DF93009789F482
:10310000CB01DF91CF911F910F91FF90EF90DF9056
:10311000CF90BF90AF909F908F907F906F900C94C6
:103120004F17FC01E60FF71F9C0122503109E217EF
:10313000F30708F4A9C0EC01D9010D911C91119776
:1031400006171707B0F00530110508F49BC0C80139
:1031500004978617970708F495C002501109061BBB
:10316000170B019311936D937C93CF010E94E71786
:1031700089C05B01A01AB10A4C01800E911EA0917A
:103180002F07B0913007612C712CE12CF12C109796
:1031900009F446C08D919C911197A815B905B1F518
:1031A0006C0142E0C40ED11CCA14DB0478F14C015E
:1031B0008A189B08640142E0C40ED11C1296BC9090
:1031C00012971396AC91B5E0CB16D10440F0B282C1
:1031D000A38391828082D9016D937C9309C00E5F95
:1031E0001F4F800F911FF90191838083EB2DFA2FE0
:1031F000E114F10431F0D7011396FC93EE9312978A
:1032000041C0F0933007E0932F073CC06816790661
:1032100008F43C017D0112960D90BC91A02DB7CF12
:1032200080912D0790912E0788169906E1F4661675
:103230007706C8F48091010290910202009741F450
:103240008DB79EB74091050250910602841B950BE5
:10325000E817F907C8F4F0932E07E0932D07F9015A
:10326000718360830FC0CB010E944F177C010097D0
:1032700059F0A801BE010E945A19CE010E94E71719
:10328000C70104C0CE0102C080E090E0DF91CF9181
:103290001F910F91FF90EF90DF90CF90BF90AF9074
:1032A0009F908F907F906F90089581E090E0F894C8
:1032B0000C946A19FB01DC0102C001900D9241508F
:1032C0005040D8F70895FB01DC0101900D920020D9
:1032D000E1F7089511E0C4E9D1E000E006C0802FD5
:1032E000FE010E942D162196011DC539D10780E0EF
:0832F0000807A9F7F894FFCFCD
:1032F800FF000031072000363738391B1D1A1C0023
:103308000000006309360905020A092E091A090B8B
:103318000900000000430DC80CF20C900DC8010113
:103328000D150D000000002203C80C050204024917
:103338006E76616C696420656E636F64657220697E
:0C3348006421000D0A002020202000005D
:00000001FF
