:100000000C9495010C94C6010C94C6010C94C60185
:100010000C94C6010C94C6010C94C6010C94C60144
:100020000C94C6010C9424040C9424040C94240411
:100030000C94C6010C943B080C94C6010C94C601A8
:100040000C94C6010C94640C0C94C6010C94C6016B
:100050000C94C6010C94C6010C94C6010C94820643
:100060000C94C6010C94AA090C9480090C94C60146
:100070000C94C6010C94C6010C94C6010C94C601E4
:100080000C94C6010C94C6010C94C6010C94C601D4
:100090000C94C6010C94C6010C94C6010C942E0459
:1000A0000C94C6010C94C6010C94C6010C94C601B4
:1000B0000C94C6010C94C6010C94C6010C94D4098E
:1000C0000C94C6010C94C6010C94C6010C945609FC
:1000D0000C942C090C94C6010C9402090C94D808B9
:1000E0000C94C6010B060E06FD0501060706450623
:1000F000120616061C06200624062A062E063206BE
:10010000450638063C064006140B190B1E0B280B3F
:10011000320BAB0B3C0B440B4C0B560B600B6A0BBE
:10012000790B830BAB0B8D0B970BA10B0C94590226
:100130000C947C020C94280B0C94CC060C940E06A8
:100140000C94830B0C94600B0C946A0B0C94380683
:100150000C9432060C9412080C9440060C9468021D
:100160000C9445060C9473070C9419070C942A06FA
:100170000C9456020C9484020C948D0B0C9458022F
:100180000C943C0B0C9416060C9412060C944C0B1D
:100190000C942E060C94F6060C94760D0C94B10279
:1001A0000C94A10B0C94970B0C94AB0B0C9427079D
:1001B0000C947E120C94FD050C941C060C94140BEC
:1001C0000C94C0070C9413080C94560B0C94050760
:1001D0000C943C060C9457020C9407060C942406CD
:1001E0000C9416080C941E0B0C94320B0C940B06FA
:1001F0000C9401060C94790B0C9420060C94190BAA
:100200000C94440B00002200250028002B002E0037
:100210003100340002010000050108010B01050551
:100220000505070508080808020202020A0A08086C
:10023000040404040101010101010101030303039A
:1002400003030303040707070C0C0C0C0C0C0C0C29
:100250000202020206060606060606060B0B0B0B3A
:100260000B0B0B0B0102102020080810204010205F
:10027000408002010201080402010102040810206A
:100280004080804020100804020180040201804068
:1002900020100804020108040201010204081020D1
:1002A0004080010204081020408000000A0B02096F
:1002B0000C0D0E0807030401000000000000000000
:1002C000000000000000000000000000000000002E
:1002D00000000000000012111000000000000000EB
:1002E000000000000000000000000000000000000E
:1002F00000002100240027002A002D0030003300D8
:1003000001010000040107010A0100002000230090
:10031000260029002C002F003200000100000301FC
:10032000060109010200760D7E1211241FBECFEFD7
:10033000D1E2DEBFCDBF00E00CBF12E0A0E0B2E032
:10034000E6E6FDE200E00BBF02C007900D92A0368A
:10035000B107D9F727E0A0E6B2E001C01D92A533AE
:10036000B207E1F711E0C4E9D1E000E006C021974F
:100370000109802FFE010E94D613C339D10780E006
:100380000807A9F70E945E0F0C94A1160C940000B8
:1003900030916A02313208F04BC0809168028111BD
:1003A000FCCF9091450622E02093680221E0209343
:1003B00067022FEF20932306109222063093210626
:1003C000E5E2F6E0A1E0B6E020E0321721F041914D
:1003D0004D932F5FFACF1092000620910006990FDF
:1003E000922B9093000690916602913061F41092E6
:1003F0006602909100069093BB009091BC0093FD23
:10040000F8CF95EC01C095EE9093BC0090916802F6
:100410009230E1F3909123069F3F79F0809123067B
:10042000803241F080912306803331F084E005C0B2
:1004300081E003C082E001C083E010926902109263
:100440006A0210922406089585ED8093BC00809185
:10045000BC0084FDFCCF1092680208954091DB053A
:10046000262F30E0240F311D21323105DCF420919C
:1004700068022430C9F4FC0180E090E0861758F44B
:100480003091DB052191DC01A554BA4FA30FB11DBA
:100490002C930196F3CF8091DB05680F6093DB0509
:1004A00080E0089581E0089582E008950895089518
:1004B0000895E091610280916002E81730F4F0E065
:1004C000E556FA4F808190E008958FEF9FEF0895F1
:1004D0009091610280916002981750F4E92FF0E04A
:1004E000E556FA4F208130E09F5F9093610202C091
:1004F0002FEF3FEFC90108958091600290E02091B5
:100500006102821B91090895CF92DF92EF92FF92D0
:100510000F931F93CF93DF937C01CB018A0120912E
:100520002406222389F0EB016B01C40ED51ECC15E5
:10053000DD0569F06991D701ED91FC910190F081A1
:10054000E02DC7011995F3CF642F0E942E02C80138
:10055000DF91CF911F910F91FF90EF90DF90CF909F
:100560000895CF93DF931F92CDB7DEB769832091B3
:1005700024062223D1F020916A02203240F021E0AB
:1005800030E0FC013383228380E090E015C080914D
:100590006902E82FF0E0EB5DF94F998190838F5F5E
:1005A0008093690280936A0205C061E0CE010196E2
:1005B0000E942E0281E090E00F90DF91CF9108958C
:1005C000E1EBF3E0A089B18982E08C93A485B58545
:1005D0001C92A685B7858FEC8C93108EA489B58963
:1005E00086E08C93A289B3898C9180618C93A289D7
:1005F000B3898C9188608C93A289B3898C9180682F
:100600008C930288F389E02D80818F7D808308950B
:10061000009769F0FC0101900020E9F73197AF01E4
:10062000481B590BBC0181EB93E00C94CC0680E095
:1006300090E008958F929F92AF92BF920F931F9375
:10064000CF93DF93CDB7DEB7A1970FB6F894DEBF97
:100650000FBECDBF19A2423008F44AE08E010F5DF3
:100660001F4F842E912CA12CB12CA50194010E9426
:10067000A813E62FB901CA0101501109EA3014F498
:10068000E05D01C0E95CD801EC93232B242B252BE2
:1006900061F7C8010E940803A1960FB6F894DEBF67
:1006A0000FBECDBFDF91CF911F910F91BF90AF9043
:1006B0009F908F900895CF92DF92EF92FF92CF9309
:1006C000DF936B017C016DE281EB93E00E94730785
:1006D000EC0166277727CB016C197D098E099F09EC
:1006E0004AE00E941A038C0F9D1FDF91CF91FF906B
:1006F000EF90DF90CF900895BC01990F880B990B74
:1007000097FD0C945B034AE00C941A03CF93DF939C
:10071000BC01990F880B990B97FF03C00E945B03E4
:1007200003C04AE00E941A03EC018FE392E00E94AA
:1007300008038C0F9D1FDF91CF910895CF93DF9316
:100740000E940803EC018FE392E00E9408038C0FE3
:100750009D1FDF91CF9108950F931F93CF93DF9348
:10076000162F072FC4E6D5E09C8521E020932406B0
:10077000909345061092690210926A02AA85BB8581
:10078000ED91FC9111970190F081E02D682FCD0142
:1007900019958A859B85DC01ED91FC910190F08192
:1007A000E02D602F19958A859B85DC01ED91FC91E8
:1007B0000190F081E02D612F1995DF91CF911F916C
:1007C0000F910C94C801FC01248131E03093240680
:1007D000209345061092690210926A028485682B64
:1007E0008BE692E00E94B1020C94C8010F931F9314
:1007F000CF938C01C62F64600E94E3036C2F6B7F44
:10080000C8010E94E30383EC90E00197F1F7CF91D8
:100810001F910F910895FC01A089B1898C91A6893F
:10082000B78982FD0FC09C91818D8F5F8F73228D60
:10083000821749F0218DDF01A20FB11D5D969C93B7
:10084000818F08958C9108951F920F920FB60F9289
:1008500011240F900FBE0F901F9018951F920F92AA
:100860000FB60F9211240BB60F922F933F934F9315
:100870005F936F937F938F939F93AF93BF93EF9308
:10088000FF938091B900887F803609F49CC068F599
:10089000883209F45BC090F4803109F454C038F414
:1008A000882309F4F6C0883009F44DC0F6C08831B9
:1008B00009F44CC0803209F45DC0EFC0803409F403
:1008C00068C048F4803309F455C0883309F0E5C0A6
:1008D00080932306D8C0803509F44FC0883509F4C9
:1008E0005DC0883409F0D9C0D6C0883909F4C7C0C2
:1008F000A8F4883709F467C038F4883609F463C06F
:10090000803709F460C0C9C0883809F4B8C080399C
:1009100009F45FC0803809F0C0C05BC0803B09F4B7
:1009200086C038F4803A09F466C0883A09F47FC07A
:10093000B4C0803C09F4A7C0883C09F4A4C0883B3B
:1009400009F48AC0AAC08091000610C090912206C6
:1009500080912106981770F5E091220681E08E0FB4
:1009600080932206F0E0EF5FF94F80818093BB0017
:1009700085EC86C0809323068EC0E091220681E03C
:100980008E0F809322068091BB00F0E0EF5FF94F5D
:10099000808390912206809121066EC0E09122060C
:1009A00081E08E0F809322068091BB00F0E0EF5F24
:1009B000F94F80838091670281116DC081E080933F
:1009C000660284EA61C083E0809368021092FD05AC
:1009D000CFCF8091FD05803208F051C0E091FD0538
:1009E00081E08E0F8093FD058091BB00F0E0E35223
:1009F000FA4F8083BDCF85EC8093BC0010926802D3
:100A00008091FD05803230F4E091FD05F0E0E35285
:100A1000FA4F10826091FD0570E0E0916402F09160
:100A200065028DED95E019951092FD0536C084E0C4
:100A3000809368021092DC051092DB05E09162025F
:100A4000F091630219958091DB05811105C081E069
:100A50008093DB051092BB05E091DC0581E08E0FF1
:100A60008093DC05F0E0E554FA4F80818093BB0071
:100A70009091DC058091DB05981708F479CF85E823
:100A80008093BC000AC085EC8093BC001092680281
:100A900004C0109223060E942402FF91EF91BF919F
:100AA000AF919F918F917F916F915F914F913F9106
:100AB0002F910F900BBE0F900FBE0F901F901895A7
:100AC0001F93CF93DF93282F30E0F901E655FD4FB8
:100AD0008491F901EC59FD4FD491F901E25EFD4F8B
:100AE000C491CC23C1F0162F81110E94F005EC2F88
:100AF000F0E0EE0FFF1FEC5FFD4FA591B4919FB7A3
:100B0000F894111104C08C91D095D82302C0EC91B7
:100B1000DE2BDC939FBFDF91CF911F9108953FB7EC
:100B2000F89480910E0790910F07A0911007B09153
:100B3000110726B5A89B05C02F3F19F00196A11DEE
:100B4000B11D3FBFBA2FA92F982F8827820F911D63
:100B5000A11DB11DBC01CD0142E0660F771F881FAA
:100B6000991F4A95D1F708958F929F92AF92BF92A5
:100B7000CF92DF92EF92FF926B017C010E948F0572
:100B80004B015C01C114D104E104F104F1F00E94B5
:100B90008F05DC01CB0188199909AA09BB09883E98
:100BA0009340A105B10570F321E0C21AD108E10814
:100BB000F10888EE880E83E0981EA11CB11CC114B8
:100BC000D104E104F10419F7DDCFFF90EF90DF903D
:100BD000CF90BF90AF909F908F9008950E948C16F9
:100BE00090E0FC013197E231F10508F04EC0882712
:100BF000EE58FF4F8F4F0C94D613809180008F7763
:100C000003C0809180008F7D809380000895809143
:100C10008000877FF9CF84B58F7702C084B58F7D40
:100C200084BD08958091B0008F7703C08091B0009B
:100C30008F7D8093B0000895809190008F7707C0DA
:100C4000809190008F7D03C080919000877F80937A
:100C5000900008958091A0008F7707C08091A00038
:100C60008F7D03C08091A000877F8093A0000895AE
:100C7000809120018F7707C0809120018F7D03C074
:100C800080912001877F809320010895CF93DF9387
:100C900090E0FC01EC59FD4F2491FC01E25EFD4F18
:100CA0008491882361F190E0880F991FFC01E05145
:100CB000FD4FC591D491FC01EC5FFD4FA591B4911E
:100CC000611109C09FB7F894888120958223888399
:100CD000EC912E230BC0623061F49FB7F8948881A9
:100CE000322F309583238883EC912E2B2C939FBF3A
:100CF00006C08FB7F894E8812E2B28838FBFDF9131
:100D0000CF9108951F920F920FB60F9211242F9337
:100D10003F938F939F93AF93BF9380910A079091D6
:100D20000B07A0910C07B0910D073091090723E044
:100D3000230F2D3720F40196A11DB11D05C026E813
:100D4000230F0296A11DB11D2093090780930A0766
:100D500090930B07A0930C07B0930D0780910E079B
:100D600090910F07A0911007B09111070196A11D56
:100D7000B11D80930E0790930F07A0931007B093B7
:100D80001107BF91AF919F918F913F912F910F903C
:100D90000FBE0F901F901895CF92DF92EF92FF92A7
:100DA0000F931F93CF93DF936C017A018B01C0E007
:100DB000D0E0CE15DF0581F0D8016D918D01D6010F
:100DC000ED91FC910190F081E02DC6011995892BE0
:100DD00011F02196EECF7E01C701DF91CF911F91D7
:100DE0000F91FF90EF90DF90CF900895FC01538D0D
:100DF000448D252F30E0842F90E0821B930B5417F5
:100E000010F0CF96089501970895FC01918D828D81
:100E1000981761F0828DDF01A80FB11D5D968C914E
:100E2000928D9F5F9F73928F90E008958FEF9FEF59
:100E30000895FC01918D828D981731F0828DE80F15
:100E4000F11D858D90E008958FEF9FEF0895FC01CF
:100E5000918D228D892F90E0805C9F4F821B91099C
:100E60008F739927089587E792E00E94270721E072
:100E7000892B09F420E0822F089584E193E00E94F9
:100E8000270721E0892B09F420E0822F089581EBC8
:100E900093E00E94270721E0892B09F420E0822FAC
:100EA0000895FC01848DDF01A80FB11DA35ABF4F27
:100EB0002C91848D90E001968F739927848FA68959
:100EC000B7892C93A089B1898C91837080648C93AD
:100ED000938D848D981306C00288F389E02D80815C
:100EE0008F7D80830895EF92FF920F931F93CF938E
:100EF000DF93EC0181E0888F9B8D8C8D981305C06A
:100F0000E889F989808185FD26C0F62E0B8D10E0D9
:100F10000F5F1F4F0F731127E02E8C8DE8120CC04E
:100F20000FB607FCFACFE889F989808185FFF5CFF4
:100F3000CE010E945107F1CF8B8DFE01E80FF11D0C
:100F4000E35AFF4FF0829FB7F8940B8FEA89FB8931
:100F5000808180620AC09FB7F894EE89FF89608320
:100F6000E889F98980818370806480839FBF81E0F4
:100F700090E0DF91CF911F910F91FF90EF90089536
:100F8000CF93DF93EC01888D8823C9F0EA89FB8930
:100F9000808185FD05C0A889B9898C9186FD0FC027
:100FA0000FB607FCF5CF808185FFF2CFA889B989FC
:100FB0008C9185FFEDCFCE010E945107E7CFDF91E5
:100FC000CF910895E0E0F0E0199480E090E0892B63
:100FD00021F00E944707811119C080E090E0892B21
:100FE00041F080E090E0892B21F00E940000811107
:100FF00010C00E943D0781110FC080E090E0892B56
:1010000081F00E94330781110AC008950E940000F8
:10101000E4CF0E940000EDCF0E94E207EECF0C94D7
:1010200000000895089580E090E008950F931F93C5
:10103000CF93DF938C01C62FD62FD07FD1606D2F39
:101040000E94E3036D2FC8010E94F60380E1C89F50
:10105000B0011124C62FC1606C2FC8010E94E303A8
:101060006C2FC8010E94F60381E090E0DF91CF91E0
:101070001F910F9108951F920F920FB60F92112496
:101080000BB60F922F933F934F935F936F937F9382
:101090008F939F93AF93BF93EF93FF9380912D070F
:1010A00090912E07A0912F07B0913007892B8A2BA2
:1010B0008B2B49F190912C07809100008927809318
:1010C000000080912D0790912E07A0912F07B091DD
:1010D0003007181619061A061B060CF056C0809128
:1010E0002D0790912E07A0912F07B09130070197FF
:1010F000A109B10980932D0790932E07A0932F0784
:10110000B093300742C080910002E4E2F3E0E49142
:101110009FEF90930002E230C9F050F4EE2399F073
:10112000E13081F590916F009D7F90936F002AC010
:10113000E43019F1E0F0E53029F5909173009D7FDE
:10114000909373001FC010926E001CC090917000AD
:101150009D7F9093700091E09093B0009091B100CA
:10116000987F94609093B1001092B3000BC090915F
:1011700071009D7F9093710005C0909172009D7FDA
:101180009093720060E00E946005FF91EF91BF9123
:10119000AF919F918F917F916F915F914F913F910F
:1011A0002F910F900BBE0F900FBE0F901F901895B0
:1011B0001F920F920FB60F9211240BB60F922F931E
:1011C0003F934F935F936F937F938F939F93AF93CF
:1011D000BF93EF93FF9387E792E00E945107FF913F
:1011E000EF91BF91AF919F918F917F916F915F919F
:1011F0004F913F912F910F900BBE0F900FBE0F900C
:101200001F9018951F920F920FB60F9211240BB6D4
:101210000F922F933F934F935F936F937F938F938F
:101220009F93AF93BF93EF93FF9387E792E00E9462
:101230000B04FF91EF91BF91AF919F918F917F919F
:101240006F915F914F913F912F910F900BBE0F9037
:101250000FBE0F901F9018951F920F920FB60F920E
:1012600011240BB60F922F933F934F935F936F937D
:101270007F938F939F93AF93BF93EF93FF9384E1FB
:1012800093E00E945107FF91EF91BF91AF919F9121
:101290008F917F916F915F914F913F912F910F901F
:1012A0000BBE0F900FBE0F901F9018951F920F92BC
:1012B0000FB60F9211240BB60F922F933F934F93BB
:1012C0005F936F937F938F939F93AF93BF93EF93AE
:1012D000FF9384E193E00E940B04FF91EF91BF9193
:1012E000AF919F918F917F916F915F914F913F91BE
:1012F0002F910F900BBE0F900FBE0F901F9018955F
:101300001F920F920FB60F9211240BB60F922F93CC
:101310003F934F935F936F937F938F939F93AF937D
:10132000BF93EF93FF9381EB93E00E945107FF91EE
:10133000EF91BF91AF919F918F917F916F915F914D
:101340004F913F912F910F900BBE0F900FBE0F90BA
:101350001F9018951F920F920FB60F9211240BB683
:101360000F922F933F934F935F936F937F938F933E
:101370009F93AF93BF93EF93FF9381EB93E00E9412
:101380000B04FF91EF91BF91AF919F918F917F914E
:101390006F915F914F913F912F910F900BBE0F90E6
:1013A0000FBE0F901F9018951F920F920FB60F92BD
:1013B00011240BB60F922F933F934F935F936F932C
:1013C0007F938F939F93AF93BF93CF93DF93EF93CD
:1013D000FF9320914F0430E0F901E655FD4F8491D1
:1013E000F901EC59FD4FD491F901E25EFD4FC49132
:1013F000CC2379F081110E94F005EC2FF0E0EE0F84
:10140000FF1FE65FFC4FA591B491EC91ED2381E0C5
:1014100009F480E020915304309154042F5F3F4F32
:10142000309354042093530490915204953618F04D
:1014300096E090934E0490914E049430C9F128F4B4
:10144000923069F09330D1F05EC0953009F451C00C
:10145000963009F058C091E090931F0551C081115A
:1014600052C020915304309154042436310508F4BD
:1014700042C010921F05109252041CC0813009F026
:1014800042C0E091520491E09E0F90935204F0E02C
:101490002091530430915404EE0FFF1FE25BFB4F89
:1014A00030872783109254041092530494E029C08B
:1014B000811117C0E091520491E09E0F9093520465
:1014C000F0E02091530430915404EE0FFF1FE25BD3
:1014D000FB4F30872783109254041092530493E0FB
:1014E00010C020915304309154042536310558F032
:1014F00007C0811108C0109254041092530403C015
:1015000095E090934E04909151049923B9F0811184
:101510000AC080915004882321F08091500461E03A
:1015200009C02F9A0BC080915004882331F080911C
:10153000500460E00E94600501C02F98FF91EF9178
:10154000DF91CF91BF91AF919F918F917F916F91DB
:101550005F914F913F912F910F900BBE0F900FBE57
:101560000F901F9018958F929F92AF92BF92CF923B
:10157000DF92EF92FF920F931F93CF93DF938C0133
:101580006A017B0120E030E04FE753E4C701B60178
:101590000E94EA124B015C0120E030E0A9010E94A8
:1015A000811418161CF4C501B40103C0C501B401AF
:1015B00090580E944B14EB0120E030E0A901C701D4
:1015C000B6010E948114181614F460E001C061E0B5
:1015D000F80181810E946005CF3FD10509F014F424
:1015E000DD2702C0CFEFD0E0F801108161E0812F4C
:1015F0000E944606209709F4B1C0CF3FD10509F4F7
:10160000AFC0E12FF0E0E655FD4FE4918E2F90E062
:10161000FC013197E231F10508F09DC08827EC57B5
:10162000FF4F8F4F0C94D61384B5806884BDC7BD1F
:10163000A7C084B5806284BDC8BDA2C0809180006F
:10164000806880938000D0938900C093880098C000
:1016500080918000806280938000D0938B00C09343
:101660008A008EC080918000886080938000D09333
:101670008D00C0938C0084C08091B00080688093FE
:10168000B000C093B3007CC08091B00080628093B2
:10169000B000C093B40074C08091900080688093C3
:1016A0009000D0939900C09398006AC080919000F8
:1016B000806280939000D0939B00C0939A0060C09A
:1016C00080919000886080939000D0939D00C0939B
:1016D0009C0056C08091A00080688093A0008091FB
:1016E000A0008F7B8093A000D093A900C093A80096
:1016F00047C08091A00080628093A000D093AB008F
:10170000C093AA003DC08091A00088608093A00093
:10171000D093AD00C093AC0033C0809120018068AD
:1017200080932001D0932901C093280129C0809182
:101730002001806280932001D0932B01C0932A0165
:101740001FC080912001886080932001D0932D01DB
:10175000C0932C0115C0C038D10514F460E001C05D
:1017600061E0812FDF91CF911F910F91FF90EF905A
:10177000DF90CF90BF90AF909F908F900C946005BA
:10178000DF91CF911F910F91FF90EF90DF90CF905D
:10179000BF90AF909F908F9008958EBD00000DB4C4
:1017A00007FEFDCF8EB50895CF93DF93EC0160E087
:1017B00088810E94600588E90E94CD0B80E00E942C
:1017C000CD0B80E00E94CD0B80E00E94CD0B80E02D
:1017D0000E94CD0B61E088810E9460058BE891E05A
:1017E0000197F1F760E088810E94600580EE0E9419
:1017F000CD0B61E08881DF91CF910C946005AF92B1
:10180000BF92CF92DF92EF92FF920F931F93CF93ED
:10181000DF93CDB7DEB760970FB6F894DEBF0FBE8B
:10182000CDBF5C0160E0FC0180810E94600580E624
:101830000E94CD0B8E010F5F1F4F7E01F1E1EF0E75
:10184000F11C680180E00E94CD0B90E0A0E0B0E0C8
:10185000F60181939193A193B1936F01EE15FF056A
:1018600089F761E0F50180810E94600580E090E0E9
:10187000DC01F80141915191619171918F01BA2F71
:10188000A92F982F8827840F951FA61FB71FEE1525
:10189000FF0579F79C01AD0166277727CB01621B15
:1018A000730B840B950B60960FB6F894DEBF0FBEDA
:1018B000CDBFDF91CF911F910F91FF90EF90DF90FF
:1018C000CF90BF90AF9008951F920F920FB60F92D6
:1018D00011240BB60F922F933F934F935F936F9307
:1018E0007F938F939F93AF93BF93EF93FF938091D9
:1018F0002B0787FF05C0109285001092840016C048
:1019000020912B07022E000C330B80915C0590E098
:10191000281739075CF430912B0725E03203F001DA
:101920001124E05EFA4F808186FD15C080912B075F
:101930008F5F80932B0720912B07022E000C330B17
:1019400080915C0590E02817390794F480912B076B
:101950008C302CF10DC030912B073203F001112493
:10196000E05EFA4F808160E08F730E946005DECFF9
:10197000809184009091850084349C4918F480E41F
:101980009CE905C080918400909185000496909315
:101990008900809388008FEF80932B072AC04091A5
:1019A00084005091850030912B0725E03203F0012F
:1019B0001124E05EFA4F81819281840F951F9093EC
:1019C00089008093880030912B073203F0011124A5
:1019D000E05EFA4F808186FF0CC030912B07320306
:1019E000F0011124E05EFA4F808161E08F730E9464
:1019F0006005FF91EF91BF91AF919F918F917F9182
:101A00006F915F914F913F912F910F900BBE0F906F
:101A10000FBE0F901F901895CF92DF92EF92FF921A
:101A2000823040F086E492E00E949E0360E070E025
:101A3000CB0120C0811112C081E895E00E94FF0B0C
:101A40006B017C0181E895E00E94D40B6627772723
:101A5000CB016C197D098E099F090CC083E895E0C4
:101A60000E94FF0B6B017C0183E895E00E94D40B80
:101A7000B601C701FF90EF90DF90CF900895CF920D
:101A8000DF92EF92FF920F931F93CF93DF938B011F
:101A900069017A01EC01C61BD70B0E947C038AE521
:101AA00092E00E940803C8010E947C038AE592E04C
:101AB0000E940803CE010E948603BE01DD0F880B41
:101AC000990B0E948B122FE632E143E85AE30E9401
:101AD000EA12A70196010E94DF13DF91CF911F91B7
:101AE0000F91FF90EF90DF90CF90089510926E02CB
:101AF00010926D0288EE93E0A0E0B0E080936F0258
:101B000090937002A0937102B093720223E132E0CD
:101B100030936C0220936B0210927A021092790239
:101B200080937B0290937C02A0937D02B0937E020F
:101B300025E232E0309378022093770245E351E0CA
:101B4000509384024093830244E351E05093860211
:101B50004093850240E351E050938802409387020E
:101B600041E351E050938A024093890242E351E0FD
:101B700050938C0240938B0246E351E050938E02C7
:101B800040938D0210929002109291021092920254
:101B90001092930210921703109216038093180369
:101BA00090931903A0931A03B0931B03309315036A
:101BB0002093140345ED50E05093210340932003FC
:101BC00044ED50E0509323034093220340ED50E056
:101BD000509325034093240341ED50E05093270395
:101BE0004093260342ED50E050932903409328038D
:101BF00046ED50E050932B0340932A0310922D039F
:101C000010922E0310922F03109230031092B403FF
:101C10001092B3038093B5039093B603A093B703D8
:101C2000B093B8033093B2032093B10385EC90E0F6
:101C30009093BE038093BD0384EC90E09093C00327
:101C40008093BF0380EC90E09093C2038093C10324
:101C500081EC90E09093C4038093C30382EC90E006
:101C60009093C6038093C50386EC90E09093C803DD
:101C70008093C7031092CA031092CB031092CC0337
:101C80001092CD038091070290910802A091090261
:101C9000B0910A028093850590938605A0938705ED
:101CA000B093880580910B0290910C02A0910D02D7
:101CB000B0910E028093890590938A05A0938B05BD
:101CC000B0938C0584E080938D0587E080938E052A
:101CD00010928F0584EB8093900586E180939105A7
:101CE00088E18093920587E18093930589E1809351
:101CF0009405E0915C05EC3020F08FEF8093950522
:101D000010C081E08E0F80935C05E093950585E01F
:101D1000E89FF0011124E05EFA4F88EB9BE092838C
:101D20008183E0915C05EC3020F08FEF8093960585
:101D300010C081E08E0F80935C05E093960585E0EE
:101D4000E89FF0011124E05EFA4F88EB9BE092835C
:101D500081838CE08093640584E28093650586E04E
:101D60008093660585E0809367058FE18093680521
:101D70008EE18093690583E280936A0582E2809315
:101D80006B0585E480936C0584E480936D0580E4A5
:101D90008093700510927505109276051092770564
:101DA000109278051092790510927A0510927B05B1
:101DB00010927C05EAE4F6E028E037E08FEF9FEF31
:101DC000DC01128213821482158216821782108619
:101DD000118683879487A587B6878787908BA18B89
:101DE000B28B12861182108273962E173F0749F725
:101DF0008DE090E00E948614FC011382128287E33A
:101E000092E091838083118687E2848384E18287D4
:101E100084E083871486F0934706E0934606109289
:101E200048061092490685E280934F0410925104AF
:101E300010925E0510925D051092600510925F058C
:101E4000109262051092610561E070E080E090E020
:101E50000E94A715009789F090935E0580935D0519
:101E60001092600510925F05209161053091620526
:101E7000232BC1F4FC01108215C080915D05909167
:101E80005E05009711F00E941E1510925E051092DB
:101E90005D05109262051092610510926005109226
:101EA0005F050895109262051092610561E472E089
:101EB00080915D0590915E050C949A16789484B596
:101EC000826084BD84B5816084BD85B5826085BD36
:101ED00085B5816085BD80916E00816080936E00C4
:101EE00010928100809181008260809381008091B6
:101EF0008100816080938100809180008160809367
:101F000080008091B10084608093B1008091B00026
:101F100081608093B00080919100826080939100F5
:101F20008091910081608093910080919000816008
:101F3000809390008091A10082608093A1008091A5
:101F4000A10081608093A1008091A00081608093B6
:101F5000A000809121018260809321018091210164
:101F60008160809321018091200181608093200114
:101F700080917A00846080937A0080917A008260F8
:101F800080937A0080917A00816080937A008091BA
:101F90007A00806880937A001092C1000E94E0026B
:101FA00061E0809165050E94460660E080916505CC
:101FB0000E94600560E0809164050E9446068BE601
:101FC00092E090936F0580936E05109261021092DB
:101FD00060021092690210926A021092680281E017
:101FE000809367021092660261E084E10E946005BE
:101FF00061E085E10E9460058091B9008E7F809349
:10200000B9008091B9008D7F8093B90088E48093F6
:10201000B80085E48093BC0086E592E0909363026B
:102020008093620287E592E0909365028093640258
:1020300080E090E1A0E0B0E080937105909372059C
:10204000A0937305B09374058AE090E0A0E0B0E03F
:102050008093750590937605A0937705B0937805E6
:1020600080E090E0A0E0B0E48093790590937A0559
:10207000A0937B05B0937C0560E070E185E00E9451
:10208000AC036FE979E380E00E94AC03C4E6D5E0DD
:102090008E0152E0552E63E5862E62E0962E79E998
:1020A000672E72E0772EEBECEE2EE7E0FE2EF801C5
:1020B00094818281898F9A8F61E00E94460661E057
:1020C0008A8D0E944606F801908586815E01FDE1B9
:1020D000AF0EB11C8D8F9E8F61E00E94460660E0BE
:1020E0008E8D0E94460661E08D8D0E9460054FB680
:1020F000F89480910807811126C0F4018491F301BE
:102100002491E82FF0E0EE0FFF1FE051FD4FA59165
:10211000B4919C91822F892321F461E085E30E9490
:10212000600561E085E30E9446068CB580618CBD48
:102130008CB580648CBD61E084E30E94460661E05A
:1021400083E30E944606809108078F5F809308070B
:102150004FBEC7010197F1F760E08D8D0E946005C9
:1021600088E80E94CD0B83E00E94CD0B61E08D8D4D
:102170000E946005C7010197F1F7C5010E94D40BC9
:102180005A940F5F1F4F2296511091CF09E815E026
:10219000CDE8D5E060E0F80181918F010E9446060C
:1021A000F5E00D381F07B1F705E815E08FE8E82ED8
:1021B00085E0F82E95E0B92E2CE0922E32E0A32E89
:1021C00089908F818C3008F044C061E0882D0E9496
:1021D00046068F81B89EF0011124E05EFA4F982DDB
:1021E0009F732081207C822E892A80821382148210
:1021F000692D0E94CA132CE0829FA001112420E0C7
:1022000030E0BA01620F731FB69EF001B79EF00D69
:102210001124E05EFA4F908196FD12C02F5F3F4F70
:102220002C30310571F781110BC010928000A09203
:1022300081001092850010928400A6BAA0926F00CF
:10224000EF81BE9EF0011124E05EFA4F8081806430
:1022500080839D818B81F801828B938B60E00E944B
:10226000460661E0F80183890E94460660E0F801B5
:1022700083890E9460050E5F1F4FEC16FD0609F072
:102280009FCFF8941092200189E08093210180E291
:1022900093E09093290180932801109225011092D8
:1022A000240182E080937300789480934E0410920E
:1022B000520480914F0460E00E9446060E94E002B2
:1022C00081E00E940C0D80E00E940C0D82E492E0FF
:1022D0000E949E0387E394E30E948603812C912C45
:1022E000540124013501C0E0D0E020E030E0A90134
:1022F000C301B2010E948412811168C020E030E065
:10230000A901C501B4010E94841281115FC003E3D9
:1023100010E0412C512C320183E895E00E94FF0B24
:102320004B015C0181E895E00E94FF0BC80DD91DAF
:1023300090958095709561957F4F8F4F9F4FA3012A
:102340009201C4010E943F0D4B015C01B301A20147
:1023500070588FE795E00E94B30AB501A4018DE79C
:1023600095E00E94B30AC733F4E3DF07A4F084E4E6
:1023700092E00E949E0340E050E060E070E88FE74A
:1023800095E00E94B30A40E050E0BA018DE795E085
:102390000E94B30A9BC081E00E940C0D80E00E9465
:1023A0000C0D64E170E080E090E00E94B4052AE04A
:1023B00037ED43E25CE3C301B2010E94DF13015039
:1023C000110909F492CF2B013C01A6CF83E895E0D7
:1023D0000E94FF0B4B015C017B0181E895E00E94AC
:1023E000FF0B002711279801061B170B280B390B31
:1023F000C80DD91DC73B27E2D2070CF44EC05301CC
:1024000042012DEC3CEC4CE45EE3C501B4010E94BA
:10241000811487FD42C083E895E00E94FF0B2B01E9
:102420003C017B0181E895E00E94FF0B909580952F
:10243000709561957F4F8F4F9F4F8B01C40DD51DB8
:10244000A5019401C2010E943F0D2B013C01B50181
:10245000A40170588FE795E00E94B30AB301A2016E
:102460008DE795E00E94B30A81E00E940C0D80E0A8
:102470000E940C0D64E170E080E090E00E94B405E1
:102480002AE037ED43E25CE3C501B4010E94DE13AC
:10249000240135014B015C01B4CFA3019201B801C5
:1024A000C7010E943F0D4B015C0181E00E940C0DB1
:1024B00080E00E940C0D6AE070E080E090E00E94F5
:1024C000B405C73384E3D8070CF40FCF40E050E0E5
:1024D00060E070E88FE795E00E94B30A40E050E0CA
:1024E000BA018DE795E00E94B30A64E670E080E0EF
:1024F00090E00E94B4050E94E507FDCF80915D0544
:1025000090915E050C941E150E94C61208F481E09D
:102510000895E89409C097FB3EF4909580957095D6
:1025200061957F4F8F4F9F4F9923A9F0F92F96E91F
:10253000BB279395F695879577956795B795F11194
:10254000F8CFFAF4BB0F11F460FF1BC06F5F7F4F31
:102550008F4F9F4F16C0882311F096E911C0772343
:1025600021F09EE8872F762F05C0662371F096E84C
:10257000862F70E060E02AF09A95660F771F881F1B
:10258000DAF7880F9695879597F90895990F0008BF
:10259000550FAA0BE0E8FEEF16161706E807F90735
:1025A000C0F012161306E407F50798F0621B730BD0
:1025B000840B950B39F40A2661F0232B242B252B51
:1025C00021F408950A2609F4A140A6958FEF811DF4
:1025D000811D08950E94FD120C946E130E946013D9
:1025E00038F00E94671320F0952311F00C945713D4
:1025F0000C945D1311240C94A2130E947F1370F3AA
:10260000959FC1F3950F50E0551F629FF001729F97
:10261000BB27F00DB11D639FAA27F00DB11DAA1FA6
:10262000649F6627B00DA11D661F829F2227B00DF3
:10263000A11D621F739FB00DA11D621F839FA00D7E
:10264000611D221F749F3327A00D611D231F849FCE
:10265000600D211D822F762F6A2F11249F57504025
:102660009AF0F1F088234AF0EE0FFF1FBB1F661FA0
:10267000771F881F91505040A9F79E3F510580F069
:102680000C9457130C94A2135F3FE4F3983ED4F3D9
:10269000869577956795B795F795E7959F5FC1F70D
:1026A000FE2B880F911D9695879597F9089597F9B8
:1026B0009F6780E870E060E008959FEF80EC0895E8
:1026C00000240A9416161706180609060895002411
:1026D0000A9412161306140605060895092E03948B
:1026E000000C11F4882352F0BB0F40F4BF2B11F4FF
:1026F00060FF04C06F5F7F4F8F4F9F4F089557FD5E
:102700009058440F551F59F05F3F71F04795880F5F
:1027100097FB991F61F09F3F79F0879508951216F6
:1027200013061406551FF2CF4695F1DF08C01616A2
:1027300017061806991FF1CF869571056105089453
:102740000895E894BB2766277727CB0197F908956A
:10275000A1E21A2EAA1BBB1BFD010DC0AA1FBB1FA5
:10276000EE1FFF1FA217B307E407F50720F0A21B17
:10277000B30BE40BF50B661F771F881F991F1A9484
:1027800069F760957095809590959B01AC01BD01AE
:10279000CF010895991B79E004C0991F961708F09E
:1027A000961B881F7A95C9F780950895EE0FFF1F35
:1027B000881F8BBF0790F691E02D19945058BB27C6
:1027C000AA270E94F6130C946E130E94601338F02F
:1027D0000E94671320F039F49F3F19F426F40C94FB
:1027E0005D130EF4E095E7FB0C945713E92F0E945C
:1027F0007F1358F3BA17620773078407950720F011
:1028000079F4A6F50C94A1130EF4E0950B2EBA2FD3
:10281000A02D0B01B90190010C01CA01A0011124E6
:10282000FF27591B99F0593F50F4503E68F11A1692
:10283000F040A22F232F342F4427585FF3CF469523
:1028400037952795A795F0405395C9F77EF41F1645
:10285000BA0B620B730B840BBAF09150A1F0FF0F0F
:10286000BB1F661F771F881FC2F70EC0BA0F621FFB
:10287000731F841F48F4879577956795B795F795EB
:102880009E3F08F0B0CF9395880F08F09927EE0F80
:102890009795879508950E9452146894B1110C94ED
:1028A000A21308950E94871388F09F5798F0B92FBC
:1028B0009927B751B0F0E1F0660F771F881F991F75
:1028C0001AF0BA95C9F714C0B13091F00E94A11363
:1028D000B1E008950C94A113672F782F8827B85F73
:1028E00039F0B93FCCF3869577956795B395D9F7CD
:1028F0003EF490958095709561957F4F8F4F9F4FD7
:1029000008950E94C61208F48FEF08950F931F9345
:10291000CF93DF938230910510F482E090E0E09154
:102920003307F091340720E030E0A0E0B0E03097CA
:1029300019F1408151810281138148175907C8F06C
:102940008417950769F4109731F012960C9312973B
:1029500013961C9327C0009333071093340722C0AB
:102960002115310519F04217530718F49A01BD01DA
:10297000EF01DF01F801DBCF21153105F9F0281B4C
:10298000390B2430310580F48A819B8161157105F2
:1029900021F0FB019383828304C0909334078093DA
:1029A0003307FE01329644C0FE01E20FF31F81930C
:1029B000919322503109398328833AC020913107FD
:1029C00030913207232B41F420910302309104020D
:1029D0003093320720933107209101023091020297
:1029E0002115310541F42DB73EB7409105025091B4
:1029F0000602241B350BE0913107F0913207E217F4
:102A0000F307A0F42E1B3F0B2817390778F0AC0111
:102A10004E5F5F4F2417350748F04E0F5F1F5093EE
:102A20003207409331078193919302C0E0E0F0E0D8
:102A3000CF01DF91CF911F910F910895CF93DF9335
:102A4000009709F481C0FC01329713821282A09191
:102A50003307B0913407109781F420813181820FC0
:102A6000931F20913107309132072817390751F50C
:102A7000F0933207E093310767C0ED0120E030E0CA
:102A8000CE17DF0740F44A815B819E014115510555
:102A9000F1F0EA01F5CFD383C28340815181840FE5
:102AA000951FC817D90759F488819981840F951FFC
:102AB0000296918380838A819B81938382832115EF
:102AC000310529F4F0933407E09333073DC0E90161
:102AD000FB83EA8349915991C40FD51FEC17FD0779
:102AE00061F480819181840F951F0296E901998399
:102AF0008883828193819B838A83E0E0F0E0129651
:102B00008D919C911397009719F0FD01DC01F7CF8F
:102B10008D919C9111979D012E5F3F4F820F931FC6
:102B200020913107309132072817390769F430971F
:102B300029F4109234071092330702C013821282D4
:102B4000B0933207A0933107DF91CF9108956F9230
:102B50007F928F929F92AF92BF92CF92DF92EF922D
:102B6000FF920F931F93CF93DF93009789F4CB01CC
:102B7000DF91CF911F910F91FF90EF90DF90CF9059
:102B8000BF90AF909F908F907F906F900C94861421
:102B9000FC01E60FF71F9C0122503109E217F307F1
:102BA00008F4A9C0EC01D9010D911C9111970617E9
:102BB0001707B0F00530110508F49BC0C801049751
:102BC0008617970708F495C002501109061B170BCA
:102BD000019311936D937C93CF010E941E1589C0C0
:102BE0005B01A01AB10A4C01800E911EA09133071F
:102BF000B0913407612C712CE12CF12C109709F461
:102C000046C08D919C911197A815B905B1F56C013D
:102C100042E0C40ED11CCA14DB0478F14C018A18BE
:102C20009B08640142E0C40ED11C1296BC9012971E
:102C30001396AC91B5E0CB16D10440F0B282A383D9
:102C400091828082D9016D937C9309C00E5F1F4FE2
:102C5000800F911FF90191838083EB2DFA2FE114EE
:102C6000F10431F0D7011396FC93EE93129741C013
:102C7000F0933407E09333073CC06816790608F4F4
:102C80003C017D0112960D90BC91A02DB7CF809193
:102C900031079091320788169906E1F46616770697
:102CA000C8F48091010290910202009741F48DB71F
:102CB0009EB74091050250910602841B950BE817C0
:102CC000F907C8F4F0933207E0933107F9017183F3
:102CD00060830FC0CB010E9486147C01009759F0DD
:102CE000A801BE010E949116CE010E941E15C701C7
:102CF00004C0CE0102C080E090E0DF91CF911F912F
:102D00000F91FF90EF90DF90CF90BF90AF909F908A
:102D10008F907F906F90089581E090E0F8940C94EC
:102D2000A116FB01DC0102C001900D924150504000
:102D3000D8F70895FB01DC0101900D920020E1F726
:102D4000089511E0C4E9D1E000E006C0802FFE0143
:102D50000E94D6132196011DC539D10780E00807CE
:062D6000A9F7F894FFCF73
:102D6600FF000035072000363738391B1D1A1C00B6
:102D7600000000B1028402130858027C026802595E
:102D860002000000007307CC06F606C007270705F9
:102D9600071907000000001608CC06130812080DD4
:102DA6000A0031003500496E76616C696420656EF3
:102DB600636F646572206964210020202020000072
:00000001FF
