:100000000C9495010C94C6010C94C6010C94C60185
:100010000C94C6010C94C6010C94C6010C94C60144
:100020000C94C6010C9471090C9471090C9471091B
:100030000C94C6010C9439030C94C6010C94C601AF
:100040000C94C6010C9462070C94C6010C94C60172
:100050000C94C6010C94C6010C94C6010C94620D5C
:100060000C94C6010C94A8040C947E040C94C60154
:100070000C94C6010C94C6010C94C6010C94C601E4
:100080000C94C6010C94C6010C94C6010C94C601D4
:100090000C94C6010C94C6010C94C6010C947B0907
:1000A0000C94C6010C94C6010C94C6010C94C601B4
:1000B0000C94C6010C94C6010C94C6010C94D20495
:1000C0000C94C6010C94C6010C94C6010C94540403
:1000D0000C942A040C94C6010C9400040C94D603CE
:1000E0000C94C601120617061C0626063006A90641
:1000F0003A0642064A0654065E06680677068106F8
:10010000A9068B0695069F06C80ACB0ABA0ABE0A3C
:10011000C40A020BCF0AD30AD90ADD0AE10AE70AA8
:10012000EB0AEF0A020BF50AF90AFD0A0C948108A2
:100130000C94CB0A0C94BC020C94E70A0C94BE0AF3
:100140000C94F50A0C940E030C94F90A0C94BA0A58
:100150000C9415020C94020B0C9400110C9495084D
:100160000C949F060C9454060C946F080C9472081F
:100170000C94FD0A0C94E10A0C9442060C94D30AE8
:100180000C948B060C9468060C94A9060C94C80A6F
:100190000C94D90A0C9477060C9471080C94F20113
:1001A0000C949D080C94FA100C944A060C94950635
:1001B0000C9481060C9417060C94EB0A0C94230201
:1001C0000C94C40A0C940F030C94DD0A0C941403D1
:1001D0000C9412060C94EF0A0C9401020C946F021A
:1001E0000C9470080C9430060C9426060C94C801EC
:1001F0000C943A060C94CA080C94CF0A0C941C0672
:100200000C945E06000020002300260029002C002C
:100210002F00320000010000030106010901020065
:10022000002100240027002A002D003000330001A7
:10023000010000040107010A010000220025002836
:10024000002B002E003100340002010000050108DF
:10025000010B01050505050705080808080202024B
:10026000020A0A0808040404040101010101010151
:10027000010303030303030303040707070C0C0C28
:100280000C0C0C0C0C020202020606060606060600
:10029000060B0B0B0B0B0B0B0B010210202008089D
:1002A00010204010204080020102010804020101D8
:1002B00002040810204080804020100804020180C1
:1002C0000402018040201008040201080402010118
:1002D0000204081020408001020408102040800021
:1002E000000A0B02090C0D0E0807030401000000B0
:1002F00000000000000000000000000000000000FE
:1003000000000000000000000000001211100000BA
:1003100000000000000000000000000000000000DD
:100320000000000000000011FA1011241FBECFEFE2
:10033000D1E2DEBFCDBF00E00CBF12E0A0E0B2E032
:10034000E4E2FEE200E00BBF02C007900D92A0368F
:10035000B107D9F727E0A0E6B2E001C01D92A533AE
:10036000B207E1F711E0C4E9D1E000E006C021974F
:100370000109802FFE010E943514C339D10780E0A6
:100380000807A9F70E94AC0D0C9400170C9400000C
:10039000CF92DF92EF92FF920F931F93CF93DF9351
:1003A0006C017A018B01C0E0D0E0CE15DF0581F051
:1003B000D8016D918D01D601ED91FC910190F081F4
:1003C000E02DC6011995892B11F02196EECF7E0103
:1003D000C701DF91CF911F910F91FF90EF90DF90B8
:1003E000CF900895FC01538D448D252F30E0842F4C
:1003F00090E0821B930B541710F0CF96089501974D
:100400000895FC01918D828D981761F0828DDF0136
:10041000A80FB11D5D968C91928D9F5F9F73928FF7
:1004200090E008958FEF9FEF0895FC01918D828DEC
:10043000981731F0828DE80FF11D858D90E00895B9
:100440008FEF9FEF0895FC01918D228D892F90E011
:10045000805C9F4F821B91098F739927089582E4D6
:1004600093E00E94230221E0892B09F420E0822FEF
:1004700008958FED93E00E94230221E0892B09F477
:1004800020E0822F08958CE794E00E94230221E06F
:10049000892B09F420E0822F0895FC01848DDF016F
:1004A000A80FB11DA35ABF4F2C91848D90E00196E7
:1004B0008F739927848FA689B7892C93A089B189D6
:1004C0008C91837080648C93938D848D981306C077
:1004D0000288F389E02D80818F7D80830895EF92DB
:1004E000FF920F931F93CF93DF93EC0181E0888FEE
:1004F0009B8D8C8D981305C0E889F989808185FDD5
:1005000026C0F62E0B8D10E00F5F1F4F0F731127C3
:10051000E02E8C8DE8120CC00FB607FCFACFE889EC
:10052000F989808185FFF5CFCE010E944D02F1CF80
:100530008B8DFE01E80FF11DE35AFF4FF0829FB74C
:10054000F8940B8FEA89FB89808180620AC09FB78B
:10055000F894EE89FF896083E889F9898081837046
:10056000806480839FBF81E090E0DF91CF911F91F5
:100570000F91FF90EF900895CF93DF93EC01888D5A
:100580008823C9F0EA89FB89808185FD05C0A88997
:10059000B9898C9186FD0FC00FB607FCF5CF80811D
:1005A00085FFF2CFA889B9898C9185FFEDCFCE0167
:1005B0000E944D02E7CFDF91CF910895E0E0F0E097
:1005C000199480E090E0892B21F00E944302811170
:1005D00019C080E090E0892B41F080E090E0892B09
:1005E00021F00E940000811110C00E943902811187
:1005F0000FC080E090E0892B81F00E942F028111D2
:100600000AC008950E940000E4CF0E940000EDCFD0
:100610000E94DE02EECF0C9400000895089580E061
:1006200090E008950E94EB160F931F93CF93DF93F2
:100630008C01C62FD62FD07FD1606D2F0E9430093C
:100640006D2FC8010E94430980E1C89FB0011124A9
:10065000C62FC1606C2FC8010E9430096C2FC801E1
:100660000E94430981E090E0DF91CF911F910F91AB
:1006700008951F920F920FB60F9211240BB60F928E
:100680002F933F934F935F936F937F938F939F939A
:10069000AF93BF93EF93FF9380917C0290917D0283
:1006A000A0917E02B0917F02892B8A2B8B2B49F17E
:1006B00090917B02809100008927809300008091B7
:1006C0007C0290917D02A0917E02B0917F0218166B
:1006D00019061A061B060CF056C080917C029091F8
:1006E0007D02A0917E02B0917F020197A109B1091C
:1006F00080937C0290937D02A0937E02B0937F0250
:1007000042C080910002EEE1F2E0E4919FEF90930D
:100710000002E230C9F050F4EE2399F0E13081F5A7
:1007200090916F009D7F90936F002AC0E43019F183
:10073000E0F0E53029F5909173009D7F9093730070
:100740001FC010926E001CC0909170009D7F90930E
:10075000700091E09093B0009091B100987F946008
:100760009093B1001092B3000BC0909171009D7FE7
:100770009093710005C0909172009D7F90937200DC
:1007800060E00E94030BFF91EF91BF91AF919F91A9
:100790008F917F916F915F914F913F912F910F902A
:1007A0000BBE0F900FBE0F901F9018951F920F92C7
:1007B0000FB60F9211240BB60F922F933F934F93C6
:1007C0005F936F937F938F939F93AF93BF93EF93B9
:1007D000FF9382E493E00E944D02FF91EF91BF915D
:1007E000AF919F918F917F916F915F914F913F91C9
:1007F0002F910F900BBE0F900FBE0F901F9018956A
:100800001F920F920FB60F9211240BB60F922F93D7
:100810003F934F935F936F937F938F939F93AF9388
:10082000BF93EF93FF9382E493E00E945809FF91F6
:10083000EF91BF91AF919F918F917F916F915F9158
:100840004F913F912F910F900BBE0F900FBE0F90C5
:100850001F9018951F920F920FB60F9211240BB68E
:100860000F922F933F934F935F936F937F938F9349
:100870009F93AF93BF93EF93FF938FED93E00E940D
:100880004D02FF91EF91BF91AF919F918F917F9119
:100890006F915F914F913F912F910F900BBE0F90F1
:1008A0000FBE0F901F9018951F920F920FB60F92C8
:1008B00011240BB60F922F933F934F935F936F9337
:1008C0007F938F939F93AF93BF93EF93FF938FED9E
:1008D00093E00E945809FF91EF91BF91AF919F91D2
:1008E0008F917F916F915F914F913F912F910F90D9
:1008F0000BBE0F900FBE0F901F9018951F920F9276
:100900000FB60F9211240BB60F922F933F934F9374
:100910005F936F937F938F939F93AF93BF93EF9367
:10092000FF938CE794E00E944D02FF91EF91BF91FD
:10093000AF919F918F917F916F915F914F913F9177
:100940002F910F900BBE0F900FBE0F901F90189518
:100950001F920F920FB60F9211240BB60F922F9386
:100960003F934F935F936F937F938F939F93AF9337
:10097000BF93EF93FF938CE794E00E945809FF9197
:10098000EF91BF91AF919F918F917F916F915F9107
:100990004F913F912F910F900BBE0F900FBE0F9074
:1009A0001F9018951F920F920FB60F9211240BB63D
:1009B0000F922F933F934F935F936F937F938F93F8
:1009C0009F93AF93BF93CF93DF93EF93FF932091C8
:1009D0001A0530E0F901E152FD4F8491F901E75623
:1009E000FD4FD491F901ED5AFD4FC491CC2379F01C
:1009F00081110E94AD0AEC2FF0E0EE0FFF1FEC5FBB
:100A0000FD4FA591B491EC91ED2381E009F480E0D4
:100A100020911E0530911F052F5F3F4F30931F051A
:100A200020931E0590911D05953618F096E0909341
:100A30001905909119059430C9F128F4923069F0A4
:100A40009330D1F05EC0953009F451C0963009F072
:100A500058C091E09093EA0551C0811152C0209195
:100A60001E0530911F052436310508F442C010924E
:100A7000EA0510921D051CC0813009F042C0E091CA
:100A80001D0591E09E0F90931D05F0E020911E053D
:100A900030911F05EE0FFF1FE75EFA4F3087278367
:100AA00010921F0510921E0594E029C0811117C0F5
:100AB000E0911D0591E09E0F90931D05F0E02091BF
:100AC0001E0530911F05EE0FFF1FE75EFA4F3087BE
:100AD000278310921F0510921E0593E010C02091ED
:100AE0001E0530911F052536310558F007C08111CC
:100AF00008C010921F0510921E0503C095E0909348
:100B0000190590911C059923B9F081110AC08091B3
:100B10001B05882321F080911B0561E009C02F9AF5
:100B20000BC080911B05882331F080911B0560E08C
:100B30000E94030B01C02F98FF91EF91DF91CF919D
:100B4000BF91AF919F918F917F916F915F914F91E5
:100B50003F912F910F900BBE0F900FBE0F901F90E3
:100B600018958F929F92AF92BF92CF92DF92EF92A1
:100B7000FF920F931F93CF93DF938C016A017B0148
:100B800020E030E04FE753E4C701B6010E9449136B
:100B90004B015C0120E030E0A9010E94E01418162E
:100BA0001CF4C501B40103C0C501B40190580E94F2
:100BB000AA14EB0120E030E0A901C701B6010E94B0
:100BC000E014181614F460E001C061E0F8018181BE
:100BD0000E94030BCF3FD10509F014F4DD2702C0BA
:100BE000CFEFD0E0F801108161E0812F0E94320B3D
:100BF000209709F4B1C0CF3FD10509F4AFC0E12F70
:100C0000F0E0E152FD4FE4918E2F90E0FC0131972E
:100C1000E231F10508F09DC08827EE58FF4F8F4F55
:100C20000C94351484B5806884BDC7BDA7C084B555
:100C3000806284BDC8BDA2C080918000806880931E
:100C40008000D0938900C093880098C08091800074
:100C5000806280938000D0938B00C0938A008EC006
:100C600080918000886080938000D0938D00C09335
:100C70008C0084C08091B00080688093B000C093E5
:100C8000B3007CC08091B00080628093B000C093BC
:100C9000B40074C080919000806880939000D093DD
:100CA0009900C09398006AC0809190008062809300
:100CB0009000D0939B00C0939A0060C080919000F8
:100CC000886080939000D0939D00C0939C0056C094
:100CD0008091A00080688093A0008091A0008F7B0D
:100CE0008093A000D093A900C093A80047C0809132
:100CF000A00080628093A000D093AB00C093AA00B4
:100D00003DC08091A00088608093A000D093AD008A
:100D1000C093AC0033C08091200180688093200193
:100D2000D0932901C093280129C0809120018062BD
:100D300080932001D0932B01C0932A011FC0809182
:100D40002001886080932001D0932D01C0932C0155
:100D500015C0C038D10514F460E001C061E0812FF6
:100D6000DF91CF911F910F91FF90EF90DF90CF9087
:100D7000BF90AF909F908F900C94030BDF91CF9119
:100D80001F910F91FF90EF90DF90CF90BF90AF90A9
:100D90009F908F9008958EBD00000DB407FEFDCF8B
:100DA0008EB50895CF93DF93EC0160E088810E94B7
:100DB000030B88E90E94CB0680E00E94CB0680E00E
:100DC0000E94CB0680E00E94CB0680E00E94CB060A
:100DD00061E088810E94030B8BE891E00197F1F7B5
:100DE00060E088810E94030B80EE0E94CB0661E0E8
:100DF0008881DF91CF910C94030BAF92BF92CF9279
:100E0000DF92EF92FF920F931F93CF93DF93CDB7B3
:100E1000DEB760970FB6F894DEBF0FBECDBF5C01A2
:100E200060E0FC0180810E94030B80E60E94CB06FB
:100E30008E010F5F1F4F7E01F1E1EF0EF11C680183
:100E400080E00E94CB0690E0A0E0B0E0F601819344
:100E50009193A193B1936F01EE15FF0589F761E0BE
:100E6000F50180810E94030B80E090E0DC01F80135
:100E700041915191619171918F01BA2FA92F982FB2
:100E80008827840F951FA61FB71FEE15FF0579F75A
:100E90009C01AD0166277727CB01621B730B840B86
:100EA000950B60960FB6F894DEBF0FBECDBFDF91F5
:100EB000CF911F910F91FF90EF90DF90CF90BF9057
:100EC000AF9008951F920F920FB60F9211240BB698
:100ED0000F922F933F934F935F936F937F938F93D3
:100EE0009F93AF93BF93EF93FF9380917A0287FF15
:100EF00005C0109285001092840016C020917A02DD
:100F0000022E000C330B8091270690E0281739073A
:100F10005CF430917A0225E03203F0011124E551AE
:100F2000FA4F808186FD15C080917A028F5F809391
:100F30007A0220917A02022E000C330B8091270650
:100F400090E02817390794F480917A028C302CF1C4
:100F50000DC030917A023203F0011124E551FA4FAD
:100F6000808160E08F730E94030BDECF809184004C
:100F70009091850084349C4918F480E49CE905C074
:100F800080918400909185000496909389008093CD
:100F900088008FEF80937A022AC04091840050919C
:100FA000850030917A0225E03203F0011124E551E9
:100FB000FA4F81819281840F951F909389008093CD
:100FC000880030917A023203F0011124E551FA4F82
:100FD000808186FF0CC030917A023203F001112427
:100FE000E551FA4F808161E08F730E94030BFF91FE
:100FF000EF91BF91AF919F918F917F916F915F9191
:101000004F913F912F910F900BBE0F900FBE0F90FD
:101010001F901895CF92DF92EF92FF92823040F0AE
:1010200089E492E00E94C50C60E070E0CB0120C032
:10103000811112C08CE496E00E94FD066B017C01D8
:101040008CE496E00E94D20666277727CB016C19C4
:101050007D098E099F090CC08EE496E00E94FD0672
:101060006B017C018EE496E00E94D206B601C701B6
:10107000FF90EF90DF90CF90089585ED8093BC00B6
:101080008091BC0084FDFCCF109211030895409123
:10109000C602262F30E0240F311D21323105DCF449
:1010A000209111032430C9F4FC0180E090E0861700
:1010B00058F43091C6022191DC01AA55BD4FA30F0F
:1010C000B11D2C930196F3CF8091C602680F6093F7
:1010D000C60280E0089581E0089582E008950895B1
:1010E00008950895E091810280918002E81730F41C
:1010F000F0E0EA57FD4F808190E008958FEF9FEF79
:1011000008959091810280918002981750F4E92F00
:10111000F0E0EA57FD4F208130E09F5F909381021D
:1011200002C02FEF3FEFC90108958091800290E047
:1011300020918102821B91090895CF92DF92EF9254
:10114000FF920F931F93CF93DF937C01CB018A0112
:1011500020911203222389F0EB016B01C40ED51EEE
:10116000CC15DD0569F06991D701ED91FC910190F5
:10117000F081E02DC7011995F3CF642F0E94470835
:10118000C801DF91CF911F910F91FF90EF90DF90F9
:10119000CF900895CF93DF931F92CDB7DEB76983C9
:1011A000209112032223D1F020913503203240F008
:1011B00021E030E0FC013383228380E090E015C021
:1011C00080911303E82FF0E0EC5EFC4F998190834F
:1011D0008F5F809313038093350305C061E0CE01D8
:1011E00001960E94470881E090E00F90DF91CF9137
:1011F00008950F931F93CF93DF93162F072FCFE2FE
:10120000D6E09C8521E02093120390933403109242
:10121000130310923503AA85BB85ED91FC911197BC
:101220000190F081E02D682FCD0119958A859B856D
:10123000DC01ED91FC910190F081E02D602F19957A
:101240008A859B85DC01ED91FC910190F081E02D78
:10125000612F1995DF91CF911F910F910C94E10CA3
:10126000FC01248131E03093120320933403109267
:101270001303109235038485682B86E393E00E9464
:10128000CA080C94E10C0F931F93CF938C01C62FC7
:1012900064600E9430096C2F6B7FC8010E94300986
:1012A00083EC90E00197F1F7CF911F910F91089592
:1012B000FC01A089B1898C91A689B78982FD0FC0F4
:1012C0009C91818D8F5F8F73228D821749F0218DC4
:1012D000DF01A20FB11D5D969C93818F08958C91C3
:1012E00008951F920F920FB60F9211240F900FBE08
:1012F0000F901F9018951F920F920FB60F92112406
:101300000BB60F922F933F934F935F936F937F93FF
:101310008F939F93AF93BF93EF93FF938091B90007
:10132000887F803609F49CC068F5883209F45BC078
:1013300090F4803109F454C038F4882309F4F6C0DD
:10134000883009F44DC0F6C0883109F44CC08032B1
:1013500009F45DC0EFC0803409F468C048F48033FC
:1013600009F455C0883309F0E5C080930F03D8C055
:10137000803509F44FC0883509F45DC0883409F020
:10138000D9C0D6C0883909F4C7C0A8F4883709F491
:1013900067C038F4883609F463C0803709F460C048
:1013A000C9C0883809F4B8C0803909F45FC08038F2
:1013B00009F0C0C05BC0803B09F486C038F4803AB5
:1013C00009F466C0883A09F47FC0B4C0803C09F4CF
:1013D000A7C0883C09F4A4C0883B09F48AC0AAC00D
:1013E0008091EC0210C090910E0380910D0398172C
:1013F00070F5E0910E0381E08E0F80930E03F0E014
:10140000E351FD4F80818093BB0085EC86C08093C3
:101410000F038EC0E0910E0381E08E0F80930E03C8
:101420008091BB00F0E0E351FD4F808390910E036B
:1014300080910D036EC0E0910E0381E08E0F8093CA
:101440000E038091BB00F0E0E351FD4F808380915B
:10145000100381116DC081E08093EB0284EA61C0CA
:1014600083E0809311031092E802CFCF8091E802CD
:10147000803208F051C0E091E80281E08E0F809345
:10148000E8028091BB00F0E0E853FD4F8083BDCFC0
:1014900085EC8093BC00109211038091E8028032A9
:1014A00030F4E091E802F0E0E853FD4F10826091E3
:1014B000E80270E0E0918402F091850288EC92E00D
:1014C00019951092E80236C084E0809311031092BF
:1014D000C7021092C602E0918202F0918302199530
:1014E0008091C602811105C081E08093C6021092EE
:1014F000A602E091C70281E08E0F8093C702F0E060
:10150000EA55FD4F80818093BB009091C702809186
:10151000C602981708F479CF85E88093BC000AC00A
:1015200085EC8093BC001092110304C010920F034D
:101530000E943D08FF91EF91BF91AF919F918F91D4
:101540007F916F915F914F913F912F910F900BBEC3
:101550000F900FBE0F901F90189590E0FC013197EF
:10156000E231F10508F04EC08827EC57FF4F8F4F4E
:101570000C943514809180008F7703C08091800097
:101580008F7D80938000089580918000877FF9CFC0
:1015900084B58F7702C084B58F7D84BD0895809116
:1015A000B0008F7703C08091B0008F7D8093B00032
:1015B0000895809190008F7707C0809190008F7D73
:1015C00003C080919000877F809390000895809160
:1015D000A0008F7707C08091A0008F7D03C080910D
:1015E000A000877F8093A0000895809120018F77CD
:1015F00007C0809120018F7D03C080912001877FEB
:101600008093200108951F93CF93DF93282F30E01C
:10161000F901E152FD4F8491F901E756FD4FD49154
:10162000F901ED5AFD4FC491CC23C1F0162F811161
:101630000E94AD0AEC2FF0E0EE0FFF1FE75CFD4FBC
:10164000A591B4919FB7F894111104C08C91D095D5
:10165000D82302C0EC91DE2BDC939FBFDF91CF91AA
:101660001F910895CF93DF9390E0FC01E756FD4F63
:101670002491FC01ED5AFD4F8491882361F190E0A3
:10168000880F991FFC01E15EFD4FC591D491FC01CB
:10169000E75CFD4FA591B491611109C09FB7F89423
:1016A0008881209582238883EC912E230BC06230A1
:1016B00061F49FB7F8948881322F30958323888313
:1016C000EC912E2B2C939FBF06C08FB7F894E88126
:1016D0002E2B28838FBFDF91CF9108958F929F92F9
:1016E000AF92BF92CF92DF92EF92FF926B017C019B
:1016F0000E943D0D4B015C01C114D104E104F104D1
:10170000F1F00E943D0DDC01CB0188199909AA096D
:10171000BB09883E9340A105B10570F321E0C21AD0
:10172000D108E108F10888EE880E83E0981EA11C1C
:10173000B11CC114D104E104F10419F7DDCFFF900D
:10174000EF90DF90CF90BF90AF909F908F900895D3
:10175000ECE7F4E0A089B18982E08C93A485B5859B
:101760001C92A685B7858FEC8C93108EA489B589C1
:1017700086E08C93A289B3898C9180618C93A28935
:10178000B3898C9188608C93A289B3898C9180688D
:101790008C930288F389E02D80818F7D808308956A
:1017A000009769F0FC0101900020E9F73197AF0143
:1017B000481B590BBC018CE794E00C94C80180E0F5
:1017C00090E008958F929F92AF92BF92CF92DF9256
:1017D000EF92FF920F931F93CF93DF93CDB7DEB7B6
:1017E000A1970FB6F894DEBF0FBECDBF6B017C0191
:1017F00097FF2BC06DE28CE794E00E946F028C0192
:1018000022273327A9012C193D094E095F0919A286
:10181000CE0181967C019AE0892E912CA12CB12CCD
:10182000CA01B901A50194010E940714605DF70186
:1018300062937F01211531054105510589F7CF01DB
:101840000E94D00B800F911F1DC09B01AC0119A2FB
:101850008E010F5D1F4F8AE0C82ED12CE12CF12C98
:10186000CA01B901A70196010E940714605DF80141
:1018700062938F01211531054105510589F7CF018B
:101880000E94D00BA1960FB6F894DEBF0FBECDBF5D
:10189000DF91CF911F910F91FF90EF90DF90CF904C
:1018A000BF90AF909F908F9008954F925F926F92EC
:1018B0007F928F929F92AF92BF92CF92DF92EF92E0
:1018C000FF920F931F93CF93DF936B0149015A014E
:1018D00027013801EC01C61BD70BBC01990F880BFF
:1018E000990B0E94E20B8FE392E00E94D00BB601AD
:1018F000DD0C880B990B0E94E20B8FE392E00E94B3
:10190000D00B6E01DD0FEE08FF08C701B6010E9483
:10191000E20B8DE592E00E94D00BC701B6010E9458
:10192000EA122FE632E143E85AE30E94491320E02D
:1019300030E040E85EE30E943E146B017C01B4019C
:1019400064197509072E000C880B990B0E94EA1286
:101950002FE632E143E05BE30E9449139B01AC01B7
:10196000C701B6010E943E14DF91CF911F910F91E4
:10197000FF90EF90DF90CF90BF90AF909F908F90AF
:101980007F906F905F904F900895CF93DF930E9468
:10199000D00BEC018DE592E00E94D00B8C0F9D1FC7
:1019A000DF91CF910895CF93DF930E94E20BEC017A
:1019B0008DE592E00E94D00B8C0F9D1FDF91CF919F
:1019C000089530913503313208F04BC080911103F6
:1019D0008111FCCF9091340322E02093110321E088
:1019E000209310032FEF20930F0310920E033093D8
:1019F0000D03E4E1F3E0ADEEB2E020E0321721F0B8
:101A000041914D932F5FFACF1092EC022091EC029E
:101A1000990F922B9093EC029091EB02913061F42C
:101A20001092EB029091EC029093BB009091BC005D
:101A300093FDF8CF95EC01C095EE9093BC0090918A
:101A400011039230E1F390910F039F3F79F0809161
:101A50000F03803241F080910F03803331F084E036
:101A600005C081E003C082E001C083E0109213034F
:101A7000109235031092120308953FB7F8948091A5
:101A80002D0790912E07A0912F07B091300726B512
:101A9000A89B05C02F3F19F00196A11DB11D3FBFA6
:101AA000BA2FA92F982F8827820F911DA11DB11D34
:101AB000BC01CD0142E0660F771F881F991F4A9530
:101AC000D1F708951F920F920FB60F9211242F9302
:101AD0003F938F939F93AF93BF93809129079091EA
:101AE0002A07A0912B07B0912C073091280723E0FB
:101AF000230F2D3720F40196A11DB11D05C026E846
:101B0000230F0296A11DB11D20932807809329075A
:101B100090932A07A0932B07B0932C0780912D0751
:101B200090912E07A0912F07B09130070196A11D2B
:101B3000B11D80932D0790932E07A0932F07B0938C
:101B40003007BF91AF919F918F913F912F910F904F
:101B50000FBE0F901F901895CF93DF9300D01F9268
:101B6000CDB7DEB7789484B5826084BD84B58160DA
:101B700084BD85B5826085BD85B5816085BD809158
:101B80006E00816080936E001092810080918100D0
:101B900082608093810080918100816080938100C8
:101BA000809180008160809380008091B10084608A
:101BB0008093B1008091B00081608093B0008091EB
:101BC0009100826080939100809191008160809368
:101BD0009100809190008160809390008091A1009D
:101BE00082608093A1008091A10081608093A10018
:101BF0008091A00081608093A0008091210182608B
:101C00008093210180912101816080932101809145
:101C1000200181608093200180917A00846080930C
:101C20007A0080917A00826080937A0080917A00B5
:101C3000816080937A0080917A00806880937A0036
:101C40001092C1000E94A80B61E0809130060E94B2
:101C5000320B60E0809130060E94030B60E08091BF
:101C60002F060E94320B86E393E090933A0680930E
:101C70003906109281021092800210921303109282
:101C800035031092110381E0809310031092EB0250
:101C900061E084E10E94030B61E085E10E94030B97
:101CA0008091B9008E7F8093B9008091B9008D7FBB
:101CB0008093B90088E48093B80085E48093BC00E9
:101CC0008FE698E0909383028093820280E798E009
:101CD000909385028093840280E090E1A0E0B0E0E0
:101CE00080933C0690933D06A0933E06B0933F063A
:101CF0008AE090E0A0E0B0E0809340069093410637
:101D0000A0934206B093430680E090E0A0E0B0E4E8
:101D10008093440690934506A0934606B0934706E9
:101D200060E070E185E00E94F9086FE979E380E006
:101D30000E94F9082FE236E03A832983890142E0C4
:101D4000742E58E8A52E52E0B52E6EEC862E62E079
:101D5000962E7BECE72E77E0F72ED80114969C9117
:101D6000149712968C91E981FA81818F928F61E0AC
:101D70000E94320B61E0A981BA815A968C910E942F
:101D8000320BF80190858681C980DA80FDE1CF0EA3
:101D9000D11CA981BA815D968C935D975E969C93C8
:101DA00061E00E94320B60E0E981FA81868D0E9439
:101DB000320B61E0A981BA815D968C910E94030B80
:101DC0006FB6F89480916002811126C0F50184916C
:101DD000F4012491E82FF0E0EE0FFF1FE15EFD4FCC
:101DE000A591B4919C91822F892321F461E085E330
:101DF0000E94030B61E085E30E94320B8CB5806189
:101E00008CBD8CB580648CBD61E084E30E94320B94
:101E100061E083E30E94320B809160028F5F8093C8
:101E200060026FBEC7010197F1F760E0A981BA8136
:101E30005D968C910E94030B88E80E94CB0683E09C
:101E40000E94CB0661E0E981FA81858D0E94030B37
:101E5000C7010197F1F7C6010E94D2067A940F5F7D
:101E60001F4F29813A812E5F3F4F3A83298371109A
:101E700074CF04E516E048E556E05A83498360E0F4
:101E8000D8018D918D010E94320BE981FA81E01712
:101E9000F107A9F700E516E085E0E82E9CE0C92EE1
:101EA00022E0D22EA981BA81FD90BA83A983179628
:101EB0008C918C3008F049C061E08F2D0E94320B6C
:101EC000E981FA818781E89EF0011124E551FA4FFA
:101ED0009F2D9F732081207CF22EF92AF08213829D
:101EE00014826C2D0E942914FCE08F9FA001112404
:101EF00020E030E0BA01620F731FE69EF001E79E1A
:101F0000F00D1124E551FA4F908196FD12C02F5F1C
:101F10003F4F2C30310571F781110BC010928000BA
:101F2000D09281001092850010928400D6BAD0928F
:101F30006F00A981BA811796EC91EE9EF0011124F1
:101F4000E551FA4F808180648083E981FA8195812F
:101F50008381D80152968C93529753969C9360E05C
:101F60000E94320B61E0F80183890E94320B60E02D
:101F7000D80153968C910E94030B0E5F1F4FE9818D
:101F8000FA81EA55F64009F08DCFF89410922001BD
:101F900089E08093210180E293E09093290180936E
:101FA0002801109225011092240182E08093730091
:101FB00078948093190510921D0580911A0560E0B0
:101FC0000E94320B0E94A80B80E00E940A0881E068
:101FD0000E940A086AE877E080E090E00E94D30C53
:101FE00040E050E060E87EE388E496E00E94B105BE
:101FF00040E050E060E87EE38AE496E00E94B105AC
:10200000412C512C3201812C912C540169E170E05A
:1020100080E090E00E946E0B81E00E940A086983D4
:102020007A838B839C8380E00E940A0829813A810D
:102030004B815C81820E931EA41EB51E460E571E58
:10204000681E791E22273327A901281939094A0950
:102050005B098301720189819A810E94550CAB0151
:10206000BC0188E496E00E94B105C501B4010E945C
:10207000E20B8FE392E00E94D00B6AE877E080E009
:1020800090E00E94E20B8FE392E00E94D00BC3012C
:10209000B2010E94D30C37E7831638EF93063FEF67
:1020A000A306B3060CF0B2CF40E050E060E070E869
:1020B0008AE496E00E94B10540E050E0BA0188E46D
:1020C00096E00E94B10564E670E080E090E00E9436
:1020D0006E0B60ED77E080E090E00E946E0B80E098
:1020E0000E940A0881E00E940A0866E778EF8FEFF5
:1020F0009FEF0E94D30C84E492E00E94C50C40E064
:1021000050E060E87EEB8AE496E00E94B10540E092
:1021100050E060E87EE388E496E00E94B105412C3F
:10212000512C3201812C912C540169E170E080E046
:1021300090E00E946E0B81E00E940A0869837A8316
:102140008B839C8380E00E940A0829813A814B811D
:102150005C81820E931EA41EB51E460E571E681E7D
:10216000791E22273327A901281939094A095B0951
:102170008301720189819A810E94550CAB01BC01D7
:1021800088E496E00E94B105C501B4010E94E20B0B
:102190008FE392E00E94D00B66E778EF8FEF9FEF1E
:1021A0000E94E20B8FE392E00E94D00BC301B201C8
:1021B0000E94D30C3AE8831637E09306A104B104D9
:1021C0000CF4B3CF40E050E060E070E88AE496E0C1
:1021D0000E94B10540E050E0BA0188E496E00E9418
:1021E000B10564E670E080E090E00E946E0B0E9412
:1021F000E102FDCF80912806909129060C947D156F
:10220000109239031092380388EE93E0A0E0B0E01A
:1022100080933A0390933B03A0933C03B0933D0318
:1022200023E132E0309337032093360310924503C5
:10223000109244038093460390934703A09348036E
:10224000B093490325E232E03093430320934203E5
:1022500045E351E050934F0340934E0344E351E074
:10226000509351034093500340E351E05093530384
:102270004093520341E351E050935503409354037C
:1022800042E351E0509357034093560346E351E035
:10229000509359034093580310925B0310925C03D0
:1022A00010925D0310925E031092E2031092E1031C
:1022B0008093E3039093E403A093E503B093E603D4
:1022C0003093E0032093DF0345ED50E05093EC039F
:1022D0004093EB0344ED50E05093EE034093ED0345
:1022E00040ED50E05093F0034093EF0341ED50E098
:1022F0005093F2034093F10342ED50E05093F40306
:102300004093F30346ED50E05093F6034093F503FA
:102310001092F8031092F9031092FA031092FB0343
:1023200010927F0410927E04809380049093810425
:10233000A0938204B093830430937D0420937C04A3
:1023400085EC90E0909389048093880484EC90E07D
:1023500090938B0480938A0480EC90E090938D049A
:1023600080938C0481EC90E090938F0480938E0492
:1023700082EC90E0909391048093900486EC90E03E
:102380009093930480939204109295041092960473
:10239000109297041092980480910702909108027D
:1023A000A0910902B0910A028093500690935106C1
:1023B000A0935206B093530680910B0290910C02A9
:1023C000A0910D02B0910E02809354069093550691
:1023D000A0935606B093570684E08093580687E092
:1023E0008093590610925A0684EB80935B0686E12F
:1023F00080935C0688E180935D0687E180935E06AA
:1024000089E180935F06E0912706EC3020F08FEFA2
:102410008093600610C081E08E0F80932706E093C2
:10242000600685E0E89FF0011124E551FA4F88EB42
:102430009BE092838183E0912706EC3020F08FEFC0
:102440008093610610C081E08E0F80932706E09391
:10245000610685E0E89FF0011124E551FA4F88EB11
:102460009BE0928381838CE080932F0684E28093AB
:10247000300686E08093310685E0809332068FE156
:10248000809333068EE18093340683E28093350691
:1024900082E28093360685E48093370684E4809355
:1024A000380680E480933B06109240061092410665
:1024B000109242061092430610924406109245066E
:1024C0001092460610924706EAE6F6E028E237E068
:1024D0008FEF9FEFDC011282138214821582168225
:1024E00017821086118683879487A587B68787878A
:1024F000908BA18BB28B12861182108273962E174D
:102500003F0749F78DE090E00E94E514FC0113823B
:10251000128287E392E091838083118687E284832D
:1025200084E1828784E083871486F0936706E093D2
:102530006606109268061092690685E280931A0575
:1025400010921C05109229061092280610922B0654
:1025500010922A0610922D0610922C0661E070E06F
:1025600080E090E00E940616009789F0909329067B
:102570008093280610922B0610922A0620912C0692
:1025800030912D06232BC1F4FC01108215C08091DF
:10259000280690912906009711F00E947D1510924F
:1025A00029061092280610922D0610922C061092E1
:1025B0002B0610922A06089510922D0610922C06D2
:1025C0006FE572E080912806909129060C94F91627
:1025D000E89409C097FB3EF49095809570956195BD
:1025E0007F4F8F4F9F4F9923A9F0F92F96E9BB2773
:1025F0009395F695879577956795B795F111F8CFEF
:10260000FAF4BB0F11F460FF1BC06F5F7F4F8F4F59
:102610009F4F16C0882311F096E911C0772321F04F
:102620009EE8872F762F05C0662371F096E8862FE7
:1026300070E060E02AF09A95660F771F881FDAF73E
:10264000880F9695879597F90895990F0008550F6B
:10265000AA0BE0E8FEEF16161706E807F907C0F028
:1026600012161306E407F50798F0621B730B840B30
:10267000950B39F40A2661F0232B242B252B21F40A
:1026800008950A2609F4A140A6958FEF811D811DAA
:1026900008950E945C130C94CD130E94BF1338F070
:1026A0000E94C61320F0952311F00C94B6130C94DD
:1026B000BC1311240C9401140E94DE1370F3959F37
:1026C000C1F3950F50E0551F629FF001729FBB2729
:1026D000F00DB11D639FAA27F00DB11DAA1F649FC5
:1026E0006627B00DA11D661F829F2227B00DA11D78
:1026F000621F739FB00DA11D621F839FA00D611DFE
:10270000221F749F3327A00D611D231F849F600D1E
:10271000211D822F762F6A2F11249F5750409AF047
:10272000F1F088234AF0EE0FFF1FBB1F661F771FD3
:10273000881F91505040A9F79E3F510580F00C949E
:10274000B6130C9401145F3FE4F3983ED4F38695DE
:1027500077956795B795F795E7959F5FC1F7FE2B3E
:10276000880F911D9695879597F9089597F99F671A
:1027700080E870E060E008959FEF80EC0895002409
:102780000A941616170618060906089500240A94D6
:1027900012161306140605060895092E0394000C5C
:1027A00011F4882352F0BB0F40F4BF2B11F460FFEB
:1027B00004C06F5F7F4F8F4F9F4F089557FD905814
:1027C000440F551F59F05F3F71F04795880F97FBF5
:1027D000991F61F09F3F79F08795089512161306AF
:1027E0001406551FF2CF4695F1DF08C016161706DE
:1027F0001806991FF1CF8695710561050894089513
:10280000E894BB2766277727CB0197F90895A1E2C3
:102810001A2EAA1BBB1BFD010DC0AA1FBB1FEE1F5A
:10282000FF1FA217B307E407F50720F0A21BB30BA5
:10283000E40BF50B661F771F881F991F1A9469F721
:1028400060957095809590959B01AC01BD01CF017D
:102850000895991B79E004C0991F961708F0961BFC
:10286000881F7A95C9F780950895EE0FFF1F881F7E
:102870008BBF0790F691E02D19945058BB27AA27DB
:102880000E9455140C94CD130E94BF1338F00E947F
:10289000C61320F039F49F3F19F426F40C94BC13AE
:1028A0000EF4E095E7FB0C94B613E92F0E94DE13BB
:1028B00058F3BA17620773078407950720F079F475
:1028C000A6F50C9400140EF4E0950B2EBA2FA02D53
:1028D0000B01B90190010C01CA01A0011124FF27CD
:1028E000591B99F0593F50F4503E68F11A16F040C8
:1028F000A22F232F342F4427585FF3CF46953795C7
:102900002795A795F0405395C9F77EF41F16BA0B8B
:10291000620B730B840BBAF09150A1F0FF0FBB1F39
:10292000661F771F881FC2F70EC0BA0F621F731F82
:10293000841F48F4879577956795B795F7959E3FDF
:1029400008F0B0CF9395880F08F09927EE0F979570
:10295000879508950E94B1146894B1110C940114E4
:1029600008950E94E61388F09F5798F0B92F992791
:10297000B751B0F0E1F0660F771F881F991F1AF06A
:10298000BA95C9F714C0B13091F00E940014B1E0BB
:1029900008950C940014672F782F8827B85F39F0BA
:1029A000B93FCCF3869577956795B395D9F73EF403
:1029B00090958095709561957F4F8F4F9F4F0895AB
:1029C0000E94251308F48FEF08950F931F93CF9360
:1029D000DF938230910510F482E090E0E0913307BC
:1029E000F091340720E030E0A0E0B0E0309719F13A
:1029F000408151810281138148175907C8F084171B
:102A0000950769F4109731F012960C93129713966C
:102A10001C9327C0009333071093340722C021155D
:102A2000310519F04217530718F49A01BD01EF015F
:102A3000DF01F801DBCF21153105F9F0281B390B37
:102A40002430310580F48A819B816115710521F064
:102A5000FB019383828304C09093340780933307F0
:102A6000FE01329644C0FE01E20FF31F8193919361
:102A700022503109398328833AC02091310730919F
:102A80003207232B41F4209103023091040230934A
:102A90003207209331072091010230910202211563
:102AA000310541F42DB73EB7409105025091060221
:102AB000241B350BE0913107F0913207E217F30741
:102AC000A0F42E1B3F0B2817390778F0AC014E5F9E
:102AD0005F4F2417350748F04E0F5F1F50933207A2
:102AE000409331078193919302C0E0E0F0E0CF0181
:102AF000DF91CF911F910F910895CF93DF930097AE
:102B000009F481C0FC01329713821282A09133072D
:102B1000B0913407109781F420813181820F931F87
:102B200020913107309132072817390751F5F0937A
:102B30003207E093310767C0ED0120E030E0CE17A7
:102B4000DF0740F44A815B819E0141155105F1F098
:102B5000EA01F5CFD383C28340815181840F951F51
:102B6000C817D90759F488819981840F951F029657
:102B7000918380838A819B81938382832115310590
:102B800029F4F0933407E09333073DC0E901FB8358
:102B9000EA8349915991C40FD51FEC17FD0761F4E1
:102BA00080819181840F951F0296E9019983888322
:102BB000828193819B838A83E0E0F0E012968D917D
:102BC0009C911397009719F0FD01DC01F7CF8D91CF
:102BD0009C9111979D012E5F3F4F820F931F209173
:102BE0003107309132072817390769F4309729F4F3
:102BF000109234071092330702C013821282B093EE
:102C00003207A0933107DF91CF9108956F927F92A1
:102C10008F929F92AF92BF92CF92DF92EF92FF92EC
:102C20000F931F93CF93DF93009789F4CB01DF912C
:102C3000CF911F910F91FF90EF90DF90CF90BF90B9
:102C4000AF909F908F907F906F900C94E514FC0153
:102C5000E60FF71F9C0122503109E217F30708F431
:102C6000A9C0EC01D9010D911C9111970617170706
:102C7000B0F00530110508F49BC0C8010497861711
:102C8000970708F495C002501109061B170B019312
:102C900011936D937C93CF010E947D1589C05B01D8
:102CA000A01AB10A4C01800E911EA0913307B09179
:102CB0003407612C712CE12CF12C109709F446C0DB
:102CC0008D919C911197A815B905B1F56C0142E061
:102CD000C40ED11CCA14DB0478F14C018A189B087D
:102CE000640142E0C40ED11C1296BC901297139658
:102CF000AC91B5E0CB16D10440F0B282A3839182AF
:102D00008082D9016D937C9309C00E5F1F4F800FA5
:102D1000911FF90191838083EB2DFA2FE114F104C7
:102D200031F0D7011396FC93EE93129741C0F093C4
:102D30003407E09333073CC06816790608F43C0179
:102D40007D0112960D90BC91A02DB7CF80913107D7
:102D50009091320788169906E1F466167706C8F452
:102D60008091010290910202009741F48DB79EB7C5
:102D70004091050250910602841B950BE817F90754
:102D8000C8F4F0933207E0933107F901718360834F
:102D90000FC0CB010E94E5147C01009759F0A801F7
:102DA000BE010E94F016CE010E947D15C70104C02D
:102DB000CE0102C080E090E0DF91CF911F910F9192
:102DC000FF90EF90DF90CF90BF90AF909F908F904B
:102DD0007F906F90089581E090E0F8940C94001734
:102DE000FB01DC0102C001900D9241505040D8F728
:102DF0000895FB01DC0101900D920020E1F7089598
:102E000011E0C4E9D1E000E006C0802FFE010E947D
:102E100035142196011DC539D10780E00807A9F7AF
:042E2000F894FFCF54
:102E2400FF000035072000363738391B1D1A1C00F7
:102E3400000000CA089D080F0371089508810872F4
:102E440008000000006F02C801F201BC0223020165
:102E5400021502000000001403C8010F030E032032
:102E640020202000416C6C6F00496E76616C6964AF
:102E740020656E636F64657220696421000D0A0029
:00000001FF
