:100000000C9461010C9492010C9492010C94920155
:100010000C9492010C9492010C9492010C94920114
:100020000C9492010C9406080C9406080C94060893
:100030000C9492010C9456030C9492010C9492012E
:100040000C9492010C94CE050C9492010C949201A4
:100050000C9492010C9492010C9492010C940C0358
:100060000C9492010C94C5040C949B040C94920182
:100070000C9492010C9492010C9492010C949201B4
:100080000C9492010C9492010C9492010C949201A4
:100090000C9492010C9492010C9492010C9410080F
:1000A0000C9492010C9492010C9492010C94920184
:1000B0000C9492010C9492010C9492010C94EF0414
:1000C0000C9492010C9492010C9492010C94710482
:1000D0000C9447040C9492010C941D040C94F303AB
:1000E0000C9492015D0960094F0953095909970958
:1000F000640968096E09720976097C098009840916
:1001000097098A098E0992090C9468090C944F0981
:100110000C9405070C94EF010C9494010C94320795
:100120000C9464090C9453090C9460090C945F07B7
:100130000C9480090C94BE010C9476090C94560C16
:100140000C9497090C94E7020C94E1020C94E101E1
:100150000C9492090C948A090C942A070C940407B5
:100160000C9472090C946E090C9488020C94070785
:100170000C9459090C9484090C945D090C945C0C42
:100180000C943B020C94E2020C9406070C948E092A
:100190000C94CD010C9416070C947C0900002000EF
:1001A0002300260029002C002F003200000100004F
:1001B0000301060109010200002100240027002A92
:1001C000002D003000330001010000040107010A86
:1001D0000100002200250028002B002E00310034F1
:1001E0000002010000050108010B010505050507D6
:1001F0000508080808020202020A0A0808040404A2
:1002000004010101010101010103030303030303CD
:1002100003040707070C0C0C0C0C0C0C0C0202025C
:100220000206060606060606060B0B0B0B0B0B0B4F
:100230000B010210202008081020401020408002EE
:10024000010201080402010102040810204080801C
:1002500040201008040201800402018040201008A0
:100260000402010804020101020408102040800178
:100270000204081020408000000A0B02090C0D0E39
:100280000807030401000000000000000000000057
:10029000000000000000000000000000000000005E
:1002A000000000121110000000000000000000001B
:1002B00000000000000000000000000000005C0CD6
:1002C000560C11241FBECFEFD1E2DEBFCDBF00E040
:1002D0000CBF12E0A0E0B2E0EAE0F1E200E00BBF08
:1002E00002C007900D92A034B107D9F727E0A0E42F
:1002F000B2E001C01D92A531B207E1F711E0C0E6FE
:10030000D1E000E006C021970109802FFE010E9484
:10031000500ECF35D10780E00807A9F70E94030AE5
:100320000C9473100C940000CF92DF92EF92FF9226
:100330000F931F93CF93DF936C017A018B01C0E081
:10034000D0E0CE15DF0581F0D8016D918D01D60189
:10035000ED91FC910190F081E02DC6011995892B5A
:1003600011F02196EECF7E01C701DF91CF911F9151
:100370000F91FF90EF90DF90CF900895FC01538D87
:10038000448D252F30E0842F90E0821B930B54176F
:1003900010F0CF96089501970895FC01918D828DFC
:1003A000981761F0828DDF01A80FB11D5D968C91C9
:1003B000928D9F5F9F73928F90E008958FEF9FEFD4
:1003C0000895FC01918D828D981731F0828DE80F90
:1003D000F11D858D90E008958FEF9FEF0895FC014A
:1003E000918D228D892F90E0805C9F4F821B910917
:1003F0008F739927089580E892E00E94EF0121E031
:10040000892B09F420E0822F08958DE193E00E946A
:10041000EF0121E0892B09F420E0822F08958AEB77
:1004200093E00E94EF0121E0892B09F420E0822F64
:100430000895FC01848DDF01A80FB11DA35ABF4FA1
:100440002C91848D90E001968F739927848FA689D3
:10045000B7892C93A089B1898C91837080648C9327
:10046000938D848D981306C00288F389E02D8081D6
:100470008F7D80830895EF92FF920F931F93CF9308
:10048000DF93EC0181E0888F9B8D8C8D981305C0E4
:10049000E889F989808185FD26C0F62E0B8D10E054
:1004A0000F5F1F4F0F731127E02E8C8DE8120CC0C9
:1004B0000FB607FCFACFE889F989808185FFF5CF6F
:1004C000CE010E941902F1CF8B8DFE01E80FF11DC4
:1004D000E35AFF4FF0829FB7F8940B8FEA89FB89AC
:1004E000808180620AC09FB7F894EE89FF8960839B
:1004F000E889F98980818370806480839FBF81E06F
:1005000090E0DF91CF911F910F91FF90EF900895B0
:10051000CF93DF93EC01888D8823C9F0EA89FB89AA
:10052000808185FD05C0A889B9898C9186FD0FC0A1
:100530000FB607FCF5CF808185FFF2CFA889B98976
:100540008C9185FFEDCFCE010E941902E7CFDF919C
:10055000CF910895E0E0F0E0199480E090E0892BDD
:1005600021F00E940F02811119C080E090E0892BD8
:1005700041F080E090E0892B21F00E940000811181
:1005800010C00E94050281110FC080E090E0892B0D
:1005900081F00E94FB0181110AC008950E940000B1
:1005A000E4CF0E940000EDCF0E94AA02EECF0C948F
:1005B000000008958EBD00000DB407FEFDCF8EB57E
:1005C0000895089580E090E008950E945E100F93D2
:1005D0001F93CF93DF938C01C62FD62FD07FD1608E
:1005E0006D2F0E94C5076D2FC8010E94D80780E1BA
:1005F000C89FB0011124C62FC1606C2FC8010E9492
:10060000C5076C2FC8010E94D80781E090E0DF91F8
:10061000CF911F910F9108951F920F920FB60F92D5
:1006200011242F933F938F939F93AF93BF93809108
:10063000650290916602A0916702B09168023091C4
:10064000640223E0230F2D3720F40196A11DB11D74
:1006500005C026E8230F0296A11DB11D2093640258
:100660008093650290936602A0936702B09368023C
:100670008091600290916102A0916202B091630248
:100680000196A11DB11D8093600290936102A09319
:100690006202B0936302BF91AF919F918F913F919E
:1006A0002F910F900FBE0F901F9018951F920F92D1
:1006B0000FB60F9211240BB60F922F933F934F93C7
:1006C0005F936F937F938F939F93AF93BF93EF93BA
:1006D000FF9380915B0290915C02A0915D02B091CA
:1006E0005E02892B8A2B8B2B49F190915A028091C3
:1006F000000089278093000080915B0290915C024A
:10070000A0915D02B0915E02181619061A061B062A
:100710000CF056C080915B0290915C02A0915D024A
:10072000B0915E020197A109B10980935B02909399
:100730005C02A0935D02B0935E0242C08091000211
:10074000E6EBF1E0E4919FEF90930002E230C9F014
:1007500050F4EE2399F0E13081F590916F009D7F88
:1007600090936F002AC0E43019F1E0F0E53029F5EC
:10077000909173009D7F909373001FC010926E0044
:100780001CC0909170009D7F9093700091E09093B9
:10079000B0009091B100987F94609093B100109256
:1007A000B3000BC0909171009D7F9093710005C0C4
:1007B000909172009D7F9093720060E00E94980972
:1007C000FF91EF91BF91AF919F918F917F916F9129
:1007D0005F914F913F912F910F900BBE0F900FBEE5
:1007E0000F901F9018951F920F920FB60F92112421
:1007F0000BB60F922F933F934F935F936F937F931B
:100800008F939F93AF93BF93EF93FF9380E892E012
:100810000E941902FF91EF91BF91AF919F918F912B
:100820007F916F915F914F913F912F910F900BBEF0
:100830000F900FBE0F901F9018951F920F920FB63A
:100840000F9211240BB60F922F933F934F935F9308
:100850006F937F938F939F93AF93BF93EF93FF9388
:1008600080E892E00E94ED07FF91EF91BF91AF9178
:100870009F918F917F916F915F914F913F912F91B8
:100880000F900BBE0F900FBE0F901F9018951F92E8
:100890000F920FB60F9211240BB60F922F933F9326
:1008A0004F935F936F937F938F939F93AF93BF9378
:1008B000EF93FF938DE193E00E941902FF91EF9176
:1008C000BF91AF919F918F917F916F915F914F9168
:1008D0003F912F910F900BBE0F900FBE0F901F9066
:1008E00018951F920F920FB60F9211240BB60F920C
:1008F0002F933F934F935F936F937F938F939F9328
:10090000AF93BF93EF93FF938DE193E00E94ED07C8
:10091000FF91EF91BF91AF919F918F917F916F91D7
:100920005F914F913F912F910F900BBE0F900FBE93
:100930000F901F9018951F920F920FB60F921124CF
:100940000BB60F922F933F934F935F936F937F93C9
:100950008F939F93AF93BF93EF93FF938AEB93E0B3
:100960000E941902FF91EF91BF91AF919F918F91DA
:100970007F916F915F914F913F912F910F900BBE9F
:100980000F900FBE0F901F9018951F920F920FB6E9
:100990000F9211240BB60F922F933F934F935F93B7
:1009A0006F937F938F939F93AF93BF93EF93FF9337
:1009B0008AEB93E00E94ED07FF91EF91BF91AF9119
:1009C0009F918F917F916F915F914F913F912F9167
:1009D0000F900BBE0F900FBE0F901F9018951F9297
:1009E0000F920FB60F9211240BB60F922F933F93D5
:1009F0004F935F936F937F938F939F93AF93BF9327
:100A0000CF93DF93EF93FF932091580430E0F901E7
:100A1000E958FD4F8491F901EF5CFD4FD491F90144
:100A2000E551FE4FC491CC2379F081110E94420917
:100A3000EC2FF0E0EE0FFF1FE456FE4FA591B491AE
:100A4000EC91ED2381E009F480E020915C04309189
:100A50005D042F5F3F4F30935D0420935C049091C1
:100A60005B04953618F096E09093570490915704E4
:100A70009430C9F128F4923069F09330D1F05EC01F
:100A8000953009F451C0963009F058C091E0909328
:100A9000280551C0811152C020915C0430915D0441
:100AA0002436310508F442C01092280510925B04E8
:100AB0001CC0813009F042C0E0915B0491E09E0FC0
:100AC00090935B04F0E020915C0430915D04EE0FA4
:100AD000FF1FE95AFB4F3087278310925D04109265
:100AE0005C0494E029C0811117C0E0915B0491E09F
:100AF0009E0F90935B04F0E020915C0430915D04C4
:100B0000EE0FFF1FE95AFB4F3087278310925D04D9
:100B100010925C0493E010C020915C0430915D045D
:100B20002536310558F007C0811108C010925D04C8
:100B300010925C0403C095E09093570490915A047E
:100B40009923B9F081110AC080915904882321F0BA
:100B50008091590461E009C02F9A0BC0809159041B
:100B6000882331F08091590460E00E94980901C007
:100B70002F98FF91EF91DF91CF91BF91AF919F910E
:100B80008F917F916F915F914F913F912F910F9036
:100B90000BBE0F900FBE0F901F9018951F920F92D3
:100BA0000FB60F9211240BB60F922F933F934F93D2
:100BB0005F936F937F938F939F93AF93BF93EF93C5
:100BC000FF938091590287FF05C010928500109213
:100BD000840016C020915902022E000C330B809124
:100BE000650590E0281739075CF43091590225E03B
:100BF0003203F0011124E75DFA4F808186FD15C0B4
:100C0000809159028F5F8093590220915902022EE0
:100C1000000C330B8091650590E02817390794F498
:100C2000809159028C302CF10DC030915902320361
:100C3000F0011124E75DFA4F808160E08F730E941C
:100C40009809DECF809184009091850084349C497E
:100C500018F480E49CE905C080918400909185009F
:100C6000049690938900809388008FEF80935902B7
:100C70002AC040918400509185003091590225E0AE
:100C80003203F0011124E75DFA4F81819281840FD4
:100C9000951F909389008093880030915902320308
:100CA000F0011124E75DFA4F808186FF0CC030917E
:100CB00059023203F0011124E75DFA4F808161E0AF
:100CC0008F730E949809FF91EF91BF91AF919F910F
:100CD0008F917F916F915F914F913F912F910F90E5
:100CE0000BBE0F900FBE0F901F901895309173029E
:100CF000313208F04BC0809171028111FCCF90918C
:100D00004E0622E02093710221E0209370022FEF23
:100D100020932C0610922B0630932A06EEE2F6E082
:100D2000AAE0B6E020E0321721F041914D932F5F09
:100D3000FACF1092090620910906990F922B9093F1
:100D4000090690916F02913061F410926F029091B8
:100D500009069093BB009091BC0093FDF8CF95ECF1
:100D600001C095EE9093BC00909171029230E1F336
:100D700090912C069F3F79F080912C06803241F0B3
:100D800080912C06803331F084E005C081E003C0FF
:100D900082E001C083E010927202109273021092FE
:100DA0002D06089585ED8093BC008091BC0084FDE4
:100DB000FCCF1092710208954091E405262F30E097
:100DC000240F311D21323105DCF4209171022430D1
:100DD000C9F4FC0180E090E0861758F43091E405F6
:100DE0002191DC01AC53BA4FA30FB11D2C93019696
:100DF000F3CF8091E405680F6093E40580E00895E7
:100E000081E0089582E00895089508950895E0919D
:100E10006A0280916902E81730F4F0E0EC55FA4F6D
:100E2000808190E008958FEF9FEF089590916A027E
:100E300080916902981750F4E92FF0E0EC55FA4FD1
:100E4000208130E09F5F90936A0202C02FEF3FEF56
:100E5000C90108958091690290E020916A02821B85
:100E600091090895CF92DF92EF92FF920F931F9313
:100E7000CF93DF937C01CB018A0120912D062223A1
:100E800089F0EB016B01C40ED51ECC15DD0569F0B0
:100E90006991D701ED91FC910190F081E02DC7019E
:100EA0001995F3CF642F0E94DC06C801DF91CF9122
:100EB0001F910F91FF90EF90DF90CF900895CF9307
:100EC000DF931F92CDB7DEB7698320912D062223D1
:100ED000D1F020917302203240F021E030E0FC019B
:100EE0003383228380E090E015C080917202E82F66
:100EF000F0E0E25DF94F998190838F5F80937202F9
:100F00008093730205C061E0CE0101960E94DC0669
:100F100081E090E00F90DF91CF9108950F931F93A0
:100F2000CF93DF93162F072FCDE6D5E09C8521E0E8
:100F300020932D0690934E06109272021092730227
:100F4000AA85BB85ED91FC9111970190F081E02D70
:100F5000682FCD0119958A859B85DC01ED91FC9167
:100F60000190F081E02D602F19958A859B85DC0129
:100F7000ED91FC910190F081E02D612F1995DF91A9
:100F8000CF911F910F910C947606FC01248131E0E2
:100F900030932D0620934E06109272021092730227
:100FA0008485682B84E792E00E945F070C947606A4
:100FB0000F931F93CF938C01C62F64600E94C507C7
:100FC0006C2F6B7FC8010E94C50783EC90E00197EE
:100FD000F1F7CF911F910F910895FC01A089B1897C
:100FE0008C91A689B78982FD0FC09C91818D8F5FFE
:100FF0008F73228D821749F0218DDF01A20FB11D61
:101000005D969C93818F08958C9108951F920F9205
:101010000FB60F9211240F900FBE0F901F901895CE
:101020001F920F920FB60F9211240BB60F922F93AF
:101030003F934F935F936F937F938F939F93AF9360
:10104000BF93EF93FF938091B900887F803609F4B6
:101050009CC068F5883209F45BC090F4803109F4D3
:1010600054C038F4882309F4F6C0883009F44DC020
:10107000F6C0883109F44CC0803209F45DC0EFC07D
:10108000803409F468C048F4803309F455C08833CB
:1010900009F0E5C080932C06D8C0803509F44FC014
:1010A000883509F45DC0883409F0D9C0D6C08839C4
:1010B00009F4C7C0A8F4883709F467C038F4883643
:1010C00009F463C0803709F460C0C9C0883809F4E6
:1010D000B8C0803909F45FC0803809F0C0C05BC077
:1010E000803B09F486C038F4803A09F466C0883A37
:1010F00009F47FC0B4C0803C09F4A7C0883C09F45F
:10110000A4C0883B09F48AC0AAC08091090610C017
:1011100090912B0680912A06981770F5E0912B0686
:1011200081E08E0F80932B06F0E0E65FF94F80811F
:101130008093BB0085EC86C080932C068EC0E09126
:101140002B0681E08E0F80932B068091BB00F0E090
:10115000E65FF94F808390912B0680912A066EC03E
:10116000E0912B0681E08E0F80932B068091BB00CF
:10117000F0E0E65FF94F80838091700281116DC0CD
:1011800081E080936F0284EA61C083E08093710202
:1011900010920606CFCF80910606803208F051C02B
:1011A000E091060681E08E0F809306068091BB00D9
:1011B000F0E0EA51FA4F8083BDCF85EC8093BC000C
:1011C0001092710280910606803230F4E09106069A
:1011D000F0E0EA51FA4F10826091060670E0E0916B
:1011E0006D02F0916E0286EE95E01995109206065A
:1011F00036C084E0809371021092E5051092E405F8
:10120000E0916B02F0916C0219958091E4058111D7
:1012100005C081E08093E4051092C405E091E505E6
:1012200081E08E0F8093E505F0E0EC53FA4F80816A
:101230008093BB009091E5058091E405981708F430
:1012400079CF85E88093BC000AC085EC8093BC0010
:101250001092710204C010922C060E94D206FF91D7
:10126000EF91BF91AF919F918F917F916F915F911E
:101270004F913F912F910F900BBE0F900FBE0F908B
:101280001F90189590E0FC013197E231F10508F0CC
:101290004EC08827EE58FF4F8F4F0C94500E809110
:1012A00080008F7703C0809180008F7D80938000C5
:1012B000089580918000877FF9CF84B58F7702C031
:1012C00084B58F7D84BD08958091B0008F7703C071
:1012D0008091B0008F7D8093B00008958091900040
:1012E0008F7707C0809190008F7D03C08091900020
:1012F000877F8093900008958091A0008F7707C02A
:101300008091A0008F7D03C08091A000877F809393
:10131000A0000895809120018F7707C0809120015F
:101320008F7D03C080912001877F809320010895E5
:101330001F93CF93DF93282F30E0F901E958FD4F39
:101340008491F901EF5CFD4FD491F901E551FE4F15
:10135000C491CC23C1F0162F81110E944209EC2FB9
:10136000F0E0EE0FFF1FEF52FE4FA591B4919FB733
:10137000F894111104C08C91D095D82302C0EC913F
:10138000DE2BDC939FBFDF91CF911F910895CF9308
:10139000DF9390E0FC01EF5CFD4F2491FC01E551EF
:1013A000FE4F8491882361F190E0880F991FFC0122
:1013B000E954FE4FC591D491FC01EF52FE4FA59127
:1013C000B491611109C09FB7F89488812095822358
:1013D0008883EC912E230BC0623061F49FB7F894A0
:1013E0008881322F309583238883EC912E2B2C9388
:1013F0009FBF06C08FB7F894E8812E2B28838FBF3C
:10140000DF91CF910895789484B5826084BD84B5CE
:10141000816084BD85B5826085BD85B5816085BDEF
:1014200080916E00816080936E00109281008091A7
:10143000810082608093810080918100816080932F
:101440008100809180008160809380008091B10054
:1014500084608093B1008091B00081608093B0007F
:1014600080919100826080939100809191008160D1
:101470008093910080919000816080939000809192
:10148000A10082608093A1008091A100816080937F
:10149000A1008091A00081608093A0008091210133
:1014A00082608093210180912101816080932101DC
:1014B0008091200181608093200180917A00846076
:1014C00080937A0080917A00826080937A00809184
:1014D0007A00816080937A0080917A00806880939E
:1014E0007A001092C100E091CA03F091CB0382E030
:1014F0008083E091C603F091C7031082E091C80396
:10150000F091C9038FEC80831092D203E091CE0357
:10151000F091CF0386E08083E091CC03F091CD037E
:10152000808180618083E091CC03F091CD03808144
:1015300088608083E091CC03F091CD038081806846
:101540008083E091CC03F091CD0380818F7D8083F7
:1015500061E080916E050E94C70960E080916E0590
:101560000E94980960E080916D050E94C70984E798
:1015700092E0909378058093770510926A0210921A
:10158000690210927202109273021092710281E04D
:101590008093700210926F0261E084E10E949809CA
:1015A00061E085E10E9498098091B9008E7F809367
:1015B000B9008091B9008D7F8093B90088E4809351
:1015C000B80085E48093BC0084E097E090936C02BF
:1015D00080936B0285E097E090936E0280936D029A
:1015E00080E090E1A0E0B0E080937A0590937B05E5
:1015F000A0937C05B0937D058AE090E0A0E0B0E088
:1016000080937E0590937F05A0938005B09381051C
:1016100080E090E0A0E0B0E48093820590938305A1
:10162000A0938405B093850560E070E185E00E9499
:101630008E076FE979E380E00E948E07CDE6D5E062
:101640008E0142E0742E50E2A52E52E0B52E66E6E1
:10165000862E62E0962E7BECE72E77E0F72EEBE805
:10166000CE2EDD24D394F80194818281898F9A8FC4
:1016700061E00E94C70961E08A8D0E94C709F801F4
:10168000908586818D8F9E8F61E00E94C70960E002
:101690008E8D0E94C70961E08D8D0E9498096FB6FA
:1016A000F89480915F02811126C0F5018491F401C4
:1016B0002491E82FF0E0EE0FFF1FE954FE4FA591B3
:1016C000B4919C91822F892321F461E085E30E94EB
:1016D000980961E085E30E94C7098CB580618CBDE3
:1016E0008CB580648CBD61E084E30E94C70961E031
:1016F00083E30E94C70980915F028F5F80935F023E
:101700006FBEC7010197F1F760E08D8D0E949809C7
:1017100088E80E94DA0283E00E94DA0261E08D8D9F
:101720000E949809C7010197F1F760E08D8D0E9432
:10173000980988E90E94DA0280E00E94DA0280E0DB
:101740000E94DA0280E00E94DA0280E00E94DA025F
:1017500061E08D8D0E949809C6010197F1F760E064
:101760008D8D0E94980980EE0E94DA0261E08D8DD5
:101770000E9498097A940F5F1F4F2296711073CFC1
:10178000C2E9D5E060E089910E94C709F5E0C63959
:10179000DF07C1F70EE815E0E80185E0E82E9CE0E0
:1017A000C92E22E0D22E88898C3008F045C0F884FA
:1017B00061E08F2D0E94C7098889E89EF0011124FD
:1017C000E75DFA4F9F2D9F732081207CF22EF92A2E
:1017D000F082138214826C2D0E94440E9CE0899F3B
:1017E000A001112420E030E0BA01620F731FE69ED1
:1017F000F001E79EF00D1124E75DFA4F908196FD10
:1018000012C02F5F3F4F2C30310571F781110BC093
:1018100010928000D0928100109285001092840076
:10182000D6BAD0926F00E889EE9EF0011124E75DF0
:10183000FA4F8081806480839E858C85F801828B3D
:10184000938B60E00E94C70961E0F80183890E94E0
:10185000C70960E0F80183890E94980921960E5F0C
:101860001F4FF5E0C039DF0709F09DCFF8941092C3
:10187000200189E08093210180E293E09093290187
:1018800080932801109225011092240182E0809318
:10189000730078948093570410925B0480915804ED
:1018A00060E00E94C7090E94AD02FDCF80916605ED
:1018B000909167050C94F00E1092770210927602C8
:1018C00088EE93E0A0E0B0E08093780290937902F4
:1018D000A0937A02B0937B0223E132E03093750249
:1018E00020937402109283021092820280938402E9
:1018F00090938502A0938602B093870225E232E09E
:10190000309381022093800245E351E050938D0291
:1019100040938C0244E351E050938F0240938E0237
:1019200040E351E0509391024093900241E351E033
:10193000509393024093920242E351E050939502F8
:101940004093940246E351E05093970240939602ED
:101950001092990210929A0210929B0210929C028D
:101960001092200310921F0380932103909322036F
:10197000A0932303B093240330931E0320931D03ED
:1019800045ED50E050932A034093290344ED50E085
:1019900050932C0340932B0340ED50E050932E03C3
:1019A00040932D0341ED50E05093300340932F03BB
:1019B00042ED50E0509332034093310346ED50E046
:1019C000509334034093330310923603109237033D
:1019D00010923803109239031092BD031092BC0389
:1019E0008093BE039093BF03A093C003B093C10341
:1019F0003093BB032093BA0385EC90E09093C70328
:101A00008093C60384EC90E09093C9038093C8034D
:101A100080EC90E09093CB038093CA0381EC90E03C
:101A20009093CD038093CC0382EC90E09093CF030E
:101A30008093CE0386EC90E09093D1038093D00303
:101A40001092D3031092D4031092D5031092D603B0
:101A50008091070290910802A0910902B0910A02B8
:101A600080938E0590938F05A0939005B093910578
:101A700080910B0290910C02A0910D02B0910E0288
:101A80008093920590939305A0939405B093950548
:101A900084E08093960587E08093970510929805DF
:101AA00084EB8093990586E180939A0588E1809381
:101AB0009B0587E180939C0589E180939D05E091DA
:101AC0006505EC3020F08FEF80939E0510C081E01B
:101AD0008E0F80936505E0939E0585E0E89FF001F9
:101AE0001124E75DFA4F88EB9BE092838183E091BC
:101AF0006505EC3020F08FEF80939F0510C081E0EA
:101B00008E0F80936505E0939F0585E0E89FF001C7
:101B10001124E75DFA4F88EB9BE0928381838CE090
:101B200080936D0584E280936E0586E080936F0557
:101B300085E0809370058FE1809371058EE180933D
:101B4000720583E28093730582E28093740585E4D5
:101B50008093750584E48093760580E4809379050D
:101B600010927E0510927F051092800510928105DB
:101B700010928205109283051092840510928505BB
:101B8000E3E5F6E021E137E08FEF9FEFDC01128221
:101B9000138214821582168217821086118683871B
:101BA0009487A587B6878787908BA18BB28B128687
:101BB0001182108273962E173F0749F78DE090E04F
:101BC0000E94580EFC011382128287E392E09183F7
:101BD0008083118687E2848384E1828784E083871F
:101BE0001486F0935006E0934F061092510610921F
:101BF000520685E28093580410925A0410926705A9
:101C000010926605109269051092680510926B0596
:101C100010926A0561E070E080E090E00E94790F28
:101C2000009789F090936705809366051092690587
:101C30001092680520916A0530916B05232BC1F441
:101C4000FC01108215C08091660590916705009790
:101C500011F00E94F00E1092670510926605109226
:101C60006B0510926A051092690510926805089537
:101C700010926B0510926A056FE372E08091660521
:101C8000909167050C946C10991B79E004C0991F22
:101C9000961708F0961B881F7A95C9F780950895C6
:101CA000EE0FFF1F881F8BBF0790F691E02D199450
:101CB0000F931F93CF93DF938230910510F482E04E
:101CC00090E0E0911307F091140720E030E0A0E0ED
:101CD000B0E0309719F1408151810281138148179A
:101CE0005907C8F08417950769F4109731F01296D8
:101CF0000C93129713961C9327C00093130710930D
:101D0000140722C02115310519F04217530718F4A2
:101D10009A01BD01EF01DF01F801DBCF211531058B
:101D2000F9F0281B390B2430310580F48A819B811E
:101D30006115710521F0FB019383828304C09093A8
:101D4000140780931307FE01329644C0FE01E20F90
:101D5000F31F8193919322503109398328833AC02C
:101D60002091110730911207232B41F42091030297
:101D70003091040230931207209311072091010241
:101D8000309102022115310541F42DB73EB7409143
:101D9000050250910602241B350BE0911107F091CA
:101DA0001207E217F307A0F42E1B3F0B2817390781
:101DB00078F0AC014E5F5F4F2417350748F04E0FA7
:101DC0005F1F50931207409311078193919302C0B4
:101DD000E0E0F0E0CF01DF91CF911F910F910895E6
:101DE000CF93DF93009709F481C0FC0132971382EF
:101DF0001282A0911307B0911407109781F42081EB
:101E00003181820F931F20911107309112072817FB
:101E1000390751F5F0931207E093110767C0ED0100
:101E200020E030E0CE17DF0740F44A815B819E015D
:101E300041155105F1F0EA01F5CFD383C28340810A
:101E40005181840F951FC817D90759F4888199814A
:101E5000840F951F0296918380838A819B8193834F
:101E600082832115310529F4F0931407E0931307B9
:101E70003DC0E901FB83EA8349915991C40FD51F05
:101E8000EC17FD0761F480819181840F951F029604
:101E9000E90199838883828193819B838A83E0E02F
:101EA000F0E012968D919C911397009719F0FD0127
:101EB000DC01F7CF8D919C9111979D012E5F3F4FD3
:101EC000820F931F209111073091120728173907AD
:101ED00069F4309729F4109214071092130702C086
:101EE00013821282B0931207A0931107DF91CF9152
:101EF00008956F927F928F929F92AF92BF92CF92EE
:101F0000DF92EF92FF920F931F93CF93DF9300978F
:101F100089F4CB01DF91CF911F910F91FF90EF904A
:101F2000DF90CF90BF90AF909F908F907F906F90F9
:101F30000C94580EFC01E60FF71F9C01225031094A
:101F4000E217F30708F4A9C0EC01D9010D911C9127
:101F5000119706171707B0F00530110508F49BC05C
:101F6000C80104978617970708F495C00250110915
:101F7000061B170B019311936D937C93CF010E9465
:101F8000F00E89C05B01A01AB10A4C01800E911EAF
:101F9000A0911307B0911407612C712CE12CF12C46
:101FA000109709F446C08D919C911197A815B90519
:101FB000B1F56C0142E0C40ED11CCA14DB0478F107
:101FC0004C018A189B08640142E0C40ED11C129691
:101FD000BC9012971396AC91B5E0CB16D10440F0AB
:101FE000B282A38391828082D9016D937C9309C0D0
:101FF0000E5F1F4F800F911FF90191838083EB2D9E
:10200000FA2FE114F10431F0D7011396FC93EE930B
:10201000129741C0F0931407E09313073CC0681671
:10202000790608F43C017D0112960D90BC91A02D1B
:10203000B7CF809111079091120788169906E1F4A5
:1020400066167706C8F4809101029091020200970B
:1020500041F48DB79EB74091050250910602841B52
:10206000950BE817F907C8F4F0931207E0931107EE
:10207000F901718360830FC0CB010E94580E7C016F
:10208000009759F0A801BE010E946310CE010E9482
:10209000F00EC70104C0CE0102C080E090E0DF91E5
:1020A000CF911F910F91FF90EF90DF90CF90BF9055
:1020B000AF909F908F907F906F90089581E090E017
:1020C000F8940C947310FB01DC0102C001900D9296
:1020D00041505040D8F70895FB01DC0101900D926A
:1020E0000020E1F7089511E0C0E6D1E000E006C06D
:1020F000802FFE010E94500E2196011DC136D1078E
:0A21000080E00807A9F7F894FFCF6C
:10210A00FF000015072000363738391B1D1A1C003E
:10211A000000005F073207E20206072A07160707D0
:10212A0007000000003B029401BE018802EF01CDC6
:10213A0001E10100000000E7029401E202E102006D
:00000001FF
