:100000000C9495010C94C6010C94C6010C94C60185
:100010000C94C6010C94C6010C94C6010C94C60144
:100020000C94C6010C94C80C0C94C80C0C94C80C0D
:100030000C94C6010C94C6070C94C6010C94C6011E
:100040000C94C6010C9418100C94C6010C94C601B3
:100050000C94C6010C94C6010C94C6010C947C0748
:100060000C94C6010C9435090C940B090C94C60130
:100070000C94C6010C94C6010C94C6010C94C601E4
:100080000C94C6010C94C6010C94C6010C94C601D4
:100090000C94C6010C94C6010C94C6010C94960BEA
:1000A0000C94C6010C94C6010C94C6010C94C601B4
:1000B0000C94C6010C94C6010C94C6010C94880DD6
:1000C0000C94C6010C94C6010C94C6010C94E10872
:1000D0000C94B7080C94C6010C948D080C9463081A
:1000E0000C94C601CB06CE06BD06C106C7060507A1
:1000F000D206D606DC06E006E406EA06EE06F206BE
:100100000507F806FC060007C80ECD0ED20EDC0E61
:10011000E60E5F0FF00EF80E000F0A0F140F1E0F01
:100120002D0F370F5F0F410F4B0F550F0C94D20659
:100130000C94FF050C9405070C941E0F0C94E60E0E
:100140000C94CB060C94CE060C940A0F0C9441062A
:100150000C94000F0C941B0A0C946A160C942D0F2F
:100160000C94370F0C944B0F0C94C6050C94C106DD
:100170000C94D6060C94550F0C94E0060C94F80ED3
:100180000C94EA060C94010D0C94FC060C94140FCC
:100190000C943D0D0C94410F0C94F2060C94BD068A
:1001A0000C948E060C94F0050C943E0D0C941306E2
:1001B0000C94DC0E0C9400070C94130A0C94D20ED1
:1001C0000C94ED090C94F00E0C94E4060C94EF09D9
:1001D0000C945F0F0C94DC060C9482140C94EE09C2
:1001E0000C94EE060C94480A0C94FF090C94C80E6B
:1001F0000C94410D0C94F0090C94C7060C94F8066D
:100200000C94CD0E0200002100240027002A002DAE
:10021000003000330001010000040107010A010061
:10022000002200250028002B002E0031003400029F
:10023000010000050108010B01050505050705087A
:10024000080808020202020A0A0808040404040159
:10025000010101010101010303030303030303047B
:100260000707070C0C0C0C0C0C0C0C02020202060B
:10027000060606060606060B0B0B0B0B0B0B0B01FB
:1002800002102020080810204010204080020102A7
:10029000010804020101020408102040808040206F
:1002A00010080402018004020180402010080402AA
:1002B0000108040201010204081020408001020428
:1002C000081020408000000A0B02090C0D0E0807E0
:1002D0000304010000000000000000000000000016
:1002E000000000000000000000000000000000000E
:1002F00000121110000000000000000000000000CB
:1003000000000000000000000000000000200023AA
:1003100000260029002C002F0032000001000003FD
:1003200001060109010082146A1611241FBECFEFD5
:10033000D1E2DEBFCDBF00E00CBF12E0A0E0B2E032
:10034000E8E1F6E300E00BBF02C007900D92AC3588
:10035000B107D9F727E0ACE5B2E001C01D92A831A2
:10036000B207E1F711E0C4E9D1E000E006C021974F
:100370000109802FFE010E94BD17C339D10780E01B
:100380000807A9F70E94F7100C94FA1A0C940000C1
:10039000CF92DF92EF92FF9280E00E94C01081E046
:1003A0000E94C0104AE06FE37FE080E090E00E948E
:1003B000B10A8FE392E00E949F0A4DEC5CEC6CE482
:1003C0007EE388E895E00E94670E4DEC5CEC6CE4FF
:1003D0007EE38AE895E00E94670E6FE070E080E0BF
:1003E00090E00E9442078EE895E00E94B30F6B01F7
:1003F0007C018CE895E00E94B30F9B01AC0188273B
:100400009927DC01821B930BA40BB50B8F339F4004
:10041000A105B105DCF040E050E0BA0188E895E0C4
:100420000E94670E42ECC41640EFD4064FEFE4067C
:10043000F4069CF640E050E060E070E88AE895E061
:10044000FF90EF90DF90CF900C94670E52ECC516A2
:1004500050EFD5065FEFE506F5060CF0BECF40E0A5
:1004600050E060E070E8B5CFCF92DF92EF92FF925C
:100470006B017C0180E00E94C01081E00E94C010EE
:10048000C701B6010E94721627E33DE847EA5EE322
:100490000E94D11621EF32E84FEB51E40E9432184E
:1004A00020E030E048E455E40E94D1160E94A418F0
:1004B0006B017C01161617061806190634F540E084
:1004C00050E060E87EE388E895E00E94670E6FE008
:1004D00070E080E090E00E9442078CE895E00E9486
:1004E000B30F9B01AC0188279927DC01821B930B7A
:1004F000A40BB50B8C159D05AE05BF0544F340E07C
:1005000050E0BA0188E895E029C040E050E060E89A
:100510007EEB8AE895E00E94670E60E070E0CB0118
:10052000F094E094D094C094C11CD11CE11CF11C47
:100530006C157D058E059F055CF46FE070E080E032
:1005400090E00E9442078EE895E00E94B30FF0CF42
:1005500040E050E060E070E88AE895E0FF90EF90BE
:10056000DF90CF900C94670E2F923F924F925F9244
:100570006F927F928F929F92AF92BF92CF92DF92B3
:10058000EF92FF920F931F93CF93DF9300D000D091
:10059000CDB7DEB721EF32E84FEB51E40E943218BD
:1005A00020E030E048E455E40E94D1160E94A418EF
:1005B0004B015C0180E00E94C01081E00E94C010ED
:1005C0004DEC5CEC6CEC7EE388E895E00E94670EF5
:1005D0004DEC5CEC6CEC7EEB8AE895E00E94670EDB
:1005E00082EC282E3324339400E010E01E821D821A
:1005F000A501940120583C404109510929833A83BF
:100600004B835C834D815E81CA01550FAA0BBB0BE6
:1006100029813A814B815C8182179307A407B50732
:100620000CF06EC064E670E080E090E00E9442074B
:100630008CE895E00E94B30F6B017C018EE895E099
:100640000E94B30F4424552432014C185D086E08F3
:100650007F086201C61AD70A4D815E81440D551D7F
:100660005E834D83060F171F1A01201A310A0D2CC5
:10067000000CEE08FF08C701B6010E94F20A82E4EE
:1006800092E00E949F0A2101032C000C6608770863
:10069000C301B2010E94F20A8FE392E00E949F0A16
:1006A000C701B6010E94721624E330E847E35AE31B
:1006B0000E94D1162DEC3CEC4CEC5EE30E94C61778
:1006C0006B017C01C301B2010E9472162CEA35EC69
:1006D00047EA57E30E94D1169B01AC01C701B6015E
:1006E0000E94C617AB01BC0170588AE895E00E94D1
:1006F000670E80E00E94C01081E00E94C01082CF8F
:100700004DEC5CEC6CE47EE388E895E00E94670EBB
:100710004DEC5CEC6CE47EEB8AE895E00E94670EA1
:100720002D813E81C901330FAA0BBB0B881599059A
:10073000AA05BB050CF05CC064E670E080E090E0C8
:100740000E9442078CE895E00E94B30F6B017C0188
:100750008EE895E00E94B30FF094E094D094C0949A
:10076000C11CD11CE11CF11C4D815E814C0D5D1D35
:100770005E834D83060F171F9A01201B310B220E3B
:10078000331EC61AD70AB601DD0C880B990B0E94DE
:10079000721624E330E847E35AE30E94D1162DECA9
:1007A0003CEC4CE45EE30E94C6176B017C01B10196
:1007B000032C000C880B990B0E9472162CEA35EC66
:1007C00047EA57E30E94D1169B01AC01C701B6016D
:1007D0000E94C617AB01BC0170588AE895E00E94E0
:1007E000670E80E00E94C01081E00E94C01098CF88
:1007F00040E050E0BA0188E895E00E94670E40E0D2
:1008000050E060E070E88AE895E026960FB6F8942C
:10081000DEBF0FBECDBFDF91CF911F910F91FF9033
:10082000EF90DF90CF90BF90AF909F908F907F9090
:100830006F905F904F903F902F900C94670E2F9287
:100840003F924F925F926F927F928F929F92AF9260
:10085000BF92CF92DF92EF92FF920F931F93CF93AD
:10086000DF9300D000D0CDB7DEB721EF32E84FEBF9
:1008700051E40E94321820E030E048E455E40E9440
:10088000D1160E94A4182B013C0180E00E94C010E8
:1008900081E00E94C01040E050E060E07FE388E823
:1008A00095E00E94670E40E050E060E07FEB8AE850
:1008B00095E00E94670E22EC222E3324339400E050
:1008C00010E01E821D82A301920120583C40410984
:1008D000510929833A834B835C834D815E81CA0130
:1008E000550FAA0BBB0B29813A814B815C81821782
:1008F0009307A407B5070CF06EC064E670E080E0D3
:1009000090E00E9442078CE895E00E94B30F6B01D3
:100910007C018EE895E00E94B30F8824992454014D
:100920008C189D08AE08BF086401C61AD70A4D810D
:100930005E81480D591D5E834D83060F171F1A01F6
:10094000201A310A0D2C000CEE08FF08C701B60171
:100950000E94F20A82E492E00E949F0A4101032C65
:10096000000CAA08BB08C501B4010E94F20A8FE37B
:1009700092E00E949F0AC701B6010E94721624E30A
:1009800030E847E35AE30E94D11620E030E040E02F
:100990005FE30E94C6176B017C01C501B4010E9490
:1009A000721627E137EB41E559E30E94D1169B010E
:1009B000AC01C701B6010E94C617AB01BC0170585B
:1009C0008AE895E00E94670E80E00E94C01081E0F6
:1009D0000E94C01082CF8FE1E82EF12C812C912C47
:1009E000A12C9FE3B92E2AE037ED43E25CE3C50179
:1009F000B4010E94C5174B015C01AB01BC0188E842
:100A000095E00E94670EB501A40170588AE895E050
:100A10000E94670E63E070E080E090E00E94420771
:100A200051E0E51AF108F9F62D813E81C901330F35
:100A3000AA0BBB0B84159505A605B7050CF05AC08B
:100A400064E670E080E090E00E9442078CE895E068
:100A50000E94B30F6B017C018EE895E00E94B30FFA
:100A6000F094E094D094C094C11CD11CE11CF11C02
:100A70004D815E814C0D5D1D5E834D83060F171FFA
:100A80009A01201B310B220E331EC61AD70AB6015B
:100A9000DD0C880B990B0E94721624E330E847E3C3
:100AA0005AE30E94D116A50194010E94C6176B015A
:100AB0007C01B101032C000C880B990B0E9472166B
:100AC00027E137EB41E559E30E94D116A7019601D2
:100AD0000E94C6174B015C01AB01BC0170588AE84B
:100AE00095E00E94670E80E00E94C01081E00E94A5
:100AF000C0109ACF40E050E0BA0188E895E00E942B
:100B0000670E40E050E060E070E88AE895E02696E5
:100B10000FB6F894DEBF0FBECDBFDF91CF911F910E
:100B20000F91FF90EF90DF90CF90BF90AF909F908C
:100B30008F907F906F905F904F903F902F900C948C
:100B4000670E3FB7F8948091670290916802A09178
:100B50006902B0916A0226B5A89B05C02F3F19F023
:100B60000196A11DB11D3FBFBA2FA92F982F88272D
:100B7000820F911DA11DB11DBC01CD0142E0660F88
:100B8000771F881F991F4A95D1F70895CF92DF925A
:100B9000EF92FF920F931F93CF93DF936C017A0133
:100BA0008B01C0E0D0E0CE15DF0581F0D8016D915A
:100BB0008D01D601ED91FC910190F081E02DC601EF
:100BC0001995892B11F02196EECF7E01C701DF9197
:100BD000CF911F910F91FF90EF90DF90CF900895EC
:100BE000FC01538D448D252F30E0842F90E0821B33
:100BF000930B541710F0CF96089501970895FC01B8
:100C0000918D828D981761F0828DDF01A80FB11D43
:100C10005D968C91928D9F5F9F73928F90E0089567
:100C20008FEF9FEF0895FC01918D828D981731F021
:100C3000828DE80FF11D858D90E008958FEF9FEF75
:100C400008950E94E51A82E892E00E94010D21E0D9
:100C5000892B09F420E0822F08958FE193E00E9410
:100C6000010D21E0892B09F420E0822F08958CEBFF
:100C700093E00E94010D21E0892B09F420E0822FEE
:100C80000895EF92FF920F931F93CF93DF93EC01A0
:100C900081E0888F9B8D8C8D981305C0E889F98938
:100CA000808185FD26C0F62E0B8D10E00F5F1F4F53
:100CB0000F731127E02E8C8DE8120CC00FB607FCC5
:100CC000FACFE889F989808185FFF5CFCE010E94AE
:100CD000660DF1CF8B8DFE01E80FF11DE35AFF4F3A
:100CE000F0829FB7F8940B8FEA89FB89808180623C
:100CF0000AC09FB7F894EE89FF896083E889F98973
:100D000080818370806480839FBF81E090E0DF9169
:100D1000CF911F910F91FF90EF900895CF93DF93A4
:100D2000EC01888D8823C9F0EA89FB89808185FDE3
:100D300005C0A889B9898C9186FD0FC00FB607FC44
:100D4000F5CF808185FFF2CFA889B9898C9185FF85
:100D5000EDCFCE010E94660DE7CFDF91CF910895D0
:100D600090E0FC013197E231F10508F04EC0882790
:100D7000EE58FF4F8F4F0C94BD17809180008F77F6
:100D800003C0809180008F7D8093800008958091C2
:100D90008000877FF9CF84B58F7702C084B58F7DBF
:100DA00084BD08958091B0008F7703C08091B0001A
:100DB0008F7D8093B0000895809190008F7707C059
:100DC000809190008F7D03C080919000877F8093F9
:100DD000900008958091A0008F7707C08091A000B7
:100DE0008F7D03C08091A000877F8093A00008952D
:100DF000809120018F7707C0809120018F7D03C0F3
:100E000080912001877F809320010895CF93DF9305
:100E100090E0FC01E158FD4F2491FC01E75CFD4F9F
:100E20008491882361F190E0880F991FFC01EB5FAA
:100E3000FD4FC591D491FC01E15EFD4FA591B491A8
:100E4000611109C09FB7F894888120958223888317
:100E5000EC912E230BC0623061F49FB7F894888127
:100E6000322F309583238883EC912E2B2C939FBFB8
:100E700006C08FB7F894E8812E2B28838FBFDF91AF
:100E8000CF9108958F929F92AF92BF92CF92DF92AF
:100E9000EF92FF926B017C010E94A1054B015C0166
:100EA000C114D104E104F104F1F00E94A105DC01B8
:100EB000CB0188199909AA09BB09883E9340A1056D
:100EC000B10570F321E0C21AD108E108F10888EEFB
:100ED000880E83E0981EA11CB11CC114D104E1044A
:100EE000F10419F7DDCFFF90EF90DF90CF90BF9026
:100EF000AF909F908F9008951F920F920FB60F9210
:100F000011242F933F938F939F93AF93BF9380911F
:100F1000630290916402A0916502B09166023091E3
:100F2000620223E0230F2D3720F40196A11DB11D8D
:100F300005C026E8230F0296A11DB11D2093620271
:100F40008093630290936402A0936502B09366025B
:100F50008091670290916802A0916902B0916A0243
:100F60000196A11DB11D8093670290936802A09322
:100F70006902B0936A02BF91AF919F918F913F91A7
:100F80002F910F900FBE0F901F9018951F920F92E8
:100F90000FB60F9211240BB60F922F933F934F93DE
:100FA0005F936F937F938F939F93AF93BF93EF93D1
:100FB000FF9380915D0290915E02A0915F02B091DB
:100FC0006002892B8A2B8B2B49F190915C028091D6
:100FD000000089278093000080915D0290915E025D
:100FE000A0915F02B0916002181619061A061B063E
:100FF0000CF056C080915D0290915E02A0915F025C
:10100000B09160020197A109B10980935D029093AC
:101010005E02A0935F02B093600242C08091000222
:10102000E4E0F2E0E4919FEF90930002E230C9F037
:1010300050F4EE2399F0E13081F590916F009D7F9F
:1010400090936F002AC0E43019F1E0F0E53029F503
:10105000909173009D7F909373001FC010926E005B
:101060001CC0909170009D7F9093700091E09093D0
:10107000B0009091B100987F94609093B10010926D
:10108000B3000BC0909171009D7F9093710005C0DB
:10109000909172009D7F9093720060E00E94D20C4C
:1010A000FF91EF91BF91AF919F918F917F916F9140
:1010B0005F914F913F912F910F900BBE0F900FBEFC
:1010C0000F901F9018951F920F920FB60F92112438
:1010D0000BB60F922F933F934F935F936F937F9332
:1010E0008F939F93AF93BF93EF93FF9382E892E028
:1010F0000E94660DFF91EF91BF91AF919F918F91EB
:101100007F916F915F914F913F912F910F900BBE07
:101110000F900FBE0F901F9018951F920F920FB651
:101120000F9211240BB60F922F933F934F935F931F
:101130006F937F938F939F93AF93BF93EF93FF939F
:1011400082E892E00E947D0BFF91EF91BF91AF91F9
:101150009F918F917F916F915F914F913F912F91CF
:101160000F900BBE0F900FBE0F901F9018951F92FF
:101170000F920FB60F9211240BB60F922F933F933D
:101180004F935F936F937F938F939F93AF93BF938F
:10119000EF93FF938FE193E00E94660DFF91EF9133
:1011A000BF91AF919F918F917F916F915F914F917F
:1011B0003F912F910F900BBE0F900FBE0F901F907D
:1011C00018951F920F920FB60F9211240BB60F9223
:1011D0002F933F934F935F936F937F938F939F933F
:1011E000AF93BF93EF93FF938FE193E00E947D0B4A
:1011F000FF91EF91BF91AF919F918F917F916F91EF
:101200005F914F913F912F910F900BBE0F900FBEAA
:101210000F901F9018951F920F920FB60F921124E6
:101220000BB60F922F933F934F935F936F937F93E0
:101230008F939F93AF93BF93EF93FF938CEB93E0C8
:101240000E94660DFF91EF91BF91AF919F918F9199
:101250007F916F915F914F913F912F910F900BBEB6
:101260000F900FBE0F901F9018951F920F920FB600
:101270000F9211240BB60F922F933F934F935F93CE
:101280006F937F938F939F93AF93BF93EF93FF934E
:101290008CEB93E00E947D0BFF91EF91BF91AF919A
:1012A0009F918F917F916F915F914F913F912F917E
:1012B0000F900BBE0F900FBE0F901F90189530919E
:1012C0007502313208F04BC0809173028111FCCF5E
:1012D0009091500622E02093730221E02093720245
:1012E0002FEF20932E0610922D0630932C06E0E36C
:1012F000F6E0ACE0B6E020E0321721F041914D93EA
:101300002F5FFACF10920B0620910B06990F922BAC
:1013100090930B0690917102913061F410927102DA
:1013200090910B069093BB009091BC0093FDF8CF79
:1013300095EC01C095EE9093BC00909173029230B1
:10134000E1F390912E069F3F79F080912E06803236
:1013500041F080912E06803331F084E005C081E0B9
:1013600003C082E001C083E0109274021092750203
:1013700010922F06089585ED8093BC008091BC00EB
:1013800084FDFCCF1092730208954091E805262F4A
:1013900030E0240F311D21323105DCF4209173023D
:1013A0002430C9F4FC0180E090E0861758F43091B5
:1013B000E8052191DC01A853BA4FA30FB11D2C936E
:1013C0000196F3CF8091E805680F6093E80580E00F
:1013D000089581E0089582E008950895089508959C
:1013E000E0916C0280916B02E81730F4F0E0E85570
:1013F000FA4F808190E008958FEF9FEF08959091CC
:101400006C0280916B02981750F4E92FF0E0E855D8
:10141000FA4F208130E09F5F90936C0202C02FEF63
:101420003FEFC901089580916B0290E020916C021A
:10143000821B91090895CF92DF92EF92FF920F9352
:101440001F93CF93DF937C01CB018A0120912F065C
:10145000222389F0EB016B01C40ED51ECC15DD05EE
:1014600069F06991D701ED91FC910190F081E02D37
:10147000C7011995F3CF642F0E94C509C801DF91F8
:10148000CF911F910F91FF90EF90DF90CF90089533
:10149000CF93DF931F92CDB7DEB7698320912F06DC
:1014A0002223D1F020917502203240F021E030E07B
:1014B000FC013383228380E090E015C080917402A8
:1014C000E82FF0E0E05DF94F998190838F5F809382
:1014D00074028093750205C061E0CE0101960E94FE
:1014E000C50981E090E00F90DF91CF910895ECEB7A
:1014F000F3E0A089B18982E08C93A485B5851C9224
:10150000A685B7858FEC8C93108EA489B58986E06B
:101510008C93A289B3898C9180618C93A289B389C1
:101520008C9188608C93A289B3898C9180688C930C
:101530000288F389E02D80818F7D80830895009754
:1015400069F0FC0101900020E9F73197AF01481BD9
:10155000590BBC018CEB93E00C94C60580E090E045
:1015600008958F929F92AF92BF920F931F93CF9344
:10157000DF93CDB7DEB7A1970FB6F894DEBF0FBEED
:10158000CDBF19A2423008F44AE08E010F5D1F4F13
:10159000842E912CA12CB12CA50194010E948F17AF
:1015A000E62FB901CA0101501109EA3014F4E05DD7
:1015B00001C0E95CD801EC93232B242B252B61F788
:1015C000C8010E949F0AA1960FB6F894DEBF0FBE15
:1015D000CDBFDF91CF911F910F91BF90AF909F90A2
:1015E0008F900895CF92DF92EF92FF92CF93DF9387
:1015F00097FF1BC06B017C016DE28CEB93E00E94B6
:101600004106EC0166277727CB016C197D098E090D
:101610009F094AE00E94B10A8C0F9D1FDF91CF9174
:10162000FF90EF90DF90CF9008954AE0DF91CF9147
:10163000FF90EF90DF90CF900C94B10A0F931F931F
:10164000CF93DF93162F072FCFE6D5E09C8521E0BF
:1016500020932F06909350061092740210927502F8
:10166000AA85BB85ED91FC9111970190F081E02D49
:10167000682FCD0119958A859B85DC01ED91FC9140
:101680000190F081E02D602F19958A859B85DC0102
:10169000ED91FC910190F081E02D612F1995DF9182
:1016A000CF911F910F910C945F09FC01248131E0CF
:1016B00030932F06209350061092740210927502F8
:1016C0008485682B86E792E00E94480A0C945F09A3
:1016D0000F931F93CF938C01C62F64600E94550B0C
:1016E0006C2F6B7FC8010E94550B83EC90E0019733
:1016F000F1F7CF911F910F910895FC01A089B18955
:101700008C91A689B78982FD0FC09C91818D8F5FD6
:101710008F73228D821749F0218DDF01A20FB11D39
:101720005D969C93818F08958C9108951F920F92DE
:101730000FB60F9211240BB60F922F933F934F9336
:101740005F936F937F938F939F93AF93BF93EF9329
:10175000FF938091B900887F803609F49CC068F5BA
:10176000883209F45BC090F4803109F454C038F435
:10177000882309F4F6C0883009F44DC0F6C08831DA
:1017800009F44CC0803209F45DC0EFC0803409F424
:1017900068C048F4803309F455C0883309F0E5C0C7
:1017A00080932E06D8C0803509F44FC0883509F4DF
:1017B0005DC0883409F0D9C0D6C0883909F4C7C0E3
:1017C000A8F4883709F467C038F4883609F463C090
:1017D000803709F460C0C9C0883809F4B8C08039BE
:1017E00009F45FC0803809F0C0C05BC0803B09F4D9
:1017F00086C038F4803A09F466C0883A09F47FC09C
:10180000B4C0803C09F4A7C0883C09F4A4C0883B5C
:1018100009F48AC0AAC080910B0610C090912D06D1
:1018200080912C06981770F5E0912D0681E08E0FBF
:1018300080932D06F0E0E45FF94F80818093BB0038
:1018400085EC86C080932E068EC0E0912D0681E047
:101850008E0F80932D068091BB00F0E0E45FF94F7E
:10186000808390912D0680912C066EC0E0912D060C
:1018700081E08E0F80932D068091BB00F0E0E45F45
:10188000F94F80838091720281116DC081E0809355
:10189000710284EA61C083E08093730210920A06A9
:1018A000CFCF80910A06803208F051C0E0910A063D
:1018B00081E08E0F80930A068091BB00F0E0E65134
:1018C000FA4F8083BDCF85EC8093BC0010927302E9
:1018D00080910A06803230F4E0910A06F0E0E65189
:1018E000FA4F108260910A0670E0E0916F02F09169
:1018F00070028AEE95E0199510920A0636C084E0CF
:10190000809373021092E9051092E805E0916D0250
:10191000F0916E0219958091E805811105C081E072
:101920008093E8051092C805E091E90581E08E0FEB
:101930008093E905F0E0E853FA4F80818093BB0083
:101940009091E9058091E805981708F479CF85E82A
:101950008093BC000AC085EC8093BC001092730297
:1019600004C010922E060E94BB09FF91EF91BF9117
:10197000AF919F918F917F916F915F914F913F9127
:101980002F910F900BBE0F900FBE0F901F901895C8
:101990001F920F920FB60F9211240F900FBE0F904F
:1019A0001F9018951F93CF93DF93282F30E0F901F4
:1019B000EB53FD4F8491F901E158FD4FD491F901AA
:1019C000E75CFD4FC491CC23C1F0162F81110E941A
:1019D000B006EC2FF0E0EE0FFF1FE15EFD4FA5918A
:1019E000B4919FB7F894111104C08C91D095D8236D
:1019F00002C0EC91DE2BDC939FBFDF91CF911F9152
:101A00000895FC01918D228D892F90E0805C9F4F7D
:101A1000821B91098F7399270895E0E0F0E01994F3
:101A200080E090E0892B21F00E943706811119C0D7
:101A300080E090E0892B41F080E090E0892B21F05C
:101A40000E940000811110C00E942D0681110FC05C
:101A500080E090E0892B81F00E94230681110AC06A
:101A600008950E940000E4CF0E940000EDCF0E9484
:101A70000D0DEECF0C9400000895089580E090E0E5
:101A800008950F931F93CF93DF938C01C62FD62F0A
:101A9000D07FD1606D2F0E94550B6D2FC8010E9421
:101AA000680B80E1C89FB0011124C62FC1606C2F64
:101AB000C8010E94550B6C2FC8010E94680B81E081
:101AC00090E0DF91CF911F910F910895FC01848DDB
:101AD000DF01A80FB11DA35ABF4F2C91848D90E058
:101AE00001968F739927848FA689B7892C93A08933
:101AF000B1898C91837080648C93938D848D9813BD
:101B000006C00288F389E02D80818F7D808308954F
:101B10001F920F920FB60F9211240BB60F922F93B4
:101B20003F934F935F936F937F938F939F93AF9365
:101B3000BF93CF93DF93EF93FF9320915A0430E04C
:101B4000F901EB53FD4F8491F901E158FD4FD49118
:101B5000F901E75CFD4FC491CC2379F081110E941B
:101B6000B006EC2FF0E0EE0FFF1FE55FFC4FA591F4
:101B7000B491EC91ED2381E009F480E020915E04C2
:101B800030915F042F5F3F4F30935F0420935E04DA
:101B900090915D04953618F096E0909359049091D9
:101BA00059049430C9F128F4923069F09330D1F09F
:101BB0005EC0953009F451C0963009F058C091E0EC
:101BC00090932A0551C0811152C020915E0430913A
:101BD0005F042436310508F442C010922A051092A1
:101BE0005D041CC0813009F042C0E0915D0491E0C9
:101BF0009E0F90935D04F0E020915E0430915F04AD
:101C0000EE0FFF1FE75AFB4F3087278310925F04C8
:101C100010925E0494E029C0811117C0E0915D0428
:101C200091E09E0F90935D04F0E020915E0430916E
:101C30005F04EE0FFF1FE75AFB4F30872783109298
:101C40005F0410925E0493E010C020915E04309116
:101C50005F042536310558F007C0811108C0109285
:101C60005F0410925E0403C095E090935904909134
:101C70005C049923B9F081110AC080915B04882328
:101C800021F080915B0461E009C02F9A0BC0809124
:101C90005B04882331F080915B0460E00E94D20CE9
:101CA00001C02F98FF91EF91DF91CF91BF91AF913C
:101CB0009F918F917F916F915F914F913F912F9164
:101CC0000F900BBE0F900FBE0F901F9018958F9224
:101CD0009F92AF92BF92CF92DF92EF92FF920F93BB
:101CE0001F93CF93DF938C016A017B0120E030E0EA
:101CF0004FE753E4C701B6010E94D1164B015C01C6
:101D000020E030E0A9010E94DA1818161CF4C50181
:101D1000B40103C0C501B40190580E94A418EB019E
:101D200020E030E0A901C701B6010E94DA181816B8
:101D300014F460E001C061E0F80181810E94D20CDE
:101D4000CF3FD10509F014F4DD2702C0CFEFD0E07A
:101D5000F801108161E0812F0E940607209709F4A5
:101D6000B1C0CF3FD10509F4AFC0E12FF0E0EB5394
:101D7000FD4FE4918E2F90E0FC013197E231F105A7
:101D800008F09DC08827EC57FF4F8F4F0C94BD176C
:101D900084B5806884BDC7BDA7C084B5806284BD9A
:101DA000C8BDA2C080918000806880938000D093DD
:101DB0008900C093880098C08091800080628093E1
:101DC0008000D0938B00C0938A008EC080918000E9
:101DD000886080938000D0938D00C0938C0084C075
:101DE0008091B00080688093B000C093B3007CC045
:101DF0008091B00080628093B000C093B40074C042
:101E000080919000806880939000D0939900C09357
:101E100098006AC080919000806280939000D09377
:101E20009B00C0939A0060C080919000886080936E
:101E30009000D0939D00C0939C0056C08091A0005C
:101E400080688093A0008091A0008F7B8093A00089
:101E5000D093A900C093A80047C08091A0008062E1
:101E60008093A000D093AB00C093AA003DC08091A6
:101E7000A00088608093A000D093AD00C093AC0018
:101E800033C080912001806880932001D093290184
:101E9000C093280129C08091200180628093200195
:101EA000D0932B01C0932A011FC08091200188602C
:101EB00080932001D0932D01C0932C0115C0C03810
:101EC000D10514F460E001C061E0812FDF91CF9172
:101ED0001F910F91FF90EF90DF90CF90BF90AF9048
:101EE0009F908F900C94D20CDF91CF911F910F9106
:101EF000FF90EF90DF90CF90BF90AF909F908F902A
:101F000008958EBD00000DB407FEFDCF8EB5089577
:101F1000CF93DF93EC0160E088810E94D20C88E9C6
:101F20000E94810F80E00E94810F80E00E94810F5B
:101F300080E00E94810F80E00E94810F61E0888133
:101F40000E94D20C8BE891E00197F1F760E0888164
:101F50000E94D20C80EE0E94810F61E08881DF91A7
:101F6000CF910C94D20CAF92BF92CF92DF92EF92AE
:101F7000FF920F931F93CF93DF93CDB7DEB7609798
:101F80000FB6F894DEBF0FBECDBF5C0160E0FC0170
:101F900080810E94D20C80E60E94810F8E010F5F2B
:101FA0001F4F7E01F1E1EF0EF11C680180E00E94FD
:101FB000810F90E0A0E0B0E0F60181939193A193AE
:101FC000B1936F01EE15FF0589F761E0F50180819E
:101FD0000E94D20C80E090E0DC01F8014191519127
:101FE000619171918F01BA2FA92F982F8827840FA3
:101FF000951FA61FB71FEE15FF0579F79C01AD01D0
:1020000066277727CB01621B730B840B950B6096B9
:102010000FB6F894DEBF0FBECDBFDF91CF911F91F9
:102020000F91FF90EF90DF90CF90BF90AF90089509
:102030001F920F920FB60F9211240BB60F922F938F
:102040003F934F935F936F937F938F939F93AF9340
:10205000BF93EF93FF938091130787FF05C0109202
:1020600085001092840016C020911307022E000CE8
:10207000330B8091670590E0281739075CF43091A5
:10208000130725E03203F0011124E55DFA4F80814A
:1020900086FD15C0809113078F5F809313072091F1
:1020A0001307022E000C330B8091670590E0281770
:1020B000390794F4809113078C302CF10DC03091C6
:1020C00013073203F0011124E55DFA4F808160E0CF
:1020D0008F730E94D20CDECF809184009091850096
:1020E00084349C4918F480E49CE905C08091840004
:1020F00090918500049690938900809388008FEFDB
:10210000809313072AC0409184005091850030913C
:10211000130725E03203F0011124E55DFA4F8181B8
:102120009281840F951F909389008093880030914D
:1021300013073203F0011124E55DFA4F808186FF19
:102140000CC0309113073203F0011124E55DFA4F02
:10215000808161E08F730E94D20CFF91EF91BF915B
:10216000AF919F918F917F916F915F914F913F912F
:102170002F910F900BBE0F900FBE0F901F901895D0
:10218000CF92DF92EF92FF92823060F087E492E08C
:102190000E949F0A8FE392E00E949F0A60E070E035
:1021A000CB0120C0811112C08CE895E00E94B30FD2
:1021B0006B017C018CE895E00E94880F66277727E9
:1021C000CB016C197D098E099F090CC08EE895E042
:1021D0000E94B30F6B017C018EE895E00E94880F8E
:1021E000B601C701FF90EF90DF90CF9008957894EB
:1021F00084B5826084BD84B5816084BD85B582600C
:1022000085BD85B5816085BD80916E0081608093BC
:102210006E00109281008091810082608093810025
:102220008091810081608093810080918000816035
:10223000809380008091B10084608093B100809190
:10224000B00081608093B0008091910082608093A3
:102250009100809191008160809391008091900025
:102260008160809390008091A10082608093A100A2
:102270008091A10081608093A1008091A000816085
:102280008093A00080912101826080932101809140
:1022900021018160809321018091200181608093E0
:1022A000200180917A00846080937A0080917A0086
:1022B000826080937A0080917A00816080937A00B6
:1022C00080917A00806880937A001092C1000E9409
:1022D000770A61E0809170050E94060760E08091B6
:1022E00070050E94D20C60E080916F050E94060785
:1022F00086E792E090937A058093790510926C02BC
:1023000010926B0210927402109275021092730276
:1023100081E0809372021092710261E084E10E9478
:10232000D20C61E085E10E94D20C8091B9008E7FD1
:102330008093B9008091B9008D7F8093B90088E4C3
:102340008093B80085E48093BC008DEE99E0909373
:102350006E0280936D028EEE99E0909370028093EE
:102360006F0280E090E1A0E0B0E080937C05909364
:102370007D05A0937E05B0937F058AE090E0A0E004
:10238000B0E08093800590938105A0938205B0937F
:10239000830580E090E0A0E0B0E480938405909312
:1023A0008505A0938605B093870560E070E185E020
:1023B0000E941E0B6FE979E380E00E941E0BCFE6BE
:1023C000D5E08E0152E0752E6EE6A62E62E0B62EA6
:1023D00074EB872E72E0972EEBECEE2EE7E0FE2EEC
:1023E000F80194818281898F9A8F61E00E940607AB
:1023F00061E08A8D0E940607F801908586816E0152
:10240000FDE1CF0ED11C8D8F9E8F61E00E940607EB
:1024100060E08E8D0E94060761E08D8D0E94D20CD7
:102420006FB6F89480916102811126C0F501849104
:10243000F4012491E82FF0E0EE0FFF1FEB5FFD4F5A
:10244000A591B4919C91822F892321F461E085E3C9
:102450000E94D20C61E085E30E9406078CB5806182
:102460008CBD8CB580648CBD61E084E30E9406075E
:1024700061E083E30E940607809161028F5F809391
:1024800061026FBEC7010197F1F760E08D8D0E9478
:10249000D20C88E80E94810F83E00E94810F61E0E6
:1024A0008D8D0E94D20CC7010197F1F7C6010E94E1
:1024B000880F7A940F5F1F4F2296711091CF04E915
:1024C00015E0C8E9D5E060E0F80181918F010E9434
:1024D0000607F5E008391F07B1F700E915E08AE9BA
:1024E000E82E85E0F82E95E0D92E2CE0B22E32E0D1
:1024F000C32EA9908F818C3008F044C061E08A2DF2
:102500000E9406078F81D89EF0011124E55DFA4FE5
:102510009A2D9F732081207CA22EA92AA08213824B
:1025200014826B2D0E94B1172CE0829FA001112410
:1025300020E030E0BA01620F731FD69EF001D79EF3
:10254000F00D1124E55DFA4F908196FD12C02F5FCA
:102550003F4F2C30310571F781110BC01092800074
:10256000C09281001092850010928400C6BAC09279
:102570006F00EF81DE9EF0011124E55DFA4F80814E
:10258000806480839D818B81F801828B938B60E0D6
:102590000E94060761E0F80183890E94060760E057
:1025A000F80183890E94D20C0E5F1F4FEC16FD06C6
:1025B00009F09FCFF8941092200189E080932101C7
:1025C00080E293E0909329018093280110922501E5
:1025D0001092240182E080937300789480935904D0
:1025E00010925D0480915A0460E00E9406070E94E8
:1025F000770A60E070E086EE92E40E94B40268EC34
:1026000070E080E090E00E94420766EA7FEF8FEF83
:102610009FEF0E94340268EC70E080E090E00E943E
:10262000420760E070E082EB92E40E94B40268EC42
:1026300070E080E090E00E94420768E570E080E092
:1026400090E00E94340268EC70E080E090E00E942C
:10265000420760E070E080ED91E40E941F0468ECA6
:1026600070E080E090E00E94420768E570E080E062
:1026700090E00E94340268EC70E080E090E00E94FC
:10268000420760E070E080EF91E40E94B40268ECE1
:1026900070E080E090E00E94420761EA7FEF8FEFF8
:1026A0009FEF0E94340268EC70E080E090E00E94AE
:1026B000420760E070E088EC92E40E94B40268ECAB
:1026C00070E080E090E00E9442076EEF7FEF8FEFB6
:1026D0009FEF0E94340268EC70E080E090E00E947E
:1026E000420760E070E086EB92E40E94B40268EC7E
:1026F00070E080E090E00E94420768E570E080E0D2
:1027000090E00E94340268EC70E080E090E00E946B
:10271000420760E070E080EA91E40E941F0468ECE8
:1027200070E080E090E00E94420760EA7FEF8FEF68
:102730009FEF0E94340268EC70E080E090E00E941D
:10274000420760E070E080EF92E40E94B40268EC1F
:1027500070E080E090E00E9442070E94C80164EFB0
:1027600071E080E090E00E94420760E070E088EC59
:1027700092E40E94B40268EC70E080E090E00E9475
:1027800042076DEF7FEF8FEF9FEF0E94340268ECFE
:1027900070E080E090E00E94420760E070E086E137
:1027A00093E40E94B40268EC70E080E090E00E9444
:1027B000420768E570E080E090E00E94340268EC37
:1027C00070E080E090E00E94420760E070E080E707
:1027D00091E40E941F0468EC70E080E090E00E94A9
:1027E000420766EA7FEF8FEF9FEF0E94340268ECAA
:1027F00070E080E090E00E94420760E070E088ECCA
:1028000092E40E94B40268EC70E080E090E00E94E4
:10281000420763E070E080E090E00E94340268ECE0
:1028200070E080E090E00E94420760E070E086EB9C
:1028300092E40E94B40268EC70E080E090E00E94B4
:10284000420768E570E080E090E00E94340268ECA6
:1028500070E080E090E00E94420760E070E080EF6E
:1028600091E40E94B40268EC70E080E090E00E9485
:10287000420766EA7FEF8FEF9FEF0E94340268EC19
:1028800070E080E090E00E94420760E070E080ED40
:1028900091E40E94B40268EC70E080E090E00E9455
:1028A000420766EA7FEF8FEF9FEF0E94340268ECE9
:1028B00070E080E090E00E94420760E070E082EA11
:1028C00092E40E94B40268EC70E080E090E00E9424
:1028D000420768E570E080E090E00E94340268EC16
:1028E00070E080E090E00E94420760E070E086EED9
:1028F00092E40E94B4020E94C8010E94C8010E9492
:10290000100DFDCF109279021092780288EE93E0BC
:10291000A0E0B0E080937A0290937B02A0937C02C7
:10292000B0937D0223E132E0309377022093760268
:1029300010928502109284028093860290938702FF
:10294000A0938802B093890225E232E0309383029B
:102950002093820245E351E050938F0240938E0210
:1029600044E351E0509391024093900240E351E0E0
:10297000509393024093920241E351E050939502A9
:102980004093940242E351E05093970240939602A1
:1029900046E351E0509399024093980210929B02B3
:1029A00010929C0210929D0210929E02109222039D
:1029B000109221038093230390932403A093250373
:1029C000B09326033093200320931F0345ED50E07E
:1029D00050932C0340932B0344ED50E050932E036F
:1029E00040932D0340ED50E05093300340932F036C
:1029F00041ED50E0509332034093310342ED50E0FB
:102A0000509334034093330346ED50E05093360324
:102A100040933503109238031092390310923A0311
:102A200010923B031092BF031092BE038093C00329
:102A30009093C103A093C203B093C3033093BD032B
:102A40002093BC0385EC90E09093C9038093C80366
:102A500084EC90E09093CB038093CA0380EC90E0E9
:102A60009093CD038093CC0381EC90E09093CF03BF
:102A70008093CE0382EC90E09093D1038093D003B7
:102A800086EC90E09093D3038093D2031092D50309
:102A90001092D6031092D7031092D80380910702A8
:102AA00090910802A0910902B0910A0280939005CA
:102AB00090939105A0939205B093930580910B029A
:102AC00090910C02A0910D02B0910E02809394059A
:102AD00090939505A0939605B093970584E0809315
:102AE000980587E08093990510929A0584EB80936E
:102AF0009B0586E180939C0588E180939D0587E195
:102B000080939E0589E180939F05E0916705EC30F5
:102B100020F08FEF8093A00510C081E08E0F80938E
:102B20006705E093A00585E0E89FF0011124E55DCD
:102B3000FA4F88EB9BE092838183E0916705EC304C
:102B400020F08FEF8093A10510C081E08E0F80935D
:102B50006705E093A10585E0E89FF0011124E55D9C
:102B6000FA4F88EB9BE0928381838CE080936F0522
:102B700084E28093700586E08093710585E0809300
:102B800072058FE1809373058EE18093740583E273
:102B90008093750582E28093760585E480937705BE
:102BA00084E48093780580E480937B05109280050F
:102BB000109281051092820510928305109284056F
:102BC000109285051092860510928705E5E5F6E0DE
:102BD00023E137E08FEF9FEFDC0112821382148232
:102BE0001582168217821086118683879487A5879F
:102BF000B6878787908BA18BB28B12861182108249
:102C000073962E173F0749F78DE090E00E94DF187A
:102C1000FC011382128287E392E091838083118604
:102C200087E2848384E1828784E083871486F0933B
:102C30005206E0935106109253061092540685E214
:102C400080935A0410925C041092690510926805F2
:102C500010926B0510926A0510926D0510926C052A
:102C600061E070E080E090E00E94001A009789F037
:102C7000909369058093680510926B0510926A0520
:102C800020916C0530916D05232BC1F4FC0110825D
:102C900015C08091680590916905009711F00E9418
:102CA0007719109269051092680510926D051092BF
:102CB0006C0510926B0510926A05089510926D05CF
:102CC00010926C0561E472E080916805909169054D
:102CD0000C94F31A80916805909169050C9477190A
:102CE000E89409C097FB3EF49095809570956195A6
:102CF0007F4F8F4F9F4F9923A9F0F92F96E9BB275C
:102D00009395F695879577956795B795F111F8CFD7
:102D1000FAF4BB0F11F460FF1BC06F5F7F4F8F4F42
:102D20009F4F16C0882311F096E911C0772321F038
:102D30009EE8872F762F05C0662371F096E8862FD0
:102D400070E060E02AF09A95660F771F881FDAF727
:102D5000880F9695879597F90895990F0008550F54
:102D6000AA0BE0E8FEEF16161706E807F907C0F011
:102D700012161306E407F50798F0621B730B840B19
:102D8000950B39F40A2661F0232B242B252B21F4F3
:102D900008950A2609F4A140A6958FEF811D811D93
:102DA00008950E94E4160C9455170E94471738F0B6
:102DB0000E944E1720F0952311F00C943E170C94AE
:102DC000441711240C9489170E94661770F3959F7D
:102DD000C1F3950F50E0551F629FF001729FBB2712
:102DE000F00DB11D639FAA27F00DB11DAA1F649FAE
:102DF0006627B00DA11D661F829F2227B00DA11D61
:102E0000621F739FB00DA11D621F839FA00D611DE6
:102E1000221F749F3327A00D611D231F849F600D07
:102E2000211D822F762F6A2F11249F5750409AF030
:102E3000F1F088234AF0EE0FFF1FBB1F661F771FBC
:102E4000881F91505040A9F79E3F510580F00C9487
:102E50003E170C9489175F3FE4F3983ED4F38695B0
:102E600077956795B795F795E7959F5FC1F7FE2B27
:102E7000880F911D9695879597F9089597F99F6703
:102E800080E870E060E008959FEF80EC08950024F2
:102E90000A941616170618060906089500240A94BF
:102EA00012161306140605060895092E0394000C45
:102EB00011F4882352F0BB0F40F4BF2B11F460FFD4
:102EC00004C06F5F7F4F8F4F9F4F089557FD9058FD
:102ED000440F551F59F05F3F71F04795880F97FBDE
:102EE000991F61F09F3F79F0879508951216130698
:102EF0001406551FF2CF4695F1DF08C016161706C7
:102F00001806991FF1CF86957105610508940895FB
:102F1000E894BB2766277727CB0197F90895A1E2AC
:102F20001A2EAA1BBB1BFD010DC0AA1FBB1FEE1F43
:102F3000FF1FA217B307E407F50720F0A21BB30B8E
:102F4000E40BF50B661F771F881F991F1A9469F70A
:102F500060957095809590959B01AC01BD01CF0166
:102F60000895991B79E004C0991F961708F0961BE5
:102F7000881F7A95C9F780950895EE0FFF1F881F67
:102F80008BBF0790F691E02D19945058BB27AA27C4
:102F90000E94DD170C9455170E94471738F00E94C5
:102FA0004E1720F039F49F3F19F426F40C9444177F
:102FB0000EF4E095E7FB0C943E17E92F0E9466178C
:102FC00058F3BA17620773078407950720F079F45E
:102FD000A6F50C9488170EF4E0950B2EBA2FA02DB1
:102FE0000B01B90190010C01CA01A0011124FF27B6
:102FF000591B99F0593F50F4503E68F11A16F040B1
:10300000A22F232F342F4427585FF3CF46953795AF
:103010002795A795F0405395C9F77EF41F16BA0B74
:10302000620B730B840BBAF09150A1F0FF0FBB1F22
:10303000661F771F881FC2F70EC0BA0F621F731F6B
:10304000841F48F4879577956795B795F7959E3FC8
:1030500008F0B0CF9395880F08F09927EE0F979559
:10306000879508950E9446180C9455170E944E1794
:1030700058F00E94471740F029F45F3F29F00C9464
:103080003E1751110C9489170C9444170E9466172F
:1030900068F39923B1F3552391F3951B550BBB2787
:1030A000AA2762177307840738F09F5F5F4F220FCC
:1030B000331F441FAA1FA9F335D00E2E3AF0E0E8C3
:1030C00032D091505040E695001CCAF72BD0FE2F0D
:1030D00029D0660F771F881FBB1F261737074807A1
:1030E000AB07B0E809F0BB0B802DBF01FF27935859
:1030F0005F4F3AF09E3F510578F00C943E170C94C8
:1031000089175F3FE4F3983ED4F3869577956795EA
:10311000B795F7959F5FC9F7880F911D969587958D
:1031200097F90895E1E0660F771F881FBB1F6217AC
:1031300073078407BA0720F0621B730B840BBA0B6A
:10314000EE1F88F7E09508950E94AB186894B111BE
:103150000C94891708950E946E1788F09F5798F075
:10316000B92F9927B751B0F0E1F0660F771F881F8C
:10317000991F1AF0BA95C9F714C0B13091F00E94A6
:103180008817B1E008950C948817672F782F882747
:10319000B85F39F0B93FCCF3869577956795B395CD
:1031A000D9F73EF490958095709561957F4F8F4F3C
:1031B0009F4F08950E94AD1608F48FEF08950F9366
:1031C0001F93CF93DF938230910510F482E090E05B
:1031D000E0911607F091170720E030E0A0E0B0E0A2
:1031E000309719F1408151810281138148175907A5
:1031F000C8F08417950769F4109731F012960C9374
:10320000129713961C9327C0009316071093170765
:1032100022C02115310519F04217530718F49A01FD
:10322000BD01EF01DF01F801DBCF21153105F9F018
:10323000281B390B2430310580F48A819B8161156C
:10324000710521F0FB019383828304C090931707DB
:1032500080931607FE01329644C0FE01E20FF31F71
:103260008193919322503109398328833AC0209168
:10327000140730911507232B41F42091030230915C
:103280000402309315072093140720910102309116
:1032900002022115310541F42DB73EB740910502D8
:1032A00050910602241B350BE0911407F09115078D
:1032B000E217F307A0F42E1B3F0B2817390778F00D
:1032C000AC014E5F5F4F2417350748F04E0F5F1F6C
:1032D00050931507409314078193919302C0E0E047
:1032E000F0E0CF01DF91CF911F910F910895CF931F
:1032F000DF93009709F481C0FC0132971382128298
:10330000A0911607B0911707109781F420813181A1
:10331000820F931F20911407309115072817390742
:1033200051F5F0931507E093140767C0ED0120E015
:1033300030E0CE17DF0740F44A815B819E014115E2
:103340005105F1F0EA01F5CFD383C2834081518169
:10335000840F951FC817D90759F488819981840F64
:10336000951F0296918380838A819B8193838283B8
:103370002115310529F4F0931707E09316073DC096
:10338000E901FB83EA8349915991C40FD51FEC17DA
:10339000FD0761F480819181840F951F0296E901F8
:1033A00099838883828193819B838A83E0E0F0E024
:1033B00012968D919C911397009719F0FD01DC01F5
:1033C000F7CF8D919C9111979D012E5F3F4F820FFA
:1033D000931F20911407309115072817390769F4B6
:1033E000309729F4109217071092160702C0138223
:1033F0001282B0931507A0931407DF91CF9108951F
:103400006F927F928F929F92AF92BF92CF92DF92F4
:10341000EF92FF920F931F93CF93DF93009789F45E
:10342000CB01DF91CF911F910F91FF90EF90DF9033
:10343000CF90BF90AF909F908F907F906F900C94A3
:10344000DF18FC01E60FF71F9C0122503109E2173B
:10345000F30708F4A9C0EC01D9010D911C91119753
:1034600006171707B0F00530110508F49BC0C80116
:1034700004978617970708F495C002501109061B98
:10348000170B019311936D937C93CF010E947719D1
:1034900089C05B01A01AB10A4C01800E911EA09157
:1034A0001607B0911707612C712CE12CF12C1097A5
:1034B00009F446C08D919C911197A815B905B1F5F5
:1034C0006C0142E0C40ED11CCA14DB0478F14C013B
:1034D0008A189B08640142E0C40ED11C1296BC906D
:1034E00012971396AC91B5E0CB16D10440F0B2829E
:1034F000A38391828082D9016D937C9309C00E5F72
:103500001F4F800F911FF90191838083EB2DFA2FBC
:10351000E114F10431F0D7011396FC93EE93129766
:1035200041C0F0931707E09316073CC06816790670
:1035300008F43C017D0112960D90BC91A02DB7CFEF
:10354000809114079091150788169906E1F4661684
:103550007706C8F48091010290910202009741F42D
:103560008DB79EB74091050250910602841B950BC2
:10357000E817F907C8F4F0931507E0931407F90169
:10358000718360830FC0CB010E94DF187C0100971C
:1035900059F0A801BE010E94EA1ACE010E947719D3
:1035A000C70104C0CE0102C080E090E0DF91CF915E
:1035B0001F910F91FF90EF90DF90CF90BF90AF9051
:1035C0009F908F907F906F90089581E090E0F894A5
:1035D0000C94FA1AFB01DC0102C001900D924150DB
:1035E0005040D8F70895FB01DC0101900D920020B6
:1035F000E1F7089511E0C4E9D1E000E006C0802FB2
:10360000FE010E94BD172196011DC539D10780E03A
:083610000807A9F7F894FFCFA9
:10361800FF000018072000363738391B1D1A1C0018
:10362800000000480A1B0A3E0DEF09130AFF09F0C3
:1036380009000000004106C605F0058E06010DFFD1
:1036480005130600000000410DC6053E0D3D0D0D99
:103658000A002020202000496E76616C696420658C
:0C3668006E636F646572206964210000CD
:00000001FF
