:100000000C9495010C94C6010C94C6010C94C60185
:100010000C94C6010C94C6010C94C6010C94C60144
:100020000C94C6010C94AB0B0C94AB0B0C94AB0B67
:100030000C94C6010C94090E0C94C6010C94C601D4
:100040000C94C6010C9416050C94C6010C94C601C0
:100050000C94C6010C94C6010C94C6010C94BF0DFF
:100060000C94C6010C94780F0C944E0F0C94C6019E
:100070000C94C6010C94C6010C94C6010C94C601E4
:100080000C94C6010C94C6010C94C6010C94C601D4
:100090000C94C6010C94C6010C94C6010C94790A08
:1000A0000C94C6010C94C6010C94C6010C94C601B4
:1000B0000C94C6010C94C6010C94C6010C946903FF
:1000C0000C94C6010C94C6010C94C6010C94240F28
:1000D0000C94FA0E0C94C6010C94D00E0C94A60E3F
:1000E0000C94C60169026E0273027D02870200034E
:1000F00091029902A102AB02B502BF02CE02D80260
:100100000003E202EC02F602D00BD30BC20BC60BCB
:10011000CC0B0A0CD70BDB0BE10BE50BE90BEF0B60
:10012000F30BF70B0A0CFD0B010C050C0C947D0274
:100130000C94D70B0C94BF020C9405020C949902FA
:100140000C94AB020C9422030C9473020C94DD0803
:100150000C94CE020C9409090C94630D0C94160DAA
:100160000C94B5020C94E50B0C94DC080C94D802AA
:100170000C94ED080C94F30B0C9401090C94D30B24
:100180000C94C50C0C94C8010C94FD0B0C94E20269
:100190000C94F6020C9491020C9400030C94C20B84
:1001A0000C949B0C0C94010C0C94E90B0C94DB0844
:1001B0000C94050C0C94E10B0C94A1020C94A20F6E
:1001C0000C94EF0B0C94A80F0C9487020C94CC0B9E
:1001D0000C94C60B0C9469020C946E020C943609B4
:1001E0000C940A0C0C94DB0B0C94D00B0C94F70BB6
:1001F0000C94E80C0C94DE080C94D40C0C940402BF
:100200000C94EC02000020002300260029002C00A2
:100210002F00320000010000030106010901000067
:100220002100240027002A002D00300033000101A6
:100230000000040107010A01000022002500280037
:100240002B002E00310034000201000005010801DE
:100250000B0105050505070508080808020202024A
:100260000A0A080804040404010101010101010152
:100270000303030303030303040707070C0C0C0C1D
:100280000C0C0C0C02020202060606060606060606
:100290000B0B0B0B0B0B0B0B010210202008081093
:1002A00020401020408002010201080402010102E6
:1002B00004081020408080402010080402018004BF
:1002C000020180402010080402010804020101021A
:1002D0000408102040800102040810204080000023
:1002E0000A0B02090C0D0E080703040100000000B0
:1002F00000000000000000000000000000000000FE
:1003000000000000000000000000121110000000BA
:1003100000000000000000000000000000000000DD
:10032000000000000200A80FA20F11241FBECFEF93
:10033000D1E2DEBFCDBF00E00CBF12E0A0E0B2E032
:10034000EAE1F3E300E00BBF02C007900D92AC3589
:10035000B107D9F727E0ACE5B2E001C01D92A133A7
:10036000B207E1F711E0C4E9D1E000E006C021974F
:100370000109802FFE010E943E16C339D10780E09B
:100380000807A9F70E9490110C947B190C940000A7
:10039000FC01918D228D892F90E0805C9F4F821B04
:1003A00091098F7399270895E0E0F0E0199480E0B7
:1003B00090E0892B21F00E940C0D811119C080E082
:1003C00090E0892B41F080E090E0892B21F00E94A1
:1003D0000000811110C00E94020D81110FC080E049
:1003E00090E0892B81F00E94F80C81110AC00895D9
:1003F0000E940000E4CF0E940000EDCF0E94D401D3
:10040000EECF0C9400000895089580E090E00895E8
:100410008F929F92AF92BF92CF92DF92EF92FF9214
:100420000F931F93CF93DF938C016A017B0120E030
:1004300030E04FE753E4C701B6010E9452154B016B
:100440005C0120E030E0A9010E945B1718161CF443
:10045000C501B40103C0C501B40190580E9425171D
:10046000EB0120E030E0A901C701B6010E945B1753
:10047000181614F460E001C061E0F80181810E9467
:100480000B0CCF3FD10509F014F4DD2702C0CFEFEC
:10049000D0E0F801108161E0812F0E943A0C209792
:1004A00009F4B1C0CF3FD10509F4AFC0E12FF0E0AE
:1004B000E252FD4FE4918E2F90E0FC013197E23142
:1004C000F10508F09DC08827EE58FF4F8F4F0C9420
:1004D0003E1684B5806884BDC7BDA7C084B5806260
:1004E00084BDC8BDA2C080918000806880938000D8
:1004F000D0938900C093880098C08091800080626A
:1005000080938000D0938B00C0938A008EC080912E
:100510008000886080938000D0938D00C0938C0011
:1005200084C08091B00080688093B000C093B30015
:100530007CC08091B00080628093B000C093B40012
:1005400074C080919000806880939000D09399004F
:10055000C09398006AC08091900080628093900060
:10056000D0939B00C0939A0060C0809190008860F7
:1005700080939000D0939D00C0939C0056C08091C2
:10058000A00080688093A0008091A0008F7B809362
:10059000A000D093A900C093A80047C08091A000FC
:1005A00080628093A000D093AB00C093AA003DC0AE
:1005B0008091A00088608093A000D093AD00C0938C
:1005C000AC0033C080912001806880932001D093DB
:1005D0002901C093280129C0809120018062809365
:1005E0002001D0932B01C0932A011FC080912001CC
:1005F000886080932001D0932D01C0932C0115C0F9
:10060000C038D10514F460E001C061E0812FDF91B2
:10061000CF911F910F91FF90EF90DF90CF90BF90FF
:10062000AF909F908F900C940B0CDF91CF911F9106
:100630000F91FF90EF90DF90CF90BF90AF909F9081
:100640008F9008950F931F93CF93DF938C01C62F44
:10065000D62FD07FD1606D2F0E94380A6D2FC80130
:100660000E944B0A80E1C89FB0011124C62FC160CF
:100670006C2FC8010E94380A6C2FC8010E944B0AD7
:1006800081E090E0DF91CF911F910F910895FC01DF
:10069000848DDF01A80FB11DA35ABF4F2C91848D0B
:1006A00090E001968F739927848FA689B7892C9340
:1006B000A089B1898C91837080648C93938D848D93
:1006C000981306C00288F389E02D80818F7D808396
:1006D00008951F920F920FB60F9211240BB60F922E
:1006E0002F933F934F935F936F937F938F939F933A
:1006F000AF93BF93CF93DF93EF93FF932091650464
:1007000030E0F901E252FD4F8491F901E856FD4FC6
:10071000D491F901EE5AFD4FC491CC2379F08111A7
:100720000E94B50BEC2FF0E0EE0FFF1FEC5FFD4FCA
:10073000A591B491EC91ED2381E009F480E0209142
:10074000690430916A042F5F3F4F30936A0420930D
:10075000690490916804953618F096E090936404CB
:10076000909164049430C9F128F4923069F0933088
:10077000D1F05EC0953009F451C0963009F058C0F0
:1007800091E09093350551C0811152C020916904C8
:1007900030916A042436310508F442C010923505C0
:1007A000109268041CC0813009F042C0E0916804D6
:1007B00091E09E0F90936804F0E0209169043091DD
:1007C0006A04EE0FFF1FEC59FB4F3087278310920E
:1007D0006A041092690494E029C0811117C0E09165
:1007E000680491E09E0F90936804F0E02091690402
:1007F00030916A04EE0FFF1FEC59FB4F30872783BF
:1008000010926A041092690493E010C02091690468
:1008100030916A042536310558F007C0811108C0AF
:1008200010926A041092690403C095E090936404E6
:10083000909167049923B9F081110AC080916604F0
:10084000882321F08091660461E009C02F9A0BC0D3
:1008500080916604882331F08091660460E00E94F4
:100860000B0C01C02F98FF91EF91DF91CF91BF91B9
:10087000AF919F918F917F916F915F914F913F9138
:100880002F910F900BBE0F900FBE0F901F901895D9
:100890008EBD00000DB407FEFDCF8EB50895CF9339
:1008A000DF93EC0160E088810E940B0C88E90E94D4
:1008B000480480E00E94480480E00E94480480E0F0
:1008C0000E94480480E00E94480461E088810E9400
:1008D0000B0C8BE891E00197F1F760E088810E94B2
:1008E0000B0C80EE0E94480461E08881DF91CF917B
:1008F0000C940B0CAF92BF92CF92DF92EF92FF92CB
:100900000F931F93CF93DF93CDB7DEB760970FB6EA
:10091000F894DEBF0FBECDBF5C0160E0FC018081BA
:100920000E940B0C80E60E9448048E010F5F1F4F4F
:100930007E01F1E1EF0EF11C680180E00E944804A5
:1009400090E0A0E0B0E0F60181939193A193B19380
:100950006F01EE15FF0589F761E0F50180810E94C6
:100960000B0C80E090E0DC01F80141915191619124
:1009700071918F01BA2FA92F982F8827840F951F67
:10098000A61FB71FEE15FF0579F79C01AD0166277D
:100990007727CB01621B730B840B950B60960FB608
:1009A000F894DEBF0FBECDBFDF91CF911F910F91A5
:1009B000FF90EF90DF90CF90BF90AF900895CF92CF
:1009C000DF92EF92FF92823060F08FE392E00E941C
:1009D0008D0983E592E00E948D0960E070E0CB0113
:1009E00020C0811112C087E995E00E947A046B0152
:1009F0007C0187E995E00E944F0466277727CB01A9
:100A00006C197D098E099F090CC089E995E00E9447
:100A10007A046B017C0189E995E00E944F04B601DC
:100A2000C701FF90EF90DF90CF9008951F920F9233
:100A30000FB60F9211240BB60F922F933F934F9343
:100A40005F936F937F938F939F93AF93BF93EF9336
:100A5000FF938091750287FF05C010928500109268
:100A6000840016C020917502022E000C330B809179
:100A7000720590E0281739075CF43091750225E083
:100A80003203F0011124EA5CFA4F808186FD15C023
:100A9000809175028F5F8093750220917502022EFE
:100AA000000C330B8091720590E02817390794F4FD
:100AB000809175028C302CF10DC03091750232039B
:100AC000F0011124EA5CFA4F808160E08F730E948C
:100AD0000B0CDECF809184009091850084349C497A
:100AE00018F480E49CE905C0809184009091850011
:100AF000049690938900809388008FEF809375020D
:100B00002AC040918400509185003091750225E003
:100B10003203F0011124EA5CFA4F81819281840F43
:100B2000951F90938900809388003091750232035D
:100B3000F0011124EA5CFA4F808186FF0CC03091ED
:100B400075023203F0011124EA5CFA4F808161E002
:100B50008F730E940B0CFF91EF91BF91AF919F910A
:100B60008F917F916F915F914F913F912F910F9056
:100B70000BBE0F900FBE0F901F90189580E00E9443
:100B8000DF0481E00E94DF044AE959E969E97EE374
:100B900083E995E00E9408024AE959E969E97EE3A0
:100BA00085E995E00E9408026AE070E080E090E04C
:100BB0000E94850D89E995E00E947A0487E995E015
:100BC0000E947A049B01AC0188279927DC01821BD3
:100BD000930BA40BB50B88329041A105B10524F30A
:100BE00040E050E0BA0183E995E00E94080240E04D
:100BF00050E060E070E885E995E00C940802CF923F
:100C0000DF92EF92FF926B017C0180E00E94DF0493
:100C100081E00E94DF04C701B6010E94F31427E3BC
:100C20003DE847EA5EE30E94521521EF32E84FEBC0
:100C300051E40E94B31620E030E048E455E40E94FD
:100C400052150E9425176B017C011616170618060F
:100C5000190634F54AE959E969E97EE383E995E043
:100C60000E94080262E370E080E090E00E94850D3F
:100C700087E995E00E947A049B01AC0188279927B7
:100C8000DC01821B930BA40BB50B8C159D05AE05E7
:100C9000BF0544F340E050E0BA0183E995E029C084
:100CA0004AE959E969E97EEB85E995E00E94080285
:100CB00060E070E0CB01F094E094D094C094C11C4B
:100CC000D11CE11CF11C6C157D058E059F055CF4A3
:100CD00062E370E080E090E00E94850D89E995E094
:100CE0000E947A04F0CF40E050E060E070E885E9CF
:100CF00095E0FF90EF90DF90CF900C9408024F9218
:100D00005F926F927F928F929F92AF92BF92CF929B
:100D1000DF92EF92FF920F931F93CF93DF93CDB7A4
:100D2000DEB72E970FB6F894DEBF0FBECDBF21EF12
:100D300032E84FEB51E40E94B31620E030E048E483
:100D400055E40E9452150E9425176D837E838F8380
:100D5000988780E00E94DF0481E00E94DF044DEC70
:100D60005CEC6CE47EE383E995E00E9408024DECC4
:100D70005CEC6CE47EEB85E995E00E9408022FE1D3
:100D800030E03A8329838DECC82E8CECD82E8CE48D
:100D9000E82E8EE3F82E2AE037ED43E25CE3C7014C
:100DA000B6010E9447166B017C01AB01BC0183E9CF
:100DB00095E00E940802B701A601705885E995E008
:100DC0000E94080264E070E080E090E00E94850DDF
:100DD00049815A81415051095A834983452BD9F69B
:100DE0002601370100E010E01E861D868D819E8160
:100DF000AF81B88580589C40A109B10989879A873D
:100E0000AB87BC872D853E85C901330FAA0BBB0B71
:100E100029853A854B855C8582179307A407B5071A
:100E20000CF084C06AE070E080E090E00E94850DE4
:100E300087E995E00E947A044B015C0189E995E01D
:100E40000E947A04B094A09490948094811C911C88
:100E5000A11CB11C9401261B370B4D855E85480DE6
:100E6000591D5E874D87060F171F4A01801A910A88
:100E7000C901330FAA0BBB0B89839A83AB83BC8355
:100E8000B7FF05C0BC01CD010E94E00907C04AE0E0
:100E900069817A818B819C810E949F0986E592E01D
:100EA0000E948D09092C000CAA08BB08B7FE05C0DA
:100EB000C501B4010E94E00905C04AE0C501B401C2
:100EC0000E949F0983E592E00E948D0969817A81E1
:100ED0008B819C810E94F3142FE632E143E05BE3B7
:100EE0000E945215A30192010E9447162B013C015A
:100EF000C501B4010E94F3142DEC3FEA46E659E324
:100F00000E945215A30192010E9447162B013C0139
:100F1000AB01BC01705885E995E00E94080280E0B1
:100F20000E94DF0481E00E94DF046CCF2DEC3CECDA
:100F30004CE45EE3C701B6010E945B1787FD20C049
:100F40002AE037ED43E25CE3C701B6010E94461692
:100F50006B017C01AB01BC0183E995E00E940802B2
:100F6000B701A601705885E995E00E94080265E086
:100F700070E080E090E00E94850D26013701D6CF19
:100F80002D853E85C901330FAA0BBB0B2D813E81F8
:100F90004F81588582179307A407B5070CF058C0F6
:100FA0006AE070E080E090E00E94850D87E995E0BE
:100FB0000E947A046B017C0189E995E00E947A0421
:100FC000F094E094D094C094C11CD11CE11CF11C9D
:100FD0004D855E854C0D5D1D5E874D87060F171F85
:100FE000C61AD70AB601DD0C880B990B0E94F314C0
:100FF0002FE632E143E05BE30E945215A301920128
:101000000E9447166B017C016D857E85601B710B0C
:10101000072E000C880B990B0E94F3142DEC3FEA6D
:1010200046E659E30E945215A70196010E94471611
:101030002B013C01AB01BC01705885E995E00E9491
:10104000080280E00E94DF0481E00E94DF0498CF64
:1010500040E050E0BA0183E995E00E94080240E0D8
:1010600050E060E070E885E995E02E960FB6F894C0
:10107000DEBF0FBECDBFDF91CF911F910F91FF90CB
:10108000EF90DF90CF90BF90AF909F908F907F9028
:101090006F905F904F900C94080230918002313233
:1010A00008F04BC080917E028111FCCF90915B06CD
:1010B00022E020937E0221E020937D022FEF2093F7
:1010C00039061092380630933706EBE3F6E0A7E1D5
:1010D000B6E020E0321721F041914D932F5FFACF17
:1010E0001092160620911606990F922B90931606D1
:1010F00090917C02913061F410927C0290911606DE
:101100009093BB009091BC0093FDF8CF95EC01C08B
:1011100095EE9093BC0090917E029230E1F3909115
:1011200039069F3F79F080913906803241F08091F5
:101130003906803331F084E005C081E003C082E0ED
:1011400001C083E010927F021092800210923A0652
:10115000089585ED8093BC008091BC0084FDFCCF98
:1011600010927E0208954091F305262F30E0240F5F
:10117000311D21323105DCF420917E022430C9F486
:10118000FC0180E090E0861758F43091F30521913E
:10119000DC01AD52BA4FA30FB11D2C930196F3CFD2
:1011A0008091F305680F6093F30580E0089581E076
:1011B000089582E00895089508950895E0917702D2
:1011C00080917602E81730F4F0E0ED54FA4F808118
:1011D00090E008958FEF9FEF0895909177028091AE
:1011E0007602981750F4E92FF0E0ED54FA4F208181
:1011F00030E09F5F9093770202C02FEF3FEFC9016D
:1012000008958091760290E020917702821B9109E7
:101210000895CF92DF92EF92FF920F931F93CF9397
:10122000DF937C01CB018A0120913A06222389F0C9
:10123000EB016B01C40ED51ECC15DD0569F069917B
:10124000D701ED91FC910190F081E02DC701199536
:10125000F3CF642F0E94B308C801DF91CF911F9193
:101260000F91FF90EF90DF90CF900895CF93DF9391
:101270001F92CDB7DEB7698320913A062223D1F0C1
:1012800020918002203240F021E030E0FC013383E5
:10129000228380E090E015C080917F02E82FF0E08B
:1012A000E55CF94F998190838F5F80937F028093F3
:1012B000800205C061E0CE0101960E94B30881E082
:1012C00090E00F90DF91CF910895E7ECF3E0A089D3
:1012D000B18982E08C93A485B5851C92A685B785DB
:1012E0008FEC8C93108EA489B58986E08C93A289AB
:1012F000B3898C9180618C93A289B3898C91886029
:101300008C93A289B3898C9180688C930288F3892D
:10131000E02D80818F7D80830895009769F0FC0126
:1013200001900020E9F73197AF01481B590BBC0130
:1013300087EC93E00C949B0C80E090E008958F92F2
:101340009F92AF92BF920F931F93CF93DF93CDB72E
:10135000DEB7A1970FB6F894DEBF0FBECDBF19A2BE
:10136000423008F44AE08E010F5D1F4F842E912C0D
:10137000A12CB12CA50194010E941016E62FB901F1
:10138000CA0101501109EA3014F4E05D01C0E95CC2
:10139000D801EC93232B242B252B61F7C8010E9445
:1013A0008D09A1960FB6F894DEBF0FBECDBFDF91B9
:1013B000CF911F910F91BF90AF909F908F90089504
:1013C000CF92DF92EF92FF92CF93DF936B017C017C
:1013D0006DE287EC93E00E94160DEC0166277727FB
:1013E000CB016C197D098E099F094AE00E949F0973
:1013F0008C0F9D1FDF91CF91FF90EF90DF90CF90EA
:1014000008950F931F93CF93DF93162F072FCAE7EB
:10141000D5E09C8521E020933A0690935B061092DC
:101420007F0210928002AA85BB85ED91FC911197F5
:101430000190F081E02D682FCD0119958A859B855B
:10144000DC01ED91FC910190F081E02D602F199568
:101450008A859B85DC01ED91FC910190F081E02D66
:10146000612F1995DF91CF911F910F910C944D0829
:10147000FC01248131E030933A0620935B06109200
:101480007F02109280028485682B81E892E00E949E
:1014900036090C944D080F931F93CF938C01C62FE0
:1014A00064600E94380A6C2F6B7FC8010E94380A62
:1014B00083EC90E00197F1F7CF911F910F91089580
:1014C000FC01A089B1898C91A689B78982FD0FC0E2
:1014D0009C91818D8F5F8F73228D821749F0218DB2
:1014E000DF01A20FB11D5D969C93818F08958C91B1
:1014F00008951F920F920FB60F9211240BB60F9200
:101500002F933F934F935F936F937F938F939F930B
:10151000AF93BF93EF93FF938091B900887F80369C
:1015200009F49CC068F5883209F45BC090F48031FE
:1015300009F454C038F4882309F4F6C0883009F45B
:101540004DC0F6C0883109F44CC0803209F45DC04A
:10155000EFC0803409F468C048F4803309F455C002
:10156000883309F0E5C080933906D8C0803509F486
:101570004FC0883509F45DC0883409F0D9C0D6C0A1
:10158000883909F4C7C0A8F4883709F467C038F46B
:10159000883609F463C0803709F460C0C9C0883850
:1015A00009F4B8C0803909F45FC0803809F0C0C0C0
:1015B0005BC0803B09F486C038F4803A09F466C009
:1015C000883A09F47FC0B4C0803C09F4A7C0883CC5
:1015D00009F4A4C0883B09F48AC0AAC08091160609
:1015E00010C09091380680913706981770F5E091F9
:1015F000380681E08E0F80933806F0E0E95EF94FFF
:1016000080818093BB0085EC86C0809339068EC0B4
:10161000E091380681E08E0F809338068091BB0000
:10162000F0E0E95EF94F80839091380680913706AB
:101630006EC0E091380681E08E0F8093380680916D
:10164000BB00F0E0E95EF94F808380917D0281115B
:101650006DC081E080937C0284EA61C083E0809366
:101660007E0210921506CFCF80911506803208F0C9
:1016700051C0E091150681E08E0F80931506809190
:10168000BB00F0E0EB50FA4F8083BDCF85EC809338
:10169000BC0010927E0280911506803230F4E091F9
:1016A0001506F0E0EB50FA4F10826091150670E0DD
:1016B000E0917A02F0917B0285EF95E01995109206
:1016C000150636C084E080937E021092F4051092D5
:1016D000F305E0917802F091790219958091F30574
:1016E000811105C081E08093F3051092D305E0914C
:1016F000F40581E08E0F8093F405F0E0ED52FA4F8F
:1017000080818093BB009091F4058091F305981738
:1017100008F479CF85E88093BC000AC085EC8093FB
:10172000BC0010927E0204C0109239060E94A908E3
:10173000FF91EF91BF91AF919F918F917F916F91A9
:101740005F914F913F912F910F900BBE0F900FBE65
:101750000F901F9018951F920F920FB60F921124A1
:101760000F900FBE0F901F90189590E0FC013197DD
:10177000E231F10508F04EC08827EC57FF4F8F4F3C
:101780000C943E16809180008F7703C0809180007A
:101790008F7D80938000089580918000877FF9CFAE
:1017A00084B58F7702C084B58F7D84BD0895809104
:1017B000B0008F7703C08091B0008F7D8093B00020
:1017C0000895809190008F7707C0809190008F7D61
:1017D00003C080919000877F80939000089580914E
:1017E000A0008F7707C08091A0008F7D03C08091FB
:1017F000A000877F8093A0000895809120018F77BB
:1018000007C0809120018F7D03C080912001877FD8
:101810008093200108951F93CF93DF93282F30E00A
:10182000F901E252FD4F8491F901E856FD4FD49140
:10183000F901EE5AFD4FC491CC23C1F0162F81114E
:101840000E94B50BEC2FF0E0EE0FFF1FE85CFD4FA0
:10185000A591B4919FB7F894111104C08C91D095C3
:10186000D82302C0EC91DE2BDC939FBFDF91CF9198
:101870001F910895CF93DF9390E0FC01E856FD4F50
:101880002491FC01EE5AFD4F8491882361F190E090
:10189000880F991FFC01E25EFD4FC591D491FC01B8
:1018A000E85CFD4FA591B491611109C09FB7F89410
:1018B0008881209582238883EC912E230BC062308F
:1018C00061F49FB7F8948881322F30958323888301
:1018D000EC912E2B2C939FBF06C08FB7F894E88114
:1018E0002E2B28838FBFDF91CF9108953FB7F894B7
:1018F0008091290790912A07A0912B07B0912C077E
:1019000026B5A89B05C02F3F19F00196A11DB11D5A
:101910003FBFBA2FA92F982F8827820F911DA11D95
:10192000B11DBC01CD0142E0660F771F881F991FD2
:101930004A95D1F70895CF92DF92EF92FF920F93DD
:101940001F93CF93DF936C017A018B01C0E0D0E04D
:10195000CE15DF0581F0D8016D918D01D601ED9195
:10196000FC910190F081E02DC6011995892B11F0B1
:101970002196EECF7E01C701DF91CF911F910F918C
:10198000FF90EF90DF90CF900895FC01538D448D30
:10199000252F30E0842F90E0821B930B541710F01A
:1019A000CF96089501970895FC01918D828D981727
:1019B00061F0828DDF01A80FB11D5D968C91928D33
:1019C0009F5F9F73928F90E008958FEF9FEF089530
:1019D000FC01918D828D981731F0828DE80FF11DF9
:1019E000858D90E008958FEF9FEF08950E9466190E
:1019F0008DE892E00E94C80121E0892B09F420E0E3
:101A0000822F08958AE293E00E94C80121E0892B89
:101A100009F420E0822F089587EC93E00E94C8012A
:101A200021E0892B09F420E0822F0895EF92FF92A4
:101A30000F931F93CF93DF93EC0181E0888F9B8DF1
:101A40008C8D981305C0E889F989808185FD26C0B1
:101A5000F62E0B8D10E00F5F1F4F0F731127E02E36
:101A60008C8DE8120CC00FB607FCFACFE889F98913
:101A7000808185FFF5CFCE010E944703F1CF8B8D8A
:101A8000FE01E80FF11DE35AFF4FF0829FB7F89473
:101A90000B8FEA89FB89808180620AC09FB7F89426
:101AA000EE89FF896083E889F98980818370806489
:101AB00080839FBF81E090E0DF91CF911F910F91D4
:101AC000FF90EF900895CF93DF93EC01888D8823EA
:101AD000C9F0EA89FB89808185FD05C0A889B9899B
:101AE0008C9186FD0FC00FB607FCF5CF808185FF76
:101AF000F2CFA889B9898C9185FFEDCFCE010E94E4
:101B00004703E7CFDF91CF9108958F929F92AF92D5
:101B1000BF92CF92DF92EF92FF926B017C010E9405
:101B2000760C4B015C01C114D104E104F104F1F025
:101B30000E94760CDC01CB0188199909AA09BB091E
:101B4000883E9340A105B10570F321E0C21AD10887
:101B5000E108F10888EE880E83E0981EA11CB11CF4
:101B6000C114D104E104F10419F7DDCFFF90EF9027
:101B7000DF90CF90BF90AF909F908F9008951F926D
:101B80000F920FB60F9211242F933F938F939F9331
:101B9000AF93BF938091250790912607A0912707C7
:101BA000B09128073091240723E0230F2D3720F42C
:101BB0000196A11DB11D05C026E8230F0296A11DA7
:101BC000B11D209324078093250790932607A093A7
:101BD0002707B09328078091290790912A07A091A1
:101BE0002B07B0912C070196A11DB11D80932907E9
:101BF00090932A07A0932B07B0932C07BF91AF9126
:101C00009F918F913F912F910F900FBE0F901F903A
:101C100018951F920F920FB60F9211240BB60F92C8
:101C20002F933F934F935F936F937F938F939F93E4
:101C3000AF93BF93EF93FF9380911F07909120077D
:101C4000A0912107B0912207892B8A2B8B2B49F178
:101C500090911E0780910000892780930000809159
:101C60001F0790912007A0912107B0912207181615
:101C700019061A061B060CF056C080911F0790919A
:101C80002007A0912107B09122070197A109B1096E
:101C900080931F0790932007A0932107B0932207FA
:101CA00042C080910002E4E2F3E0E4919FEF909360
:101CB0000002E230C9F050F4EE2399F0E13081F5F2
:101CC00090916F009D7F90936F002AC0E43019F1CE
:101CD000E0F0E53029F5909173009D7F90937300BB
:101CE0001FC010926E001CC0909170009D7F909359
:101CF000700091E09093B0009091B100987F946053
:101D00009093B1001092B3000BC0909171009D7F31
:101D10009093710005C0909172009D7F9093720026
:101D200060E00E940B0CFF91EF91BF91AF919F91EA
:101D30008F917F916F915F914F913F912F910F9074
:101D40000BBE0F900FBE0F901F9018951F920F9211
:101D50000FB60F9211240BB60F922F933F934F9310
:101D60005F936F937F938F939F93AF93BF93EF9303
:101D7000FF938DE892E00E944703FF91EF91BF919E
:101D8000AF919F918F917F916F915F914F913F9113
:101D90002F910F900BBE0F900FBE0F901F901895B4
:101DA0001F920F920FB60F9211240BB60F922F9322
:101DB0003F934F935F936F937F938F939F93AF93D3
:101DC000BF93EF93FF938DE892E00E94600AFF912A
:101DD000EF91BF91AF919F918F917F916F915F91A3
:101DE0004F913F912F910F900BBE0F900FBE0F9010
:101DF0001F9018951F920F920FB60F9211240BB6D9
:101E00000F922F933F934F935F936F937F938F9393
:101E10009F93AF93BF93EF93FF938AE293E00E9467
:101E20004703FF91EF91BF91AF919F918F917F9168
:101E30006F915F914F913F912F910F900BBE0F903B
:101E40000FBE0F901F9018951F920F920FB60F9212
:101E500011240BB60F922F933F934F935F936F9381
:101E60007F938F939F93AF93BF93EF93FF938AE2F8
:101E700093E00E94600AFF91EF91BF91AF919F9113
:101E80008F917F916F915F914F913F912F910F9023
:101E90000BBE0F900FBE0F901F9018951F920F92C0
:101EA0000FB60F9211240BB60F922F933F934F93BF
:101EB0005F936F937F938F939F93AF93BF93EF93B2
:101EC000FF9387EC93E00E944703FF91EF91BF914E
:101ED000AF919F918F917F916F915F914F913F91C2
:101EE0002F910F900BBE0F900FBE0F901F90189563
:101EF0001F920F920FB60F9211240BB60F922F93D1
:101F00003F934F935F936F937F938F939F93AF9381
:101F1000BF93EF93FF9387EC93E00E94600AFF91D9
:101F2000EF91BF91AF919F918F917F916F915F9151
:101F30004F913F912F910F900BBE0F900FBE0F90BE
:101F40001F90189580917305909174050C94F81763
:101F5000109284021092830288EE93E0A0E0B0E039
:101F60008093850290938602A0938702B0938802A3
:101F700023E132E03093820220938102109290029A
:101F800010928F028093910290939202A0939302F9
:101F9000B093940225E232E030938E0220938D02BA
:101FA00045E351E050939A024093990244E351E093
:101FB00050939C0240939B0240E351E050939E0259
:101FC00040939D0241E351E05093A00240939F0251
:101FD00042E351E05093A2024093A10246E351E054
:101FE0005093A4024093A3021092A6021092A7025B
:101FF0001092A8021092A90210922D0310922C03A5
:1020000080932E0390932F03A0933003B09331035A
:1020100030932B0320932A0345ED50E05093370370
:102020004093360344ED50E0509339034093380316
:1020300040ED50E050933B0340933A0341ED50E0B4
:1020400050933D0340933C0342ED50E050933F03D7
:1020500040933E0346ED50E05093410340934003CC
:1020600010924303109244031092450310924603CA
:102070001092CA031092C9038093CB039093CC03B0
:10208000A093CD03B093CE033093C8032093C7032E
:1020900085EC90E09093D4038093D30384EC90E09C
:1020A0009093D6038093D50380EC90E09093D8036F
:1020B0008093D70381EC90E09093DA038093D90367
:1020C00082EC90E09093DC038093DB0386EC90E05D
:1020D0009093DE038093DD031092E0031092E103FE
:1020E0001092E2031092E30380910702909108029C
:1020F000A0910902B0910A0280939B0590939C05E0
:10210000A0939D05B0939E0580910B0290910C02C7
:10211000A0910D02B0910E0280939F059093A005AF
:10212000A093A105B093A20584E08093A30587E066
:102130008093A4051092A50584EB8093A60586E103
:102140008093A70588E18093A80587E18093A9057E
:1021500089E18093AA05E0917205EC3020F08FEFC1
:102160008093AB0510C081E08E0F80937205E093E1
:10217000AB0585E0E89FF0011124EA5CFA4F88EB9B
:102180009BE092838183E0917205EC3020F08FEF29
:102190008093AC0510C081E08E0F80937205E093B0
:1021A000AC0585E0E89FF0011124EA5CFA4F88EB6A
:1021B0009BE0928381838CE080937A0584E2809314
:1021C0007B0586E080937C0585E080937D058FE12B
:1021D00080937E058EE180937F0583E28093800566
:1021E00082E28093810585E48093820584E4809374
:1021F000830580E48093860510928B0510928C05F0
:1022000010928D0510928E0510928F0510929005F8
:102210001092910510929205E0E6F6E02EE137E08B
:102220008FEF9FEFDC0112821382148215821682D7
:1022300017821086118683879487A587B68787873C
:10224000908BA18BB28B12861182108273962E17FF
:102250003F0749F78DE090E00E946017FC01138270
:10226000128287E392E091838083118687E28483E0
:1022700084E1828784E083871486F0935D06E0938F
:102280005C0610925E0610925F0685E280936504FC
:1022900010926704109274051092730510927605DF
:1022A00010927505109278051092770561E070E044
:1022B00080E090E00E948118009789F09093740567
:1022C000809373051092760510927505209177051D
:1022D00030917805232BC1F4FC01108215C0809148
:1022E000730590917405009711F00E94F8171092F1
:1022F000740510927305109278051092770510926C
:10230000760510927505089510927805109277055C
:1023100065E572E080917305909174050C947419D1
:10232000789484B5826084BD84B5816084BD85B5B0
:10233000826085BD85B5816085BD80916E008160BC
:1023400080936E0010928100809181008260809362
:102350008100809181008160809381008091800064
:102360008160809380008091B10084608093B1008F
:102370008091B00081608093B00080919100826074
:102380008093910080919100816080939100809171
:1023900090008160809390008091A1008260809382
:1023A000A1008091A10081608093A1008091A00094
:1023B00081608093A000809121018260809321013F
:1023C00080912101816080932101809120018160B1
:1023D0008093200180917A00846080937A008091BC
:1023E0007A00826080937A0080917A008160809385
:1023F0007A0080917A00806880937A001092C10000
:102400000E94650961E080917B050E943A0C60E0C2
:1024100080917B050E940B0C60E080917A050E9400
:102420003A0C81E892E090938505809384051092A0
:1024300077021092760210927F0210928002109220
:102440007E0281E080937D0210927C0261E084E153
:102450000E940B0C61E085E10E940B0C8091B90099
:102460008E7F8093B9008091B9008D7F8093B900F1
:1024700088E48093B80085E48093BC008BED98E0FD
:1024800090937902809378028CED98E090937B0290
:1024900080937A0280E090E1A0E0B0E0809387052D
:1024A00090938805A0938905B0938A058AE090E00F
:1024B000A0E0B0E080938B0590938C05A0938D05F0
:1024C000B0938E0580E090E0A0E0B0E480938F05AB
:1024D00090939005A0939105B093920560E070E110
:1024E00085E00E94010A6FE979E380E00E94010A19
:1024F000CAE7D5E08E0152E0752E67E8A62E62E0AD
:10250000B62E7DEC872E72E0972EEBECEE2EE7E0F8
:10251000FE2EF80194818281898F9A8F61E00E945A
:102520003A0C61E08A8D0E943A0CF8019085868110
:102530006E01FDE1CF0ED11C8D8F9E8F61E00E9458
:102540003A0C60E08E8D0E943A0C61E08D8D0E9405
:102550000B0C6FB6F89480912307811126C0F5010A
:102560008491F4012491E82FF0E0EE0FFF1FE25E6A
:10257000FD4FA591B4919C91822F892321F461E0B4
:1025800085E30E940B0C61E085E30E943A0C8CB558
:1025900080618CBD8CB580648CBD61E084E30E9459
:1025A0003A0C61E083E30E943A0C809123078F5F2D
:1025B000809323076FBEC7010197F1F760E08D8D0F
:1025C0000E940B0C88E80E94480483E00E944804A3
:1025D00061E08D8D0E940B0CC7010197F1F7C601D8
:1025E0000E944F047A940F5F1F4F2296711091CF73
:1025F0000FE915E0C3EAD5E060E0F80181918F01B1
:102600000E943A0CF5E0033A1F07B1F70BE915E019
:1026100085EAE82E85E0F82E95E0D92E2CE0B22E42
:1026200032E0C32EA9908F818C3008F044C061E065
:102630008A2D0E943A0C8F81D89EF0011124EA5C09
:10264000FA4F9A2D9F732081207CA22EA92AA08266
:10265000138214826B2D0E9432162CE0829FA001FF
:10266000112420E030E0BA01620F731FD69EF00102
:10267000D79EF00D1124EA5CFA4F908196FD12C0AE
:102680002F5F3F4F2C30310571F781110BC0109235
:102690008000C09281001092850010928400C6BA1A
:1026A000C0926F00EF81DE9EF0011124EA5CFA4FC8
:1026B0008081806480839D818B81F801828B938BE4
:1026C00060E00E943A0C61E0F80183890E943A0CB4
:1026D00060E0F80183890E940B0C0E5F1F4FEC161F
:1026E000FD0609F09FCFF8941092200189E08093B5
:1026F000210180E293E090932901809328011092B8
:1027000025011092240182E08093730078948093D5
:102710006404109268048091650460E00E943A0CA1
:1027200068EE73E080E090E00E94850D0E946509EC
:1027300060E070E086EE92E40E947F0668EC70E054
:1027400080E090E00E94850D6AEA7FEF8FEF9FEFB7
:102750000E94FF0568EC70E080E090E00E94850D2B
:1027600060E070E082EA92E40E947F0668EC70E02C
:1027700080E090E00E94850D6EE570E080E090E0E2
:102780000E94FF0568EC70E080E090E00E94850DFB
:1027900060E070E080ED91E40E947F0668EC70E0FC
:1027A00080E090E00E94850D6CE570E080E090E0B4
:1027B0000E94FF0568EC70E080E090E00E94850DCB
:1027C00060E070E080EF91E40E947F0668EC70E0CA
:1027D00080E090E00E94850D68EA7FEF8FEF9FEF29
:1027E0000E94FF0568EC70E080E090E00E94850D9B
:1027F00060E070E088EC92E40E947F0668EC70E094
:1028000080E090E00E94850D62E070E080E090E062
:102810000E94FF0568EC70E080E090E00E94850D6A
:1028200060E070E086EB92E40E947F0668EC70E066
:1028300080E090E00E94850D6CE570E080E090E023
:102840000E94FF0568EC70E080E090E00E94850D3A
:1028500060E070E080E791E40E947F0668EC70E041
:1028600080E090E00E94850D68EA7FEF8FEF9FEF98
:102870000E94FF0568EC70E080E090E00E94850D0A
:1028800060E070E080EF92E40E947F0668EC70E008
:1028900080E090E00E94850D0E94BE0564EF71E02B
:1028A00080E090E00E94850D60E070E080EF92E4AF
:1028B0000E947F0668EC70E080E090E00E94850D49
:1028C0006CE570E080E090E00E94FF0568EC70E04D
:1028D00080E090E00E94850D60E070E080E791E488
:1028E0000E947F0668EC70E080E090E00E94850D19
:1028F00068EA7FEF8FEF9FEF0E94FF0568EC70E0C2
:1029000080E090E00E94850D60E070E08FE393E44A
:102910000E947F0668EC70E080E090E00E94850DE8
:102920006CE570E080E090E00E94FF0568EC70E0EC
:1029300080E090E00E94850D60E070E080EF91E41F
:102940000E947F0668EC70E080E090E00E94850DB8
:1029500068EA7FEF8FEF9FEF0E94FF0568EC70E061
:1029600080E090E00E94850D60E070E080ED91E4F1
:102970000E947F0668EC70E080E090E00E94850D88
:1029800068EA7FEF8FEF9FEF0E94FF0568EC70E031
:1029900080E090E00E94850D60E070E082EA92E4C1
:1029A0000E947F0668EC70E080E090E00E94850D58
:1029B0006CE570E080E090E00E94FF0568EC70E05C
:1029C00080E090E00E94850D60E070E086EE92E489
:1029D0000E947F060E94BE050E94BE050E94D7018C
:1029E000FDCFE89409C097FB3EF4909580957095D3
:1029F00061957F4F8F4F9F4F9923A9F0F92F96E94B
:102A0000BB279395F695879577956795B795F111BF
:102A1000F8CFFAF4BB0F11F460FF1BC06F5F7F4F5C
:102A20008F4F9F4F16C0882311F096E911C077236E
:102A300021F09EE8872F762F05C0662371F096E877
:102A4000862F70E060E02AF09A95660F771F881F46
:102A5000DAF7880F9695879597F90895990F0008EA
:102A6000550FAA0BE0E8FEEF16161706E807F90760
:102A7000C0F012161306E407F50798F0621B730BFB
:102A8000840B950B39F40A2661F0232B242B252B7C
:102A900021F408950A2609F4A140A6958FEF811D1F
:102AA000811D08950E9465150C94D6150E94C815C5
:102AB00038F00E94CF1520F0952311F00C94BF152B
:102AC0000C94C51511240C940A160E94E71570F396
:102AD000959FC1F3950F50E0551F629FF001729FC3
:102AE000BB27F00DB11D639FAA27F00DB11DAA1FD2
:102AF000649F6627B00DA11D661F829F2227B00D1F
:102B0000A11D621F739FB00DA11D621F839FA00DA9
:102B1000611D221F749F3327A00D611D231F849FF9
:102B2000600D211D822F762F6A2F11249F57504050
:102B30009AF0F1F088234AF0EE0FFF1FBB1F661FCB
:102B4000771F881F91505040A9F79E3F510580F094
:102B50000C94BF150C940A165F3FE4F3983ED4F32F
:102B6000869577956795B795F795E7959F5FC1F738
:102B7000FE2B880F911D9695879597F9089597F9E3
:102B80009F6780E870E060E008959FEF80EC089513
:102B900000240A941616170618060906089500243C
:102BA0000A9412161306140605060895092E0394B6
:102BB000000C11F4882352F0BB0F40F4BF2B11F42A
:102BC00060FF04C06F5F7F4F8F4F9F4F089557FD89
:102BD0009058440F551F59F05F3F71F04795880F8B
:102BE00097FB991F61F09F3F79F087950895121622
:102BF00013061406551FF2CF4695F1DF08C01616CE
:102C000017061806991FF1CF86957105610508947E
:102C10000895E894BB2766277727CB0197F9089595
:102C2000A1E21A2EAA1BBB1BFD010DC0AA1FBB1FD0
:102C3000EE1FFF1FA217B307E407F50720F0A21B42
:102C4000B30BE40BF50B661F771F881F991F1A94AF
:102C500069F760957095809590959B01AC01BD01D9
:102C6000CF010895991B79E004C0991F961708F0C9
:102C7000961B881F7A95C9F780950895EE0FFF1F60
:102C8000881F8BBF0790F691E02D19945058BB27F1
:102C9000AA270E945E160C94D6150E94C81538F01B
:102CA0000E94CF1520F039F49F3F19F426F40C94BC
:102CB000C5150EF4E095E7FB0C94BF15E92F0E94B3
:102CC000E71558F3BA17620773078407950720F0D2
:102CD00079F4A6F50C9409160EF4E0950B2EBA2F94
:102CE000A02D0B01B90190010C01CA01A001112412
:102CF000FF27591B99F0593F50F4503E68F11A16BE
:102D0000F040A22F232F342F4427585FF3CF46954E
:102D100037952795A795F0405395C9F77EF41F1670
:102D2000BA0B620B730B840BBAF09150A1F0FF0F3A
:102D3000BB1F661F771F881FC2F70EC0BA0F621F26
:102D4000731F841F48F4879577956795B795F79516
:102D50009E3F08F0B0CF9395880F08F09927EE0FAB
:102D60009795879508950E94C7160C94D6150E94D2
:102D7000CF1558F00E94C81540F029F45F3F29F0A4
:102D80000C94BF1551110C940A160C94C5150E9491
:102D9000E71568F39923B1F3552391F3951B550B70
:102DA000BB27AA2762177307840738F09F5F5F4F1E
:102DB000220F331F441FAA1FA9F335D00E2E3AF05D
:102DC000E0E832D091505040E695001CCAF72BD075
:102DD000FE2F29D0660F771F881FBB1F26173707C6
:102DE0004807AB07B0E809F0BB0B802DBF01FF27F8
:102DF00093585F4F3AF09E3F510578F00C94BF1501
:102E00000C940A165F3FE4F3983ED4F386957795C9
:102E10006795B795F7959F5FC9F7880F911D9695B0
:102E2000879597F90895E1E0660F771F881FBB1F0C
:102E3000621773078407BA0720F0621B730B840BB9
:102E4000BA0BEE1F88F7E09508950E942C1768943E
:102E5000B1110C940A1608950E94EF1588F09F573F
:102E600098F0B92F9927B751B0F0E1F0660F771FAE
:102E7000881F991F1AF0BA95C9F714C0B13091F0A4
:102E80000E940916B1E008950C940916672F782F57
:102E90008827B85F39F0B93FCCF386957795679569
:102EA000B395D9F73EF490958095709561957F4FD5
:102EB0008F4F9F4F08950E942E1508F48FEF0895AD
:102EC0000F931F93CF93DF938230910510F482E02C
:102ED00090E0E0912F07F091300720E030E0A0E093
:102EE000B0E0309719F14081518102811381481778
:102EF0005907C8F08417950769F4109731F01296B6
:102F00000C93129713961C9327C000932F071093CE
:102F1000300722C02115310519F04217530718F464
:102F20009A01BD01EF01DF01F801DBCF2115310569
:102F3000F9F0281B390B2430310580F48A819B81FC
:102F40006115710521F0FB019383828304C0909386
:102F5000300780932F07FE01329644C0FE01E20F36
:102F6000F31F8193919322503109398328833AC00A
:102F700020912D0730912E07232B41F4209103023D
:102F80003091040230932E0720932D0720910102E7
:102F9000309102022115310541F42DB73EB7409121
:102FA000050250910602241B350BE0912D07F0918C
:102FB0002E07E217F307A0F42E1B3F0B2817390743
:102FC00078F0AC014E5F5F4F2417350748F04E0F85
:102FD0005F1F50932E0740932D078193919302C05A
:102FE000E0E0F0E0CF01DF91CF911F910F910895C4
:102FF000CF93DF93009709F481C0FC0132971382CD
:103000001282A0912F07B0913007109781F4208190
:103010003181820F931F20912D0730912E072817A1
:10302000390751F5F0932E07E0932D0767C0ED01A6
:1030300020E030E0CE17DF0740F44A815B819E013B
:1030400041155105F1F0EA01F5CFD383C2834081E8
:103050005181840F951FC817D90759F48881998128
:10306000840F951F0296918380838A819B8193832D
:1030700082832115310529F4F0933007E0932F075F
:103080003DC0E901FB83EA8349915991C40FD51FE3
:10309000EC17FD0761F480819181840F951F0296E2
:1030A000E90199838883828193819B838A83E0E00D
:1030B000F0E012968D919C911397009719F0FD0105
:1030C000DC01F7CF8D919C9111979D012E5F3F4FB1
:1030D000820F931F20912D0730912E072817390753
:1030E00069F4309729F41092300710922F0702C02C
:1030F00013821282B0932E07A0932D07DF91CF91F8
:1031000008956F927F928F929F92AF92BF92CF92CB
:10311000DF92EF92FF920F931F93CF93DF9300976D
:1031200089F4CB01DF91CF911F910F91FF90EF9028
:10313000DF90CF90BF90AF909F908F907F906F90D7
:103140000C946017FC01E60FF71F9C012250310917
:10315000E217F30708F4A9C0EC01D9010D911C9105
:10316000119706171707B0F00530110508F49BC03A
:10317000C80104978617970708F495C002501109F3
:10318000061B170B019311936D937C93CF010E9443
:10319000F81789C05B01A01AB10A4C01800E911E7C
:1031A000A0912F07B0913007612C712CE12CF12CEC
:1031B000109709F446C08D919C911197A815B905F7
:1031C000B1F56C0142E0C40ED11CCA14DB0478F1E5
:1031D0004C018A189B08640142E0C40ED11C12966F
:1031E000BC9012971396AC91B5E0CB16D10440F089
:1031F000B282A38391828082D9016D937C9309C0AE
:103200000E5F1F4F800F911FF90191838083EB2D7B
:10321000FA2FE114F10431F0D7011396FC93EE93E9
:10322000129741C0F0933007E0932F073CC0681617
:10323000790608F43C017D0112960D90BC91A02DF9
:10324000B7CF80912D0790912E0788169906E1F44B
:1032500066167706C8F480910102909102020097E9
:1032600041F48DB79EB74091050250910602841B30
:10327000950BE817F907C8F4F0932E07E0932D0794
:10328000F901718360830FC0CB010E9460177C013C
:10329000009759F0A801BE010E946B19CE010E944F
:1032A000F817C70104C0CE0102C080E090E0DF91B2
:1032B000CF911F910F91FF90EF90DF90CF90BF9033
:1032C000AF909F908F907F906F90089581E090E0F5
:1032D000F8940C947B19FB01DC0102C001900D9263
:1032E00041505040D8F70895FB01DC0101900D9248
:1032F0000020E1F7089511E0C4E9D1E000E006C044
:10330000802FFE010E943E162196011DC539D1076E
:0A33100080E00807A9F7F894FFCF4A
:10331A00FF000031072000363738391B1D1A1C0000
:10332A00000000360909090502DD080109ED08DE79
:10333A000800000000160D9B0CC50C630DC801D4D3
:10334A000CE80C0000000022039B0C050204024951
:10335A006E76616C696420656E636F64657220695C
:0C336A006421000D0A002020202000003B
:00000001FF
