:100000000C9495010C94C6010C94C6010C94C60185
:100010000C94C6010C94C6010C94C6010C94C60144
:100020000C94C6010C940C0A0C940C0A0C940C0A47
:100030000C94C6010C9434050C94C6010C94C601B2
:100040000C94C6010C94AC070C94C6010C94C60128
:100050000C94C6010C94C6010C94C6010C94EA04DD
:100060000C94C6010C94A3060C9479060C94C6015A
:100070000C94C6010C94C6010C94C6010C94C601E4
:100080000C94C6010C94C6010C94C6010C94C601D4
:100090000C94C6010C94C6010C94C6010C94160A6B
:1000A0000C94C6010C94C6010C94C6010C94C601B4
:1000B0000C94C6010C94C6010C94C6010C94CD0698
:1000C0000C94C6010C94C6010C94C6010C944F0606
:1000D0000C9425060C94C6010C94FB050C94D105D8
:1000E0000C94C6017A037F0384038E0398031104E2
:1000F000A203AA03B203BC03C603D003DF03E903D0
:100100001104F303FD030704630B660B550B590B36
:100110005F0B9D0B6A0B6E0B740B780B7C0B820BC9
:10012000860B8A0B9D0B900B940B980B0C94C603BB
:100130000C946A0B0C94860B0C94BC030C946E0B01
:100140000C94820B0C94D0030C94E4080C941009CA
:100150000C94F3030C94DF030C94590B0C94660B72
:100160000C94E9030C946F020C94E3080C94F408CB
:100170000C9407040C949D0B0C9484030C94980B22
:100180000C9498030C9408090C9423020C94BC0260
:100190000C945F0B0C94C8010C94780B0C94900B8E
:1001A0000C9415020C947F030C94940B0C947C0B10
:1001B0000C9411040C94B2030C94E2080C948A0B76
:1001C0000C942D0E0C94A2030C94740B0C94FD0350
:1001D0000C94330E0C94550B0C94AA030C947A03D4
:1001E0000C9415030C943D090C9401020C94630BC0
:1001F0000C94F2010C94E5080C94C5040C941603BD
:100200000C948E03000020002300260029002C00FF
:100210002F00320000010000030106010901020065
:10022000002100240027002A002D003000330001A7
:10023000010000040107010A010000220025002836
:10024000002B002E003100340002010000050108DF
:10025000010B01050505050705080808080202024B
:10026000020A0A0808040404040101010101010151
:10027000010303030303030303040707070C0C0C28
:100280000C0C0C0C0C020202020606060606060600
:10029000060B0B0B0B0B0B0B0B010210202008089D
:1002A00010204010204080020102010804020101D8
:1002B00002040810204080804020100804020180C1
:1002C0000402018040201008040201080402010118
:1002D0000204081020408001020408102040800021
:1002E000000A0B02090C0D0E0807030401000000B0
:1002F00000000000000000000000000000000000FE
:1003000000000000000000000000001211100000BA
:1003100000000000000000000000000000000000DD
:10032000000000000000330E2D0E11241FBECFEF81
:10033000D1E2DEBFCDBF00E00CBF12E0A0E0B2E032
:10034000E2EFF6E200E00BBF02C007900D92A0348E
:10035000B107D9F727E0A0E4B2E001C01D92A531B2
:10036000B207E1F711E0C4E9D1E000E006C021974F
:100370000109802FFE010E940911C339D10780E0D5
:100380000807A9F70E94090C0C9467130C9400004D
:10039000CF92DF92EF92FF920F931F93CF93DF9351
:1003A0006C017A018B01C0E0D0E0CE15DF0581F051
:1003B000D8016D918D01D601ED91FC910190F081F4
:1003C000E02DC6011995892B11F02196EECF7E0103
:1003D000C701DF91CF911F910F91FF90EF90DF90B8
:1003E000CF900895FC01538D448D252F30E0842F4C
:1003F00090E0821B930B541710F0CF96089501974D
:100400000895FC01918D828D981761F0828DDF0136
:10041000A80FB11D5D968C91928D9F5F9F73928FF7
:1004200090E008958FEF9FEF0895FC01918D828DEC
:10043000981731F0828DE80FF11D858D90E00895B9
:100440008FEF9FEF0895FC01918D228D892F90E011
:10045000805C9F4F821B91098F739927089580E8D4
:1004600092E00E94230221E0892B09F420E0822FF0
:1004700008958DE193E00E94230221E0892B09F485
:1004800020E0822F08958AEB93E00E94230221E06E
:10049000892B09F420E0822F0895FC01848DDF016F
:1004A000A80FB11DA35ABF4F2C91848D90E00196E7
:1004B0008F739927848FA689B7892C93A089B189D6
:1004C0008C91837080648C93938D848D981306C077
:1004D0000288F389E02D80818F7D80830895EF92DB
:1004E000FF920F931F93CF93DF93EC0181E0888FEE
:1004F0009B8D8C8D981305C0E889F989808185FDD5
:1005000026C0F62E0B8D10E00F5F1F4F0F731127C3
:10051000E02E8C8DE8120CC00FB607FCFACFE889EC
:10052000F989808185FFF5CFCE010E944D02F1CF80
:100530008B8DFE01E80FF11DE35AFF4FF0829FB74C
:10054000F8940B8FEA89FB89808180620AC09FB78B
:10055000F894EE89FF896083E889F9898081837046
:10056000806480839FBF81E090E0DF91CF911F91F5
:100570000F91FF90EF900895CF93DF93EC01888D5A
:100580008823C9F0EA89FB89808185FD05C0A88997
:10059000B9898C9186FD0FC00FB607FCF5CF80811D
:1005A00085FFF2CFA889B9898C9185FFEDCFCE0167
:1005B0000E944D02E7CFDF91CF910895E0E0F0E097
:1005C000199480E090E0892B21F00E944302811170
:1005D00019C080E090E0892B41F080E090E0892B09
:1005E00021F00E940000811110C00E943902811187
:1005F0000FC080E090E0892B81F00E942F028111D2
:100600000AC008950E940000E4CF0E940000EDCFD0
:100610000E94DE02EECF0C94000008958EBD000013
:100620000DB407FEFDCF8EB50895089580E090E0EB
:1006300008958F929F92AF92BF92CF92DF92EF92E6
:10064000FF920F931F93CF93DF938C016A017B017D
:1006500020E030E04FE753E4C701B6010E943F10AD
:100660004B015C0120E030E0A9010E9447111816FF
:100670001CF4C501B40103C0C501B40190580E9427
:100680001111EB0120E030E0A901C701B6010E9481
:100690004711181614F460E001C061E0F80181818F
:1006A0000E949E0BCF3FD10509F014F4DD2702C054
:1006B000CFEFD0E0F801108161E0812F0E94CD0BD7
:1006C000209709F4B1C0CF3FD10509F4AFC0E12FA5
:1006D000F0E0E152FD4FE4918E2F90E0FC01319764
:1006E000E231F10508F09DC08827EE58FF4F8F4F8B
:1006F0000C94091184B5806884BDC7BDA7C084B5BA
:10070000806284BDC8BDA2C0809180008068809353
:100710008000D0938900C093880098C080918000A9
:10072000806280938000D0938B00C0938A008EC03B
:1007300080918000886080938000D0938D00C0936A
:100740008C0084C08091B00080688093B000C0931A
:10075000B3007CC08091B00080628093B000C093F1
:10076000B40074C080919000806880939000D09312
:100770009900C09398006AC0809190008062809335
:100780009000D0939B00C0939A0060C0809190002D
:10079000886080939000D0939D00C0939C0056C0C9
:1007A0008091A00080688093A0008091A0008F7B42
:1007B0008093A000D093A900C093A80047C0809167
:1007C000A00080628093A000D093AB00C093AA00E9
:1007D0003DC08091A00088608093A000D093AD00C0
:1007E000C093AC0033C080912001806880932001C9
:1007F000D0932901C093280129C0809120018062F3
:1008000080932001D0932B01C0932A011FC08091B7
:100810002001886080932001D0932D01C0932C018A
:1008200015C0C038D10514F460E001C061E0812F2B
:10083000DF91CF911F910F91FF90EF90DF90CF90BC
:10084000BF90AF909F908F900C949E0BDF91CF91B3
:100850001F910F91FF90EF90DF90CF90BF90AF90DE
:100860009F908F900895CF93DF93EC0160E0888193
:100870000E949E0B88E90E940E0380E00E940E03F6
:1008800080E00E940E0380E00E940E0380E00E9440
:100890000E0361E088810E949E0B8BE891E0019736
:1008A000F1F760E088810E949E0B80EE0E940E03AB
:1008B00061E08881DF91CF910C949E0BAF92BF9243
:1008C000CF92DF92EF92FF920F931F93CF93DF931C
:1008D000CDB7DEB760970FB6F894DEBF0FBECDBFC1
:1008E0005C0160E0FC0180810E949E0B80E60E941A
:1008F0000E038E010F5F1F4F7E01F1E1EF0EF11C21
:10090000680180E00E940E0390E0A0E0B0E0F601F4
:1009100081939193A193B1936F01EE15FF0589F730
:1009200061E0F50180810E949E0B80E090E0DC0197
:10093000F80141915191619171918F01BA2FA92FC5
:10094000982F8827840F951FA61FB71FEE15FF0548
:1009500079F79C01AD0166277727CB01621B730BEA
:10096000840B950B60960FB6F894DEBF0FBECDBF1B
:10097000DF91CF911F910F91FF90EF90DF90CF907B
:10098000BF90AF9008950E9452130F931F93CF937F
:10099000DF938C01C62FD62FD07FD1606D2F0E94A0
:1009A000CB096D2FC8010E94DE0980E1C89FB0010C
:1009B0001124C62FC1606C2FC8010E94CB096C2F77
:1009C000C8010E94DE0981E090E0DF91CF911F9184
:1009D0000F9108951F920F920FB60F9211242F932B
:1009E0003F938F939F93AF93BF93809165029091B4
:1009F0006602A0916702B09168023091640223E020
:100A0000230F2D3720F40196A11DB11D05C026E846
:100A1000230F0296A11DB11D2093640280936502ED
:100A200090936602A0936702B0936802809160027F
:100A300090916102A0916202B09163020196A11DA2
:100A4000B11D8093600290936102A0936202B09303
:100A50006302BF91AF919F918F913F912F910F9022
:100A60000FBE0F901F9018951F920F920FB60F9206
:100A700011240BB60F922F933F934F935F936F9375
:100A80007F938F939F93AF93BF93EF93FF93809147
:100A90005B0290915C02A0915D02B0915E02892B95
:100AA0008A2B8B2B49F190915A0280910000892763
:100AB0008093000080915B0290915C02A0915D02A6
:100AC000B0915E02181619061A061B060CF056C0E5
:100AD00080915B0290915C02A0915D02B0915E02F8
:100AE0000197A109B10980935B0290935C02A093E6
:100AF0005D02B0935E0242C080910002EEE1F2E03E
:100B0000E4919FEF90930002E230C9F050F4EE239D
:100B100099F0E13081F590916F009D7F90936F0087
:100B20002AC0E43019F1E0F0E53029F59091730026
:100B30009D7F909373001FC010926E001CC0909117
:100B400070009D7F9093700091E09093B000909121
:100B5000B100987F94609093B1001092B3000BC0E5
:100B6000909171009D7F9093710005C090917200EB
:100B70009D7F9093720060E00E949E0BFF91EF9129
:100B8000BF91AF919F918F917F916F915F914F91A5
:100B90003F912F910F900BBE0F900FBE0F901F90A3
:100BA00018951F920F920FB60F9211240BB60F9249
:100BB0002F933F934F935F936F937F938F939F9365
:100BC000AF93BF93EF93FF9380E892E00E944D02B2
:100BD000FF91EF91BF91AF919F918F917F916F9115
:100BE0005F914F913F912F910F900BBE0F900FBED1
:100BF0000F901F9018951F920F920FB60F9211240D
:100C00000BB60F922F933F934F935F936F937F9306
:100C10008F939F93AF93BF93EF93FF9380E892E0FE
:100C20000E94F309FF91EF91BF91AF919F918F9136
:100C30007F916F915F914F913F912F910F900BBEDC
:100C40000F900FBE0F901F9018951F920F920FB626
:100C50000F9211240BB60F922F933F934F935F93F4
:100C60006F937F938F939F93AF93BF93EF93FF9374
:100C70008DE193E00E944D02FF91EF91BF91AF9102
:100C80009F918F917F916F915F914F913F912F91A4
:100C90000F900BBE0F900FBE0F901F9018951F92D4
:100CA0000F920FB60F9211240BB60F922F933F9312
:100CB0004F935F936F937F938F939F93AF93BF9364
:100CC000EF93FF938DE193E00E94F309FF91EF9181
:100CD000BF91AF919F918F917F916F915F914F9154
:100CE0003F912F910F900BBE0F900FBE0F901F9052
:100CF00018951F920F920FB60F9211240BB60F92F8
:100D00002F933F934F935F936F937F938F939F9313
:100D1000AF93BF93EF93FF938AEB93E00E944D0252
:100D2000FF91EF91BF91AF919F918F917F916F91C3
:100D30005F914F913F912F910F900BBE0F900FBE7F
:100D40000F901F9018951F920F920FB60F921124BB
:100D50000BB60F922F933F934F935F936F937F93B5
:100D60008F939F93AF93BF93EF93FF938AEB93E09F
:100D70000E94F309FF91EF91BF91AF919F918F91E5
:100D80007F916F915F914F913F912F910F900BBE8B
:100D90000F900FBE0F901F9018951F920F920FB6D5
:100DA0000F9211240BB60F922F933F934F935F93A3
:100DB0006F937F938F939F93AF93BF93CF93DF9363
:100DC000EF93FF932091580430E0F901E152FD4F79
:100DD0008491F901E756FD4FD491F901ED5AFD4F89
:100DE000C491CC2379F081110E94480BEC2FF0E0E4
:100DF000EE0FFF1FEC5FFD4FA591B491EC91ED2339
:100E000081E009F480E020915C0430915D042F5F63
:100E10003F4F30935D0420935C0490915B049536C2
:100E200018F096E090935704909157049430C9F1CC
:100E300028F4923069F09330D1F05EC0953009F417
:100E400051C0963009F058C091E09093280551C0E8
:100E5000811152C020915C0430915D04243631052B
:100E600008F442C01092280510925B041CC0813027
:100E700009F042C0E0915B0491E09E0F90935B0407
:100E8000F0E020915C0430915D04EE0FFF1FE95A01
:100E9000FB4F3087278310925D0410925C0494E02E
:100EA00029C0811117C0E0915B0491E09E0F9093DF
:100EB0005B04F0E020915C0430915D04EE0FFF1FB5
:100EC000E95AFB4F3087278310925D0410925C042F
:100ED00093E010C020915C0430915D04253631050B
:100EE00058F007C0811108C010925D0410925C0494
:100EF00003C095E09093570490915A049923B9F058
:100F000081110AC080915904882321F080915904ED
:100F100061E009C02F9A0BC080915904882331F0F9
:100F20008091590460E00E949E0B01C02F98FF91B0
:100F3000EF91DF91CF91BF91AF919F918F917F9171
:100F40006F915F914F913F912F910F900BBE0F903A
:100F50000FBE0F901F9018951F920F920FB60F9211
:100F600011240BB60F922F933F934F935F936F9380
:100F70007F938F939F93AF93BF93EF93FF93809152
:100F8000590287FF05C0109285001092840016C098
:100F900020915902022E000C330B8091650590E0E0
:100FA000281739075CF43091590225E03203F0012B
:100FB0001124E75DFA4F808186FD15C080915902AA
:100FC0008F5F8093590220915902022E000C330B3F
:100FD0008091650590E02817390794F480915902B3
:100FE0008C302CF10DC0309159023203F0011124E4
:100FF000E75DFA4F808160E08F730E949E0BDECF29
:10100000809184009091850084349C4918F480E498
:101010009CE905C08091840090918500049690938E
:101020008900809388008FEF809359022AC04091F5
:101030008400509185003091590225E03203F0017F
:101040001124E75DFA4F81819281840F951F90935F
:10105000890080938800309159023203F0011124F5
:10106000E75DFA4F808186FF0CC030915902320350
:10107000F0011124E75DFA4F808161E08F730E94D7
:101080009E0BFF91EF91BF91AF919F918F917F91B7
:101090006F915F914F913F912F910F900BBE0F90E9
:1010A0000FBE0F901F90189530917302313208F0E7
:1010B0004BC0809171028111FCCF90914E0622E0CD
:1010C0002093710221E0209370022FEF20932C06D1
:1010D00010922B0630932A06EEE2F6E0AAE0B6E084
:1010E00020E0321721F041914D932F5FFACF1092FB
:1010F000090620910906990F922B90930906909169
:101100006F02913061F410926F02909109069093F2
:10111000BB009091BC0093FDF8CF95EC01C095EE1B
:101120009093BC00909171029230E1F390912C0663
:101130009F3F79F080912C06803241F080912C06FF
:10114000803331F084E005C081E003C082E001C05B
:1011500083E0109272021092730210922D0608958D
:1011600085ED8093BC008091BC0084FDFCCF109283
:10117000710208954091E405262F30E0240F311DBF
:1011800021323105DCF4209171022430C9F4FC01D4
:1011900080E090E0861758F43091E4052191DC015D
:1011A000AC53BA4FA30FB11D2C930196F3CF80918E
:1011B000E405680F6093E40580E0089581E00895F8
:1011C00082E00895089508950895E0916A0280915B
:1011D0006902E81730F4F0E0EC55FA4F808190E0B6
:1011E00008958FEF9FEF089590916A0280916902B0
:1011F000981750F4E92FF0E0EC55FA4F208130E0D9
:101200009F5F90936A0202C02FEF3FEFC9010895DC
:101210008091690290E020916A02821B91090895F1
:10122000CF92DF92EF92FF920F931F93CF93DF93B2
:101230007C01CB018A0120912D06222389F0EB014C
:101240006B01C40ED51ECC15DD0569F06991D7017F
:10125000ED91FC910190F081E02DC7011995F3CF3C
:10126000642F0E94BA08C801DF91CF911F910F919E
:10127000FF90EF90DF90CF900895CF93DF931F9270
:10128000CDB7DEB7698320912D062223D1F02091BE
:101290007302203240F021E030E0FC0133832283EE
:1012A00080E090E015C080917202E82FF0E0E25DEE
:1012B000F94F998190838F5F8093720280937302BC
:1012C00005C061E0CE0101960E94BA0881E090E07D
:1012D0000F90DF91CF910895EAEBF3E0A089B189F7
:1012E00082E08C93A485B5851C92A685B7858FEC8A
:1012F0008C93108EA489B58986E08C93A289B389DA
:101300008C9180618C93A289B3898C9188608C9335
:10131000A289B3898C9180688C930288F389E02D2F
:1013200080818F7D808308950F931F93CF93DF93E8
:10133000162F072FCDE6D5E09C8521E020932D06C2
:1013400090934E061092720210927302AA85BB858A
:10135000ED91FC9111970190F081E02D682FCD0166
:1013600019958A859B85DC01ED91FC910190F081B6
:10137000E02D602F19958A859B85DC01ED91FC910C
:101380000190F081E02D612F1995DF91CF911F9190
:101390000F910C945408FC01248131E030932D0608
:1013A00020934E0610927202109273028485682B6D
:1013B00084E792E00E943D090C9454080F931F9318
:1013C000CF938C01C62F64600E94CB096C2F6B7F7A
:1013D000C8010E94CB0983EC90E00197F1F7CF910F
:1013E0001F910F910895FC01A089B1898C91A68964
:1013F000B78982FD0FC09C91818D8F5F8F73228D85
:10140000821749F0218DDF01A20FB11D5D969C93DB
:10141000818F08958C9108951F920F920FB60F92AD
:1014200011240F900FBE0F901F9018951F920F92CE
:101430000FB60F9211240BB60F922F933F934F9339
:101440005F936F937F938F939F93AF93BF93EF932C
:10145000FF938091B900887F803609F49CC068F5BD
:10146000883209F45BC090F4803109F454C038F438
:10147000882309F4F6C0883009F44DC0F6C08831DD
:1014800009F44CC0803209F45DC0EFC0803409F427
:1014900068C048F4803309F455C0883309F0E5C0CA
:1014A00080932C06D8C0803509F44FC0883509F4E4
:1014B0005DC0883409F0D9C0D6C0883909F4C7C0E6
:1014C000A8F4883709F467C038F4883609F463C093
:1014D000803709F460C0C9C0883809F4B8C08039C1
:1014E00009F45FC0803809F0C0C05BC0803B09F4DC
:1014F00086C038F4803A09F466C0883A09F47FC09F
:10150000B4C0803C09F4A7C0883C09F4A4C0883B5F
:1015100009F48AC0AAC08091090610C090912B06D8
:1015200080912A06981770F5E0912B0681E08E0FC6
:1015300080932B06F0E0E65FF94F80818093BB003B
:1015400085EC86C080932C068EC0E0912B0681E04E
:101550008E0F80932B068091BB00F0E0E65FF94F81
:10156000808390912B0680912A066EC0E0912B0615
:1015700081E08E0F80932B068091BB00F0E0E65F48
:10158000F94F80838091700281116DC081E080935A
:101590006F0284EA61C083E08093710210920606B4
:1015A000CFCF80910606803208F051C0E091060648
:1015B00081E08E0F809306068091BB00F0E0EA5137
:1015C000FA4F8083BDCF85EC8093BC0010927102EE
:1015D00080910606803230F4E0910606F0E0EA5190
:1015E000FA4F10826091060670E0E0916D02F09172
:1015F0006E0286EE95E019951092060636C084E0DC
:10160000809371021092E5051092E405E0916B025F
:10161000F0916C0219958091E405811105C081E07B
:101620008093E4051092C405E091E50581E08E0FFA
:101630008093E505F0E0EC53FA4F80818093BB0086
:101640009091E5058091E405981708F479CF85E835
:101650008093BC000AC085EC8093BC00109271029C
:1016600004C010922C060E94B008FF91EF91BF9128
:10167000AF919F918F917F916F915F914F913F912A
:101680002F910F900BBE0F900FBE0F901F901895CB
:1016900090E0FC013197E231F10508F04EC0882757
:1016A000EC57FF4F8F4F0C940911809180008F777A
:1016B00003C0809180008F7D809380000895809189
:1016C0008000877FF9CF84B58F7702C084B58F7D86
:1016D00084BD08958091B0008F7703C08091B000E1
:1016E0008F7D8093B0000895809190008F7707C020
:1016F000809190008F7D03C080919000877F8093C0
:10170000900008958091A0008F7707C08091A0007D
:101710008F7D03C08091A000877F8093A0000895F3
:10172000809120018F7707C0809120018F7D03C0B9
:1017300080912001877F8093200108951F93CF938C
:10174000DF93282F30E0F901E152FD4F8491F90138
:10175000E756FD4FD491F901ED5AFD4FC491CC23CA
:10176000C1F0162F81110E94480BEC2FF0E0EE0F14
:10177000FF1FE75CFD4FA591B4919FB7F89411113D
:1017800004C08C91D095D82302C0EC91DE2BDC9361
:101790009FBFDF91CF911F910895CF93DF9390E08A
:1017A000FC01E756FD4F2491FC01ED5AFD4F849159
:1017B000882361F190E0880F991FFC01E15EFD4FE5
:1017C000C591D491FC01E75CFD4FA591B4916111E5
:1017D00009C09FB7F8948881209582238883EC9173
:1017E0002E230BC0623061F49FB7F8948881322FAA
:1017F000309583238883EC912E2B2C939FBF06C0BA
:101800008FB7F894E8812E2B28838FBFDF91CF917B
:101810000895789484B5826084BD84B5816084BD68
:1018200085B5826085BD85B5816085BD80916E007E
:10183000816080936E0010928100809181008260AF
:1018400080938100809181008160809381008091EC
:1018500080008160809380008091B10084608093DB
:10186000B1008091B00081608093B00080919100C0
:1018700082608093910080919100816080939100BB
:10188000809190008160809390008091A10082609F
:101890008093A1008091A10081608093A10080913C
:1018A000A00081608093A0008091210182608093DC
:1018B000210180912101816080932101809120018B
:1018C00081608093200180917A00846080937A0007
:1018D00080917A00826080937A0080917A008160A2
:1018E00080937A0080917A00806880937A001092C9
:1018F000C1000E946C0961E080916E050E94CD0BD1
:1019000060E080916E050E949E0B60E080916D0505
:101910000E94CD0B84E792E0909378058093770541
:1019200010926A021092690210927202109273026F
:101930001092710281E08093700210926F0261E058
:1019400084E10E949E0B61E085E10E949E0B8091E4
:10195000B9008E7F8093B9008091B9008D7F80930C
:10196000B90088E48093B80085E48093BC0082EEDF
:1019700098E090936C0280936B0283EE98E09093D2
:101980006E0280936D0280E090E1A0E0B0E0809371
:101990007A0590937B05A0937C05B0937D058AE042
:1019A00090E0A0E0B0E080937E0590937F05A09347
:1019B0008005B093810580E090E0A0E0B0E48093E2
:1019C000820590938305A0938405B093850560E01C
:1019D00070E185E00E9494096FE979E380E00E945C
:1019E0009409CDE6D5E08E0152E0752E68E8A62E6A
:1019F00062E0B62E7EEC872E72E0972EEBECEE2E98
:101A0000E7E0FE2EF80194818281898F9A8F61E050
:101A10000E94CD0B61E08A8D0E94CD0BF80190856C
:101A200086816E01FDE1CF0ED11C8D8F9E8F61E00E
:101A30000E94CD0B60E08E8D0E94CD0B61E08D8DFC
:101A40000E949E0B6FB6F89480915F02811126C0B0
:101A5000F5018491F4012491E82FF0E0EE0FFF1FCF
:101A6000E15EFD4FA591B4919C91822F892321F4D1
:101A700061E085E30E949E0B61E085E30E94CD0B4F
:101A80008CB580618CBD8CB580648CBD61E084E3D5
:101A90000E94CD0B61E083E30E94CD0B80915F0239
:101AA0008F5F80935F026FBEC7010197F1F760E01F
:101AB0008D8D0E949E0B88E80E940E0383E00E9499
:101AC0000E0361E08D8D0E949E0BC7010197F1F717
:101AD000C6010E9433047A940F5F1F4F2296711043
:101AE00091CFC2E9D5E006E915E060E089910E9456
:101AF000CD0B0C171D07C9F70EE815E080E9E82E9D
:101B000085E0F82EE80195E0D92E2CE0B22E32E0E7
:101B1000C32E88898C3008F045C0A88461E08A2DE6
:101B20000E94CD0B8889D89EF0011124E75DFA4F01
:101B30009A2D9F732081207CA22EA92AA082138235
:101B400014826B2D0E94FD10FCE08F9FA0011124D8
:101B500020E030E0BA01620F731FD69EF001D79EDD
:101B6000F00D1124E75DFA4F908196FD12C02F5FB2
:101B70003F4F2C30310571F781110BC0109280005E
:101B8000C09281001092850010928400C6BAC09263
:101B90006F00E889DE9EF0011124E75DFA4F808135
:101BA000806480839E858C85F801828B938B60E0B6
:101BB0000E94CD0B61E0F80183890E94CD0B60E0AB
:101BC000F80183890E949E0B21960E5F1F4FEC1631
:101BD000FD0609F09ECFF8941092200189E08093D1
:101BE000210180E293E090932901809328011092D3
:101BF00025011092240182E08093730078948093F1
:101C0000570410925B048091580460E00E94CD0B51
:101C10000E946C098AE895E00E945E048AE895E0DB
:101C20000E9433048CE895E00E945E048CE895E005
:101C30000E94330440E050E060E87EEB86E895E0E7
:101C40000E94190340E050E060E87EE388E895E0F8
:101C50000E9419030E94E102FDCF809166059091D8
:101C600067050C94E411109277021092760288EEC8
:101C700093E0A0E0B0E08093780290937902A09383
:101C80007A02B0937B0223E132E030937502209315
:101C900074021092830210928202809384029093C5
:101CA0008502A0938602B093870225E232E030934A
:101CB00081022093800245E351E050938D024093CE
:101CC0008C0244E351E050938F0240938E0240E334
:101CD00051E0509391024093900241E351E05093C0
:101CE00093024093920242E351E050939502409355
:101CF000940246E351E0509397024093960210926B
:101D0000990210929A0210929B0210929C021092D9
:101D1000200310921F038093210390932203A0932A
:101D20002303B093240330931E0320931D0345ED3A
:101D300050E050932A034093290344ED50E0509320
:101D40002C0340932B0340ED50E050932E0340931F
:101D50002D0341ED50E05093300340932F0342EDAB
:101D600050E0509332034093310346ED50E05093DE
:101D700034034093330310923603109237031092CA
:101D80003803109239031092BD031092BC03809364
:101D9000BE039093BF03A093C003B093C1033093DD
:101DA000BB032093BA0385EC90E09093C703809324
:101DB000C60384EC90E09093C9038093C80380EC41
:101DC00090E09093CB038093CA0381EC90E09093D2
:101DD000CD038093CC0382EC90E09093CF0380936B
:101DE000CE0386EC90E09093D1038093D0031092C1
:101DF000D3031092D4031092D5031092D60380918E
:101E0000070290910802A0910902B0910A02809302
:101E10008E0590938F05A0939005B09391058091C6
:101E20000B0290910C02A0910D02B0910E028093D2
:101E3000920590939305A0939405B093950584E043
:101E40008093960587E0809397051092980584EB20
:101E50008093990586E180939A0588E180939B059C
:101E600087E180939C0589E180939D05E09165055C
:101E7000EC3020F08FEF80939E0510C081E08E0F34
:101E800080936505E0939E0585E0E89FF0011124AD
:101E9000E75DFA4F88EB9BE092838183E0916505D3
:101EA000EC3020F08FEF80939F0510C081E08E0F03
:101EB00080936505E0939F0585E0E89FF00111247C
:101EC000E75DFA4F88EB9BE0928381838CE08093FF
:101ED0006D0584E280936E0586E080936F0585E052
:101EE000809370058FE1809371058EE18093720578
:101EF00083E28093730582E28093740585E4809386
:101F0000750584E48093760580E4809379051092CA
:101F10007E0510927F051092800510928105109227
:101F20008205109283051092840510928505E3E5E1
:101F3000F6E021E137E08FEF9FEFDC0112821382A0
:101F400014821582168217821086118683879487E1
:101F5000A587B6878787908BA18BB28B128611825B
:101F6000108273962E173F0749F78DE090E00E948C
:101F70004C11FC011382128287E392E091838083EB
:101F8000118687E2848384E1828784E083871486D4
:101F9000F0935006E0934F061092510610925206AD
:101FA00085E28093580410925A04109267051092AB
:101FB0006605109269051092680510926B051092E3
:101FC0006A0561E070E080E090E00E946D12009789
:101FD00089F09093670580936605109269051092C9
:101FE000680520916A0530916B05232BC1F4FC0133
:101FF000108215C08091660590916705009711F0D9
:102000000E94E411109267051092660510926B050C
:1020100010926A0510926905109268050895109251
:102020006B0510926A056FE372E0809166059091EE
:1020300067050C946013990F0008550FAA0BE0E890
:10204000FEEF16161706E807F907C0F0121613067A
:10205000E407F50798F0621B730B840B950B39F4BA
:102060000A2661F0232B242B252B21F408950A2620
:1020700009F4A140A6958FEF811D811D08950E944E
:1020800052100C94C3100E94B51038F00E94BC107E
:1020900020F0952311F00C94AC100C94B210112484
:1020A0000C94F7100E94D41070F3959FC1F3950F14
:1020B00050E0551F629FF001729FBB27F00DB11DCC
:1020C000639FAA27F00DB11DAA1F649F6627B00D5C
:1020D000A11D661F829F2227B00DA11D621F739F45
:1020E000B00DA11D621F839FA00D611D221F749F53
:1020F0003327A00D611D231F849F600D211D822F9A
:10210000762F6A2F11249F5750409AF0F1F08823C0
:102110004AF0EE0FFF1FBB1F661F771F881F9150ED
:102120005040A9F79E3F510580F00C94AC100C94E0
:10213000F7105F3FE4F3983ED4F386957795679563
:10214000B795F795E7959F5FC1F7FE2B880F911D17
:102150009695879597F9089597F99F6780E870E0BD
:1021600060E008959FEF80EC089500240A9416160D
:10217000170618060906089500240A941216130675
:10218000140605060895092E0394000C11F4882303
:1021900052F0BB0F40F4BF2B11F460FF04C06F5F1F
:1021A0007F4F8F4F9F4F089557FD9058440F551FF5
:1021B00059F05F3F71F04795880F97FB991F61F0C9
:1021C0009F3F79F087950895121613061406551F40
:1021D000F2CF4695F1DF08C0161617061806991FAC
:1021E000F1CF86957105610508940895E894BB27A1
:1021F00066277727CB0197F90895991B79E004C0EA
:10220000991F961708F0961B881F7A95C9F7809535
:102210000895EE0FFF1F881F8BBF0790F691E02DEA
:1022200019940E9418116894B1110C94F710089534
:102230000E94DC1088F09F5798F0B92F9927B7516A
:10224000B0F0E1F0660F771F881F991F1AF0BA955A
:10225000C9F714C0B13091F00E94F610B1E00895B2
:102260000C94F610672F782F8827B85F39F0B93FA4
:10227000CCF3869577956795B395D9F73EF490950D
:102280008095709561957F4F8F4F9F4F08950E9465
:102290001B1008F48FEF08950F931F93CF93DF93D4
:1022A0008230910510F482E090E0E0911307F09104
:1022B000140720E030E0A0E0B0E0309719F1408151
:1022C00051810281138148175907C8F08417950777
:1022D00069F4109731F012960C93129713961C9391
:1022E00027C0009313071093140722C0211531054E
:1022F00019F04217530718F49A01BD01EF01DF01ED
:10230000F801DBCF21153105F9F0281B390B2430FA
:10231000310580F48A819B816115710521F0FB01F3
:102320009383828304C09093140780931307FE0164
:10233000329644C0FE01E20FF31F81939193225025
:102340003109398328833AC020911107309112074F
:10235000232B41F4209103023091040230931207A1
:1023600020931107209101023091020221153105BD
:1023700041F42DB73EB74091050250910602241B4F
:10238000350BE0911107F0911207E217F307A0F463
:102390002E1B3F0B2817390778F0AC014E5F5F4FBB
:1023A0002417350748F04E0F5F1F509312074093D4
:1023B00011078193919302C0E0E0F0E0CF01DF913B
:1023C000CF911F910F910895CF93DF93009709F458
:1023D00081C0FC01329713821282A0911307B09141
:1023E0001407109781F420813181820F931F20916F
:1023F0001107309112072817390751F5F09312078A
:10240000E093110767C0ED0120E030E0CE17DF0751
:1024100040F44A815B819E0141155105F1F0EA01CA
:10242000F5CFD383C28340815181840F951FC81794
:10243000D90759F488819981840F951F0296918359
:1024400080838A819B81938382832115310529F4BE
:10245000F0931407E09313073DC0E901FB83EA837F
:1024600049915991C40FD51FEC17FD0761F4808184
:102470009181840F951F0296E90199838883828157
:1024800093819B838A83E0E0F0E012968D919C918A
:102490001397009719F0FD01DC01F7CF8D919C9106
:1024A00011979D012E5F3F4F820F931F20911107BF
:1024B000309112072817390769F4309729F41092E0
:1024C00014071092130702C013821282B0931207EE
:1024D000A0931107DF91CF9108956F927F928F9211
:1024E0009F92AF92BF92CF92DF92EF92FF920F93A3
:1024F0001F93CF93DF93009789F4CB01DF91CF91A6
:102500001F910F91FF90EF90DF90CF90BF90AF9011
:102510009F908F907F906F900C944C11FC01E60F70
:10252000F71F9C0122503109E217F30708F4A9C0F4
:10253000EC01D9010D911C91119706171707B0F006
:102540000530110508F49BC0C8010497861797074A
:1025500008F495C002501109061B170B0193119343
:102560006D937C93CF010E94E41189C05B01A01A96
:10257000B10A4C01800E911EA0911307B09114076F
:10258000612C712CE12CF12C109709F446C08D912F
:102590009C911197A815B905B1F56C0142E0C40EE4
:1025A000D11CCA14DB0478F14C018A189B08640121
:1025B00042E0C40ED11C1296BC9012971396AC91B7
:1025C000B5E0CB16D10440F0B282A3839182808221
:1025D000D9016D937C9309C00E5F1F4F800F911F2F
:1025E000F90191838083EB2DFA2FE114F10431F08E
:1025F000D7011396FC93EE93129741C0F093140702
:10260000E09313073CC06816790608F43C017D018D
:1026100012960D90BC91A02DB7CF8091110790918B
:10262000120788169906E1F466167706C8F48091B9
:10263000010290910202009741F48DB79EB740913C
:10264000050250910602841B950BE817F907C8F4A0
:10265000F0931207E0931107F901718360830FC0B3
:10266000CB010E944C117C01009759F0A801BE01DA
:102670000E945713CE010E94E411C70104C0CE018D
:1026800002C080E090E0DF91CF911F910F91FF9009
:10269000EF90DF90CF90BF90AF909F908F907F9002
:1026A0006F90089581E090E0F8940C946713FB011B
:1026B000DC0102C001900D9241505040D8F70895BE
:1026C000FB01DC0101900D920020E1F7089511E07B
:1026D000C4E9D1E000E006C0802FFE010E9409118C
:1026E0002196011DC539D10780E00807A9F7F894A4
:0226F000FFCF1A
:1026F200FF000015072000363738391B1D1A1C0051
:102702000000003D0910091603E4080809F408E571
:1027120008000000006F02C801F201BC022302019E
:1027220002150200000000C504C8011603150300CB
:00000001FF
