:100000000C9495010C94C6010C94C6010C94C60185
:100010000C94C6010C94C6010C94C6010C94C60144
:100020000C94C6010C9491040C9491040C949104CA
:100030000C94C6010C946D070C94C6010C94C60177
:100040000C94C6010C94350C0C94C6010C94C6019A
:100050000C94C6010C94C6010C94C6010C94F50DC9
:100060000C94C6010C94DC080C94B2080C94C601E4
:100070000C94C6010C94C6010C94C6010C94C601E4
:100080000C94C6010C94C6010C94C6010C94C601D4
:100090000C94C6010C94C6010C94C6010C949B04EC
:1000A0000C94C6010C94C6010C94C6010C94C601B4
:1000B0000C94C6010C94C6010C94C6010C9406095C
:1000C0000C94C6010C94C6010C94C6010C948808CB
:1000D0000C945E080C94C6010C9434080C940A0825
:1000E0000C94C6018A0A8F0A940A9E0AA80A210B58
:1000F000B20ABA0AC20ACC0AD60AE00AEF0AF90A18
:10010000210B030B0D0B170B440D470D360D3A0D4C
:10011000400D7E0D4B0D4F0D550D590D5D0D630DB1
:10012000670D6B0D7E0D710D750D790D0C94D60A52
:100130000C94A80A0C944F0D0C94191A0C945D0D94
:100140000C9449060C94C20A0C94440D0C948A0A2F
:100150000C948F0A0C9456020C94670D0C94360D77
:100160000C94BA0A0C94CC0A0C9484020C94580295
:100170000C94030B0C94210B0C94710D0C94E00A5D
:100180000C949E0A0C94630D0C9443070C94B20AD1
:100190000C9468020C94170B0C94790D0C94750D4B
:1001A0000C94F0060C946B0D0C94550D0C943506C4
:1001B0000C94EF0A0C947C020C940D0B0C943118E7
:1001C0000C9459020C94FC050C94940A0C94470D61
:1001D0000C9448070C9426060C9442070C94570282
:1001E0000C9457060C94590D0C94B1020C944B0DC1
:1001F0000C943A0D0C94A3060C94F90A0C947E0D01
:100200000C94400D00002200250028002B002E0039
:100210003100340002010000050108010B01050551
:100220000505070508080808020202020A0A08086C
:10023000040404040101010101010101030303039A
:1002400003030303040707070C0C0C0C0C0C0C0C29
:100250000202020206060606060606060B0B0B0B3A
:100260000B0B0B0B0102102020080810204010205F
:10027000408002010201080402010102040810206A
:100280004080804020100804020180040201804068
:1002900020100804020108040201010204081020D1
:1002A0004080010204081020408000000A0B02096F
:1002B0000C0D0E0807030401000000000000000000
:1002C000000000000000000000000000000000002E
:1002D00000000000000012111000000000000000EB
:1002E000000000000000000000000000000000000E
:1002F000000020002300260029002C002F003200DF
:100300000001000003010601090102000021002490
:100310000027002A002D00300033000101000004F6
:100320000107010A01003118191A11241FBECFEF6D
:10033000D1E2DEBFCDBF00E00CBF12E0A0E0B2E032
:10034000E0E8FEE300E00BBF02C007900D92A43688
:10035000B107D9F727E0A4E6B2E001C01D92A934A5
:10036000B207E1F711E0C4E9D1E000E006C021974F
:100370000109802FFE010E94BA1BC339D10780E01A
:100380000807A9F70E943F0E0C942E1F0C94000042
:1003900030917F02313208F04BC080917D02811193
:1003A000FCCF90915A0622E020937D0221E0209319
:1003B0007C022FEF209338061092370630933606D2
:1003C000EAE3F6E0A6E1B6E020E0321721F0419141
:1003D0004D932F5FFACF1092150620911506990FB5
:1003E000922B9093150690917B02913061F41092BC
:1003F0007B02909115069093BB009091BC0093FDF9
:10040000F8CF95EC01C095EE9093BC0090917D02E1
:100410009230E1F3909138069F3F79F08091380651
:10042000803241F080913806803331F084E005C09D
:1004300081E003C082E001C083E010927E0210924E
:100440007F0210923906089585ED8093BC0080915B
:10045000BC0084FDFCCF10927D0208954091F00510
:10046000262F30E0240F311D21323105DCF420919C
:100470007D022430C9F4FC0180E090E0861758F436
:100480003091F0052191DC01A053BA4FA30FB11DAB
:100490002C930196F3CF8091F005680F6093F005DF
:1004A00080E0089581E0089582E008950895089518
:1004B0000895E091660280916502E81730F4F0E05B
:1004C000E055FA4F808190E008958FEF9FEF0895F7
:1004D0009091660280916502981750F4E92FF0E040
:1004E000E055FA4F208130E09F5F9093660202C092
:1004F0002FEF3FEFC90108958091650290E02091B0
:100500006602821B91090895CF92DF92EF92FF92CB
:100510000F931F93CF93DF937C01CB018A0120912E
:100520003906222389F0EB016B01C40ED51ECC15D0
:10053000DD0569F06991D701ED91FC910190F081A1
:10054000E02DC7011995F3CF642F0E942E02C80138
:10055000DF91CF911F910F91FF90EF90DF90CF909F
:100560000895CF93DF931F92CDB7DEB769832091B3
:1005700039062223D1F020917F02203240F021E081
:1005800030E0FC013383228380E090E015C080914D
:100590007E02E82FF0E0E65CF94F998190838F5F4F
:1005A00080937E0280937F0205C061E0CE010196B8
:1005B0000E942E0281E090E00F90DF91CF9108958C
:1005C000CF93DF93009779F0FC0101900020E9F7C9
:1005D0003197AF01481B590BBC0186EC93E00E9498
:1005E000FC05EC0102C0C0E0D0E042E050E063E472
:1005F00072E086EC93E00E94FC058C0F9D1FDF915A
:10060000CF910895CF92DF92EF92FF92CF93DF9335
:100610009091A405891720F09091A505981750F4A2
:1006200086E492E0DF91CF91FF90EF90DF90CF9042
:100630000C94E002C091AB05CC3008F07BC0282FB1
:1006400030E0D0E0283C3105E4F595E09C9FF001D6
:100650009D9FF00D1124EB5CFA4F938128E830E068
:100660006901C91AD10897FDD394CC0CDD1CCC0CC0
:10067000DD1C0D2C000CEE08FF08948128E532E00B
:10068000291B310997FD3395220F331F220F331F8A
:10069000A901330F660B770B9A01AB012C193D09A9
:1006A0004E095F09A82FB0E00E94621B24EB30E0E6
:1006B00040E050E00E94431BC20ED31EE41EF51E14
:1006C00027C085E08C9FF0018D9FF00D1124EB5C1D
:1006D000FA4F838148E850E06A01C81AD10887FDC3
:1006E000D394CC0CDD1CCC0CDD1C2C153D0584F00A
:1006F000448188E592E0841B910947FD9395880F1A
:10070000991F880F991F69018C159D050CF46C01C8
:100710008FB7F89495E09C9FF0019D9FF00D1124F8
:10072000EB5CFA4F96E0C91AD108CC0CDD1CD282E2
:10073000C1828FBFDF91CF91FF90EF90DF90CF907C
:1007400008950F931F93CF93DF93162F072FC9E7B9
:10075000D5E09C8521E02093390690935A061092AB
:100760007E0210927F02AA85BB85ED91FC911197C4
:100770000190F081E02D682FCD0119958A859B8528
:10078000DC01ED91FC910190F081E02D602F199535
:100790008A859B85DC01ED91FC910190F081E02D33
:1007A000612F1995DF91CF911F910F910C94C80182
:1007B0008F929F92AF92BF92CF92DF92EF92FF9271
:1007C0000F931F93CF93DF93FC0120813181E09140
:1007D0007702F09178022E173F070CF04FC0F90115
:1007E000EE0FFF1FA0917502B0917602EA0FFB1F7A
:1007F000A080B180217033276901F1E0CF26232B3F
:1008000019F42CE93FEF02C024E630E07A018B01B5
:10081000EC014901840E951EB401C5010E94E50951
:10082000892B99F48E0C9F1CB401C5010E94E50927
:10083000892B71F4B701680D791DC5010E94E50986
:10084000892BF9F023E030E005C021E030E002C060
:1008500022E030E0F80180819181019682179307B0
:100860001CF49183808308C0F80111821082888172
:100870009981019699838883C60105C081E090E043
:1008800002C08FEF9FEFDF91CF911F910F91FF90EB
:10089000EF90DF90CF90BF90AF909F908F90089592
:1008A000FC01248131E03093390620935A061092DE
:1008B0007E0210927F028485682B80E892E00E947D
:1008C000B1020C94C8010F931F93CF938C01C62FD4
:1008D00064600E9450046C2F6B7FC8010E9450041A
:1008E00083EC90E00197F1F7CF911F910F9108955C
:1008F000FC01A089B1898C91A689B78982FD0FC0BE
:100900009C91818D8F5F8F73228D821749F0218D8D
:10091000DF01A20FB11D5D969C93818F08958C918C
:1009200008951F920F920FB60F9211240F900FBED1
:100930000F901F9018951F920F920FB60F921124CF
:100940000BB60F922F933F934F935F936F937F93C9
:100950008F939F93AF93BF93EF93FF938091B900D1
:10096000887F803609F49CC068F5883209F45BC042
:1009700090F4803109F454C038F4882309F4F6C0A7
:10098000883009F44DC0F6C0883109F44CC080327B
:1009900009F45DC0EFC0803409F468C048F48033C6
:1009A00009F455C0883309F0E5C080933806D8C0F3
:1009B000803509F44FC0883509F45DC0883409F0EA
:1009C000D9C0D6C0883909F4C7C0A8F4883709F45B
:1009D00067C038F4883609F463C0803709F460C012
:1009E000C9C0883809F4B8C0803909F45FC08038BC
:1009F00009F0C0C05BC0803B09F486C038F4803A7F
:100A000009F466C0883A09F47FC0B4C0803C09F498
:100A1000A7C0883C09F4A4C0883B09F48AC0AAC0D6
:100A20008091150610C09091370680913606981770
:100A300070F5E091370681E08E0F80933706F0E085
:100A4000EA5EF94F80818093BB0085EC86C080937D
:100A500038068EC0E091370681E08E0F809337060E
:100A60008091BB00F0E0EA5EF94F808390913706F9
:100A7000809136066EC0E091370681E08E0F80933C
:100A800037068091BB00F0E0EA5EF94F80838091E9
:100A90007C0281116DC081E080937B0284EA61C099
:100AA00083E080937D0210921206CFCF80911206D0
:100AB000803208F051C0E091120681E08E0F8093E1
:100AC00012068091BB00F0E0EE50FA4F8083BDCF5C
:100AD00085EC8093BC0010927D02809112068032DA
:100AE00030F4E0911206F0E0EE50FA4F108260917F
:100AF000120670E0E0916902F0916A0282EF95E0DF
:100B000019951092120636C084E080937D021092EF
:100B1000F1051092F005E0916702F09168021995D5
:100B20008091F005811105C081E08093F00510925D
:100B3000D005E091F10581E08E0F8093F105F0E0A2
:100B4000E053FA4F80818093BB009091F105809132
:100B5000F005981708F479CF85E88093BC000AC0A7
:100B600085EC8093BC0010927D0204C01092380680
:100B70000E942402FF91EF91BF91AF919F918F91BD
:100B80007F916F915F914F913F912F910F900BBE8D
:100B90000F900FBE0F901F9018951F93CF93DF9368
:100BA000282F30E0F901E655FD4F8491F901EC5909
:100BB000FD4FD491F901E25EFD4FC491CC23C1F009
:100BC000162F81110E94290DEC2FF0E0EE0FFF1F70
:100BD000EC5FFD4FA591B4919FB7F894111104C03B
:100BE0008C91D095D82302C0EC91DE2BDC939FBF73
:100BF000DF91CF911F910895CF92DF92EF92FF92F4
:100C00000F931F93CF93DF936C017A018B01C0E0A8
:100C1000D0E0CE15DF0581F0D8016D918D01D601B0
:100C2000ED91FC910190F081E02DC6011995892B81
:100C300011F02196EECF7E01C701DF91CF911F9178
:100C40000F91FF90EF90DF90CF900895FC01538DAE
:100C5000448D252F30E0842F90E0821B930B541796
:100C600010F0CF96089501970895FC01918D828D23
:100C7000981761F0828DDF01A80FB11D5D968C91F0
:100C8000928D9F5F9F73928F90E008958FEF9FEFFB
:100C90000895FC01918D828D981731F0828DE80FB7
:100CA000F11D858D90E008958FEF9FEF0895FC0171
:100CB000918D228D892F90E0805C9F4F821B91093E
:100CC0008F73992708958CE892E00E94570621E0DF
:100CD000892B09F420E0822F089589E293E00E9495
:100CE000570621E0892B09F420E0822F089586EC35
:100CF00093E00E94570621E0892B09F420E0822F1F
:100D00000895FC01848DDF01A80FB11DA35ABF4FC8
:100D10002C91848D90E001968F739927848FA689FA
:100D2000B7892C93A089B1898C91837080648C934E
:100D3000938D848D981306C00288F389E02D8081FD
:100D40008F7D80830895EF92FF920F931F93CF932F
:100D5000DF93EC0181E0888F9B8D8C8D981305C00B
:100D6000E889F989808185FD26C0F62E0B8D10E07B
:100D70000F5F1F4F0F731127E02E8C8DE8120CC0F0
:100D80000FB607FCFACFE889F989808185FFF5CF96
:100D9000CE010E948106F1CF8B8DFE01E80FF11D7F
:100DA000E35AFF4FF0829FB7F8940B8FEA89FB89D3
:100DB000808180620AC09FB7F894EE89FF896083C2
:100DC000E889F98980818370806480839FBF81E096
:100DD00090E0DF91CF911F910F91FF90EF900895D8
:100DE000CF93DF93EC01888D8823C9F0EA89FB89D2
:100DF000808185FD05C0A889B9898C9186FD0FC0C9
:100E00000FB607FCF5CF808185FFF2CFA889B9899D
:100E10008C9185FFEDCFCE010E948106E7CFDF9157
:100E2000CF910895E0E0F0E0199480E090E0892B04
:100E300021F00E947706811119C080E090E0892B93
:100E400041F080E090E0892B21F00E9400008111A8
:100E500010C00E946D0681110FC080E090E0892BC8
:100E600081F00E94630681110AC008950E9400006B
:100E7000E4CF0E940000EDCF0E941207EECF0C9449
:100E800000000895089580E090E008950E94191FE1
:100E90000F931F93CF93DF938C01C62FD62FD07F54
:100EA000D1606D2F0E9450046D2FC8010E94630411
:100EB00080E1C89FB0011124C62FC1606C2FC8010A
:100EC0000E9450046C2FC8010E94630481E090E0EE
:100ED000DF91CF911F910F9108951F920F920FB63E
:100EE0000F9211240BB60F922F933F934F935F9362
:100EF0006F937F938F939F93AF93BF93EF93FF93E2
:100F00008091380790913907A0913A07B0913B073B
:100F1000892B8A2B8B2B49F1909137078091000008
:100F20008927809300008091380790913907A0911C
:100F30003A07B0913B07181619061A061B060CF063
:100F400056C08091380790913907A0913A07B09127
:100F50003B070197A109B10980933807909339079E
:100F6000A0933A07B0933B0742C080910402EAE0A5
:100F7000F3E0E4919FEF90930402E230C9F050F463
:100F8000EE2399F0E13081F590916F009D7F909371
:100F90006F002AC0E43019F1E0F0E53029F59091B6
:100FA00073009D7F909373001FC010926E001CC051
:100FB000909170009D7F9093700091E09093B000AD
:100FC0009091B100987F94609093B1001092B3001B
:100FD0000BC0909171009D7F9093710005C090911E
:100FE00072009D7F9093720060E00E94CD05FF919A
:100FF000EF91BF91AF919F918F917F916F915F9191
:101000004F913F912F910F900BBE0F900FBE0F90FD
:101010001F9018951F920F920FB60F9211240BB6C6
:101020000F922F933F934F935F936F937F938F9381
:101030009F93AF93BF93EF93FF938CE892E00E944E
:101040008106FF91EF91BF91AF919F918F917F9119
:101050006F915F914F913F912F910F900BBE0F9029
:101060000FBE0F901F9018951F920F920FB60F9200
:1010700011240BB60F922F933F934F935F936F936F
:101080007F938F939F93AF93BF93EF93FF938CE8DE
:1010900092E00E947804FF91EF91BF91AF919F91F0
:1010A0008F917F916F915F914F913F912F910F9011
:1010B0000BBE0F900FBE0F901F9018951F920F92AE
:1010C0000FB60F9211240BB60F922F933F934F93AD
:1010D0005F936F937F938F939F93AF93BF93EF93A0
:1010E000FF9389E293E00E948106FF91EF91BF9107
:1010F000AF919F918F917F916F915F914F913F91B0
:101100002F910F900BBE0F900FBE0F901F90189550
:101110001F920F920FB60F9211240BB60F922F93BE
:101120003F934F935F936F937F938F939F93AF936F
:10113000BF93EF93FF9389E293E00E947804FF91BD
:10114000EF91BF91AF919F918F917F916F915F913F
:101150004F913F912F910F900BBE0F900FBE0F90AC
:101160001F9018951F920F920FB60F9211240BB675
:101170000F922F933F934F935F936F937F938F9330
:101180009F93AF93BF93EF93FF9386EC93E00E94FE
:101190008106FF91EF91BF91AF919F918F917F91C8
:1011A0006F915F914F913F912F910F900BBE0F90D8
:1011B0000FBE0F901F9018951F920F920FB60F92AF
:1011C00011240BB60F922F933F934F935F936F931E
:1011D0007F938F939F93AF93BF93EF93FF9386EC8F
:1011E00093E00E947804FF91EF91BF91AF919F919E
:1011F0008F917F916F915F914F913F912F910F90C0
:101200000BBE0F900FBE0F901F9018951F920F925C
:101210000FB60F9211240BB60F922F933F934F935B
:101220005F936F937F938F939F93AF93BF93CF936E
:10123000DF93EF93FF932091640430E0F901E655CA
:10124000FD4F8491F901EC59FD4FD491F901E25E13
:10125000FD4FC491CC2379F081110E94290DEC2F10
:10126000F0E0EE0FFF1FE051FD4FA591B491EC911E
:10127000ED2381E009F480E0209168043091690455
:101280002F5F3F4F30936904209368049091670467
:10129000953618F096E0909363049091630494302F
:1012A000C9F128F4923069F09330D1F05EC09530E6
:1012B00009F451C0963009F058C091E0909334057C
:1012C00051C0811152C020916804309169042436C4
:1012D000310508F442C010923405109267041CC016
:1012E000813009F042C0E091670491E09E0F909335
:1012F0006704F0E02091680430916904EE0FFF1F4D
:10130000ED59FB4F308727831092690410926804CF
:1013100094E029C0811117C0E091670491E09E0F0D
:1013200090936704F0E02091680430916904EE0F17
:10133000FF1FED59FB4F30872783109269041092ED
:10134000680493E010C02091680430916904253648
:10135000310558F007C0811108C01092690410923D
:10136000680403C095E09093630490916604992308
:10137000B9F081110AC080916504882321F0809121
:10138000650461E009C02F9A0BC080916504882331
:1013900031F08091650460E00E94CD0501C02F9876
:1013A000FF91EF91DF91CF91BF91AF919F918F917D
:1013B0007F916F915F914F913F912F910F900BBE55
:1013C0000F900FBE0F901F901895CF92DF92EF9263
:1013D000FF92CF93DF93EC01072E000C880B990B43
:1013E0000E94261A6B017C0120E030E040E45FE3BC
:1013F0000E94851A20E030E048E452E40E94661C16
:101400000E94D81CC617D707D4F020E030E040EA8D
:101410005FE3C701B6010E94851A20E030E048E48E
:1014200052E40E94661C20E030E040E85FE30E9446
:10143000FA1B0E94D81C21E06C177D070CF420E0F9
:10144000822F90E0DF91CF91FF90EF90DF90CF90CF
:1014500008958F929F92AF92BF92CF92DF92EF92B8
:10146000FF920F931F93CF93DF938C016A017B014F
:1014700020E030E04FE753E4C701B6010E94851A2F
:101480004B015C0120E030E0A9010E940E1D1816FE
:101490001CF4C501B40103C0C501B40190580E94F9
:1014A000D81CEB0120E030E0A901C701B6010E9481
:1014B0000E1D181614F460E001C061E0F80181818E
:1014C0000E94CD05CF3FD10509F014F4DD2702C0FD
:1014D000CFEFD0E0F801108161E0812F0E947F0DF5
:1014E000209709F4B1C0CF3FD10509F4AFC0E12F77
:1014F000F0E0E655FD4FE4918E2F90E0FC0131972E
:10150000E231F10508F09DC08827EE58FF4F8F4F5C
:101510000C94BA1B84B5806884BDC7BDA7C084B5D0
:10152000806284BDC8BDA2C0809180008068809325
:101530008000D0938900C093880098C0809180007B
:10154000806280938000D0938B00C0938A008EC00D
:1015500080918000886080938000D0938D00C0933C
:101560008C0084C08091B00080688093B000C093EC
:10157000B3007CC08091B00080628093B000C093C3
:10158000B40074C080919000806880939000D093E4
:101590009900C09398006AC0809190008062809307
:1015A0009000D0939B00C0939A0060C080919000FF
:1015B000886080939000D0939D00C0939C0056C09B
:1015C0008091A00080688093A0008091A0008F7B14
:1015D0008093A000D093A900C093A80047C0809139
:1015E000A00080628093A000D093AB00C093AA00BB
:1015F0003DC08091A00088608093A000D093AD0092
:10160000C093AC0033C0809120018068809320019A
:10161000D0932901C093280129C0809120018062C4
:1016200080932001D0932B01C0932A011FC0809189
:101630002001886080932001D0932D01C0932C015C
:1016400015C0C038D10514F460E001C061E0812FFD
:10165000DF91CF911F910F91FF90EF90DF90CF908E
:10166000BF90AF909F908F900C94CD05DF91CF915C
:101670001F910F91FF90EF90DF90CF90BF90AF90B0
:101680009F908F9008958EBD00000DB407FEFDCF92
:101690008EB50895CF93DF93EC0160E088810E94BE
:1016A000CD0588E90E94430B80E00E94430B80E057
:1016B0000E94430B80E00E94430B80E00E94430B9A
:1016C00061E088810E94CD058BE891E00197F1F7F8
:1016D00060E088810E94CD0580EE0E94430B61E0AE
:1016E0008881DF91CF910C94CD05AF92BF92CF92BC
:1016F000DF92EF92FF920F931F93CF93DF93CDB7BB
:10170000DEB760970FB6F894DEBF0FBECDBF5C01A9
:1017100060E0FC0180810E94CD0580E60E94430BC1
:101720008E010F5F1F4F7E01F1E1EF0EF11C68018A
:1017300080E00E94430B90E0A0E0B0E0F6018193CE
:101740009193A193B1936F01EE15FF0589F761E0C5
:10175000F50180810E94CD0580E090E0DC01F80178
:1017600041915191619171918F01BA2FA92F982FB9
:101770008827840F951FA61FB71FEE15FF0579F761
:101780009C01AD0166277727CB01621B730B840B8D
:10179000950B60960FB6F894DEBF0FBECDBFDF91FC
:1017A000CF911F910F91FF90EF90DF90CF90BF905E
:1017B000AF9008951F93CF93DF93EC01162F88818C
:1017C0008C3008F04DC061E0812F0E947F0DE881D0
:1017D00095E09E9FF0011124EB5CFA4F1F7380810E
:1017E000807C182B10831382E8819E9FF0011124C6
:1017F000EB5CFA4F148288816CE00E94AE1B9CE087
:10180000899FA001112420E030E095E0BA01620F29
:10181000731F969FF001979FF00D1124EB5CFA4F18
:10182000608166FD13C02F5F3F4F2C30310571F78B
:1018300081110CC01092800082E080938100109290
:1018400085001092840086BB80936F00E88185E05C
:10185000E89FF0011124EB5CFA4F80818064808363
:101860008881DF91CF911F9108951F920F920FB63B
:101870000F9211240BB60F922F933F934F935F93C8
:101880006F937F938F939F93AF93BF93EF93FF9348
:101890008091360787FF05C0109285001092840062
:1018A00016C020913607022E000C330B8091710573
:1018B00090E0281739075CF43091360725E03203B1
:1018C000F0011124EB5CFA4F808186FD15C08091F8
:1018D00036078F5F8093360720913607022E000C63
:1018E000330B8091710590E02817390794F48091AB
:1018F00036078C302CF10DC0309136073203F001E1
:101900001124EB5CFA4F808160E08F730E94CD055B
:10191000DECF809184009091850084349C4918F436
:1019200080E49CE905C08091840090918500049634
:1019300090938900809388008FEF809336072AC0A8
:1019400040918400509185003091360725E03203A4
:10195000F0011124EB5CFA4F81819281840F951F75
:101960009093890080938800309136073203F0010C
:101970001124EB5CFA4F808186FF0CC03091360752
:101980003203F0011124EB5CFA4F808161E08F7328
:101990000E94CD05FF91EF91BF91AF919F918F91E3
:1019A0007F916F915F914F913F912F910F900BBE5F
:1019B0000F900FBE0F901F901895CF92DF92EF926D
:1019C000FF926B017C0186E995E00E94750B86E928
:1019D00095E00E944A0B88E995E00E94750B88E922
:1019E00095E00E944A0BB701A60182E995E00E94AA
:1019F000290AB701A601705884E995E0FF90EF909D
:101A0000DF90CF900C94290A3FB7F894809141075A
:101A100090914207A0914307B091440726B5A89B37
:101A200005C02F3F19F00196A11DB11D3FBFBA2F70
:101A3000A92F982F8827820F911DA11DB11DBC01D0
:101A4000CD0142E0660F771F881F991F4A95D1F795
:101A5000089590E0FC013197E231F10508F04EC0A5
:101A60008827EC57FF4F8F4F0C94BA1B8091800052
:101A70008F7703C0809180008F7D809380000895D0
:101A800080918000877FF9CF84B58F7702C084B5BD
:101A90008F7D84BD08958091B0008F7703C08091C1
:101AA000B0008F7D8093B0000895809190008F7773
:101AB00007C0809190008F7D03C080919000877F48
:101AC0008093900008958091A0008F7707C0809147
:101AD000A0008F7D03C08091A000877F8093A0002D
:101AE0000895809120018F7707C0809120018F7D1C
:101AF00003C080912001877F809320010895CF93B8
:101B0000DF9390E0FC01EC59FD4F2491FC01E25E73
:101B1000FD4F8491882361F190E0880F991FFC01AB
:101B2000E55FFC4FC591D491FC01EC5FFD4FA591A1
:101B3000B491611109C09FB7F894888120958223E0
:101B40008883EC912E230BC0623061F49FB7F89428
:101B50008881322F309583238883EC912E2B2C9310
:101B60009FBF06C08FB7F894E8812E2B28838FBFC4
:101B7000DF91CF9108958F929F92AF92BF92CF92B3
:101B8000DF92EF92FF926B017C010E94040D4B01EA
:101B90005C01C114D104E104F104F1F00E94040DD0
:101BA000DC01CB0188199909AA09BB09883E934039
:101BB000A105B10570F321E0C21AD108E108F108CE
:101BC00088EE880E83E0981EA11CB11CC114D104BC
:101BD000E104F10419F7DDCFFF90EF90DF90CF9093
:101BE000BF90AF909F908F9008951F920F920FB665
:101BF0000F9211242F933F938F939F93AF93BF9393
:101C000080913D0790913E07A0913F07B09140071A
:101C100030913C0723E0230F2D3720F40196A11DBE
:101C2000B11D05C026E8230F0296A11DB11D20930A
:101C30003C0780933D0790933E07A0933F07B093E6
:101C400040078091410790914207A0914307B091CE
:101C500044070196A11DB11D80934107909342074F
:101C6000A0934307B0934407BF91AF919F918F9189
:101C70003F912F910F900FBE0F901F901895CF930B
:101C8000DF93CDB7DEB72C970FB6F894DEBF0FBE4B
:101C9000CDBF789484B5826084BD84B5816084BDF5
:101CA00085B5826085BD85B5816085BD80916E00FA
:101CB000816080936E00109281008091810082602B
:101CC0008093810080918100816080938100809168
:101CD00080008160809380008091B1008460809357
:101CE000B1008091B00081608093B000809191003C
:101CF0008260809391008091910081608093910037
:101D0000809190008160809390008091A10082601A
:101D10008093A1008091A10081608093A1008091B7
:101D2000A00081608093A000809121018260809357
:101D30002101809121018160809321018091200106
:101D400081608093200180917A00846080937A0082
:101D500080917A00826080937A0080917A0081601D
:101D600080937A0080917A00806880937A00109244
:101D7000C100E091D603F091D70382E08083E09127
:101D8000D203F091D3031082E091D403F091D503F4
:101D90008FEC80831092DE03E091DA03F091DB0395
:101DA00086E08083E091D803F091D903808180613F
:101DB0008083E091D803F091D9038081886080838B
:101DC000E091D803F091D903808180688083E0910D
:101DD000D803F091D90380818F7D808361E0809169
:101DE0007A050E947F0D60E080917A050E94CD0502
:101DF00060E0809179050E947F0D80E892E09093E9
:101E000084058093830510926602109265021092F9
:101E10007E0210927F0210927D0281E080937C020C
:101E200010927B0261E084E10E94CD0561E085E1D2
:101E30000E94CD058091B9008E7F8093B90080917A
:101E4000B9008D7F8093B90088E48093B80085E461
:101E50008093BC0086E592E09093680280936702CD
:101E600087E592E090936A028093690280E090E1B6
:101E7000A0E0B0E08093860590938705A093880545
:101E8000B09389058AE090E0A0E0B0E080938A05F5
:101E900090938B05A0938C05B0938D0580E090E026
:101EA000A0E0B0E480938E0590938F05A0939005F9
:101EB000B093910560E070E185E00E94A1036FE9B5
:101EC00079E380E00E94A10309E715E0780142E090
:101ED000542E53E5652E52E0752E69E9862E62E098
:101EE000962E7BECC72E77E0D72ED70114969C91C7
:101EF000149712968C91F801818F928F61E00E9465
:101F00007F0D61E0D8015A968C910E947F0DF701F8
:101F1000908586815801FDE1AF0EB11CD8015D9618
:101F20008C935D975E969C9361E00E947F0D60E0CC
:101F3000F801868D0E947F0D61E0D8015D968C913D
:101F40000E94CD054FB6F89480916402811126C09D
:101F5000F3018491F4012491E82FF0E0EE0FFF1FCC
:101F6000E55FFC4FA591B4919C91822F892321F4C8
:101F700061E085E30E94CD0561E085E30E947F0D6D
:101F80008CB580618CBD8CB580648CBD61E084E3D0
:101F90000E947F0D61E083E30E947F0D80916402C7
:101FA0008F5F809364024FBEC6010197F1F760E036
:101FB000D8015D968C910E94CD0588E80E94430B64
:101FC00083E00E94430B61E0F801858D0E94CD05FE
:101FD000C6010197F1F7C5010E944A0B5A94FFEF21
:101FE000EF1AFF0A0E5F1F4F51107FCF2EE9E22E2E
:101FF00025E0F22E02EA15E060E0D7018D917D0127
:102000000E947F0D0E151F05B9F78AE9E82E85E0BD
:10201000F82E94EAA92E95E0B92E6801BFEFCB1AED
:10202000DB0AF801608170E0C80108960E94DA0BB3
:10203000D60115969C91159713968C91F701828B7A
:10204000938B60E00E947F0D61E0D70153968C91E5
:102050000E947F0D60E0F70183890E94CD05F2E0C8
:10206000EF0EF11C8601AC14BD04B9F6F894109281
:10207000200189E08093210180E293E0909329017F
:1020800080932801109225011092240182E0809310
:1020900073007894809363041092670480916404C1
:1020A00060E00E947F0D6091A30570E08BEA95E0EF
:1020B0000E94DA0B82E30E94020310E2212E312CEF
:1020C00044244A94542C32012AE634E030937602B8
:1020D000209375028091670490E09093780280933A
:1020E00077028091340590E090937A028093790290
:1020F00080916304853009F0EAC180916C0490916D
:102100006D04885891098D35910588F48091670494
:10211000843041F480916E0490916F0480974797CA
:1021200008F4DEC180916704843408F060C08091B7
:1021300067048A3108F418C280916A0490916B0494
:10214000843F914068F4109274021092730240929E
:102150006F0250927002609271027092720244C0DB
:1021600080916C0490916D0485974B9708F0FCC1A9
:10217000E0E7F4E082E090E0C12CD12C7601AC01E4
:102180004F5F5F4F2091670430E0421753075CF4C4
:10219000DF0112972D913C912750310927303105ED
:1021A00008F4C6C1CA01019795958795909374026A
:1021B000809373020C972CF41092740210927302A5
:1021C000D3C1C0926F02D0927002E0927102F0927D
:1021D000720284E090E046C0C0926F02D09270021A
:1021E000E0927102F09272028BE090E03BC080912D
:1021F0006E0490916F04825491098E9708F097CFE6
:1022000080E090E040E050E0BA01FC01E059FB4F73
:1022100020813181295031092930310508F087CFDB
:10222000FC01EE58FB4F20813181275131092231C9
:10223000310508F070C1440F551F661F771F4160BC
:1022400004968038910509F7309274022092730247
:1022500040936F0250937002609371027093720208
:1022600083E090E090936C0280936B0282E0809315
:1022700063041092670480916F0290917002A091A4
:102280007102B09172028D3932E693073FEFA307D6
:10229000B10509F458C070F5873EF8E19F07FFEFDC
:1022A000AF07B10509F402C190F48F3E9041AF4FE2
:1022B000B10509F00CC140E050E0BA0182E995E0B7
:1022C0000E94290A40E050E060E070E8E7C08D3DE0
:1022D000E2E29E07EFEFAE07B10509F4A8C08F3C1C
:1022E0009043AF4FB10509F0F2C08DEC9CECACE42B
:1022F000BEE3E5C0873528EA92072FEFA207B105B4
:1023000009F43FC080F48538EAE79E07EFEFAE0797
:10231000B10509F4D0C08F369049AF4FB10509F02F
:10232000D6C082E3C0C08D3322EC92072FEFA20704
:10233000B10509F449C08F31904EAF4FB10509F096
:10234000C6C080EAB0C040E050E0BA0182E995E042
:102350000E94290A40E050E060E070E884E995E0DE
:102360000E94290A64E670E080E090E00E94BB0DC4
:10237000609100027091010280910202909103022B
:1023800020C040E050E0BA0182E995E00E94290AAD
:1023900040E050E060E070E884E995E00E94290A9E
:1023A00064E670E080E090E00E94BB0D8091000246
:1023B00090910102A0910202B0910302BC01CD01F3
:1023C00090580E94DD0C83C040E050E0BA0182E9E1
:1023D00095E00E94290A40E050E060E070E884E95E
:1023E00095E00E94290A64E670E080E090E00E9497
:1023F000BB0DC0900002D0900102E0900202F0906C
:10240000030220E030E040E05FE3C701B6010E9434
:10241000851AAB01BC0182E995E00E94290AC70137
:10242000B601905820E030E040E05FE332C040E089
:1024300050E0BA0182E995E00E94290A40E050E0AC
:1024400060E070E884E995E00E94290A64E670E0A3
:1024500080E090E00E94BB0DC0900002D09001028D
:10246000E0900202F0900302C701B601905820E00C
:1024700030E040E05FE30E94851AAB01BC0182E9D5
:1024800095E00E94290A20E030E040E05FE3C701C8
:10249000B6010E94851AAB01BC01705884E995E031
:1024A0000E94290A14C00E94020311C08AE999E916
:1024B000A9E9BEE304C080E090E0A0E0BFE3809320
:1024C000000290930102A0930202B09303026AE01B
:1024D00070E080E090E00E94BB0D0E941507F4CDF3
:1024E00080917004909171040997099708F01ACEB1
:1024F000109274021092730240926F025092700216
:102500006092710270927202E3E0F0E0F0936C026C
:10251000E0936B02ABCE2081318126503109273008
:10252000310508F004CE440F551F661F771F88CE73
:1025300020813181235131092F30310548F4CC0CF1
:10254000DD1CEE1CFF1C6894C0F80296349617CE72
:10255000208131812A5031092930310528F4CC0CF1
:10256000DD1CEE1CFF1CF1CF809167048A3108F45A
:102570005AC080916A0490916B048032934008F4B1
:10258000E2CD80916C0490916D04C697869708F017
:102590004AC080916E0490916F04C697869708F0A8
:1025A00042C0E2E7F4E023E030E0C12CD12C760118
:1025B000C90101964091670450E08417950754F4CF
:1025C000DF0112974D915C914C5051094B305105F0
:1025D00088F001C0C9010197959587959093740281
:1025E000809373020C970CF0F7CD10927402109246
:1025F000730219C08081918185974B9750F4CC0C60
:10260000DD1CEE1CFF1C6894C0F82E5F3F4F349613
:10261000CFCF808191810C970A9728F4CC0CDD1CD8
:10262000EE1CFF1CF2CF80916704823208F458C080
:1026300080916C0490916D040697079708F050C044
:10264000E0E7F4E082E090E0C12CD12C76019C011F
:102650002F5F3F4F4091670450E024173507CCF4BB
:10266000DF0112974D915C9111974E5151094731FD
:10267000510540F5CC0CDD1CEE1CFF1C6894C0F825
:10268000408151813496435051094530510530F114
:10269000C901019795958795909374028093730271
:1026A00040972CF4109274021092730219C0C092D9
:1026B0006F02D0927002E0927102F09272028CE08E
:1026C00090E0D0CD4D915C914C5051094B3051056B
:1026D00038F4CC0CDD1CEE1CFF1CD2CF0296B7CF19
:1026E0001C821B82A1E0B0E0BA83A98380916704B9
:1026F0008D3078F41C821B82E1E0F0E0FA83E983FC
:102700008091770290917802181619060CF470C027
:10271000C7C049E753E0BE016D5F7F4FCE01019610
:102720000E94D803892B31F749E753E0BE016D5F62
:102730007F4FCE0101960E94D8030197D9F649E751
:1027400053E0BE016D5F7F4FCE0101960E94D8031A
:10275000892B81F6812C912C540100E010E08091AE
:10276000670490E029813A812817390774F549E711
:1027700053E0BE016D5F7F4FCE0101960E94D803EA
:102780007C0149E753E0BE016D5F7F4FCE010196AA
:102790000E94D803F1E0EF16F10451F4892B09F0FF
:1027A000A9CF880C991CAA1CBB1C689480F80AC08D
:1027B000EF2809F09FCF019709F09CCF880C991C56
:1027C000AA1CBB1C0F5F1F4FCACF1093740200934B
:1027D000730280926F0290927002A0927102B09286
:1027E000720221E030E030936C0220936B023ECD08
:1027F000E0917502F091760282E090E09A838983FD
:102800008281938189974E9708F04AC023E030E097
:102810003A832983848195810B970A9708F040C0F9
:102820004CEB51E0BE016D5F7F4FCE0101960E94DF
:10283000D803892BA9F54CEB51E0BE016D5F7F4FAA
:10284000CE0101960E94D803019751F5812C912C5D
:10285000540100E010E020917702309178028981E4
:102860009A81821793070CF026C14CEB51E0BE0110
:102870006D5F7F4FCE0101960E94D8037C0103302B
:10288000110509F0E2C04CEB51E0BE016D5F7F4FD6
:10289000CE0101960E94D803E816F90609F4D5C0C6
:1028A000E0917502F091760282819381C6978697B6
:1028B000E0F4848195814B974597B8F4DF01169633
:1028C0007F0136ECE30EF11C20E030E040E050E008
:1028D00060E070E080E090E00D911C91119709504C
:1028E00011090830110508F4F5C080916704893397
:1028F00070F182819381895791098335910508F49C
:1029000025C125C0D90112966D917C91139766510E
:1029100071096131710508F045C1D701C601880F01
:10292000991FAA1FBB1F6C017D016894C0F84E5F00
:102930005F4F2C5F3F4F4B33510509F416C1D9014E
:102940006D917C916A50710969307105D8F280915E
:102950006704823231F4828193810A97099708F4DF
:1029600031C1828193818957910983359105D0F4D2
:10297000809167048132B0F084819581CA978997EC
:1029800088F49F012A5F3F4FC12CD12C760143E090
:1029900050E0D9016D917C916A50710969307105DF
:1029A00008F42CC1828193818C549109C59778F4E5
:1029B00080916704843031F48481958180974797B2
:1029C00008F47FC180916704843408F061C180916C
:1029D0006704863460F1828193810C970B9708F429
:1029E000B8C125C0D90112966D917C9113976E5193
:1029F00071096731710508F0E2C1D701C601880F7E
:102A0000991FAA1FBB1F6C017D016894C0F84E5F1F
:102A10005F4F2C5F3F4F4534510509F4B5C1D901D3
:102A20006D917C916C5071096B307105D8F2809179
:102A30006704883508F42BC28281938185589109F7
:102A40008B35910508F4CBC122C24CEB51E0BE019D
:102A50006D5F7F4FCE0101960E94D8036C01033059
:102A6000110569F44CEB51E0BE016D5F7F4FCE0163
:102A700001960E94D803C816D90609F011CFE114B7
:102A8000F10459F4CA94CD2809F00ACF880C991C96
:102A9000AA1CBB1C689480F80BC0EA94EF2809F0CC
:102AA000FFCECD2809F0FCCE880C991CAA1CBB1CBB
:102AB0000F5F1F4FD0CE1093740200937302809269
:102AC0006F0290927002A0927102B092720282E044
:102AD00090E0C8CB12960D911C91139701511109EA
:102AE0000D30110528F501E00E94C21B21601496EB
:102AF000AE15BF0509F0F0CE20936F02309370023F
:102B0000409371025093720200E20E94DD1B2093F9
:102B10006D0230936E02A5E0B0E0B0936C02A0931A
:102B20006B02E0E3F0E0F0937402E09373029ECB5B
:102B300012960D911C91139704501109053011053F
:102B400008F0D3CE01E00E94C21BD1CF84819581D1
:102B5000CA97899708F0FBCE9F012A5F3F4FC12C8F
:102B6000D12C760143E050E0EACE9F012A583F4F36
:102B7000D9012D913C912A5031092930310508F0B5
:102B8000E6CE2CE130E03093740220937302C092C1
:102B90006F02D0927002E0927102F09272028AE0AB
:102BA00090E060CBD90112966D917C91139766509D
:102BB00071096730710508F0CACECC0CDD1CEE1C23
:102BC000FF1CB5CE20916704CF01820F911D820FAB
:102BD000911DDC0112978D919C910A97099708F03D
:102BE000C0CE109274021092730240926F02509203
:102BF0007002609271027092720247C0D9011296FF
:102C00006D917C911397665171096131710568F579
:102C1000D701C601880F991FAA1FBB1F6C017D0138
:102C20006894C0F84E5F5F4F2C5F3F4F43325105B1
:102C300009F0AFCE9F012A5B3F4FD9012D913C9106
:102C40002A5031092930310508F0ACCEE0E1F0E03E
:102C5000F0937402E0937302C0926F02D0927002FC
:102C6000E0927102F092720210C0D90112966D9139
:102C70007C911397665071096730710508F092CE08
:102C8000CC0CDD1CEE1CFF1CCDCF86E090E0EACA28
:102C90008481958189549109C39708F098CE9F014A
:102CA0002A5F3F4FBF016A577F4FC12CD12C76015D
:102CB000D9014D915C914950510949305105A0F01D
:102CC00086CE868197810997099708F07BCE10926E
:102CD00074021092730240926F02509270026092DE
:102CE000710270927202BAC1D90112964D915C9133
:102CF0001397465151094131510500F112964D91FA
:102D00005C911397465051094730510508F05FCE4A
:102D1000CC0CDD1CEE1CFF1C2C5F3F4F2617370729
:102D200039F63092740220927302C0926F02D092F0
:102D30007002E0927102F092720290C1D701C60156
:102D4000880F991FAA1FBB1F6C017D016894C0F8F2
:102D5000E3CF848195810997099708F068CE868131
:102D600097818C974F9708F062CE808591858997DF
:102D70004D9708F05CCE9F01265F3F4FC12CD12CB0
:102D8000760145E050E04BCE9F0126573F4FD901D9
:102D90002D913C912C5031092B30310508F047CE54
:102DA0003092740220927302C0926F02D09270022D
:102DB000E0927102F092720288E090E053CAD90169
:102DC00012966D917C911397695071096930710564
:102DD00008F02DCECC0CDD1CEE1CFF1C18CE84811F
:102DE0009581825491098E9708F051C08F01045C3F
:102DF0001F4F8DE190E020E030E04091670450E00B
:102E00004450510984179507ACF4A8014250510968
:102E1000DA014D915C91495051094830510510F14A
:102E200036C0D8014D915C9148515109423151054C
:102E300058F1CB01019795958795909374028093F3
:102E400073028A9724F1C901330FAA0BBB0B80933D
:102E50006F0290937002A0937102B093720289E0A6
:102E600090E000CABC016F5F7F4FD8014D915C912B
:102E70004750510947305105A0F6220F331F2160FA
:102E800002960C5F1F4FB9CF220F331FF9CF8091ED
:102E900067048032E1F48281938106970697B8F443
:102EA000848195810997099790F49F012A5F3F4F8C
:102EB000BF01625C7F4FC12CD12C7601D9014D91AD
:102EC0005C91465051094630510508F486C0209166
:102ED00077023091780238872F83263031050CF441
:102EE000B7C08F010E5F1F4F95ECC92E9DE9D92EFB
:102EF0009CE1E92E91E8F92E83E090E09E838D839A
:102F0000D80114966D917C911597AD90BC9080E09E
:102F100090E00E94241A69877A878B879C87B50185
:102F200080E090E00E94241A4B015C012DEC3CEC07
:102F30004CE45FE30E94851A9B01AC0169857A85A8
:102F40008B859C850E941F1A87FD19C02DEC3CECD7
:102F50004CE45FE369857A858B859C850E94851AA0
:102F60009B01AC01C501B4010E941F1AE82F880F14
:102F7000FF0BEE27FF0FEE1FFF27319602C0E0E0A8
:102F8000F0E0A701960163E971E080E091E00E9422
:102F90009E1B6F01FF0FEE08FF08C626D726E82606
:102FA000F926ED81FE813196FE83ED830E5F1F4F82
:102FB0002F813885E217F30709F0A2CFC0926F0284
:102FC000D0927002E0927102F0927202309274021A
:102FD000209273028FEF9FEF45C9D90112964D9150
:102FE0005C911397495151094331510508F5D701B7
:102FF000C601880F991FAA1FBB1F6C017D01689431
:10300000C0F82C5F3F4F2617370709F057CF2EE047
:1030100030E03093740220937302C0926F02D0921A
:103020007002E0927102F09272028FE090E01AC991
:10303000D90112964D915C9113974950510949302D
:10304000510508F044CFCC0CDD1CEE1CFF1CD9CF81
:1030500082E0809363041092670439CA87E090E0AD
:1030600001C9109283021092820288EE93E0A0E0E0
:10307000B0E08093840290938502A0938602B0937F
:10308000870227E132E03093810220938002109280
:103090008F0210928E028093900290939102A093DF
:1030A0009202B093930229E232E030938D02209392
:1030B0008C0245E351E0509399024093980244E317
:1030C00051E050939B0240939A0240E351E05093A9
:1030D0009D0240939C0241E351E050939F02409334
:1030E0009E0242E351E05093A1024093A00246E3C6
:1030F00051E05093A3024093A2021092A5021092B5
:10310000A6021092A7021092A80210922C0310920D
:103110002B0380932D0390932E03A0932F03B09342
:10312000300330932A032093290345ED50E0509358
:1031300036034093350344ED50E0509338034093F9
:10314000370340ED50E050933A034093390341ED8B
:1031500050E050933C0340933B0342ED50E05093CA
:103160003E0340933D0346ED50E0509340034093AF
:103170003F031092420310924303109244031092B3
:1031800045031092C9031092C8038093CA03909319
:10319000CB03A093CC03B093CD033093C70320930C
:1031A000C60385EC90E09093D3038093D20384EC24
:1031B00090E09093D5038093D40380EC90E09093BB
:1031C000D7038093D60381EC90E09093D90380934A
:1031D000D80382EC90E09093DB038093DA0386ECD3
:1031E00090E09093DD038093DC031092DF03109254
:1031F000E0031092E1031092E20380910B029091A0
:103200000C02A0910D02B0910E0280939A0590934A
:103210009B05A0939C05B0939D0580910F02909112
:103220001002A0911102B091120280939E0590931A
:103230009F05A093A005B093A10584E08093A2050B
:1032400087E08093A3051092A40584EB8093A505E5
:1032500086E18093A60588E18093A70587E18093A6
:10326000A80589E18093A905E0917105EC3020F073
:103270008FEF8093AA0510C081E08E0F80937105B7
:10328000E093AA0585E0E89FF0011124EB5CFA4F7A
:1032900088EB9BE092838183E0917105EC3020F014
:1032A0008FEF8093AB0510C081E08E0F8093710586
:1032B000E093AB0585E0E89FF0011124EB5CFA4F49
:1032C00088EB9BE0928381838CE08093790584E294
:1032D00080937A0586E080937B0585E080937C056A
:1032E0008FE180937D058EE180937E0583E280935C
:1032F0007F0582E28093800585E48093810584E4E4
:103300008093820580E48093850510928A0510924F
:103310008B0510928C0510928D0510928E051092DF
:103320008F051092900510929105EFE5F6E02DE1E2
:1033300037E08FEF9FEFDC01128213821482158237
:10334000168217821086118683879487A587B68791
:103350008787908BA18BB28B128611821082739615
:103360002E173F0749F78DE090E00E94131DFC01E6
:10337000138212828BE392E091838083118687E22D
:10338000848384E1828784E083871486F0935C06DB
:10339000E0935B0610925D0610925E0685E28093D4
:1033A00064041092660410927305109272051092D4
:1033B000750510927405109277051092760561E0FC
:1033C00070E080E090E00E94341E009789F09093B6
:1033D0007305809372051092750510927405209103
:1033E000760530917705232BC1F4FC01108215C0BE
:1033F0008091720590917305009711F00E94AB1DAA
:10340000109273051092720510927705109276054E
:103410001092750510927405089510927705109218
:10342000760565E472E080917205909173050C94C5
:10343000271F80917205909173050C94AB1D0E941B
:10344000611A08F481E00895E89409C097FB3EF4FE
:1034500090958095709561957F4F8F4F9F4F9923E1
:10346000A9F0F92F96E9BB279395F695879577955F
:103470006795B795F111F8CFFAF4BB0F11F460FF1F
:103480001BC06F5F7F4F8F4F9F4F16C0882311F077
:1034900096E911C0772321F09EE8872F762F05C08B
:1034A000662371F096E8862F70E060E02AF09A9526
:1034B000660F771F881FDAF7880F9695879597F91B
:1034C0000895990F0008550FAA0BE0E8FEEF1616B5
:1034D0001706E807F907C0F012161306E407F50708
:1034E00098F0621B730B840B950B39F40A2661F07C
:1034F000232B242B252B21F408950A2609F4A1401F
:10350000A6958FEF811D811D08950E94981A0C9435
:10351000091B0E94FB1A38F00E94021B20F0952321
:1035200011F00C94F21A0C94F81A11240C943D1B0F
:103530000E941A1B70F3959FC1F3950F50E0551F21
:10354000629FF001729FBB27F00DB11D639FAA27F8
:10355000F00DB11DAA1F649F6627B00DA11D661F47
:10356000829F2227B00DA11D621F739FB00DA11D68
:10357000621F839FA00D611D221F749F3327A00D22
:10358000611D231F849F600D211D822F762F6A2FBE
:1035900011249F5750409AF0F1F088234AF0EE0F23
:1035A000FF1FBB1F661F771F881F91505040A9F750
:1035B0009E3F510580F00C94F21A0C943D1B5F3F26
:1035C000E4F3983ED4F3869577956795B795F7958C
:1035D000E7959F5FC1F7FE2B880F911D9695879504
:1035E00097F9089597F99F6780E870E060E0089583
:1035F0009FEF80EC089500240A941616170618060B
:103600000906089500240A941216130614060506E6
:103610000895092E0394000C11F4882352F0BB0F77
:1036200040F4BF2B11F460FF04C06F5F7F4F8F4FDA
:103630009F4F089557FD9058440F551F59F05F3F15
:1036400071F04795880F97FB991F61F09F3F79F0C4
:1036500087950895121613061406551FF2CF469546
:10366000F1DF08C0161617061806991FF1CF8695C8
:103670007105610508940895E894BB2766277727AC
:10368000CB0197F90895052E97FB1EF400940E9434
:103690005A1B57FD07D00E946D1B07FC03D04EF448
:1036A0000C945A1B50954095309521953F4F4F4FA4
:1036B0005F4F089590958095709561957F4F8F4FDE
:1036C0009F4F08950E948F1BA59F900DB49F900D52
:1036D000A49F800D911D11240895A1E21A2EAA1B0A
:1036E000BB1BFD010DC0AA1FBB1FEE1FFF1FA217B2
:1036F000B307E407F50720F0A21BB30BE40BF50BAF
:10370000661F771F881F991F1A9469F76095709537
:10371000809590959B01AC01BD01CF010895A29FBA
:10372000B001B39FC001A39F700D811D1124911D95
:10373000B29F700D811D1124911D0895DB018F939F
:103740009F930E94621BBF91AF91A29F800D911D1C
:10375000A39F900DB29F900D11240895991B79E0BD
:1037600004C0991F961708F0961B881F7A95C9F711
:1037700080950895EE0FFF1F881F8BBF0790F6916D
:10378000E02D19940F93083090F0982F872F762F03
:10379000652F542F432F322F22270850F4CF220FAA
:1037A000331F441F551F661F771F881F991F0A95D7
:1037B000B2F70F91089597FB10F8169400080F9335
:1037C000083098F00850232F342F452F562F672F9D
:1037D000782F892F902DF4CF05949795879577951D
:1037E000679557954795379527950A95AAF70F91AD
:1037F00008955058BB27AA270E94111C0C94091B3E
:103800000E94FB1A38F00E94021B20F039F49F3FFF
:1038100019F426F40C94F81A0EF4E095E7FB0C94D6
:10382000F21AE92F0E941A1B58F3BA17620773079E
:103830008407950720F079F4A6F50C943C1B0EF450
:10384000E0950B2EBA2FA02D0B01B90190010C01B0
:10385000CA01A0011124FF27591B99F0593F50F4C8
:10386000503E68F11A16F040A22F232F342F442720
:10387000585FF3CF469537952795A795F040539518
:10388000C9F77EF41F16BA0B620B730B840BBAF0E8
:103890009150A1F0FF0FBB1F661F771F881FC2F753
:1038A0000EC0BA0F621F731F841F48F48795779567
:1038B0006795B795F7959E3F08F0B0CF9395880F21
:1038C00008F09927EE0F9795879508950E947A1C26
:1038D0000C94091B0E94021B58F00E94FB1A40F036
:1038E00029F45F3F29F00C94F21A51110C943D1BFE
:1038F0000C94F81A0E941A1B68F39923B1F355230C
:1039000091F3951B550BBB27AA27621773078407F2
:1039100038F09F5F5F4F220F331F441FAA1FA9F388
:1039200035D00E2E3AF0E0E832D091505040E69576
:10393000001CCAF72BD0FE2F29D0660F771F881FD7
:10394000BB1F261737074807AB07B0E809F0BB0BCA
:10395000802DBF01FF2793585F4F3AF09E3F5105DE
:1039600078F00C94F21A0C943D1B5F3FE4F3983E00
:10397000D4F3869577956795B795F7959F5FC9F7C7
:10398000880F911D9695879597F90895E1E0660F48
:10399000771F881FBB1F621773078407BA0720F0C1
:1039A000621B730B840BBA0BEE1F88F7E09508952A
:1039B0000E94DF1C6894B1110C943D1B08950E9475
:1039C000221B88F09F5798F0B92F9927B751B0F074
:1039D000E1F0660F771F881F991F1AF0BA95C9F793
:1039E00014C0B13091F00E943C1BB1E008950C94DA
:1039F0003C1B672F782F8827B85F39F0B93FCCF38D
:103A0000869577956795B395D9F73EF4909580950F
:103A1000709561957F4F8F4F9F4F08950E94611A57
:103A200008F48FEF08950F931F93CF93DF938230A5
:103A3000910510F482E090E0E0914707F09148078B
:103A400020E030E0A0E0B0E0309719F140815181F2
:103A50000281138148175907C8F08417950769F444
:103A6000109731F012960C93129713961C9327C05F
:103A7000009347071093480722C02115310519F01C
:103A80004217530718F49A01BD01EF01DF01F80155
:103A9000DBCF21153105F9F0281B390B2430310516
:103AA00080F48A819B816115710521F0FB0193836C
:103AB000828304C09093480780934707FE013296A3
:103AC00044C0FE01E20FF31F81939193225031090C
:103AD000398328833AC02091450730914607232B2C
:103AE00041F4209107023091080230934607209359
:103AF000450720910502309106022115310541F458
:103B00002DB73EB74091090250910A02241B350B94
:103B1000E0914507F0914607E217F307A0F42E1B4A
:103B20003F0B2817390778F0AC014E5F5F4F241721
:103B3000350748F04E0F5F1F5093460740934507E7
:103B40008193919302C0E0E0F0E0CF01DF91CF914B
:103B50001F910F910895CF93DF93009709F481C0CF
:103B6000FC01329713821282A0914707B091480757
:103B7000109781F420813181820F931F2091450796
:103B8000309146072817390751F5F0934607E0931F
:103B9000450767C0ED0120E030E0CE17DF0740F4B5
:103BA0004A815B819E0141155105F1F0EA01F5CF93
:103BB000D383C28340815181840F951FC817D907D1
:103BC00059F488819981840F951F0296918380838F
:103BD0008A819B81938382832115310529F4F09397
:103BE0004807E09347073DC0E901FB83EA83499119
:103BF0005991C40FD51FEC17FD0761F480819181A5
:103C0000840F951F0296E9019983888382819381AD
:103C10009B838A83E0E0F0E012968D919C9113974C
:103C2000009719F0FD01DC01F7CF8D919C91119760
:103C30009D012E5F3F4F820F931F209145073091CA
:103C400046072817390769F4309729F41092480776
:103C50001092470702C013821282B0934607A093C6
:103C60004507DF91CF9108956F927F928F929F9237
:103C7000AF92BF92CF92DF92EF92FF920F931F937A
:103C8000CF93DF93009789F4CB01DF91CF911F9100
:103C90000F91FF90EF90DF90CF90BF90AF909F90EB
:103CA0008F907F906F900C94131DFC01E60FF71F0F
:103CB0009C0122503109E217F30708F4A9C0EC0176
:103CC000D9010D911C91119706171707B0F0053017
:103CD000110508F49BC0C80104978617970708F4DC
:103CE00095C002501109061B170B019311936D9398
:103CF0007C93CF010E94AB1D89C05B01A01AB10A61
:103D00004C01800E911EA0914707B0914807612C8D
:103D1000712CE12CF12C109709F446C08D919C91E7
:103D20001197A815B905B1F56C0142E0C40ED11C7C
:103D3000CA14DB0478F14C018A189B08640142E044
:103D4000C40ED11C1296BC9012971396AC91B5E09C
:103D5000CB16D10440F0B282A38391828082D90134
:103D60006D937C9309C00E5F1F4F800F911FF90167
:103D700091838083EB2DFA2FE114F10431F0D70108
:103D80001396FC93EE93129741C0F0934807E0938B
:103D900047073CC06816790608F43C017D0112967D
:103DA0000D90BC91A02DB7CF80914507909146070B
:103DB00088169906E1F466167706C8F48091050224
:103DC00090910602009741F48DB79EB74091090289
:103DD00050910A02841B950BE817F907C8F4F09379
:103DE0004607E0934507F901718360830FC0CB015B
:103DF0000E94131D7C01009759F0A801BE010E948A
:103E00001E1FCE010E94AB1DC70104C0CE0102C01F
:103E100080E090E0DF91CF911F910F91FF90EF90A4
:103E2000DF90CF90BF90AF909F908F907F906F90DA
:103E3000089581E090E0F8940C942E1FFB01DC01C2
:103E400002C001900D9241505040D8F70895FB01F7
:103E5000DC0101900D920020E1F7089511E0C4E922
:103E6000D1E000E006C0802FFE010E94BA1B21961F
:103E7000011DC539D10780E00807A9F7F894FFCFE5
:103E80009A99993EFF000049072000363738391BC0
:103E90001D1A1C00000000B1028402430758027C76
:103EA000026802590200000000A306FC052606F085
:103EB00006570635064906000000004807FC054382
:103EC0000742070D0A00536572766F20616E676CBA
:103ED00065206973206F7574206F662072616E674C
:043EE0006521000058
:00000001FF
