:100000000C9495010C94C6010C94C6010C94C60185
:100010000C94C6010C94C6010C94C6010C94C60144
:100020000C94C6010C9405040C9405040C9405046E
:100030000C94C6010C94DF060C94C6010C94C60106
:100040000C94C6010C94080B0C94C6010C94C601C8
:100050000C94C6010C94C6010C94C6010C94A10C1E
:100060000C94C6010C944E080C9424080C94C60100
:100070000C94C6010C94C6010C94C6010C94C601E4
:100080000C94C6010C94C6010C94C6010C94C601D4
:100090000C94C6010C94C6010C94C6010C940F0478
:1000A0000C94C6010C94C6010C94C6010C94C601B4
:1000B0000C94C6010C94C6010C94C6010C947808EB
:1000C0000C94C6010C94C6010C94C6010C94FA075A
:1000D0000C94D0070C94C6010C94A6070C947C07D2
:1000E0000C94C601B809BD09C209CC09D6094F0A4A
:1000F000E009E809F009FA09040A0E0A1D0A270AAC
:100100004F0A310A3B0A450AF00BF30BE20BE60BF0
:10011000EC0B2A0CF70BFB0B010C050C090C0F0C5C
:10012000130C170C2A0C1D0C210C250C0C941D0C07
:100130000C9484020C94F00B0C94E0090C94D609F6
:100140000C94B7060C94A9050C94B1020C94E80920
:100150000C94F70B0C9459020C94210C0C949A05F6
:100160000C94FB0B0C94270A0C943B0A0C94680229
:100170000C94050C0C94CB050C940E0A0C94E60B15
:100180000C94040A0C94010C0C9458020C944F0A21
:100190000C94170C0C9470050C941D0A0C94250CEF
:1001A0000C94BD050C94C2090C94BD090C9417065F
:1001B0000C94CC090C94F0090C94B6060C94FA0932
:1001C0000C94F30B0C94450A0C9457020C944110B8
:1001D0000C94E20B0C94310A0C94BA060C94EC0BC0
:1001E0000C9429120C9464060C9456020C940F0C77
:1001F0000C94130C0C942A0C0C94B8090C947C02EB
:100200000C94090C00002200250028002B002E0071
:100210003100340002010000050108010B01050551
:100220000505070508080808020202020A0A08086C
:10023000040404040101010101010101030303039A
:1002400003030303040707070C0C0C0C0C0C0C0C29
:100250000202020206060606060606060B0B0B0B3A
:100260000B0B0B0B0102102020080810204010205F
:10027000408002010201080402010102040810206A
:100280004080804020100804020180040201804068
:1002900020100804020108040201010204081020D1
:1002A0004080010204081020408000000A0B02096F
:1002B0000C0D0E0807030401000000000000000000
:1002C000000000000000000000000000000000002E
:1002D00000000000000012111000000000000000EB
:1002E000000000000000000000000000000000000E
:1002F000000020002300260029002C002F003200DF
:100300000001000003010601090102000021002490
:100310000027002A002D00300033000101000004F6
:100320000107010A01004110291211241FBECFEF5D
:10033000D1E2DEBFCDBF00E00CBF12E0A0E0B2E032
:10034000E8EAFCE200E00BBF02C007900D92AC347B
:10035000B107D9F727E0ACE4B2E001C01D92A132A9
:10036000B207E1F711E0C4E9D1E000E006C021974F
:100370000109802FFE010E947C13C339D10780E060
:100380000807A9F70E94EB0C0C9442160C9400008D
:1003900030915702313208F04BC0809155028111E3
:1003A000FCCF9091320622E02093550221E0209369
:1003B00054022FEF2093100610920F0630930E0672
:1003C000E2E1F6E0AEEEB5E020E0321721F0419137
:1003D0004D932F5FFACF1092ED052091ED05990F07
:1003E000922B9093ED0590915302913061F410920D
:1003F00053029091ED059093BB009091BC0093FD4A
:10040000F8CF95EC01C095EE9093BC009091550209
:100410009230E1F3909110069F3F79F080911006A1
:10042000803241F080911006803331F084E005C0C5
:1004300081E003C082E001C083E010925602109276
:10044000570210921106089585ED8093BC008091AB
:10045000BC0084FDFCCF1092550208954091C80560
:10046000262F30E0240F311D21323105DCF420919C
:1004700055022430C9F4FC0180E090E0861758F45E
:100480003091C8052191DC01A855BA4FA30FB11DC9
:100490002C930196F3CF8091C805680F6093C8052F
:1004A00080E0089581E0089582E008950895089518
:1004B0000895E0914E0280914D02E81730F4F0E08B
:1004C000E857FA4F808190E008958FEF9FEF0895ED
:1004D00090914E0280914D02981750F4E92FF0E070
:1004E000E857FA4F208130E09F5F90934E0202C0A0
:1004F0002FEF3FEFC901089580914D0290E02091C8
:100500004E02821B91090895CF92DF92EF92FF92E3
:100510000F931F93CF93DF937C01CB018A0120912E
:100520001106222389F0EB016B01C40ED51ECC15F8
:10053000DD0569F06991D701ED91FC910190F081A1
:10054000E02DC7011995F3CF642F0E942E02C80138
:10055000DF91CF911F910F91FF90EF90DF90CF909F
:100560000895CF93DF931F92CDB7DEB769832091B3
:1005700011062223D1F020915702203240F021E0D1
:1005800030E0FC013383228380E090E015C080914D
:100590005602E82FF0E0EE5EF94F998190838F5F6D
:1005A000809356028093570205C061E0CE01019608
:1005B0000E942E0281E090E00F90DF91CF9108958C
:1005C000EEE9F3E0A089B18982E08C93A485B5853A
:1005D0001C92A685B7858FEC8C93108EA489B58963
:1005E00086E08C93A289B3898C9180618C93A289D7
:1005F000B3898C9188608C93A289B3898C9180682F
:100600008C930288F389E02D80818F7D808308950B
:10061000009769F0FC0101900020E9F73197AF01E4
:10062000481B590BBC018EE993E00C94700580E0E7
:1006300090E008958F929F92AF92BF92CF92DF92F7
:10064000EF92FF920F931F93CF93DF93CDB7DEB757
:10065000A1970FB6F894DEBF0FBECDBF6B017C0132
:1006600097FF2BC06DE28EE993E00E9417068C0184
:1006700022273327A9012C193D094E095F0919A228
:10068000CE0181967C019AE0892E912CA12CB12C6F
:10069000CA01B901A50194010E944E13605DF701E2
:1006A00062937F01211531054105510589F7CF017D
:1006B0000E940803800F911F1DC09B01AC0119A26D
:1006C0008E010F5D1F4F8AE0C82ED12CE12CF12C3A
:1006D000CA01B901A70196010E944E13605DF8019D
:1006E00062938F01211531054105510589F7CF012D
:1006F0000E940803A1960FB6F894DEBF0FBECDBFCF
:10070000DF91CF911F910F91FF90EF90DF90CF90ED
:10071000BF90AF909F908F9008950F931F93CF93AA
:10072000DF93162F072FC1E5D5E09C8521E02093AC
:100730001106909332061092560210925702AA8523
:10074000BB85ED91FC9111970190F081E02D682F10
:10075000CD0119958A859B85DC01ED91FC91019075
:10076000F081E02D602F19958A859B85DC01ED9144
:10077000FC910190F081E02D612F1995DF91CF91CF
:100780001F910F910C94C801FC01248131E030933A
:100790001106209332061092560210925702848559
:1007A000682B88E592E00E94B1020C94C8010F9377
:1007B0001F93CF938C01C62F64600E94C4036C2FDB
:1007C0006B7FC8010E94C40383EC90E00197F1F7AE
:1007D000CF911F910F910895FC01A089B1898C914F
:1007E000A689B78982FD0FC09C91818D8F5F8F7321
:1007F000228D821749F0218DDF01A20FB11D5D9678
:100800009C93818F08958C9108951F920F920FB63B
:100810000F9211240F900FBE0F901F9018951F92EA
:100820000F920FB60F9211240BB60F922F933F9396
:100830004F935F936F937F938F939F93AF93BF93E8
:10084000EF93FF938091B900887F803609F49CC0B4
:1008500068F5883209F45BC090F4803109F454C023
:1008600038F4882309F4F6C0883009F44DC0F6C086
:10087000883109F44CC0803209F45DC0EFC0803487
:1008800009F468C048F4803309F455C0883309F08E
:10089000E5C080931006D8C0803509F44FC0883574
:1008A00009F45DC0883409F0D9C0D6C0883909F48C
:1008B000C7C0A8F4883709F467C038F4883609F44B
:1008C00063C0803709F460C0C9C0883809F4B8C073
:1008D000803909F45FC0803809F0C0C05BC0803B3C
:1008E00009F486C038F4803A09F466C0883A09F4FD
:1008F0007FC0B4C0803C09F4A7C0883C09F4A4C000
:10090000883B09F48AC0AAC08091ED0510C090917F
:100910000F0680910E06981770F5E0910F0681E0A2
:100920008E0F80930F06F0E0E251FA4F80818093A2
:10093000BB0085EC86C0809310068EC0E0910F0648
:1009400081E08E0F80930F068091BB00F0E0E251B2
:10095000FA4F808390910F0680910E066EC0E09151
:100960000F0681E08E0F80930F068091BB00F0E0B0
:10097000E251FA4F80838091540281116DC081E071
:100980008093530284EA61C083E080935502109201
:10099000EA05CFCF8091EA05803208F051C0E0919E
:1009A000EA0581E08E0F8093EA058091BB00F0E0BC
:1009B000E653FA4F8083BDCF85EC8093BC00109244
:1009C00055028091EA05803230F4E091EA05F0E0CA
:1009D000E653FA4F10826091EA0570E0E09151020F
:1009E000F09152028AEC95E019951092EA0536C012
:1009F00084E0809355021092C9051092C805E091D9
:100A00004F02F091500219958091C805811105C0DF
:100A100081E08093C8051092A805E091C90581E0A6
:100A20008E0F8093C905F0E0E855FA4F80818093DE
:100A3000BB009091C9058091C805981708F479CF3B
:100A400085E88093BC000AC085EC8093BC001092BE
:100A5000550204C0109210060E942402FF91EF91EB
:100A6000BF91AF919F918F917F916F915F914F91C6
:100A70003F912F910F900BBE0F900FBE0F901F90C4
:100A800018951F93CF93DF93282F30E0F901E65597
:100A9000FD4F8491F901EC59FD4FD491F901E25ECB
:100AA000FD4FC491CC23C1F0162F81110E94D50BAC
:100AB000EC2FF0E0EE0FFF1FEC5FFD4FA591B4911E
:100AC0009FB7F894111104C08C91D095D82302C01F
:100AD000EC91DE2BDC939FBFDF91CF911F910895A6
:100AE000CF92DF92EF92FF920F931F93CF93DF93FA
:100AF0006C017A018B01C0E0D0E0CE15DF0581F0FA
:100B0000D8016D918D01D601ED91FC910190F0819C
:100B1000E02DC6011995892B11F02196EECF7E01AB
:100B2000C701DF91CF911F910F91FF90EF90DF9060
:100B3000CF900895FC01538D448D252F30E0842FF4
:100B400090E0821B930B541710F0CF9608950197F5
:100B50000895FC01918D828D981761F0828DDF01DF
:100B6000A80FB11D5D968C91928D9F5F9F73928FA0
:100B700090E008958FEF9FEF0895FC01918D828D95
:100B8000981731F0828DE80FF11D858D90E0089562
:100B90008FEF9FEF0895FC01918D228D892F90E0BA
:100BA000805C9F4F821B91098F739927089584E67B
:100BB00092E00E94CB0521E0892B09F420E0822FEE
:100BC000089581E093E00E94CB0521E0892B09F490
:100BD00020E0822F08958EE993E00E94CB0521E06A
:100BE000892B09F420E0822F0895FC01848DDF0118
:100BF000A80FB11DA35ABF4F2C91848D90E0019690
:100C00008F739927848FA689B7892C93A089B1897E
:100C10008C91837080648C93938D848D981306C01F
:100C20000288F389E02D80818F7D80830895EF9283
:100C3000FF920F931F93CF93DF93EC0181E0888F96
:100C40009B8D8C8D981305C0E889F989808185FD7D
:100C500026C0F62E0B8D10E00F5F1F4F0F7311276C
:100C6000E02E8C8DE8120CC00FB607FCFACFE88995
:100C7000F989808185FFF5CFCE010E94F505F1CF7E
:100C80008B8DFE01E80FF11DE35AFF4FF0829FB7F5
:100C9000F8940B8FEA89FB89808180620AC09FB734
:100CA000F894EE89FF896083E889F98980818370EF
:100CB000806480839FBF81E090E0DF91CF911F919E
:100CC0000F91FF90EF900895CF93DF93EC01888D03
:100CD0008823C9F0EA89FB89808185FD05C0A88940
:100CE000B9898C9186FD0FC00FB607FCF5CF8081C6
:100CF00085FFF2CFA889B9898C9185FFEDCFCE0110
:100D00000E94F505E7CFDF91CF910895E0E0F0E094
:100D1000199480E090E0892B21F00E94EB0581116D
:100D200019C080E090E0892B41F080E090E0892BB1
:100D300021F00E940000811110C00E94E105811184
:100D40000FC080E090E0892B81F00E94D7058111CF
:100D50000AC008950E940000E4CF0E940000EDCF79
:100D60000E948606EECF0C9400000895089580E05E
:100D700090E008950F931F93CF93DF938C01C62FBC
:100D8000D62FD07FD1606D2F0E94C4036D2FC80174
:100D90000E94D70380E1C89FB0011124C62FC16013
:100DA0006C2FC8010E94C4036C2FC8010E94D70396
:100DB00081E090E0DF91CF911F910F9108951F92F4
:100DC0000F920FB60F9211240BB60F922F933F93F1
:100DD0004F935F936F937F938F939F93AF93BF9343
:100DE000EF93FF938091100790911107A091120744
:100DF000B0911307892B8A2B8B2B49F190910F0708
:100E000080910000892780930000809110079091C5
:100E10001107A0911207B0911307181619061A06A8
:100E20001B060CF056C08091100790911107A091FD
:100E30001207B09113070197A109B1098093100718
:100E400090931107A0931207B093130742C08091AB
:100E50000002EAE0F3E0E4919FEF90930002E230B9
:100E6000C9F050F4EE2399F0E13081F590916F00D4
:100E70009D7F90936F002AC0E43019F1E0F0E530D7
:100E800029F5909173009D7F909373001FC010927D
:100E90006E001CC0909170009D7F9093700091E057
:100EA0009093B0009091B100987F94609093B100BE
:100EB0001092B3000BC0909171009D7F90937100D0
:100EC00005C0909172009D7F9093720060E00E9437
:100ED0004105FF91EF91BF91AF919F918F917F91CC
:100EE0006F915F914F913F912F910F900BBE0F909B
:100EF0000FBE0F901F9018951F920F920FB60F9272
:100F000011240BB60F922F933F934F935F936F93E0
:100F10007F938F939F93AF93BF93EF93FF9384E659
:100F200092E00E94F505FF91EF91BF91AF919F91E3
:100F30008F917F916F915F914F913F912F910F9082
:100F40000BBE0F900FBE0F901F9018951F920F921F
:100F50000FB60F9211240BB60F922F933F934F931E
:100F60005F936F937F938F939F93AF93BF93EF9311
:100F7000FF9384E692E00E94EC03FF91EF91BF9112
:100F8000AF919F918F917F916F915F914F913F9121
:100F90002F910F900BBE0F900FBE0F901F901895C2
:100FA0001F920F920FB60F9211240BB60F922F9330
:100FB0003F934F935F936F937F938F939F93AF93E1
:100FC000BF93EF93FF9381E093E00E94F505FF91BB
:100FD000EF91BF91AF919F918F917F916F915F91B1
:100FE0004F913F912F910F900BBE0F900FBE0F901E
:100FF0001F9018951F920F920FB60F9211240BB6E7
:101000000F922F933F934F935F936F937F938F93A1
:101010009F93AF93BF93EF93FF9381E093E00E9480
:10102000EC03FF91EF91BF91AF919F918F917F91D1
:101030006F915F914F913F912F910F900BBE0F9049
:101040000FBE0F901F9018951F920F920FB60F9220
:1010500011240BB60F922F933F934F935F936F938F
:101060007F938F939F93AF93BF93EF93FF938EE9FB
:1010700093E00E94F505FF91EF91BF91AF919F9191
:101080008F917F916F915F914F913F912F910F9031
:101090000BBE0F900FBE0F901F9018951F920F92CE
:1010A0000FB60F9211240BB60F922F933F934F93CD
:1010B0005F936F937F938F939F93AF93BF93EF93C0
:1010C000FF938EE993E00E94EC03FF91EF91BF91B3
:1010D000AF919F918F917F916F915F914F913F91D0
:1010E0002F910F900BBE0F900FBE0F901F90189571
:1010F0001F920F920FB60F9211240BB60F922F93DF
:101100003F934F935F936F937F938F939F93AF938F
:10111000BF93CF93DF93EF93FF9320913C0430E094
:10112000F901E655FD4F8491F901EC59FD4FD49139
:10113000F901E25EFD4FC491CC2379F081110E9448
:10114000D50BEC2FF0E0EE0FFF1FE051FD4FA59106
:10115000B491EC91ED2381E009F480E0209140040A
:10116000309141042F5F3F4F30934104209340045E
:1011700090913F04953618F096E090933B0490913F
:101180003B049430C9F128F4923069F09330D1F0E7
:101190005EC0953009F451C0963009F058C091E016
:1011A00090930C0551C0811152C0209140043091A0
:1011B00041042436310508F442C010920C05109207
:1011C0003F041CC0813009F042C0E0913F0491E02F
:1011D0009E0F90933F04F0E0209140043091410431
:1011E000EE0FFF1FE55CFB4F308727831092410411
:1011F0001092400494E029C0811117C0E0913F048F
:1012000091E09E0F90933F04F0E0209140043091D4
:101210004104EE0FFF1FE55CFB4F308727831092E0
:1012200041041092400493E010C02091400430919A
:1012300041042536310558F007C0811108C01092CD
:1012400041041092400403C095E090933B049091B8
:101250003E049923B9F081110AC080913D0488238E
:1012600021F080913D0461E009C02F9A0BC080916C
:101270003D04882331F080913D0460E00E944105E7
:1012800001C02F98FF91EF91DF91CF91BF91AF9166
:101290009F918F917F916F915F914F913F912F918E
:1012A0000F900BBE0F900FBE0F901F9018958F924E
:1012B0009F92AF92BF92CF92DF92EF92FF920F93E5
:1012C0001F93CF93DF938C016A017B0120E030E014
:1012D0004FE753E4C701B6010E9490124B015C0135
:1012E00020E030E0A9010E94271418161CF4C50163
:1012F000B40103C0C501B40190580E94F113EB0181
:1013000020E030E0A901C701B6010E942714181699
:1013100014F460E001C061E0F80181810E944105A0
:10132000CF3FD10509F014F4DD2702C0CFEFD0E0A4
:10133000F801108161E0812F0E942B0C209709F4A5
:10134000B1C0CF3FD10509F4AFC0E12FF0E0E655C1
:10135000FD4FE4918E2F90E0FC013197E231F105D1
:1013600008F09DC08827EE58FF4F8F4F0C947C13D8
:1013700084B5806884BDC7BDA7C084B5806284BDC4
:10138000C8BDA2C080918000806880938000D09307
:101390008900C093880098C080918000806280930B
:1013A0008000D0938B00C0938A008EC08091800013
:1013B000886080938000D0938D00C0938C0084C09F
:1013C0008091B00080688093B000C093B3007CC06F
:1013D0008091B00080628093B000C093B40074C06C
:1013E00080919000806880939000D0939900C09382
:1013F00098006AC080919000806280939000D093A2
:101400009B00C0939A0060C0809190008860809398
:101410009000D0939D00C0939C0056C08091A00086
:1014200080688093A0008091A0008F7B8093A000B3
:10143000D093A900C093A80047C08091A00080620B
:101440008093A000D093AB00C093AA003DC08091D0
:10145000A00088608093A000D093AD00C093AC0042
:1014600033C080912001806880932001D0932901AE
:10147000C093280129C080912001806280932001BF
:10148000D0932B01C0932A011FC080912001886056
:1014900080932001D0932D01C0932C0115C0C0383A
:1014A000D10514F460E001C061E0812FDF91CF919C
:1014B0001F910F91FF90EF90DF90CF90BF90AF9072
:1014C0009F908F900C944105DF91CF911F910F91C8
:1014D000FF90EF90DF90CF90BF90AF909F908F9054
:1014E00008958EBD00000DB407FEFDCF8EB50895A2
:1014F000CF93DF93EC0160E088810E94410588E989
:101500000E94710A80E00E94710A80E00E94710AC4
:1015100080E00E94710A80E00E94710A61E0888187
:101520000E9441058BE891E00197F1F760E0888126
:101530000E94410580EE0E94710A61E08881DF917E
:10154000CF910C944105AF92BF92CF92DF92EF9270
:10155000FF920F931F93CF93DF93CDB7DEB76097C2
:101560000FB6F894DEBF0FBECDBF5C0160E0FC019A
:1015700080810E94410580E60E94710A8E010F5F02
:101580001F4F7E01F1E1EF0EF11C680180E00E9427
:10159000710A90E0A0E0B0E0F60181939193A193ED
:1015A000B1936F01EE15FF0589F761E0F5018081C8
:1015B0000E94410580E090E0DC01F80141915191E9
:1015C000619171918F01BA2FA92F982F8827840FCD
:1015D000951FA61FB71FEE15FF0579F79C01AD01FA
:1015E00066277727CB01621B730B840B950B6096E4
:1015F0000FB6F894DEBF0FBECDBFDF91CF911F9124
:101600000F91FF90EF90DF90CF90BF90AF90089533
:101610001F920F920FB60F9211240BB60F922F93B9
:101620003F934F935F936F937F938F939F93AF936A
:10163000BF93EF93FF9380910E0787FF05C0109231
:1016400085001092840016C020910E07022E000C17
:10165000330B8091490590E0281739075CF43091ED
:101660000E0725E03203F0011124E35FFA4F808179
:1016700086FD15C080910E078F5F80930E07209125
:101680000E07022E000C330B8091490590E02817BD
:10169000390794F480910E078C302CF10DC03091F5
:1016A0000E073203F0011124E35FFA4F808160E0FE
:1016B0008F730E944105DECF809184009091850058
:1016C00084349C4918F480E49CE905C0809184002E
:1016D00090918500049690938900809388008FEF05
:1016E00080930E072AC0409184005091850030916C
:1016F0000E0725E03203F0011124E35FFA4F8181E8
:101700009281840F951F9093890080938800309177
:101710000E073203F0011124E35FFA4F808186FF48
:101720000CC030910E073203F0011124E35FFA4F31
:10173000808161E08F730E944105FF91EF91BF911D
:10174000AF919F918F917F916F915F914F913F9159
:101750002F910F900BBE0F900FBE0F901F901895FA
:101760003FB7F8948091190790911A07A0911B0731
:10177000B0911C0726B5A89B05C02F3F19F0019614
:10178000A11DB11D3FBFBA2FA92F982F8827820F07
:10179000911DA11DB11DBC01CD0142E0660F771F57
:1017A000881F991F4A95D1F7089590E0FC01319761
:1017B000E231F10508F04EC08827EC57FF4F8F4FFC
:1017C0000C947C13809180008F7703C080918000FF
:1017D0008F7D80938000089580918000877FF9CF6E
:1017E00084B58F7702C084B58F7D84BD08958091C4
:1017F000B0008F7703C08091B0008F7D8093B000E0
:101800000895809190008F7707C0809190008F7D20
:1018100003C080919000877F80939000089580910D
:10182000A0008F7707C08091A0008F7D03C08091BA
:10183000A000877F8093A0000895809120018F777A
:1018400007C0809120018F7D03C080912001877F98
:10185000809320010895CF93DF9390E0FC01EC5931
:10186000FD4F2491FC01E25EFD4F8491882361F1DC
:1018700090E0880F991FFC01E55FFC4FC591D49162
:10188000FC01EC5FFD4FA591B491611109C09FB7B8
:10189000F8948881209582238883EC912E230BC0B5
:1018A000623061F49FB7F8948881322F309583239A
:1018B0008883EC912E2B2C939FBF06C08FB7F89492
:1018C000E8812E2B28838FBFDF91CF9108958F92CF
:1018D0009F92AF92BF92CF92DF92EF92FF926B01F5
:1018E0007C010E94B00B4B015C01C114D104E104E6
:1018F000F104F1F00E94B00BDC01CB0188199909C9
:10190000AA09BB09883E9340A105B10570F321E007
:10191000C21AD108E108F10888EE880E83E0981E0B
:10192000A11CB11CC114D104E104F10419F7DDCFED
:10193000FF90EF90DF90CF90BF90AF909F908F90EF
:1019400008951F920F920FB60F9211242F933F9379
:101950008F939F93AF93BF93809115079091160734
:10196000A0911707B09118073091140723E0230FB7
:101970002D3720F40196A11DB11D05C026E8230FC7
:101980000296A11DB11D2093140780931507909313
:101990001607A0931707B093180780911907909125
:1019A0001A07A0911B07B0911C070196A11DB11D3C
:1019B0008093190790931A07A0931B07B0931C07F5
:1019C000BF91AF919F918F913F912F910F900FBE3B
:1019D0000F901F901895CF93DF9300D01F92CDB733
:1019E000DEB7789484B5826084BD84B5816084BD9F
:1019F00085B5826085BD85B5816085BD80916E00AD
:101A0000816080936E0010928100809181008260DD
:101A1000809381008091810081608093810080911A
:101A200080008160809380008091B1008460809309
:101A3000B1008091B00081608093B00080919100EE
:101A400082608093910080919100816080939100E9
:101A5000809190008160809390008091A1008260CD
:101A60008093A1008091A10081608093A10080916A
:101A7000A00081608093A00080912101826080930A
:101A800021018091210181608093210180912001B9
:101A900081608093200180917A00846080937A0035
:101AA00080917A00826080937A0080917A008160D0
:101AB00080937A0080917A00806880937A001092F7
:101AC000C1000E94E00261E0809152050E942B0C4F
:101AD00060E0809152050E94410560E080915105CF
:101AE0000E942B0C88E592E090935C0580935B0547
:101AF00010924E0210924D0210925602109257020E
:101B00001092550281E0809354021092530261E0DA
:101B100084E10E94410561E085E10E9441058091D8
:101B2000B9008E7F8093B9008091B9008D7F80933A
:101B3000B90088E48093B80085E48093BC0086E512
:101B400092E09093500280934F0287E592E0909349
:101B500052028093510280E090E1A0E0B0E08093D7
:101B60005E0590935F05A0936005B09361058AE0E0
:101B700090E0A0E0B0E08093620590936305A093AD
:101B80006405B093650580E090E0A0E0B0E4809348
:101B9000660590936705A0936805B093690560E0BA
:101BA00070E185E00E948D036FE979E380E00E9497
:101BB0008D0321E535E03A832983890152E0752EB2
:101BC00063E5A62E62E0B62E79E9872E72E0972EA5
:101BD000EBECEE2EE7E0FE2ED80114969C911497C4
:101BE00012968C91E981FA81818F928F61E00E9437
:101BF0002B0C61E0A981BA815A968C910E942B0C22
:101C0000F80190858681C980DA80FDE1CF0ED11C74
:101C1000A981BA815D968C935D975E969C9361E0F5
:101C20000E942B0C60E0E981FA81868D0E942B0CCA
:101C300061E0A981BA815D968C910E9441056FB6E1
:101C4000F89480914C02811126C0F5018491F40131
:101C50002491E82FF0E0EE0FFF1FE55FFC4FA59108
:101C6000B4919C91822F892321F461E085E30E9445
:101C7000410561E085E30E942B0C8CB580618CBD31
:101C80008CB580648CBD61E084E30E942B0C61E024
:101C900083E30E942B0C80914C028F5F80934C0257
:101CA0006FBEC7010197F1F760E0A981BA815D9627
:101CB0008C910E94410588E80E94710A83E00E948D
:101CC000710A61E0E981FA81858D0E944105C701B1
:101CD0000197F1F7C6010E94780A7A940F5F1F4FAF
:101CE00029813A812E5F3F4F3A832983711074CF47
:101CF00006E715E08AE795E09A83898360E0D801DA
:101D00008D918D010E942B0CE981FA81E017F1077A
:101D1000A9F702E715E08CE7E82E85E0F82E95E0BC
:101D2000D92E2CE0B22E32E0C32EA981BA81AD901B
:101D3000BA83A98317968C918C3008F049C061E072
:101D40008A2D0E942B0CE981FA818781D89EF001AF
:101D50001124E35FFA4F9A2D9F732081207CA22EDD
:101D6000A92AA082138214826B2D0E947013FCE0BA
:101D70008F9FA001112420E030E0BA01620F731F91
:101D8000D69EF001D79EF00D1124E35FFA4F9081AB
:101D900096FD12C02F5F3F4F2C30310571F7811136
:101DA0000BC010928000C0928100109285001092AA
:101DB0008400C6BAC0926F00A981BA811796EC91CF
:101DC000DE9EF0011124E35FFA4F808180648083FE
:101DD000E981FA8195818381D80152968C9352973B
:101DE00053969C9360E00E942B0C61E0F80183897C
:101DF0000E942B0C60E0D80153968C910E94410503
:101E00000E5F1F4FE981FA81EE16FF0609F08DCFB4
:101E1000F8941092200189E08093210180E293E000
:101E2000909329018093280110922501109224019A
:101E300082E080937300789480933B0410923F0477
:101E400080913C0460E00E942B0C0E94E0028EE630
:101E500095E00E94A30A8EE695E00E94780A80E74A
:101E600095E00E94A30A80E795E00E94780A66E761
:101E700078EF8FEF9FEF0E941A038FE392E00E94AA
:101E8000080382E492E00E9408038FE392E00E943C
:101E9000080340E050E060E87EEB8CE695E00E94AD
:101EA000570940E050E060E87EEB8AE695E00E944A
:101EB0005709812C912C5401412C512C320169E19C
:101EC00070E080E090E00E94670C8EE695E00E9452
:101ED000A30A6B017C018EE695E00E94780A80E7F8
:101EE00095E00E94A30A69837A838B839C8380E7B1
:101EF00095E00E94780A4C185D086E087F08898179
:101F00009A81AB81BC81880E991EAA1EBB1E8827B0
:101F10009927DC018C199D09AE09BF096C01E98183
:101F2000FA81CE1ADF0ABC01990F880B990B0E9427
:101F30001A0387E492E00E94080329813A81B901DB
:101F4000330F880B990B0E941A0387E492E00E94DA
:101F500008030D2C000CEE08FF08C701B6010E9413
:101F60001A038FE392E00E94080388279927DC0177
:101F700088199909AA09BB09BC0164197509072EBA
:101F8000000C880B990B0E9431122FE632E143E0DE
:101F90005BE30E94901269837A838B839C83C701E1
:101FA000B6010E9431122FE632E143E05BE30E946A
:101FB000901220E030E040E85EE30E9485139B0130
:101FC000AC0169817A818B819C810E948513AB0170
:101FD000BC0170588CE695E00E945709C501B40118
:101FE0000E941A0387E492E00E94080366E778EFF4
:101FF0008FEF9FEF0E941A0387E492E00E9408038C
:10200000C301B2010E941A038FE392E00E94080309
:102010003AE8831637E09306A104B104FCF4F7E72D
:102020004F16F8EF5F06FFEF6F067F060CF047CF05
:1020300040E050E060E070E88CE695E00E945709CF
:1020400040E050E0BA018AE695E00E94570964E654
:1020500070E080E090E00E94670C10C040E050E02B
:1020600060E070E88CE695E00E94570940E050E09F
:10207000BA018AE695E00E945709D1CF0E948906ED
:10208000FDCF10925B0210925A0288EE93E0A0E01E
:10209000B0E080935C0290935D02A0935E02B093E7
:1020A0005F0223E132E030935902209358021092EC
:1020B0006702109266028093680290936902A0936F
:1020C0006A02B0936B0225E232E0309365022093FE
:1020D000640245E351E0509371024093700244E37F
:1020E00051E0509373024093720240E351E05093E9
:1020F00075024093740241E351E05093770240939C
:10210000760242E351E0509379024093780246E32D
:1021100051E050937B0240937A0210927D0210921C
:102120007E0210927F02109280021092040310929D
:1021300003038093050390930603A0930703B093D2
:102140000803309302032093010345ED50E05093C0
:102150000E0340930D0344ED50E050931003409361
:102160000F0340ED50E0509312034093110341EDF3
:1021700050E0509314034093130342ED50E050930A
:1021800016034093150346ED50E050931803409317
:10219000170310921A0310921B0310921C03109243
:1021A0001D031092A1031092A0038093A2039093A9
:1021B000A303A093A403B093A50330939F0320939C
:1021C0009E0385EC90E09093AB038093AA0384EC8C
:1021D00090E09093AD038093AC0380EC90E09093FB
:1021E000AF038093AE0381EC90E09093B1038093B2
:1021F000B00382EC90E09093B3038093B20386EC3B
:1022000090E09093B5038093B4031092B7031092BB
:10221000B8031092B9031092BA038091070290910B
:102220000802A0910902B0910A028093720590936E
:102230007305A0937405B093750580910B0290917E
:102240000C02A0910D02B0910E028093760590933E
:102250007705A0937805B093790584E080937A059B
:1022600087E080937B0510927C0584EB80937D054D
:1022700086E180937E0588E180937F0587E18093E6
:10228000800589E180938105E0914905EC3020F0DB
:102290008FEF8093820510C081E08E0F80934905F7
:1022A000E093820585E0E89FF0011124E35FFA4F97
:1022B00088EB9BE092838183E0914905EC3020F02C
:1022C0008FEF8093830510C081E08E0F80934905C6
:1022D000E093830585E0E89FF0011124E35FFA4F66
:1022E00088EB9BE0928381838CE08093510584E2AC
:1022F0008093520586E08093530585E080935405D2
:102300008FE1809355058EE18093560583E280939B
:10231000570582E28093580585E48093590584E44B
:1023200080935A0580E480935D05109262051092B7
:10233000630510926405109265051092660510926F
:1023400067051092680510926905E7E3F6E025EF4E
:1023500036E08FEF9FEFDC01128213821482158228
:10236000168217821086118683879487A587B68781
:102370008787908BA18BB28B128611821082739605
:102380002E173F0749F78DE090E00E942C14FC01C6
:102390001382128287E392E091838083118687E221
:1023A000848384E1828784E083871486F0933406F3
:1023B000E0933306109235061092360685E280933C
:1023C0003C0410923E0410924B0510924A05109264
:1023D0004D0510924C0510924F0510924E0561E08C
:1023E00070E080E090E00E944D15009789F0909396
:1023F0004B0580934A0510924D0510924C05209193
:102400004E0530914F05232BC1F4FC01108215C0FD
:1024100080914A0590914B05009711F00E94C414D9
:1024200010924B0510924A0510924F0510924E05DE
:1024300010924D0510924C05089510924F05109280
:102440004E0561E472E080914A0590914B050C9431
:102450003B1680914A0590914B050C94C414E89466
:1024600009C097FB3EF490958095709561957F4FDC
:102470008F4F9F4F9923A9F0F92F96E9BB2793958A
:10248000F695879577956795B795F111F8CFFAF49A
:10249000BB0F11F460FF1BC06F5F7F4F8F4F9F4FCB
:1024A00016C0882311F096E911C0772321F09EE829
:1024B000872F762F05C0662371F096E8862F70E08F
:1024C00060E02AF09A95660F771F881FDAF7880F69
:1024D0009695879597F90895990F0008550FAA0BBF
:1024E000E0E8FEEF16161706E807F907C0F0121627
:1024F0001306E407F50798F0621B730B840B950B2A
:1025000039F40A2661F0232B242B252B21F408957E
:102510000A2609F4A140A6958FEF811D811D08951B
:102520000E94A3120C9414130E94061338F00E9408
:102530000D1320F0952311F00C94FD120C9403134D
:1025400011240C9448130E94251370F3959FC1F336
:10255000950F50E0551F629FF001729FBB27F00D51
:10256000B11D639FAA27F00DB11DAA1F649F6627A6
:10257000B00DA11D661F829F2227B00DA11D621FF5
:10258000739FB00DA11D621F839FA00D611D221FAF
:10259000749F3327A00D611D231F849F600D211D93
:1025A000822F762F6A2F11249F5750409AF0F1F016
:1025B00088234AF0EE0FFF1FBB1F661F771F881F7F
:1025C00091505040A9F79E3F510580F00C94FD12A8
:1025D0000C9448135F3FE4F3983ED4F386957795C7
:1025E0006795B795F795E7959F5FC1F7FE2B880F25
:1025F000911D9695879597F9089597F99F6780E8BB
:1026000070E060E008959FEF80EC089500240A9444
:102610001616170618060906089500240A941216BD
:102620001306140605060895092E0394000C11F4F0
:10263000882352F0BB0F40F4BF2B11F460FF04C09D
:102640006F5F7F4F8F4F9F4F089557FD9058440FF6
:10265000551F59F05F3F71F04795880F97FB991F01
:1026600061F09F3F79F087950895121613061406BE
:10267000551FF2CF4695F1DF08C01616170618064B
:10268000991FF1CF86957105610508940895E89426
:10269000BB2766277727CB0197F90895A1E21A2E69
:1026A000AA1BBB1BFD010DC0AA1FBB1FEE1FFF1FF6
:1026B000A217B307E407F50720F0A21BB30BE40B46
:1026C000F50B661F771F881F991F1A9469F760958D
:1026D0007095809590959B01AC01BD01CF01089547
:1026E000991B79E004C0991F961708F0961B881F64
:1026F0007A95C9F780950895EE0FFF1F881F8BBF4D
:102700000790F691E02D19945058BB27AA270E94F4
:102710009C130C9414130E94061338F00E940D139E
:1027200020F039F49F3F19F426F40C9403130EF4AF
:10273000E095E7FB0C94FD12E92F0E94251358F356
:10274000BA17620773078407950720F079F4A6F596
:102750000C9447130EF4E0950B2EBA2FA02D0B010D
:10276000B90190010C01CA01A0011124FF27591BD6
:1027700099F0593F50F4503E68F11A16F040A22FDC
:10278000232F342F4427585FF3CF4695379527954D
:10279000A795F0405395C9F77EF41F16BA0B620B4C
:1027A000730B840BBAF09150A1F0FF0FBB1F661F93
:1027B000771F881FC2F70EC0BA0F621F731F841FD6
:1027C00048F4879577956795B795F7959E3F08F0FC
:1027D000B0CF9395880F08F09927EE0F97958795BE
:1027E00008950E94F8136894B1110C944813089549
:1027F0000E942D1388F09F5798F0B92F9927B75151
:10280000B0F0E1F0660F771F881F991F1AF0BA9594
:10281000C9F714C0B13091F00E944713B1E0089598
:102820000C944713672F782F8827B85F39F0B93F8A
:10283000CCF3869577956795B395D9F73EF4909547
:102840008095709561957F4F8F4F9F4F08950E949F
:102850006C1208F48FEF08950F931F93CF93DF93BB
:102860008230910510F482E090E0E0911F07F09132
:10287000200720E030E0A0E0B0E0309719F140817F
:1028800051810281138148175907C8F084179507B1
:1028900069F4109731F012960C93129713961C93CB
:1028A00027C000931F071093200722C02115310570
:1028B00019F04217530718F49A01BD01EF01DF0127
:1028C000F801DBCF21153105F9F0281B390B243035
:1028D000310580F48A819B816115710521F0FB012E
:1028E0009383828304C09093200780931F07FE0187
:1028F000329644C0FE01E20FF31F81939193225060
:102900003109398328833AC020911D0730911E0771
:10291000232B41F4209103023091040230931E07CF
:1029200020931D07209101023091020221153105EB
:1029300041F42DB73EB74091050250910602241B89
:10294000350BE0911D07F0911E07E217F307A0F485
:102950002E1B3F0B2817390778F0AC014E5F5F4FF5
:102960002417350748F04E0F5F1F50931E07409302
:102970001D078193919302C0E0E0F0E0CF01DF9169
:10298000CF911F910F910895CF93DF93009709F492
:1029900081C0FC01329713821282A0911F07B0916F
:1029A0002007109781F420813181820F931F20919D
:1029B0001D0730911E072817390751F5F0931E07A0
:1029C000E0931D0767C0ED0120E030E0CE17DF0780
:1029D00040F44A815B819E0141155105F1F0EA0105
:1029E000F5CFD383C28340815181840F951FC817CF
:1029F000D90759F488819981840F951F0296918394
:102A000080838A819B81938382832115310529F4F8
:102A1000F0932007E0931F073DC0E901FB83EA83A1
:102A200049915991C40FD51FEC17FD0761F48081BE
:102A30009181840F951F0296E90199838883828191
:102A400093819B838A83E0E0F0E012968D919C91C4
:102A50001397009719F0FD01DC01F7CF8D919C9140
:102A600011979D012E5F3F4F820F931F20911D07ED
:102A700030911E072817390769F4309729F410920E
:102A8000200710921F0702C013821282B0931E0704
:102A9000A0931D07DF91CF9108956F927F928F923F
:102AA0009F92AF92BF92CF92DF92EF92FF920F93DD
:102AB0001F93CF93DF93009789F4CB01DF91CF91E0
:102AC0001F910F91FF90EF90DF90CF90BF90AF904C
:102AD0009F908F907F906F900C942C14FC01E60FC8
:102AE000F71F9C0122503109E217F30708F4A9C02F
:102AF000EC01D9010D911C91119706171707B0F041
:102B00000530110508F49BC0C80104978617970784
:102B100008F495C002501109061B170B019311937D
:102B20006D937C93CF010E94C41489C05B01A01AED
:102B3000B10A4C01800E911EA0911F07B091200791
:102B4000612C712CE12CF12C109709F446C08D9169
:102B50009C911197A815B905B1F56C0142E0C40E1E
:102B6000D11CCA14DB0478F14C018A189B0864015B
:102B700042E0C40ED11C1296BC9012971396AC91F1
:102B8000B5E0CB16D10440F0B282A383918280825B
:102B9000D9016D937C9309C00E5F1F4F800F911F69
:102BA000F90191838083EB2DFA2FE114F10431F0C8
:102BB000D7011396FC93EE93129741C0F093200730
:102BC000E0931F073CC06816790608F43C017D01BC
:102BD00012960D90BC91A02DB7CF80911D079091BA
:102BE0001E0788169906E1F466167706C8F48091E8
:102BF000010290910202009741F48DB79EB7409177
:102C0000050250910602841B950BE817F907C8F4DA
:102C1000F0931E07E0931D07F901718360830FC0D5
:102C2000CB010E942C147C01009759F0A801BE0131
:102C30000E943216CE010E94C414C70104C0CE0106
:102C400002C080E090E0DF91CF911F910F91FF9043
:102C5000EF90DF90CF90BF90AF909F908F907F903C
:102C60006F900895FB01DC0102C001900D9241506C
:102C70005040D8F70895FB01DC0101900D9200202F
:102C8000E1F7089511E0C4E9D1E000E006C0802F2B
:102C9000FE010E947C132196011DC539D10780E0F9
:082CA0000807A9F7F894FFCF23
:102CA800FF000021072000363738391B1D1A1C0089
:102CB800000000B1028402B70658027C026802597B
:102CC8000200000000170670059A056406CB05A9E6
:102CD80005BD0500000000BA067005B706B6060D6A
:0C2CE8000A00416C6C6F002020202000CE
:00000001FF
