:100000000C9495010C94C6010C94C6010C94C60185
:100010000C94C6010C94C6010C94C6010C94C60144
:100020000C94C6010C94950A0C94950A0C94950AAC
:100030000C94C6010C948C050C94C6010C94C6015A
:100040000C94C6010C9404080C94C6010C94C601CF
:100050000C94C6010C94C6010C94C6010C94420584
:100060000C94C6010C94FB060C94D1060C94C601AA
:100070000C94C6010C94C6010C94C6010C94C601E4
:100080000C94C6010C94C6010C94C6010C94C601D4
:100090000C94C6010C94C6010C94C6010C949F0AE2
:1000A0000C94C6010C94C6010C94C6010C94C601B4
:1000B0000C94C6010C94C6010C94C6010C9425073F
:1000C0000C94C6010C94C6010C94C6010C94A706AE
:1000D0000C947D060C94C6010C9453060C942906CE
:1000E0000C94C6017A037F0384038E0398031104E2
:1000F000A203AA03B203BC03C603D003DF03E903D0
:100100001104F303FD030704EC0BEF0BDE0BE20B12
:10011000E80B260CF30BF70BFD0B010C050C0B0C7D
:100120000F0C130C260C190C1D0C210C0C940B0C31
:100130000C9484030C9423020C943C090C943A090B
:100140000C940F0C0C94F2010C94C8010C948E03C7
:100150000C94B20F0C94BC030C941D0C0C944C0921
:100160000C94050C0C9495090C94EC0B0C94150252
:100170000C94C6030C94FD0B0C947F030C943D0966
:100180000C94D0030C94210C0C94F30B0C94260CBF
:100190000C9411040C94190C0C9468090C94B80F6D
:1001A0000C94B2030C94DF030C94010C0C946F02BA
:1001B0000C94F70B0C94F8040C9401020C94EF0BC4
:1001C0000C94F3030C9498030C9407040C94130CF4
:1001D0000C9460090C943B090C94BC020C94E80B41
:1001E0000C94E20B0C9416030C9415030C947A03F4
:1001F0000C94FD030C94A2030C94E9030C94DE0B05
:100200000C94AA03000020002300260029002C00E3
:100210002F00320000010000030106010901020065
:10022000002100240027002A002D003000330001A7
:10023000010000040107010A010000220025002836
:10024000002B002E003100340002010000050108DF
:10025000010B01050505050705080808080202024B
:10026000020A0A0808040404040101010101010151
:10027000010303030303030303040707070C0C0C28
:100280000C0C0C0C0C020202020606060606060600
:10029000060B0B0B0B0B0B0B0B010210202008089D
:1002A00010204010204080020102010804020101D8
:1002B00002040810204080804020100804020180C1
:1002C0000402018040201008040201080402010118
:1002D0000204081020408001020408102040800021
:1002E000000A0B02090C0D0E0807030401000000B0
:1002F00000000000000000000000000000000000FE
:1003000000000000000000000000001211100000BA
:1003100000000000000000000000000000000000DD
:10032000000000000000B80FB20F11241FBECFEF75
:10033000D1E2DEBFCDBF00E00CBF12E0A0E0B2E032
:10034000E0E5FBE200E00BBF02C007900D92A6358E
:10035000B107D9F727E0A6E5B2E001C01D92AB32A4
:10036000B207E1F711E0C4E9D1E000E006C021974F
:100370000109802FFE010E94CB12C339D10780E012
:100380000807A9F70E94920C0C9496150C94000093
:10039000CF92DF92EF92FF920F931F93CF93DF9351
:1003A0006C017A018B01C0E0D0E0CE15DF0581F051
:1003B000D8016D918D01D601ED91FC910190F081F4
:1003C000E02DC6011995892B11F02196EECF7E0103
:1003D000C701DF91CF911F910F91FF90EF90DF90B8
:1003E000CF900895FC01538D448D252F30E0842F4C
:1003F00090E0821B930B541710F0CF96089501974D
:100400000895FC01918D828D981761F0828DDF0136
:10041000A80FB11D5D968C91928D9F5F9F73928FF7
:1004200090E008958FEF9FEF0895FC01918D828DEC
:10043000981731F0828DE80FF11D858D90E00895B9
:100440008FEF9FEF0895FC01918D228D892F90E011
:10045000805C9F4F821B91098F739927089586E9CD
:1004600092E00E94230221E0892B09F420E0822FF0
:10047000089583E393E00E94230221E0892B09F48D
:1004800020E0822F089580ED93E00E94230221E076
:10049000892B09F420E0822F0895FC01848DDF016F
:1004A000A80FB11DA35ABF4F2C91848D90E00196E7
:1004B0008F739927848FA689B7892C93A089B189D6
:1004C0008C91837080648C93938D848D981306C077
:1004D0000288F389E02D80818F7D80830895EF92DB
:1004E000FF920F931F93CF93DF93EC0181E0888FEE
:1004F0009B8D8C8D981305C0E889F989808185FDD5
:1005000026C0F62E0B8D10E00F5F1F4F0F731127C3
:10051000E02E8C8DE8120CC00FB607FCFACFE889EC
:10052000F989808185FFF5CFCE010E944D02F1CF80
:100530008B8DFE01E80FF11DE35AFF4FF0829FB74C
:10054000F8940B8FEA89FB89808180620AC09FB78B
:10055000F894EE89FF896083E889F9898081837046
:10056000806480839FBF81E090E0DF91CF911F91F5
:100570000F91FF90EF900895CF93DF93EC01888D5A
:100580008823C9F0EA89FB89808185FD05C0A88997
:10059000B9898C9186FD0FC00FB607FCF5CF80811D
:1005A00085FFF2CFA889B9898C9185FFEDCFCE0167
:1005B0000E944D02E7CFDF91CF910895E0E0F0E097
:1005C000199480E090E0892B21F00E944302811170
:1005D00019C080E090E0892B41F080E090E0892B09
:1005E00021F00E940000811110C00E943902811187
:1005F0000FC080E090E0892B81F00E942F028111D2
:100600000AC008950E940000E4CF0E940000EDCFD0
:100610000E94DE02EECF0C94000008958EBD000013
:100620000DB407FEFDCF8EB50895089580E090E0EB
:1006300008958F929F92AF92BF92CF92DF92EF92E6
:10064000FF920F931F93CF93DF938C016A017B017D
:1006500020E030E04FE753E4C701B6010E940112E9
:100660004B015C0120E030E0A9010E9476131816CE
:100670001CF4C501B40103C0C501B40190580E9427
:100680004013EB0120E030E0A901C701B6010E9450
:100690007613181614F460E001C061E0F80181815E
:1006A0000E94270CCF3FD10509F014F4DD2702C0CA
:1006B000CFEFD0E0F801108161E0812F0E94560C4D
:1006C000209709F4B1C0CF3FD10509F4AFC0E12FA5
:1006D000F0E0E152FD4FE4918E2F90E0FC01319764
:1006E000E231F10508F09DC08827EE58FF4F8F4F8B
:1006F0000C94CB1284B5806884BDC7BDA7C084B5F7
:10070000806284BDC8BDA2C0809180008068809353
:100710008000D0938900C093880098C080918000A9
:10072000806280938000D0938B00C0938A008EC03B
:1007300080918000886080938000D0938D00C0936A
:100740008C0084C08091B00080688093B000C0931A
:10075000B3007CC08091B00080628093B000C093F1
:10076000B40074C080919000806880939000D09312
:100770009900C09398006AC0809190008062809335
:100780009000D0939B00C0939A0060C0809190002D
:10079000886080939000D0939D00C0939C0056C0C9
:1007A0008091A00080688093A0008091A0008F7B42
:1007B0008093A000D093A900C093A80047C0809167
:1007C000A00080628093A000D093AB00C093AA00E9
:1007D0003DC08091A00088608093A000D093AD00C0
:1007E000C093AC0033C080912001806880932001C9
:1007F000D0932901C093280129C0809120018062F3
:1008000080932001D0932B01C0932A011FC08091B7
:100810002001886080932001D0932D01C0932C018A
:1008200015C0C038D10514F460E001C061E0812F2B
:10083000DF91CF911F910F91FF90EF90DF90CF90BC
:10084000BF90AF909F908F900C94270CDF91CF9129
:100850001F910F91FF90EF90DF90CF90BF90AF90DE
:100860009F908F900895CF93DF93EC0160E0888193
:100870000E94270C88E90E940E0380E00E940E036C
:1008800080E00E940E0380E00E940E0380E00E9440
:100890000E0361E088810E94270C8BE891E00197AC
:1008A000F1F760E088810E94270C80EE0E940E0321
:1008B00061E08881DF91CF910C94270CAF92BF92B9
:1008C000CF92DF92EF92FF920F931F93CF93DF931C
:1008D000CDB7DEB760970FB6F894DEBF0FBECDBFC1
:1008E0005C0160E0FC0180810E94270C80E60E9490
:1008F0000E038E010F5F1F4F7E01F1E1EF0EF11C21
:10090000680180E00E940E0390E0A0E0B0E0F601F4
:1009100081939193A193B1936F01EE15FF0589F730
:1009200061E0F50180810E94270C80E090E0DC010D
:10093000F80141915191619171918F01BA2FA92FC5
:10094000982F8827840F951FA61FB71FEE15FF0548
:1009500079F79C01AD0166277727CB01621B730BEA
:10096000840B950B60960FB6F894DEBF0FBECDBF1B
:10097000DF91CF911F910F91FF90EF90DF90CF907B
:10098000BF90AF900895CF92DF92EF92FF928230A6
:1009900040F08FE392E00E94C40960E070E0CB0178
:1009A00020C0811112C080EA95E00E945E046B01B4
:1009B0007C0180EA95E00E94330466277727CB010B
:1009C0006C197D098E099F090CC082EA95E00E948E
:1009D0005E046B017C0182EA95E00E943304B6015B
:1009E000C701FF90EF90DF90CF9008950E9481158E
:1009F0000F931F93CF93DF938C01C62FD62FD07FF9
:100A0000D1606D2F0E94540A6D2FC8010E94670AA1
:100A100080E1C89FB0011124C62FC1606C2FC801AE
:100A20000E94540A6C2FC8010E94670A81E090E07E
:100A3000DF91CF911F910F9108953FB7F894809166
:100A40007B0290917C02A0917D02B0917E0226B53E
:100A5000A89B05C02F3F19F00196A11DB11D3FBFF6
:100A6000BA2FA92F982F8827820F911DA11DB11D84
:100A7000BC01CD0142E0660F771F881F991F4A9580
:100A8000D1F708951F920F920FB60F9211242F9352
:100A90003F938F939F93AF93BF93809177029091F1
:100AA0007802A0917902B0917A023091760223E027
:100AB000230F2D3720F40196A11DB11D05C026E896
:100AC000230F0296A11DB11D209376028093770219
:100AD00090937802A0937902B0937A0280917B027E
:100AE00090917C02A0917D02B0917E020196A11DA1
:100AF000B11D80937B0290937C02A0937D02B09302
:100B00007E02BF91AF919F918F913F912F910F9056
:100B10000FBE0F901F9018951F920F920FB60F9255
:100B200011240BB60F922F933F934F935F936F93C4
:100B30007F938F939F93AF93BF93EF93FF93809196
:100B4000710290917202A0917302B0917402892B8C
:100B50008A2B8B2B49F1909170028091000089279C
:100B6000809300008091710290917202A0917302B3
:100B7000B0917402181619061A061B060CF056C01E
:100B80008091710290917202A0917302B0917402EF
:100B90000197A109B1098093710290937202A09309
:100BA0007302B093740242C080910002EEE1F2E061
:100BB000E4919FEF90930002E230C9F050F4EE23ED
:100BC00099F0E13081F590916F009D7F90936F00D7
:100BD0002AC0E43019F1E0F0E53029F59091730076
:100BE0009D7F909373001FC010926E001CC0909167
:100BF00070009D7F9093700091E09093B000909171
:100C0000B100987F94609093B1001092B3000BC034
:100C1000909171009D7F9093710005C0909172003A
:100C20009D7F9093720060E00E94270CFF91EF91EE
:100C3000BF91AF919F918F917F916F915F914F91F4
:100C40003F912F910F900BBE0F900FBE0F901F90F2
:100C500018951F920F920FB60F9211240BB60F9298
:100C60002F933F934F935F936F937F938F939F93B4
:100C7000AF93BF93EF93FF9386E992E00E944D02FA
:100C8000FF91EF91BF91AF919F918F917F916F9164
:100C90005F914F913F912F910F900BBE0F900FBE20
:100CA0000F901F9018951F920F920FB60F9211245C
:100CB0000BB60F922F933F934F935F936F937F9356
:100CC0008F939F93AF93BF93EF93FF9386E992E047
:100CD0000E947C0AFF91EF91BF91AF919F918F91FC
:100CE0007F916F915F914F913F912F910F900BBE2C
:100CF0000F900FBE0F901F9018951F920F920FB676
:100D00000F9211240BB60F922F933F934F935F9343
:100D10006F937F938F939F93AF93BF93EF93FF93C3
:100D200083E393E00E944D02FF91EF91BF91AF9159
:100D30009F918F917F916F915F914F913F912F91F3
:100D40000F900BBE0F900FBE0F901F9018951F9223
:100D50000F920FB60F9211240BB60F922F933F9361
:100D60004F935F936F937F938F939F93AF93BF93B3
:100D7000EF93FF9383E393E00E947C0AFF91EF914E
:100D8000BF91AF919F918F917F916F915F914F91A3
:100D90003F912F910F900BBE0F900FBE0F901F90A1
:100DA00018951F920F920FB60F9211240BB60F9247
:100DB0002F933F934F935F936F937F938F939F9363
:100DC000AF93BF93EF93FF9380ED93E00E944D02AA
:100DD000FF91EF91BF91AF919F918F917F916F9113
:100DE0005F914F913F912F910F900BBE0F900FBECF
:100DF0000F901F9018951F920F920FB60F9211240B
:100E00000BB60F922F933F934F935F936F937F9304
:100E10008F939F93AF93BF93EF93FF9380ED93E0F6
:100E20000E947C0AFF91EF91BF91AF919F918F91AA
:100E30007F916F915F914F913F912F910F900BBEDA
:100E40000F900FBE0F901F9018951F920F920FB624
:100E50000F9211240BB60F922F933F934F935F93F2
:100E60006F937F938F939F93AF93BF93CF93DF93B2
:100E7000EF93FF9320916E0430E0F901E152FD4FB2
:100E80008491F901E756FD4FD491F901ED5AFD4FD8
:100E9000C491CC2379F081110E94D10BEC2FF0E0AA
:100EA000EE0FFF1FEC5FFD4FA591B491EC91ED2388
:100EB00081E009F480E020917204309173042F5F87
:100EC0003F4F3093730420937204909171049536D0
:100ED00018F096E090936D0490916D049430C9F1F0
:100EE00028F4923069F09330D1F05EC0953009F467
:100EF00051C0963009F058C091E090933E0551C022
:100F0000811152C02091720430917304243631054E
:100F100008F442C010923E05109271041CC081304A
:100F200009F042C0E091710491E09E0F909371042A
:100F3000F0E02091720430917304EE0FFF1FE3592B
:100F4000FB4F30872783109273041092720494E051
:100F500029C0811117C0E091710491E09E0F909318
:100F60007104F0E02091720430917304EE0FFF1FC2
:100F7000E359FB4F30872783109273041092720459
:100F800093E010C02091720430917304253631052E
:100F900058F007C0811108C01092730410927204B7
:100FA00003C095E090936D04909170049923B9F07B
:100FB00081110AC080916F04882321F080916F0411
:100FC00061E009C02F9A0BC080916F04882331F033
:100FD00080916F0460E00E94270C01C02F98FF9160
:100FE000EF91DF91CF91BF91AF919F918F917F91C1
:100FF0006F915F914F913F912F910F900BBE0F908A
:101000000FBE0F901F9018951F920F920FB60F9260
:1010100011240BB60F922F933F934F935F936F93CF
:101020007F938F939F93AF93BF93EF93FF938091A1
:101030006F0287FF05C0109285001092840016C0D1
:1010400020916F02022E000C330B80917B0590E003
:10105000281739075CF430916F0225E03203F00164
:101060001124E15CFA4F808186FD15C080916F02EA
:101070008F5F80936F0220916F02022E000C330B62
:1010800080917B0590E02817390794F480916F02D6
:101090008C302CF10DC030916F023203F00111241D
:1010A000E15CFA4F808160E08F730E94270CDECFF5
:1010B000809184009091850084349C4918F480E4E8
:1010C0009CE905C0809184009091850004969093DE
:1010D0008900809388008FEF80936F022AC040912F
:1010E00084005091850030916F0225E03203F001B9
:1010F0001124E15CFA4F81819281840F951F9093B6
:1011000089008093880030916F023203F00111242E
:10111000E15CFA4F808186FF0CC030916F02320390
:10112000F0011124E15CFA4F808161E08F730E942D
:10113000270CFF91EF91BF91AF919F918F917F917C
:101140006F915F914F913F912F910F900BBE0F9038
:101150000FBE0F901F90189530918902313208F020
:101160004BC0809187028111FCCF9091640622E0F0
:101170002093870221E0209386022FEF20934206DE
:101180001092410630934006E4E4F6E0A0E2B6E0B7
:1011900020E0321721F041914D932F5FFACF10924A
:1011A0001F0620911F06990F922B90931F06909176
:1011B0008502913061F41092850290911F06909300
:1011C000BB009091BC0093FDF8CF95EC01C095EE6B
:1011D0009093BC00909187029230E1F39091420687
:1011E0009F3F79F080914206803241F08091420623
:1011F000803331F084E005C081E003C082E001C0AB
:1012000083E010928802109289021092430608959A
:1012100085ED8093BC008091BC0084FDFCCF1092D2
:10122000870208954091FA05262F30E0240F311DE2
:1012300021323105DCF4209187022430C9F4FC010D
:1012400080E090E0861758F43091FA052191DC0196
:10125000A652BA4FA30FB11D2C930196F3CF8091E4
:10126000FA05680F6093FA0580E0089581E008951B
:1012700082E00895089508950895E0918002809194
:101280007F02E81730F4F0E0E654FA4F808190E0F6
:1012900008958FEF9FEF08959091800280917F02D3
:1012A000981750F4E92FF0E0E654FA4F208130E02F
:1012B0009F5F9093800202C02FEF3FEFC901089516
:1012C00080917F0290E020918002821B9109089515
:1012D000CF92DF92EF92FF920F931F93CF93DF9302
:1012E0007C01CB018A0120914306222389F0EB0186
:1012F0006B01C40ED51ECC15DD0569F06991D701CF
:10130000ED91FC910190F081E02DC7011995F3CF8B
:10131000642F0E941209C801DF91CF911F910F9194
:10132000FF90EF90DF90CF900895CF93DF931F92BF
:10133000CDB7DEB76983209143062223D1F02091F7
:101340008902203240F021E030E0FC013383228327
:1013500080E090E015C080918802E82FF0E0EC5B1F
:10136000F94F998190838F5F8093880280938902DF
:1013700005C061E0CE0101960E94120981E090E073
:101380000F90DF91CF910895CF93DF93009779F07D
:10139000FC0101900020E9F73197AF01481B590B80
:1013A000BC0180ED93E00E94C801EC0102C0C0E0E6
:1013B000D0E042E050E063E572E080ED93E00E940F
:1013C000C8018C0F9D1FDF91CF9108958F929F923E
:1013D000AF92BF92CF92DF92EF92FF920E941D05D3
:1013E0004B015C0184E6C82ED12CE12CF12C0E942B
:1013F0001D05DC01CB0188199909AA09BB09883EA2
:101400009340A105B10598F321E0C21AD108E10883
:10141000F10888EE880E83E0981EA11CB11CC1144F
:10142000D104E104F10419F7FF90EF90DF90CF9021
:10143000BF90AF909F908F9008950F931F93CF937D
:10144000DF93162F072FC3E8D5E09C8521E020937A
:101450004306909364061092880210928902AA852E
:10146000BB85ED91FC9111970190F081E02D682FE3
:10147000CD0119958A859B85DC01ED91FC91019048
:10148000F081E02D602F19958A859B85DC01ED9117
:10149000FC910190F081E02D612F1995DF91CF91A2
:1014A0001F910F910C94AC08FC01248131E0309322
:1014B0004306209364061092880210928902848564
:1014C000682B8AE892E00E9495090C94AC080F936F
:1014D0001F93CF938C01C62F64600E94540A6C2F17
:1014E0006B7FC8010E94540A83EC90E00197F1F7EA
:1014F000CF911F910F910895FC01A089B1898C9122
:10150000A689B78982FD0FC09C91818D8F5F8F73F3
:10151000228D821749F0218DDF01A20FB11D5D964A
:101520009C93818F08958C9108951F920F920FB60E
:101530000F9211240F900FBE0F901F9018951F92BD
:101540000F920FB60F9211240BB60F922F933F9369
:101550004F935F936F937F938F939F93AF93BF93BB
:10156000EF93FF938091B900887F803609F49CC087
:1015700068F5883209F45BC090F4803109F454C0F6
:1015800038F4882309F4F6C0883009F44DC0F6C059
:10159000883109F44CC0803209F45DC0EFC080345A
:1015A00009F468C048F4803309F455C0883309F061
:1015B000E5C080934206D8C0803509F44FC0883515
:1015C00009F45DC0883409F0D9C0D6C0883909F45F
:1015D000C7C0A8F4883709F467C038F4883609F41E
:1015E00063C0803709F460C0C9C0883809F4B8C046
:1015F000803909F45FC0803809F0C0C05BC0803B0F
:1016000009F486C038F4803A09F466C0883A09F4CF
:101610007FC0B4C0803C09F4A7C0883C09F4A4C0D2
:10162000883B09F48AC0AAC080911F0610C090911F
:10163000410680914006981770F5E091410681E0DF
:101640008E0F80934106F0E0E05EF94F8081809339
:10165000BB0085EC86C0809342068EC0E0914106B7
:1016600081E08E0F809341068091BB00F0E0E05E48
:10167000F94F808390914106809140066EC0E091C1
:10168000410681E08E0F809341068091BB00F0E01F
:10169000E05EF94F80838091860281116DC081E008
:1016A0008093850284EA61C083E080938702109270
:1016B0001C06CFCF80911C06803208F051C0E0910B
:1016C0001C0681E08E0F80931C068091BB00F0E029
:1016D000E450FA4F8083BDCF85EC8093BC0010921C
:1016E000870280911C06803230F4E0911C06F0E005
:1016F000E450FA4F108260911C0670E0E091830282
:10170000F09184028CEF95E0199510921C0636C07A
:1017100084E0809387021092FB051092FA05E09115
:101720008102F091820219958091FA05811105C01C
:1017300081E08093FA051092DA05E091FB0581E0E3
:101740008E0F8093FB05F0E0E652FA4F8081809384
:10175000BB009091FB058091FA05981708F479CFAA
:1017600085E88093BC000AC085EC8093BC00109291
:10177000870204C0109242060E940809FF91EF916F
:10178000BF91AF919F918F917F916F915F914F9199
:101790003F912F910F900BBE0F900FBE0F901F9097
:1017A000189590E0FC013197E231F10508F04EC048
:1017B0008827EC57FF4F8F4F0C94CB1280918000FD
:1017C0008F7703C0809180008F7D80938000089583
:1017D00080918000877FF9CF84B58F7702C084B570
:1017E0008F7D84BD08958091B0008F7703C0809174
:1017F000B0008F7D8093B0000895809190008F7726
:1018000007C0809190008F7D03C080919000877FFA
:101810008093900008958091A0008F7707C08091F9
:10182000A0008F7D03C08091A000877F8093A000DF
:101830000895809120018F7707C0809120018F7DCE
:1018400003C080912001877F8093200108951F931A
:10185000CF93DF93282F30E0F901E152FD4F8491BF
:10186000F901E756FD4FD491F901ED5AFD4FC491AE
:10187000CC23C1F0162F81110E94D10BEC2FF0E088
:10188000EE0FFF1FE75CFD4FA591B4919FB7F89451
:10189000111104C08C91D095D82302C0EC91DE2B9D
:1018A000DC939FBFDF91CF911F910895CF93DF937A
:1018B00090E0FC01E756FD4F2491FC01ED5AFD4FED
:1018C0008491882361F190E0880F991FFC01E15E0B
:1018D000FD4FC591D491FC01E75CFD4FA591B491FA
:1018E000611109C09FB7F89488812095822388836D
:1018F000EC912E230BC0623061F49FB7F89488817D
:10190000322F309583238883EC912E2B2C939FBF0D
:1019100006C08FB7F894E8812E2B28838FBFDF9104
:10192000CF910895789484B5826084BD84B5816038
:1019300084BD85B5826085BD85B5816085BD80919A
:101940006E00816080936E00109281008091810012
:10195000826080938100809181008160809381000A
:10196000809180008160809380008091B1008460CC
:101970008093B1008091B00081608093B00080912D
:1019800091008260809391008091910081608093AA
:101990009100809190008160809390008091A100DF
:1019A00082608093A1008091A10081608093A1005A
:1019B0008091A00081608093A000809121018260CD
:1019C0008093210180912101816080932101809188
:1019D000200181608093200180917A00846080934F
:1019E0007A0080917A00826080937A0080917A00F8
:1019F000816080937A0080917A00806880937A0079
:101A00001092C100E091E003F091E10382E0808355
:101A1000E091DC03F091DD031082E091DE03F091B0
:101A2000DF038FEC80831092E803E091E403F091F0
:101A3000E50386E08083E091E203F091E303808197
:101A400080618083E091E203F091E303808188600C
:101A50008083E091E203F091E303808180688083DA
:101A6000E091E203F091E30380818F7D808361E068
:101A7000809184050E94560C60E0809184050E944C
:101A8000270C60E0809183050E94560C8AE892E062
:101A900090938E0580938D051092800210927F02A4
:101AA00010928802109289021092870281E080933E
:101AB00086021092850261E084E10E94270C61E0B9
:101AC00085E10E94270C8091B9008E7F8093B90038
:101AD0008091B9008D7F8093B90088E48093B8002D
:101AE00085E48093BC008AE399E09093820280931E
:101AF00081028BE399E0909384028093830280E0DB
:101B000090E1A0E0B0E08093900590939105A093C0
:101B10009205B09393058AE090E0A0E0B0E0809356
:101B2000940590939505A0939605B093970580E052
:101B300090E0A0E0B0E48093980590939905A0937D
:101B40009A05B0939B0560E070E185E00E941D0A54
:101B50006FE979E380E00E941D0AC3E8D5E08E01B9
:101B6000712C68E8A62E62E0B62E7EEC872E72E01D
:101B7000972EEBECEE2EE7E0FE2EF80194818281A9
:101B8000898F9A8F61E00E94560C61E08A8D0E94D5
:101B9000560CF801908586816E01FDE1CF0ED11CB7
:101BA0008D8F9E8F61E00E94560C60E08E8D0E94AA
:101BB000560C61E08D8D0E94270C6FB6F8948091D1
:101BC0007502811126C0F5018491F4012491E82F5A
:101BD000F0E0EE0FFF1FE15EFD4FA591B4919C91E7
:101BE000822F892321F461E085E30E94270C61E0C4
:101BF00085E30E94560C8CB580618CBD8CB58064E9
:101C00008CBD61E084E30E94560C61E083E30E9496
:101C1000560C809175028F5F809375026FBEC7016D
:101C20000197F1F760E08D8D0E94270C88E80E94F3
:101C30000E0383E00E940E0361E08D8D0E94270C4D
:101C4000C7010197F1F7C6010E94330473940F5F37
:101C50001F4F2296F2E07F1290CFC8EAD5E060E0F5
:101C600089910E94560C25E0CC3AD207C1F704EACC
:101C700015E0E80125E0E22E3CE0C32E42E0D42E40
:101C800088898C3008F045C0F88461E08F2D0E946F
:101C9000560C8889E89EF0011124E15CFA4F9F2DD3
:101CA0009F732081207CF22EF92AF0821382148205
:101CB0006C2D0E94BF123CE0839FA001112420E004
:101CC00030E0BA01620F731FE69EF001E79EF00D4F
:101CD0001124E15CFA4F908196FD12C02F5F3F4FB7
:101CE0002C30310571F781110BC010928000D09219
:101CF00081001092850010928400D6BAD0926F00B5
:101D0000E889EE9EF0011124E15CFA4F8081806445
:101D100080839E858C85F801828B938B60E00E9486
:101D2000560C61E0F80183890E94560C60E0F801CE
:101D300083890E94270C21960E5F1F4FF5E0C63A5B
:101D4000DF0709F09DCFF8941092200189E080937D
:101D5000210180E293E09093290180932801109261
:101D600025011092240182E080937300789480937F
:101D70006D041092710480916E0460E00E94560C14
:101D800080E00E94C30481E00E94C3044DEC5CEC3F
:101D90006CEC7EE38CE995E00E9419034DEC5CEC61
:101DA0006CEC7EEB8EE995E00E9419039DECC92E48
:101DB0009CECD92EED2C9EE3F92EC0E0D0E000E0A3
:101DC00010E00E94E60980EA95E00E945E044B0163
:101DD0005C0182EA95E00E945E04B094A094909425
:101DE0008094811C911CA11CB11C9401261B370BF3
:101DF000B901080D191DC20FD31F072E000C880B47
:101E0000990B0E94A21127E137EB41ED59E30E94A3
:101E10000112A70196010E94D4126B017C01BE0140
:101E20000D2E000C880B990B0E94A2112CEA35ECA8
:101E300047EA57E30E940112A70196010E94D412BB
:101E40006B017C01AB01BC0170588EE995E00E94EA
:101E5000190380E00E94C30481E00E94C3040E3E87
:101E60003BE513070CF4ADCF4DEC5CEC6CE47EE38A
:101E70008CE995E00E9419034DEC5CEC6CE47EEB80
:101E80008EE995E00E9419038DECC82E8CECD82EBB
:101E90008CE4E82E8EE3F82E0E3688E618070CF058
:101EA0004FC00E94E60980EA95E00E945E044B0163
:101EB0005C0182EA95E00E945E04B094A094909444
:101EC0008094811C911CA11CB11CF401E61BF70B32
:101ED000BF01080D191DCE0FDF1F072E000C880B48
:101EE000990B0E94A21127E137EB41ED59E30E94C3
:101EF0000112A70196010E94D4126B017C01BE0160
:101F00000D2E000C880B990B0E94A2112CEA35ECC7
:101F100047EA57E30E940112A70196010E94D412DA
:101F20006B017C01AB01BC0170588EE995E00E9409
:101F3000190380E00E94C30481E00E94C304ACCF77
:101F400040E050E0BA018CE995E00E94190340E0BE
:101F500050E060E070E88EE995E00E9419030E946D
:101F6000E102FDCF80917C0590917D050C941314C6
:101F700010928D0210928C0288EE93E0A0E0B0E007
:101F800080938E0290938F02A0939002B09391025F
:101F900023E132E030938B0220938A02109299025F
:101FA0001092980280939A0290939B02A0939C02B5
:101FB000B0939D0225E232E030939702209396027F
:101FC00045E351E05093A3024093A20244E351E061
:101FD0005093A5024093A40240E351E05093A7021E
:101FE0004093A60241E351E05093A9024093A80216
:101FF00042E351E05093AB024093AA0246E351E022
:102000005093AD024093AC021092AF021092B00216
:102010001092B1021092B202109236031092350360
:102020008093370390933803A0933903B0933A0316
:10203000309334032093330345ED50E05093400335
:1020400040933F0344ED50E05093420340934103DB
:1020500040ED50E0509344034093430341ED50E082
:10206000509346034093450342ED50E0509348039C
:102070004093470346ED50E050934A034093490391
:1020800010924C0310924D0310924E0310924F0386
:102090001092D3031092D2038093D4039093D5036C
:1020A000A093D603B093D7033093D1032093D003EA
:1020B00085EC90E09093DD038093DC0384EC90E06A
:1020C0009093DF038093DE0380EC90E09093E10334
:1020D0008093E00381EC90E09093E3038093E2032C
:1020E00082EC90E09093E5038093E40386EC90E02B
:1020F0009093E7038093E6031092E9031092EA03BA
:102100001092EB031092EC03809107029091080269
:10211000A0910902B0910A028093A4059093A505AD
:10212000A093A605B093A70580910B0290910C0295
:10213000A0910D02B0910E028093A8059093A9057D
:10214000A093AA05B093AB0584E08093AC0587E02B
:102150008093AD051092AE0584EB8093AF0586E1C8
:102160008093B00588E18093B10587E18093B20543
:1021700089E18093B305E0917B05EC3020F08FEF8F
:102180008093B40510C081E08E0F80937B05E093AF
:10219000B40585E0E89FF0011124E15CFA4F88EB7B
:1021A0009BE092838183E0917B05EC3020F08FEF00
:1021B0008093B50510C081E08E0F80937B05E0937E
:1021C000B50585E0E89FF0011124E15CFA4F88EB4A
:1021D0009BE0928381838CE08093830584E28093EB
:1021E000840586E08093850585E0809386058FE1F0
:1021F000809387058EE18093880583E2809389052B
:1022000082E280938A0585E480938B0584E4809341
:102210008C0580E480938F051092940510929505AB
:1022200010929605109297051092980510929905B4
:1022300010929A0510929B05E9E6F6E027E237E056
:102240008FEF9FEFDC0112821382148215821682B7
:1022500017821086118683879487A587B68787871C
:10226000908BA18BB28B12861182108273962E17DF
:102270003F0749F78DE090E00E947B13FC01138239
:10228000128287E392E091838083118687E28483C0
:1022900084E1828784E083871486F0936606E09366
:1022A0006506109267061092680685E280936E04B8
:1022B0001092700410927D0510927C0510927F059B
:1022C00010927E05109281051092800561E070E009
:1022D00080E090E00E949C14009789F090937D0527
:1022E00080937C0510927F0510927E0520918005D9
:1022F00030918105232BC1F4FC01108215C080911F
:102300007C0590917D05009711F00E9413141092A6
:102310007D0510927C051092810510928005109227
:102320007F0510927E050895109281051092800518
:1023300065E572E080917C0590917D050C948F1588
:10234000E89409C097FB3EF490958095709561954F
:102350007F4F8F4F9F4F9923A9F0F92F96E9BB2705
:102360009395F695879577956795B795F111F8CF81
:10237000FAF4BB0F11F460FF1BC06F5F7F4F8F4FEC
:102380009F4F16C0882311F096E911C0772321F0E2
:102390009EE8872F762F05C0662371F096E8862F7A
:1023A00070E060E02AF09A95660F771F881FDAF7D1
:1023B000880F9695879597F90895990F0008550FFE
:1023C000AA0BE0E8FEEF16161706E807F907C0F0BB
:1023D00012161306E407F50798F0621B730B840BC3
:1023E000950B39F40A2661F0232B242B252B21F49D
:1023F00008950A2609F4A140A6958FEF811D811D3D
:1024000008950E9414120C9485120E94771238F0DD
:102410000E947E1220F0952311F00C946E120C9401
:10242000741211240C94B9120E94961270F3959FA5
:10243000C1F3950F50E0551F629FF001729FBB27BB
:10244000F00DB11D639FAA27F00DB11DAA1F649F57
:102450006627B00DA11D661F829F2227B00DA11D0A
:10246000621F739FB00DA11D621F839FA00D611D90
:10247000221F749F3327A00D611D231F849F600DB1
:10248000211D822F762F6A2F11249F5750409AF0DA
:10249000F1F088234AF0EE0FFF1FBB1F661F771F66
:1024A000881F91505040A9F79E3F510580F00C9431
:1024B0006E120C94B9125F3FE4F3983ED4F3869504
:1024C00077956795B795F795E7959F5FC1F7FE2BD1
:1024D000880F911D9695879597F9089597F99F67AD
:1024E00080E870E060E008959FEF80EC089500249C
:1024F0000A941616170618060906089500240A9469
:1025000012161306140605060895092E0394000CEE
:1025100011F4882352F0BB0F40F4BF2B11F460FF7D
:1025200004C06F5F7F4F8F4F9F4F089557FD9058A6
:10253000440F551F59F05F3F71F04795880F97FB87
:10254000991F61F09F3F79F0879508951216130641
:102550001406551FF2CF4695F1DF08C01616170670
:102560001806991FF1CF86957105610508940895A5
:10257000E894BB2766277727CB0197F90895991B25
:1025800079E004C0991F961708F0961B881F7A956A
:10259000C9F780950895EE0FFF1F881F8BBF079026
:1025A000F691E02D19945058BB27AA270E94EB12F0
:1025B0000C9485120E94771238F00E947E1220F04F
:1025C00039F49F3F19F426F40C9474120EF4E0953C
:1025D000E7FB0C946E12E92F0E94961258F3BA177B
:1025E000620773078407950720F079F4A6F50C9429
:1025F000B8120EF4E0950B2EBA2FA02D0B01B901E5
:1026000090010C01CA01A0011124FF27591B99F068
:10261000593F50F4503E68F11A16F040A22F232F74
:10262000342F4427585FF3CF469537952795A795C4
:10263000F0405395C9F77EF41F16BA0B620B730B6B
:10264000840BBAF09150A1F0FF0FBB1F661F771FDC
:10265000881FC2F70EC0BA0F621F731F841F48F491
:10266000879577956795B795F7959E3F08F0B0CF1A
:102670009395880F08F09927EE0F97958795089501
:102680000E9447136894B1110C94B91208950E94E6
:102690009E1288F09F5798F0B92F9927B751B0F044
:1026A000E1F0660F771F881F991F1AF0BA95C9F7D6
:1026B00014C0B13091F00E94B812B1E008950C94AA
:1026C000B812672F782F8827B85F39F0B93FCCF35D
:1026D000869577956795B395D9F73EF49095809553
:1026E000709561957F4F8F4F9F4F08950E94DD1128
:1026F00008F48FEF08950F931F93CF93DF938230E9
:10270000910510F482E090E0E0912907F0912A070A
:1027100020E030E0A0E0B0E0309719F14081518135
:102720000281138148175907C8F08417950769F487
:10273000109731F012960C93129713961C9327C0A2
:102740000093290710932A0722C02115310519F09B
:102750004217530718F49A01BD01EF01DF01F80198
:10276000DBCF21153105F9F0281B390B2430310559
:1027700080F48A819B816115710521F0FB019383AF
:10278000828304C090932A0780932907FE01329622
:1027900044C0FE01E20FF31F81939193225031094F
:1027A000398328833AC02091270730912807232BAB
:1027B00041F42091030230910402309328072093C2
:1027C000270720910102309102022115310541F4C1
:1027D0002DB73EB74091050250910602241B350BE0
:1027E000E0912707F0912807E217F307A0F42E1BCA
:1027F0003F0B2817390778F0AC014E5F5F4F241765
:10280000350748F04E0F5F1F509328074093270766
:102810008193919302C0E0E0F0E0CF01DF91CF918E
:102820001F910F910895CF93DF93009709F481C012
:10283000FC01329713821282A0912907B0912A07D6
:10284000109781F420813181820F931F20912707F7
:10285000309128072817390751F5F0932807E0939E
:10286000270767C0ED0120E030E0CE17DF0740F416
:102870004A815B819E0141155105F1F0EA01F5CFD6
:10288000D383C28340815181840F951FC817D90714
:1028900059F488819981840F951F029691838083D2
:1028A0008A819B81938382832115310529F4F093DA
:1028B0002A07E09329073DC0E901FB83EA83499198
:1028C0005991C40FD51FEC17FD0761F480819181E8
:1028D000840F951F0296E9019983888382819381F1
:1028E0009B838A83E0E0F0E012968D919C91139790
:1028F000009719F0FD01DC01F7CF8D919C911197A4
:102900009D012E5F3F4F820F931F2091270730912B
:1029100028072817390769F4309729F410922A07F5
:102920001092290702C013821282B0932807A09345
:102930002707DF91CF9108956F927F928F929F9298
:10294000AF92BF92CF92DF92EF92FF920F931F93BD
:10295000CF93DF93009789F4CB01DF91CF911F9143
:102960000F91FF90EF90DF90CF90BF90AF909F902E
:102970008F907F906F900C947B13FC01E60FF71FF4
:102980009C0122503109E217F30708F4A9C0EC01B9
:10299000D9010D911C91119706171707B0F005305A
:1029A000110508F49BC0C80104978617970708F41F
:1029B00095C002501109061B170B019311936D93DB
:1029C0007C93CF010E94131489C05B01A01AB10A45
:1029D0004C01800E911EA0912907B0912A07612C0D
:1029E000712CE12CF12C109709F446C08D919C912B
:1029F0001197A815B905B1F56C0142E0C40ED11CC0
:102A0000CA14DB0478F14C018A189B08640142E087
:102A1000C40ED11C1296BC9012971396AC91B5E0DF
:102A2000CB16D10440F0B282A38391828082D90177
:102A30006D937C9309C00E5F1F4F800F911FF901AA
:102A400091838083EB2DFA2FE114F10431F0D7014B
:102A50001396FC93EE93129741C0F0932A07E093EC
:102A600029073CC06816790608F43C017D011296DE
:102A70000D90BC91A02DB7CF80912707909128078A
:102A800088169906E1F466167706C8F4809101026B
:102A900090910202009741F48DB79EB740910502D4
:102AA00050910602841B950BE817F907C8F4F093C0
:102AB0002807E0932707F901718360830FC0CB01DA
:102AC0000E947B137C01009759F0A801BE010E946F
:102AD0008615CE010E941314C70104C0CE0102C0A6
:102AE00080E090E0DF91CF911F910F91FF90EF90E8
:102AF000DF90CF90BF90AF909F908F907F906F901E
:102B0000089581E090E0F8940C949615FB01DC01A7
:102B100002C001900D9241505040D8F70895FB013A
:102B2000DC0101900D920020E1F7089511E0C4E965
:102B3000D1E000E006C0802FFE010E94CB1221965A
:102B4000011DC539D10780E00807A9F7F894FFCF28
:102B5000FF00002B072000363738391B1D1A1C00D8
:102B60000000009509680916033C0960094C093DFD
:102B700009000000006F02C801F201BC022302013B
:102B800002150200000000F804C8011603150349ED
:102B90006E76616C696420656E636F64657220692E
:062BA0006421000D0A0093
:00000001FF
