:100000000C9495010C94C6010C94C6010C94C60185
:100010000C94C6010C94C6010C94C6010C94C60144
:100020000C94C6010C942E0B0C942E0B0C942E0BDE
:100030000C94C6010C9490050C94C6010C94C60156
:100040000C94C6010C9408080C94C6010C94C601CB
:100050000C94C6010C94C6010C94C6010C94650D59
:100060000C94C6010C94FF060C94D5060C94C601A2
:100070000C94C6010C94C6010C94C6010C94C601E4
:100080000C94C6010C94C6010C94C6010C94C601D4
:100090000C94C6010C94C6010C94C6010C94380B48
:1000A0000C94C6010C94C6010C94C6010C94C601B4
:1000B0000C94C6010C94C6010C94C6010C9429073B
:1000C0000C94C6010C94C6010C94C6010C94AB06AA
:1000D0000C9481060C94C6010C9457060C942D06C2
:1000E0000C94C601ED03F203F70301040B0484042E
:1000F00015041D0425042F043904430452045C0430
:100100008404660470047A04850C880C770C7B0CDC
:10011000810CBF0C8C0C900C960C9A0C9E0CA40CB1
:10012000A80CAC0CBF0CB20CB60CBA0C0C94BF0CE7
:100130000C9466040C94880C0C94520A0C9452048F
:100140000C9415040C9401040C94A80C0C94630AF0
:100150000C942F040C946F020C949A0C0C94530A78
:100160000C940B040C9423020C948C0C0C947711BB
:100170000C94BC020C94850C0C94C8010C946B0577
:100180000C94AC0C0C9439040C94960C0C94B60C96
:100190000C9415020C947A040C947F0A0C94900C25
:1001A0000C94F7030C94A40C0C94B20C0C94AC0AB1
:1001B0000C94F2030C94770C0C941D040C94540AC8
:1001C0000C94770A0C945C040C94ED030C94BA0C18
:1001D0000C9484040C94810C0C947B0C0C941503EB
:1001E0000C94510A0C9471110C9425040C94010286
:1001F0000C94F2010C949E0C0C9470040C94160355
:100200000C944304000020002300260029002C0049
:100210002F00320000010000030106010901020065
:10022000002100240027002A002D003000330001A7
:10023000010000040107010A010000220025002836
:10024000002B002E003100340002010000050108DF
:10025000010B01050505050705080808080202024B
:10026000020A0A0808040404040101010101010151
:10027000010303030303030303040707070C0C0C28
:100280000C0C0C0C0C020202020606060606060600
:10029000060B0B0B0B0B0B0B0B010210202008089D
:1002A00010204010204080020102010804020101D8
:1002B00002040810204080804020100804020180C1
:1002C0000402018040201008040201080402010118
:1002D0000204081020408001020408102040800021
:1002E000000A0B02090C0D0E0807030401000000B0
:1002F00000000000000000000000000000000000FE
:1003000000000000000000000000001211100000BA
:1003100000000000000000000000000000000000DD
:100320000000000000007711711111241FBECFEFF3
:10033000D1E2DEBFCDBF00E00CBF12E0A0E0B2E032
:10034000ECE1FFE200E00BBF02C007900D92A43683
:10035000B107D9F727E0A4E6B2E001C01D92A933A6
:10036000B207E1F711E0C4E9D1E000E006C021974F
:100370000109802FFE010E94B114C339D10780E02A
:100380000807A9F70E94AF0D0C947C170C9400008D
:10039000CF92DF92EF92FF920F931F93CF93DF9351
:1003A0006C017A018B01C0E0D0E0CE15DF0581F051
:1003B000D8016D918D01D601ED91FC910190F081F4
:1003C000E02DC6011995892B11F02196EECF7E0103
:1003D000C701DF91CF911F910F91FF90EF90DF90B8
:1003E000CF900895FC01538D448D252F30E0842F4C
:1003F00090E0821B930B541710F0CF96089501974D
:100400000895FC01918D828D981761F0828DDF0136
:10041000A80FB11D5D968C91928D9F5F9F73928FF7
:1004200090E008958FEF9FEF0895FC01918D828DEC
:10043000981731F0828DE80FF11D858D90E00895B9
:100440008FEF9FEF0895FC01918D228D892F90E011
:10045000805C9F4F821B91098F73992708958AEDC5
:1004600092E00E94230221E0892B09F420E0822FF0
:10047000089587E793E00E94230221E0892B09F485
:1004800020E0822F089584E194E00E94230221E07D
:10049000892B09F420E0822F0895FC01848DDF016F
:1004A000A80FB11DA35ABF4F2C91848D90E00196E7
:1004B0008F739927848FA689B7892C93A089B189D6
:1004C0008C91837080648C93938D848D981306C077
:1004D0000288F389E02D80818F7D80830895EF92DB
:1004E000FF920F931F93CF93DF93EC0181E0888FEE
:1004F0009B8D8C8D981305C0E889F989808185FDD5
:1005000026C0F62E0B8D10E00F5F1F4F0F731127C3
:10051000E02E8C8DE8120CC00FB607FCFACFE889EC
:10052000F989808185FFF5CFCE010E944D02F1CF80
:100530008B8DFE01E80FF11DE35AFF4FF0829FB74C
:10054000F8940B8FEA89FB89808180620AC09FB78B
:10055000F894EE89FF896083E889F9898081837046
:10056000806480839FBF81E090E0DF91CF911F91F5
:100570000F91FF90EF900895CF93DF93EC01888D5A
:100580008823C9F0EA89FB89808185FD05C0A88997
:10059000B9898C9186FD0FC00FB607FCF5CF80811D
:1005A00085FFF2CFA889B9898C9185FFEDCFCE0167
:1005B0000E944D02E7CFDF91CF910895E0E0F0E097
:1005C000199480E090E0892B21F00E944302811170
:1005D00019C080E090E0892B41F080E090E0892B09
:1005E00021F00E940000811110C00E943902811187
:1005F0000FC080E090E0892B81F00E942F028111D2
:100600000AC008950E940000E4CF0E940000EDCFD0
:100610000E94DE02EECF0C94000008958EBD000013
:100620000DB407FEFDCF8EB50895089580E090E0EB
:1006300008952F923F924F925F926F927F928F9286
:100640009F92AF92BF92CF92DF92EF92FF920F9361
:100650001F93CF93DF93EB0149015A012701380122
:1006600016018C01061B170BBC01990F880B990B07
:100670000E9446098FE392E00E943409BE01DD0F1B
:10068000880B990B0E9446098FE392E00E9434097F
:100690006801110FEE08FF08C701B6010E94460964
:1006A00084E492E00E943409C701B6010E946613F7
:1006B0002FE632E143E85AE30E94C513A5019401F5
:1006C0000E94BA144B015C01B20162197309072E32
:1006D000000C880B990B0E9466132FE632E143E071
:1006E0005BE30E94C5139B01AC01C501B4010E94EC
:1006F000BA14DF91CF911F910F91FF90EF90DF908F
:10070000CF90BF90AF909F908F907F906F905F90B1
:100710004F903F902F9008958F929F92AF92BF92EB
:10072000CF92DF92EF92FF920F931F93CF93DF93BD
:100730008C016A017B0120E030E04FE753E4C70100
:10074000B6010E94C5134B015C0120E030E0A90115
:100750000E945C1518161CF4C501B40103C0C50144
:10076000B40190580E942615EB0120E030E0A90169
:10077000C701B6010E945C15181614F460E001C0B0
:1007800061E0F80181810E94C00CCF3FD10509F0E2
:1007900014F4DD2702C0CFEFD0E0F801108161E052
:1007A000812F0E94EF0C209709F4B1C0CF3FD105F3
:1007B00009F4AFC0E12FF0E0E152FD4FE4918E2F3C
:1007C00090E0FC013197E231F10508F09DC08827E7
:1007D000EE58FF4F8F4F0C94B11484B5806884BDE0
:1007E000C7BDA7C084B5806284BDC8BDA2C08091CA
:1007F0008000806880938000D0938900C093880037
:1008000098C080918000806280938000D0938B009C
:10081000C0938A008EC080918000886080938000A1
:10082000D0938D00C0938C0084C08091B00080680C
:100830008093B000C093B3007CC08091B000806210
:100840008093B000C093B40074C080919000806821
:1008500080939000D0939900C09398006AC08091D3
:100860009000806280939000D0939B00C0939A0088
:1008700060C080919000886080939000D0939D002C
:10088000C0939C0056C08091A00080688093A00017
:100890008091A0008F7B8093A000D093A900C0938B
:1008A000A80047C08091A00080628093A000D093F0
:1008B000AB00C093AA003DC08091A00088608093E7
:1008C000A000D093AD00C093AC0033C08091200154
:1008D000806880932001D0932901C093280129C00A
:1008E00080912001806280932001D0932B01C093DE
:1008F0002A011FC080912001886080932001D0933D
:100900002D01C0932C0115C0C038D10514F460E04E
:1009100001C061E0812FDF91CF911F910F91FF9076
:10092000EF90DF90CF90BF90AF909F908F900C94FE
:10093000C00CDF91CF911F910F91FF90EF90DF904E
:10094000CF90BF90AF909F908F900895CF93DF93FB
:10095000EC0160E088810E94C00C88E90E940E03CF
:1009600080E00E940E0380E00E940E0380E00E945F
:100970000E0380E00E940E0361E088810E94C00C9B
:100980008BE891E00197F1F760E088810E94C00C4C
:1009900080EE0E940E0361E08881DF91CF910C947C
:1009A000C00CAF92BF92CF92DF92EF92FF920F9363
:1009B0001F93CF93DF93CDB7DEB760970FB6F89450
:1009C000DEBF0FBECDBF5C0160E0FC0180810E94F4
:1009D000C00C80E60E940E038E010F5F1F4F7E0148
:1009E000F1E1EF0EF11C680180E00E940E0390E03F
:1009F000A0E0B0E0F60181939193A193B1936F01D0
:100A0000EE15FF0589F761E0F50180810E94C00CB9
:100A100080E090E0DC01F801419151916191719188
:100A20008F01BA2FA92F982F8827840F951FA61FF3
:100A3000B71FEE15FF0579F79C01AD0166277727F3
:100A4000CB01621B730B840B950B60960FB6F89469
:100A5000DEBF0FBECDBFDF91CF911F910F91FF90F1
:100A6000EF90DF90CF90BF90AF900895CF92DF923C
:100A7000EF92FF92823040F087E492E00E94B90941
:100A800060E070E0CB0120C0811112C084EE95E0DF
:100A90000E94D1046B017C0184EE95E00E94A604C3
:100AA00066277727CB016C197D098E099F090CC039
:100AB00086EE95E00E94D1046B017C0186EE95E004
:100AC0000E94A604B601C701FF90EF90DF90CF907F
:100AD00008950E9467170F931F93CF93DF938C01A4
:100AE000C62FD62FD07FD1606D2F0E940C0A6D2F9C
:100AF000C8010E94000B80E1C89FB0011124C62FDD
:100B0000C1606C2FC8010E940C0A6C2FC8010E94A2
:100B1000000B81E090E0DF91CF911F910F9108953C
:100B20001F920F920FB60F9211240BB60F922F93B4
:100B30003F934F935F936F937F938F939F93AF9365
:100B4000BF93EF93FF9380917F0290918002A091D9
:100B50008102B0918202892B8A2B8B2B49F19091D3
:100B60007E028091000089278093000080917F029F
:100B700090918002A0918102B0918202181619060C
:100B80001A061B060CF056C080917F0290918002DD
:100B9000A0918102B09182020197A109B1098093CD
:100BA0007F0290938002A0938102B093820242C0A0
:100BB00080910002EEE1F2E0E4919FEF9093000259
:100BC000E230C9F050F4EE2399F0E13081F59091D4
:100BD0006F009D7F90936F002AC0E43019F1E0F020
:100BE000E53029F5909173009D7F909373001FC0AD
:100BF00010926E001CC0909170009D7F90937000C9
:100C000091E09093B0009091B100987F94609093A0
:100C1000B1001092B3000BC0909171009D7F909332
:100C2000710005C0909172009D7F9093720060E00A
:100C30000E94C00CFF91EF91BF91AF919F918F9156
:100C40007F916F915F914F913F912F910F900BBECC
:100C50000F900FBE0F901F9018951F920F920FB616
:100C60000F9211240BB60F922F933F934F935F93E4
:100C70006F937F938F939F93AF93BF93EF93FF9364
:100C80008AED92E00E944D02FF91EF91BF91AF91EA
:100C90009F918F917F916F915F914F913F912F9194
:100CA0000F900BBE0F900FBE0F901F9018951F92C4
:100CB0000F920FB60F9211240BB60F922F933F9302
:100CC0004F935F936F937F938F939F93AF93BF9354
:100CD000EF93FF938AED92E00E94150BFF91EF9145
:100CE000BF91AF919F918F917F916F915F914F9144
:100CF0003F912F910F900BBE0F900FBE0F901F9042
:100D000018951F920F920FB60F9211240BB60F92E7
:100D10002F933F934F935F936F937F938F939F9303
:100D2000AF93BF93EF93FF9387E793E00E944D0249
:100D3000FF91EF91BF91AF919F918F917F916F91B3
:100D40005F914F913F912F910F900BBE0F900FBE6F
:100D50000F901F9018951F920F920FB60F921124AB
:100D60000BB60F922F933F934F935F936F937F93A5
:100D70008F939F93AF93BF93EF93FF9387E793E096
:100D80000E94150BFF91EF91BF91AF919F918F91B1
:100D90007F916F915F914F913F912F910F900BBE7B
:100DA0000F900FBE0F901F9018951F920F920FB6C5
:100DB0000F9211240BB60F922F933F934F935F9393
:100DC0006F937F938F939F93AF93BF93EF93FF9313
:100DD00084E194E00E944D02FF91EF91BF91AF91A9
:100DE0009F918F917F916F915F914F913F912F9143
:100DF0000F900BBE0F900FBE0F901F9018951F9273
:100E00000F920FB60F9211240BB60F922F933F93B0
:100E10004F935F936F937F938F939F93AF93BF9302
:100E2000EF93FF9384E194E00E94150BFF91EF9103
:100E3000BF91AF919F918F917F916F915F914F91F2
:100E40003F912F910F900BBE0F900FBE0F901F90F0
:100E500018951F920F920FB60F9211240BB60F9296
:100E60002F933F934F935F936F937F938F939F93B2
:100E7000AF93BF93CF93DF93EF93FF932091B2048F
:100E800030E0F901E152FD4F8491F901E756FD4F41
:100E9000D491F901ED5AFD4FC491CC2379F0811121
:100EA0000E946A0CEC2FF0E0EE0FFF1FEC5FFD4F8D
:100EB000A591B491EC91ED2381E009F480E02091BB
:100EC000B6043091B7042F5F3F4F3093B70420939F
:100ED000B6049091B504953618F096E09093B1045D
:100EE0009091B1049430C9F128F4923069F09330B4
:100EF000D1F05EC0953009F451C0963009F058C069
:100F000091E09093820551C0811152C02091B604A6
:100F10003091B7042436310508F442C0109282059E
:100F20001092B5041CC0813009F042C0E091B504B4
:100F300091E09E0F9093B504F0E02091B6043091BB
:100F4000B704EE0FFF1FEF54FB4F3087278310923B
:100F5000B7041092B60494E029C0811117C0E09143
:100F6000B50491E09E0F9093B504F0E02091B60493
:100F70003091B704EE0FFF1FEF54FB4F30872783EC
:100F80001092B7041092B60493E010C02091B604FA
:100F90003091B7042536310558F007C0811108C0DB
:100FA0001092B7041092B60403C095E09093B10478
:100FB0009091B4049923B9F081110AC08091B304CF
:100FC000882321F08091B30461E009C02F9A0BC0FF
:100FD0008091B304882331F08091B30460E00E94D3
:100FE000C00C01C02F98FF91EF91DF91CF91BF917D
:100FF000AF919F918F917F916F915F914F913F91B1
:101000002F910F900BBE0F900FBE0F901F90189551
:101010001F920F920FB60F9211240BB60F922F93BF
:101020003F934F935F936F937F938F939F93AF9370
:10103000BF93EF93FF9380917D0287FF05C01092CD
:1010400085001092840016C020917D02022E000CB3
:10105000330B8091BF0590E0281739075CF430917D
:101060007D0225E03203F0011124ED57FA4F808113
:1010700086FD15C080917D028F5F80937D02209157
:101080007D02022E000C330B8091BF0590E02817E3
:10109000390794F480917D028C302CF10DC0309191
:1010A0007D023203F0011124ED57FA4F808160E098
:1010B0008F730E94C00CDECF8091840090918500D8
:1010C00084349C4918F480E49CE905C08091840034
:1010D00090918500049690938900809388008FEF0B
:1010E00080937D022AC04091840050918500309108
:1010F0007D0225E03203F0011124ED57FA4F818182
:101100009281840F951F909389008093880030917D
:101110007D023203F0011124ED57FA4F808186FFE2
:101120000CC030917D023203F0011124ED57FA4FCB
:10113000808161E08F730E94C00CFF91EF91BF919D
:10114000AF919F918F917F916F915F914F913F915F
:101150002F910F900BBE0F900FBE0F901F90189500
:101160003091CD02313208F04BC08091AA0281113A
:10117000FCCF9091FE0522E02093AA0221E020936B
:10118000A9022FEF2093A8021092A7023093A60283
:10119000EDEAF2E0A6E8B2E020E0321721F041915A
:1011A0004D932F5FFACF1092850220918502990FFF
:1011B000922B9093850290918402913061F4109269
:1011C0008402909185029093BB009091BC0093FDA6
:1011D000F8CF95EC01C095EE9093BC009091AA02D7
:1011E0009230E1F39091A8029F3F79F08091A8029C
:1011F000803241F08091A802803331F084E005C054
:1012000081E003C082E001C083E01092AC02109242
:10121000CD021092AB020895E4E1F4E0A089B18917
:1012200082E08C93A485B5851C92A685B7858FEC4A
:101230008C93108EA489B58986E08C93A289B3899A
:101240008C9180618C93A289B3898C9188608C93F6
:10125000A289B3898C9180688C930288F389E02DF0
:1012600080818F7D80830895009769F0FC01019053
:101270000020E9F73197AF01481B590BBC0184E10D
:1012800094E00C94C80180E090E008958F929F92C2
:10129000AF92BF92CF92DF92EF92FF920F931F9384
:1012A000CF93DF93CDB7DEB7A1970FB6F894DEBF2B
:1012B0000FBECDBF6B017C0197FF2BC06DE284E1B7
:1012C00094E00E946F028C0122273327A9012C1978
:1012D0003D094E095F0919A2CE0181967C019AE071
:1012E000892E912CA12CB12CCA01B901A501940120
:1012F0000E948314605DF70162937F01211531051F
:101300004105510589F7CF010E943409800F911FD3
:101310001DC09B01AC0119A28E010F5D1F4F8AE019
:10132000C82ED12CE12CF12CCA01B901A7019601DC
:101330000E948314605DF80162938F0121153105CD
:101340004105510589F7CF010E943409A1960FB6D6
:10135000F894DEBF0FBECDBFDF91CF911F910F91EB
:10136000FF90EF90DF90CF90BF90AF909F908F90C5
:101370000895CF93DF930E943409EC0184E492E056
:101380000E9434098C0F9D1FDF91CF910895CF9358
:10139000DF930E944609EC0184E492E00E94340944
:1013A0008C0F9D1FDF91CF9108950F931F93CF93C3
:1013B000DF93162F072FC7ECD5E09C8521E0209303
:1013C000AB029093FE051092AC021092CD02AA855A
:1013D000BB85ED91FC9111970190F081E02D682F74
:1013E000CD0119958A859B85DC01ED91FC910190D9
:1013F000F081E02D602F19958A859B85DC01ED91A8
:10140000FC910190F081E02D612F1995DF91CF9132
:101410001F910F910C94B008FC01248131E03093AE
:10142000AB022093FE051092AC021092CD0284858F
:10143000682B8EEC92E00E94AC0A0C94B00885ED0B
:101440008093BC008091BC0084FDFCCF1092AA0266
:10145000089540911007262F30E0240F311D2132CE
:101460003105DCF42091AA022430C9F4FC0180E0AB
:1014700090E0861758F4309110072191DC01A051BB
:10148000B94FA30FB11D2C930196F3CF8091100794
:10149000680F6093100780E0089581E0089582E06E
:1014A0000895089508950895E091C2068091C106B7
:1014B000E81730F4F0E0E053F94F808190E00895B0
:1014C0008FEF9FEF08959091C2068091C106981703
:1014D00050F4E92FF0E0E053F94F208130E09F5FB6
:1014E0009093C20602C02FEF3FEFC901089580918B
:1014F000C10690E02091C206821B91090895CF9207
:10150000DF92EF92FF920F931F93CF93DF937C01B3
:10151000CB018A012091AB02222389F0EB016B0100
:10152000C40ED51ECC15DD0569F06991D701ED918A
:10153000FC910190F081E02DC7011995F3CF642F44
:101540000E94290AC801DF91CF911F910F91FF904E
:10155000EF90DF90CF900895CF93DF931F92CDB798
:10156000DEB769832091AB022223D1F02091CD0216
:10157000203240F021E030E0FC013383228380E020
:1015800090E015C08091AC02E82FF0E0E355FD4FEC
:10159000998190838F5F8093AC028093CD0205C0C8
:1015A00061E0CE0101960E94290A81E090E00F904F
:1015B000DF91CF9108953FB7F8948091CC06909138
:1015C000CD06A091CE06B091CF0626B5A89B05C04A
:1015D0002F3F19F00196A11DB11D3FBFBA2FA92FB2
:1015E000982F8827820F911DA11DB11DBC01CD012F
:1015F00042E0660F771F881F991F4A95D1F708951B
:101600000F931F93CF938C01C62F64600E940C0A26
:101610006C2F6B7FC8010E940C0A83EC90E001974D
:10162000F1F7CF911F910F910895FC01A089B18925
:101630008C91A689B78982FD0FC09C91818D8F5FA7
:101640008F73228D821749F0218DDF01A20FB11D0A
:101650005D969C93818F08958C9108951F920F92AF
:101660000FB60F9211240F900FBE0F901F90189578
:101670001F920F920FB60F9211240BB60F922F9359
:101680003F934F935F936F937F938F939F93AF930A
:10169000BF93EF93FF938091B900887F803609F460
:1016A0009CC068F5883209F45BC090F4803109F47D
:1016B00054C038F4882309F4F6C0883009F44DC0CA
:1016C000F6C0883109F44CC0803209F45DC0EFC027
:1016D000803409F468C048F4803309F455C0883375
:1016E00009F0E5C08093A802D8C0803509F44FC046
:1016F000883509F45DC0883409F0D9C0D6C088396E
:1017000009F4C7C0A8F4883709F467C038F48836EC
:1017100009F463C0803709F460C0C9C0883809F48F
:10172000B8C0803909F45FC0803809F0C0C05BC020
:10173000803B09F486C038F4803A09F466C0883AE0
:1017400009F47FC0B4C0803C09F4A7C0883C09F408
:10175000A4C0883B09F48AC0AAC08091850210C049
:101760009091A7028091A602981770F5E091A702C8
:1017700081E08E0F8093A702F0E0EA57FD4F808151
:101780008093BB0085EC86C08093A8028EC0E09158
:10179000A70281E08E0F8093A7028091BB00F0E04A
:1017A000EA57FD4F80839091A7028091A6026EC0F8
:1017B000E091A70281E08E0F8093A7028091BB0089
:1017C000F0E0EA57FD4F80838091A90281116DC03E
:1017D00081E08093840284EA61C083E08093AA025E
:1017E00010923207CFCF80913207803208F051C07B
:1017F000E091320781E08E0F809332078091BB0029
:10180000F0E0EE5EF84F8083BDCF85EC8093BC00A6
:101810001092AA0280913207803230F4E0913207B0
:10182000F0E0EE5EF84F10826091320770E0E091D8
:10183000C506F091C60682E197E01995109232072D
:1018400036C084E08093AA0210921107109210070C
:10185000E091C306F091C40619958091100781119B
:1018600005C081E0809310071092F006E091110707
:1018700081E08E0F80931107F0E0E051F94F8081F5
:101880008093BB009091110780911007981708F47E
:1018900079CF85E88093BC000AC085EC8093BC00BA
:1018A0001092AA0204C01092A8020E941F0AFF917F
:1018B000EF91BF91AF919F918F917F916F915F91C8
:1018C0004F913F912F910F900BBE0F900FBE0F9035
:1018D0001F90189590E0FC013197E231F10508F076
:1018E0004EC08827EC57FF4F8F4F0C94B114809156
:1018F00080008F7703C0809180008F7D809380006F
:10190000089580918000877FF9CF84B58F7702C0DA
:1019100084B58F7D84BD08958091B0008F7703C01A
:101920008091B0008F7D8093B000089580919000E9
:101930008F7707C0809190008F7D03C080919000C9
:10194000877F8093900008958091A0008F7707C0D3
:101950008091A0008F7D03C08091A000877F80933D
:10196000A0000895809120018F7707C08091200109
:101970008F7D03C080912001877F8093200108958F
:101980001F93CF93DF93282F30E0F901E152FD4FF1
:101990008491F901E756FD4FD491F901ED5AFD4FBD
:1019A000C491CC23C1F0162F81110E946A0CEC2F38
:1019B000F0E0EE0FFF1FE75CFD4FA591B4919FB7DC
:1019C000F894111104C08C91D095D82302C0EC91E9
:1019D000DE2BDC939FBFDF91CF911F910895CF93B2
:1019E000DF9390E0FC01E756FD4F2491FC01ED5A96
:1019F000FD4F8491882361F190E0880F991FFC01CD
:101A0000E15EFD4FC591D491FC01E75CFD4FA591CE
:101A1000B491611109C09FB7F89488812095822301
:101A20008883EC912E230BC0623061F49FB7F89449
:101A30008881322F309583238883EC912E2B2C9331
:101A40009FBF06C08FB7F894E8812E2B28838FBFE5
:101A5000DF91CF9108958F929F92AF92BF92CF92D4
:101A6000DF92EF92FF926B017C010E94DB0A4B0137
:101A70005C01C114D104E104F104F1F00E94DB0A1D
:101A8000DC01CB0188199909AA09BB09883E93405A
:101A9000A105B10570F321E0C21AD108E108F108EF
:101AA00088EE880E83E0981EA11CB11CC114D104DD
:101AB000E104F10419F7DDCFFF90EF90DF90CF90B4
:101AC000BF90AF909F908F9008951F920F920FB686
:101AD0000F9211242F933F938F939F93AF93BF93B4
:101AE0008091C8069091C906A091CA06B091CB0614
:101AF0003091C70623E0230F2D3720F40196A11D56
:101B0000B11D05C026E8230F0296A11DB11D20932B
:101B1000C7068093C8069093C906A093CA06B093DF
:101B2000CB068091CC069091CD06A091CE06B091C7
:101B3000CF060196A11DB11D8093CC069093CD06D2
:101B4000A093CE06B093CF06BF91AF919F918F9196
:101B50003F912F910F900FBE0F901F901895CF932C
:101B6000DF93CDB7DEB72C970FB6F894DEBF0FBE6C
:101B7000CDBF789484B5826084BD84B5816084BD16
:101B800085B5826085BD85B5816085BD80916E001B
:101B9000816080936E00109281008091810082604C
:101BA0008093810080918100816080938100809189
:101BB00080008160809380008091B1008460809378
:101BC000B1008091B00081608093B000809191005D
:101BD0008260809391008091910081608093910058
:101BE000809190008160809390008091A10082603C
:101BF0008093A1008091A10081608093A1008091D9
:101C0000A00081608093A000809121018260809378
:101C10002101809121018160809321018091200127
:101C200081608093200180917A00846080937A00A3
:101C300080917A00826080937A0080917A0081603E
:101C400080937A0080917A00806880937A00109265
:101C5000C1000E940C0961E08091C8050E94EF0C50
:101C600060E08091C8050E94C00C60E08091C705CB
:101C70000E94EF0C8EEC92E09093D2058093D105F8
:101C80001092C2061092C1061092AC021092CD02C0
:101C90001092AA0281E08093A9021092840261E06E
:101CA00084E10E94C00C61E085E10E94C00C80913B
:101CB000B9008E7F8093B9008091B9008D7F8093A9
:101CC000B90088E48093B80085E48093BC0081E586
:101CD0009AE09093C4068093C30682E59AE09093BD
:101CE000C6068093C50680E090E1A0E0B0E0809356
:101CF000D4059093D505A093D605B093D7058AE077
:101D000090E0A0E0B0E08093D8059093D905A0932F
:101D1000DA05B093DB0580E090E0A0E0B0E48093CA
:101D2000DC059093DD05A093DE05B093DF0560E050
:101D300070E185E00E94D5096FE979E380E00E94B7
:101D4000D50927EC35E03A8329838901312C58E8FD
:101D5000652E52E0752E6EEC462E62E0562E7BEC20
:101D6000A72E77E0B72ED80114969C91149712965F
:101D70008C91E981FA81818F928F61E00E94EF0C52
:101D800061E0A981BA815A968C910E94EF0CF8010A
:101D90009085868189809A80FDE18F0E911CA981B2
:101DA000BA815D968C935D975E969C9361E00E94EC
:101DB000EF0C60E0E981FA81868D0E94EF0C61E012
:101DC000A981BA815D968C910E94C00C2FB6F894BF
:101DD00080918302811126C0F3018491F201249144
:101DE000E82FF0E0EE0FFF1FE15EFD4FA591B491EB
:101DF0009C91822F892321F461E085E30E94C00C2D
:101E000061E085E30E94EF0C8CB580618CBD8CB5E0
:101E100080648CBD61E084E30E94EF0C61E083E3A9
:101E20000E94EF0C809183028F5F809383022FBE0C
:101E3000C5010197F1F760E0A981BA815D968C91A7
:101E40000E94C00C88E80E940E0383E00E940E03EB
:101E500061E0E981FA81858D0E94C00CC50101977E
:101E6000F1F7C4010E94A60433940F5F1F4F29812C
:101E70003A812E5F3F4F3A83298332E0331273CF8A
:101E80004CEE55E05A83498300EF15E060E0A981EC
:101E9000BA818D91BA83A9830E94EF0CE981FA81FE
:101EA0000E171F0799F728EE35E03A8329838AEE4B
:101EB000A82E85E0B82E890195E0992E2CE0722E8F
:101EC00032E0832EA981BA8150968C9150978C3044
:101ED00008F04BC018966C9061E0862D0E94EF0CC4
:101EE000E981FA818089989EF0011124ED57FA4F1B
:101EF000962D9F732081207C622E692A6082138236
:101F00001482672D0E94A514FCE08F9FA00111246C
:101F100020E030E0BA01620F731F969EF001979E99
:101F2000F00D1124ED57FA4F908196FD12C02F5FEE
:101F30003F4F2C30310571F781110BC0109280009A
:101F400080928100109285001092840086BA80925F
:101F50006F00A981BA815096EC919E9EF0011124E8
:101F6000ED57FA4F808180648083E981FA819685FC
:101F70008485D80152968C93529753969C9360E037
:101F80000E94EF0C61E0F80183890E94EF0C60E091
:101F9000D80153968C910E94C00CE981FA81319648
:101FA000FA83E9830E5F1F4FAE16BF0609F08ACF92
:101FB000F8941092200189E08093210180E293E05F
:101FC00090932901809328011092250110922401F9
:101FD00082E08093730078948093B1041092B504EA
:101FE0008091B20460E00E94EF0C0E940C0981E035
:101FF0000E94360580E00E9436058BE592E00E9443
:10200000B9096FEF7FE780E090E00E94460984E421
:1020100092E00E943409212C312C812C912C540106
:1020200089829A82AB82BC82412C512C320120E001
:1020300030E0A90169817A818B819C810E945F13C4
:10204000811188C020E030E0A901C501B4010E94DF
:102050005F1381117FC023E330E03A87298719821B
:102060001A821B821C8281E00E9436054B015C01B2
:1020700080E00E9436056D837E838F8398874D8133
:102080005E81240E351EC401092C000CAA0BBB0B6B
:10209000480E591E6A1E7B1EC301B2010E94C70969
:1020A00061018301720129813A814B815C816D81DB
:1020B0007E81C4010E9419034B015C0149815A8150
:1020C0006B817C81705882EE95E00E948C03B50193
:1020D000A40180EE95E00E948C035FEF45165FE758
:1020E000550661047104A4F08DE592E00E94B909DF
:1020F00040E050E060E070E882EE95E00E948C03E2
:1021000040E050E0BA0180EE95E00E948C03D1C01F
:1021100064E170E080E090E00E942B0D2AE037ED52
:1021200043E25CE369817A818B819C810E94BA14CD
:10213000362F272FA985BA851197BA87A987AB2B88
:1021400009F475CF432F522FBC0149835A836B8307
:102150007C8389CF64E170E080E090E00E942B0DE9
:1021600081E00E9436054B015C017A87698780E037
:102170000E9436057C876B87260E371E092C000CC3
:10218000AA08BB08480C591C6A1C7B1CC301B2017D
:102190000E94C709BFE74B16B3E75B0661047104F1
:1021A0000CF466C089809A80AB80BC802DEC3CEC3E
:1021B0004CE45EE3C501B4010E945C1587FD58C084
:1021C00081E00E94360569837A838B839C83E98151
:1021D000FA81FA87E98780E00E9436056D837E8365
:1021E0008F8398872D813E813C872B87220E331E5B
:1021F000E981FA81CF01FF0FAA0BBB0B480E591ED4
:102200006A1E7B1EC301B2010E94C70961018301DE
:102210007201A50194016D817E8189819A810E945C
:1022200019036B017C01B501A401705882EE95E0A1
:102230000E948C03B701A60180EE95E00E948C03FA
:1022400064E170E080E090E00E942B0D2AE037ED21
:1022500043E25CE3C501B4010E94B91489829A8209
:10226000AB82BC82462F572FBC014A015B019ECF37
:102270008FE592E00E94B909610183017201298111
:102280003A814B815C816B857C8589859A850E942A
:1022900019034B015C01AB01BC0180EE95E00E948B
:1022A0008C03FFEF4F16FFE75F06610471040CF427
:1022B000BECE40E050E060E070E882EE95E00E9423
:1022C0008C0340E050E0BA0180EE95E00E948C0360
:1022D00064E670E080E090E00E942B0D0E94E10235
:1022E000FDCF8091C0059091C1050C94F915109215
:1022F000D1021092D00288EE93E0A0E0B0E080938B
:10230000D2029093D302A093D402B093D50223E1DA
:1023100032E03093CF022093CE021092DD02109271
:10232000DC028093DE029093DF02A093E002B09380
:10233000E10225E232E03093DB022093DA0245E34A
:1023400051E05093E7024093E60244E351E050939A
:10235000E9024093E80240E351E05093EB024093DE
:10236000EA0241E351E05093ED024093EC0242E374
:1023700051E05093EF024093EE0246E351E0509358
:10238000F1024093F0021092F3021092F4021092C4
:10239000F5021092F60210927A031092790380935C
:1023A0007B0390937C03A0937D03B0937E033093D3
:1023B00078032093770345ED50E0509384034093D6
:1023C000830344ED50E0509386034093850340ED32
:1023D00050E0509388034093870341ED50E05093C1
:1023E0008A034093890342ED50E050938C0340935D
:1023F0008B0346ED50E050938E0340938D03109273
:1024000090031092910310929203109293031092F2
:102410001704109216048093180490931904A09343
:102420001A04B0931B04309315042093140485EC14
:1024300090E0909321048093200484EC90E09093AA
:1024400023048093220480EC90E0909325048093F1
:10245000240481EC90E0909327048093260482EC7E
:1024600090E0909329048093280486EC90E0909368
:102470002B0480932A0410922D0410922E041092A3
:102480002F04109230048091070290910802A091CD
:102490000902B0910A028093E8059093E905A093A0
:1024A000EA05B093EB0580910B0290910C02A0918C
:1024B0000D02B0910E028093EC059093ED05A09370
:1024C000EE05B093EF0584E08093F00587E08093FC
:1024D000F1051092F20584EB8093F30586E1809379
:1024E000F40588E18093F50587E18093F60589E19D
:1024F0008093F705E091BF05EC3020F08FEF8093DB
:10250000F80510C081E08E0F8093BF05E093F805B9
:1025100085E0E89FF0011124ED57FA4F88EB9BE02E
:1025200092838183E091BF05EC3020F08FEF8093A0
:10253000F90510C081E08E0F8093BF05E093F90587
:1025400085E0E89FF0011124ED57FA4F88EB9BE0FE
:10255000928381838CE08093C70584E28093C805D1
:1025600086E08093C90585E08093CA058FE180935A
:10257000CB058EE18093CC0583E28093CD0582E28A
:102580008093CE0585E48093CF0584E48093D005C5
:1025900080E48093D3051092D8051092D90510924B
:1025A000DA051092DB051092DC051092DD05109221
:1025B000DE051092DF05E3E0F6E021EC36E08FEF78
:1025C0009FEFDC0112821382148215821682178219
:1025D0001086118683879487A587B6878787908B17
:1025E000A18BB28B12861182108273962E173F0731
:1025F00049F78DE090E00E946115FC011382128280
:1026000087E392E091838083118687E2848384E16B
:10261000828784E083871486F0930006E093FF05A9
:10262000109201061092020685E28093B204109285
:10263000B4041092C1051092C0051092C305109207
:10264000C2051092C5051092C40561E070E080E0FB
:1026500090E00E948216009789F09093C1058093C4
:10266000C0051092C3051092C2052091C405309197
:10267000C505232BC1F4FC01108215C08091C00553
:102680009091C105009711F00E94F9151092C105B3
:102690001092C0051092C5051092C4051092C30592
:1026A0001092C20508951092C5051092C40566E403
:1026B00072E08091C0059091C1050C9475170E943D
:1026C000A11308F481E00895E89409C097FB3EF453
:1026D00090958095709561957F4F8F4F9F4F99236F
:1026E000A9F0F92F96E9BB279395F69587957795ED
:1026F0006795B795F111F8CFFAF4BB0F11F460FFAD
:102700001BC06F5F7F4F8F4F9F4F16C0882311F004
:1027100096E911C0772321F09EE8872F762F05C018
:10272000662371F096E8862F70E060E02AF09A95B3
:10273000660F771F881FDAF7880F9695879597F9A8
:102740000895990F0008550FAA0BE0E8FEEF161642
:102750001706E807F907C0F012161306E407F50795
:1027600098F0621B730B840B950B39F40A2661F009
:10277000232B242B252B21F408950A2609F4A140AC
:10278000A6958FEF811D811D08950E94D8130C948A
:1027900049140E943B1438F00E94421420F0952303
:1027A00011F00C9432140C94381411240C947D14F0
:1027B0000E945A1470F3959FC1F3950F50E0551F76
:1027C000629FF001729FBB27F00DB11D639FAA2786
:1027D000F00DB11DAA1F649F6627B00DA11D661FD5
:1027E000829F2227B00DA11D621F739FB00DA11DF6
:1027F000621F839FA00D611D221F749F3327A00DB0
:10280000611D231F849F600D211D822F762F6A2F4B
:1028100011249F5750409AF0F1F088234AF0EE0FB0
:10282000FF1FBB1F661F771F881F91505040A9F7DD
:102830009E3F510580F00C9432140C947D145F3F40
:10284000E4F3983ED4F3869577956795B795F79519
:10285000E7959F5FC1F7FE2B880F911D9695879591
:1028600097F9089597F99F6780E870E060E0089510
:102870009FEF80EC089500240A9416161706180698
:102880000906089500240A94121613061406050674
:102890000895092E0394000C11F4882352F0BB0F05
:1028A00040F4BF2B11F460FF04C06F5F7F4F8F4F68
:1028B0009F4F089557FD9058440F551F59F05F3FA3
:1028C00071F04795880F97FB991F61F09F3F79F052
:1028D00087950895121613061406551FF2CF4695D4
:1028E000F1DF08C0161617061806991FF1CF869556
:1028F0007105610508940895E894BB27662777273A
:10290000CB0197F90895A1E21A2EAA1BBB1BFD016A
:102910000DC0AA1FBB1FEE1FFF1FA217B307E407BE
:10292000F50720F0A21BB30BE40BF50B661F771F16
:10293000881F991F1A9469F76095709580959095F6
:102940009B01AC01BD01CF010895991B79E004C042
:10295000991F961708F0961B881F7A95C9F78095DE
:102960000895EE0FFF1F881F8BBF0790F691E02D93
:1029700019945058BB27AA270E94D1140C944914CB
:102980000E943B1438F00E94421420F039F49F3F1B
:1029900019F426F40C9438140EF4E095E7FB0C942B
:1029A0003214E92F0E945A1458F3BA1762077307BA
:1029B0008407950720F079F4A6F50C947C140EF4A6
:1029C000E0950B2EBA2FA02D0B01B90190010C013F
:1029D000CA01A0011124FF27591B99F0593F50F457
:1029E000503E68F11A16F040A22F232F342F4427AF
:1029F000585FF3CF469537952795A795F0405395A7
:102A0000C9F77EF41F16BA0B620B730B840BBAF076
:102A10009150A1F0FF0FBB1F661F771F881FC2F7E1
:102A20000EC0BA0F621F731F841F48F487957795F5
:102A30006795B795F7959E3F08F0B0CF9395880FAF
:102A400008F09927EE0F9795879508950E942D1508
:102A50006894B1110C947D1408950E94621488F05A
:102A60009F5798F0B92F9927B751B0F0E1F0660F52
:102A7000771F881F991F1AF0BA95C9F714C0B13093
:102A800091F00E947C14B1E008950C947C14672F9F
:102A9000782F8827B85F39F0B93FCCF386957795C2
:102AA0006795B395D9F73EF49095809570956195AB
:102AB0007F4F8F4F9F4F08950E94A11308F48FEF0F
:102AC00008950F931F93CF93DF938230910510F4F5
:102AD00082E090E0E0913707F091380720E030E0A5
:102AE000A0E0B0E0309719F140815181028113815B
:102AF00048175907C8F08417950769F4109731F003
:102B000012960C93129713961C9327C000933707C5
:102B10001093380722C02115310519F042175307C9
:102B200018F49A01BD01EF01DF01F801DBCF211597
:102B30003105F9F0281B390B2430310580F48A81E6
:102B40009B816115710521F0FB019383828304C091
:102B50009093380780933707FE01329644C0FE01F8
:102B6000E20FF31F81939193225031093983288317
:102B70003AC02091350730913607232B41F420913C
:102B800003023091040230933607209335072091D9
:102B90000102309102022115310541F42DB73EB7F3
:102BA0004091050250910602241B350BE091350738
:102BB000F0913607E217F307A0F42E1B3F0B2817FE
:102BC000390778F0AC014E5F5F4F2417350748F0A6
:102BD0004E0F5F1F509336074093350781939193B3
:102BE00002C0E0E0F0E0CF01DF91CF911F910F91A3
:102BF0000895CF93DF93009709F481C0FC013297C9
:102C000013821282A0913707B0913807109781F490
:102C100020813181820F931F209135073091360733
:102C20002817390751F5F0933607E093350767C049
:102C3000ED0120E030E0CE17DF0740F44A815B81F0
:102C40009E0141155105F1F0EA01F5CFD383C2830E
:102C500040815181840F951FC817D90759F4888185
:102C60009981840F951F0296918380838A819B812D
:102C7000938382832115310529F4F0933807E0937B
:102C800037073DC0E901FB83EA8349915991C40F9D
:102C9000D51FEC17FD0761F480819181840F951F8A
:102CA0000296E90199838883828193819B838A8339
:102CB000E0E0F0E012968D919C911397009719F047
:102CC000FD01DC01F7CF8D919C9111979D012E5F45
:102CD0003F4F820F931F20913507309136072817F9
:102CE000390769F4309729F41092380710923707A2
:102CF00002C013821282B0933607A0933507DF918A
:102D0000CF9108956F927F928F929F92AF92BF92D0
:102D1000CF92DF92EF92FF920F931F93CF93DF93A7
:102D2000009789F4CB01DF91CF911F910F91FF9014
:102D3000EF90DF90CF90BF90AF909F908F907F905B
:102D40006F900C946115FC01E60FF71F9C01225057
:102D50003109E217F30708F4A9C0EC01D9010D917C
:102D60001C91119706171707B0F00530110508F4EC
:102D70009BC0C80104978617970708F495C00250B6
:102D80001109061B170B019311936D937C93CF01CF
:102D90000E94F91589C05B01A01AB10A4C01800E8E
:102DA000911EA0913707B0913807612C712CE12C4E
:102DB000F12C109709F446C08D919C911197A8159C
:102DC000B905B1F56C0142E0C40ED11CCA14DB0494
:102DD00078F14C018A189B08640142E0C40ED11CB2
:102DE0001296BC9012971396AC91B5E0CB16D10415
:102DF00040F0B282A38391828082D9016D937C934B
:102E000009C00E5F1F4F800F911FF90191838083CE
:102E1000EB2DFA2FE114F10431F0D7011396FC9356
:102E2000EE93129741C0F0933807E09337073CC008
:102E30006816790608F43C017D0112960D90BC914C
:102E4000A02DB7CF80913507909136078816990647
:102E5000E1F466167706C8F48091010290910202AF
:102E6000009741F48DB79EB740910502509106023C
:102E7000841B950BE817F907C8F4F0933607E09325
:102E80003507F901718360830FC0CB010E94611582
:102E90007C01009759F0A801BE010E946C17CE0179
:102EA0000E94F915C70104C0CE0102C080E090E085
:102EB000DF91CF911F910F91FF90EF90DF90CF9016
:102EC000BF90AF909F908F907F906F90089581E01A
:102ED00090E0F8940C947C17FB01DC0102C0019097
:102EE0000D9241505040D8F70895FB01DC0101904C
:102EF0000D920020E1F7089511E0C4E9D1E000E06F
:102F000006C0802FFE010E94B1142196011DC53913
:0C2F1000D10780E00807A9F7F894FFCF74
:102F1C00FF000039072000363738391B1D1A1C00FA
:102F2C00000000AC0A7F0A1603530A770A630A549E
:102F3C000A000000006F02C801F201BC022302016A
:102F4C00021502000000006B05C8011603150320D2
:102F5C00202020000D0A00496E76616C69642065A2
:102F6C006E636F6465722069642100310035004125
:042F7C006C6C6F000A
:00000001FF
