:100000000C9495010C94C6010C94C6010C94C60185
:100010000C94C6010C94C6010C94C6010C94C60144
:100020000C94C6010C94360B0C94360B0C94360BC6
:100030000C94C6010C94940D0C94C6010C94C6014A
:100040000C94C6010C9416050C94C6010C94C601C0
:100050000C94C6010C94C6010C94C6010C944A0D74
:100060000C94C6010C94030F0C94D90E0C94C60189
:100070000C94C6010C94C6010C94C6010C94C601E4
:100080000C94C6010C94C6010C94C6010C94C601D4
:100090000C94C6010C94C6010C94C6010C94040A7D
:1000A0000C94C6010C94C6010C94C6010C94C601B4
:1000B0000C94C6010C94C6010C94C6010C946903FF
:1000C0000C94C6010C94C6010C94C6010C94AF0E9E
:1000D0000C94850E0C94C6010C945B0E0C94310E9E
:1000E0000C94C60169026E0273027D02870200034E
:1000F00091029902A102AB02B502BF02CE02D80260
:100100000003E202EC02F6025B0B5E0B4D0B510B9F
:10011000570B950B620B660B6C0B700B740B7A0B09
:100120007E0B820B950B880B8C0B900B0C941E098D
:100130000C9400030C94880B0C943B0C0C9422033D
:100140000C944B090C94570B0C94F3080C946E020E
:100150000C948C0B0C94CE020C94D8020C940209D3
:100160000C945B0B0C947E0B0C94BF020C94B502A8
:100170000C94C8010C94880C0C94030D0C946C0B1B
:100180000C9499020C94A1020C94820B0C94F6022C
:100190000C94F2080C94620B0C94650C0C9469029C
:1001A0000C947D020C942D0F0C9473020C94050298
:1001B0000C94F1080C94330F0C94900B0C94AB023C
:1001C0000C9404020C94EC020C94740C0C94B60C79
:1001D0000C94510B0C94E2020C94700B0C945E0B7B
:1001E0000C947A0B0C94F0080C94660B0C9491020E
:1001F0000C94740B0C9487020C94950B0C941609B8
:100200000C944D0B000020002300260029002C0038
:100210002F00320000010000030106010901000067
:100220002100240027002A002D00300033000101A6
:100230000000040107010A01000022002500280037
:100240002B002E00310034000201000005010801DE
:100250000B0105050505070508080808020202024A
:100260000A0A080804040404010101010101010152
:100270000303030303030303040707070C0C0C0C1D
:100280000C0C0C0C02020202060606060606060606
:100290000B0B0B0B0B0B0B0B010210202008081093
:1002A00020401020408002010201080402010102E6
:1002B00004081020408080402010080402018004BF
:1002C000020180402010080402010804020101021A
:1002D0000408102040800102040810204080000023
:1002E0000A0B02090C0D0E080703040100000000B0
:1002F00000000000000000000000000000000000FE
:1003000000000000000000000000121110000000BA
:1003100000000000000000000000000000000000DD
:10032000000000000200330F2D0F11241FBECFEF7D
:10033000D1E2DEBFCDBF00E00CBF12E0A0E0B2E032
:10034000E6E1F2E300E00BBF02C007900D92A63594
:10035000B107D9F727E0A6E5B2E001C01D92AB32A4
:10036000B207E1F711E0C4E9D1E000E006C021974F
:100370000109802FFE010E94BC15C339D10780E01E
:100380000807A9F70E941B110C94F9180C9400009F
:10039000FC01918D228D892F90E0805C9F4F821B04
:1003A00091098F7399270895E0E0F0E0199480E0B7
:1003B00090E0892B21F00E94AC0C811119C080E0E3
:1003C00090E0892B41F080E090E0892B21F00E94A1
:1003D0000000811110C00E94A20C81110FC080E0AA
:1003E00090E0892B81F00E94980C81110AC0089539
:1003F0000E940000E4CF0E940000EDCF0E94D401D3
:10040000EECF0C9400000895089580E090E00895E8
:100410008F929F92AF92BF92CF92DF92EF92FF9214
:100420000F931F93CF93DF938C016A017B0120E030
:1004300030E04FE753E4C701B6010E94D0144B01EE
:100440005C0120E030E0A9010E94D91618161CF4C6
:10045000C501B40103C0C501B40190580E94A316A0
:10046000EB0120E030E0A901C701B6010E94D916D6
:10047000181614F460E001C061E0F80181810E9467
:10048000960BCF3FD10509F014F4DD2702C0CFEF62
:10049000D0E0F801108161E0812F0E94C50B209708
:1004A00009F4B1C0CF3FD10509F4AFC0E12FF0E0AE
:1004B000E252FD4FE4918E2F90E0FC013197E23142
:1004C000F10508F09DC08827EE58FF4F8F4F0C9420
:1004D000BC1584B5806884BDC7BDA7C084B58062E3
:1004E00084BDC8BDA2C080918000806880938000D8
:1004F000D0938900C093880098C08091800080626A
:1005000080938000D0938B00C0938A008EC080912E
:100510008000886080938000D0938D00C0938C0011
:1005200084C08091B00080688093B000C093B30015
:100530007CC08091B00080628093B000C093B40012
:1005400074C080919000806880939000D09399004F
:10055000C09398006AC08091900080628093900060
:10056000D0939B00C0939A0060C0809190008860F7
:1005700080939000D0939D00C0939C0056C08091C2
:10058000A00080688093A0008091A0008F7B809362
:10059000A000D093A900C093A80047C08091A000FC
:1005A00080628093A000D093AB00C093AA003DC0AE
:1005B0008091A00088608093A000D093AD00C0938C
:1005C000AC0033C080912001806880932001D093DB
:1005D0002901C093280129C0809120018062809365
:1005E0002001D0932B01C0932A011FC080912001CC
:1005F000886080932001D0932D01C0932C0115C0F9
:10060000C038D10514F460E001C061E0812FDF91B2
:10061000CF911F910F91FF90EF90DF90CF90BF90FF
:10062000AF909F908F900C94960BDF91CF911F917C
:100630000F91FF90EF90DF90CF90BF90AF909F9081
:100640008F9008950F931F93CF93DF938C01C62F44
:10065000D62FD07FD1606D2F0E94C3096D2FC801A6
:100660000E94D60980E1C89FB0011124C62FC16045
:100670006C2FC8010E94C3096C2FC8010E94D609C3
:1006800081E090E0DF91CF911F910F910895FC01DF
:10069000848DDF01A80FB11DA35ABF4F2C91848D0B
:1006A00090E001968F739927848FA689B7892C9340
:1006B000A089B1898C91837080648C93938D848D93
:1006C000981306C00288F389E02D80818F7D808396
:1006D00008951F920F920FB60F9211240BB60F922E
:1006E0002F933F934F935F936F937F938F939F933A
:1006F000AF93BF93CF93DF93EF93FF9320915F046A
:1007000030E0F901E252FD4F8491F901E856FD4FC6
:10071000D491F901EE5AFD4FC491CC2379F08111A7
:100720000E94400BEC2FF0E0EE0FFF1FEC5FFD4F3F
:10073000A591B491EC91ED2381E009F480E0209142
:100740006304309164042F5F3F4F3093640420931F
:10075000630490916204953618F096E090935E04DD
:1007600090915E049430C9F128F4923069F093308E
:10077000D1F05EC0953009F451C0963009F058C0F0
:1007800091E090932F0551C0811152C020916304D4
:10079000309164042436310508F442C010922F05CC
:1007A000109262041CC0813009F042C0E0916204E2
:1007B00091E09E0F90936204F0E0209163043091E9
:1007C0006404EE0FFF1FE25AFB4F3087278310921D
:1007D00064041092630494E029C0811117C0E09171
:1007E000620491E09E0F90936204F0E02091630414
:1007F00030916404EE0FFF1FE25AFB4F30872783CE
:10080000109264041092630493E010C0209163047A
:10081000309164042536310558F007C0811108C0B5
:10082000109264041092630403C095E090935E04F8
:10083000909161049923B9F081110AC080916004FC
:10084000882321F08091600461E009C02F9A0BC0D9
:1008500080916004882331F08091600460E00E9400
:10086000960B01C02F98FF91EF91DF91CF91BF912F
:10087000AF919F918F917F916F915F914F913F9138
:100880002F910F900BBE0F900FBE0F901F901895D9
:100890008EBD00000DB407FEFDCF8EB50895CF9339
:1008A000DF93EC0160E088810E94960B88E90E944A
:1008B000480480E00E94480480E00E94480480E0F0
:1008C0000E94480480E00E94480461E088810E9400
:1008D000960B8BE891E00197F1F760E088810E9428
:1008E000960B80EE0E94480461E08881DF91CF91F1
:1008F0000C94960BAF92BF92CF92DF92EF92FF9241
:100900000F931F93CF93DF93CDB7DEB760970FB6EA
:10091000F894DEBF0FBECDBF5C0160E0FC018081BA
:100920000E94960B80E60E9448048E010F5F1F4FC5
:100930007E01F1E1EF0EF11C680180E00E944804A5
:1009400090E0A0E0B0E0F60181939193A193B19380
:100950006F01EE15FF0589F761E0F50180810E94C6
:10096000960B80E090E0DC01F8014191519161919A
:1009700071918F01BA2FA92F982F8827840F951F67
:10098000A61FB71FEE15FF0579F79C01AD0166277D
:100990007727CB01621B730B840B950B60960FB608
:1009A000F894DEBF0FBECDBFDF91CF911F910F91A5
:1009B000FF90EF90DF90CF90BF90AF900895CF92CF
:1009C000DF92EF92FF92823060F08FE392E00E941C
:1009D0007A0983E592E00E947A0960E070E0CB0139
:1009E00020C0811112C081E995E00E947A046B0158
:1009F0007C0181E995E00E944F0466277727CB01AF
:100A00006C197D098E099F090CC083E995E00E944D
:100A10007A046B017C0183E995E00E944F04B601E2
:100A2000C701FF90EF90DF90CF9008951F920F9233
:100A30000FB60F9211240BB60F922F933F934F9343
:100A40005F936F937F938F939F93AF93BF93EF9336
:100A5000FF9380916F0287FF05C01092850010926E
:100A6000840016C020916F02022E000C330B80917F
:100A70006C0590E0281739075CF430916F0225E08F
:100A80003203F0011124E05DFA4F808186FD15C02C
:100A900080916F028F5F80936F0220916F02022E10
:100AA000000C330B80916C0590E02817390794F403
:100AB00080916F028C302CF10DC030916F023203A7
:100AC000F0011124E05DFA4F808160E08F730E9495
:100AD000960BDECF809184009091850084349C49F0
:100AE00018F480E49CE905C0809184009091850011
:100AF000049690938900809388008FEF80936F0213
:100B00002AC0409184005091850030916F0225E009
:100B10003203F0011124E05DFA4F81819281840F4C
:100B2000951F909389008093880030916F02320363
:100B3000F0011124E05DFA4F808186FF0CC03091F6
:100B40006F023203F0011124E05DFA4F808161E011
:100B50008F730E94960BFF91EF91BF91AF919F9180
:100B60008F917F916F915F914F913F912F910F9056
:100B70000BBE0F900FBE0F901F9018958F929F92F3
:100B8000AF92BF92CF92DF92EF92FF920F931F939B
:100B9000CF93DF93CDB7DEB7A1970FB6F894DEBF42
:100BA0000FBECDBF80E00E94DF0481E00E94DF0421
:100BB00019A28E010F5D1F4F2FE33FE040E050E090
:100BC0008AE0882E912CA12CB12C7E018DE1E80EBB
:100BD000F11CCA01B901A50194010E948E15605D46
:100BE000F80162938F01EE15FF0599F7CF010E947E
:100BF0007A0983E592E00E947A094DEC5CEC6CE4A2
:100C00007EE38DE895E00E9408024DEC5CEC6CE41C
:100C10007EE38FE895E00E9408026FE070E080E0DC
:100C200090E00E94010C83E995E00E947A046B0138
:100C30007C0181E995E00E947A049B01AC01882740
:100C40009927DC01821B930BA40BB50B8F339F40BC
:100C5000A105B10554F140E050E0BA018DE895E0FE
:100C60000E94080242ECC41640EFD4064FEFE4069F
:100C7000F4069CF640E050E060E070E88FE895E014
:100C80000E940802A1960FB6F894DEBF0FBECDBF3A
:100C9000DF91CF911F910F91FF90EF90DF90CF9058
:100CA000BF90AF909F908F90089552ECC51650EF73
:100CB000D5065FEFE506F5060CF0AFCF40E050E05B
:100CC00060E070E8A6CFCF92DF92EF92FF926B01C7
:100CD0007C0180E00E94DF0481E00E94DF04C70104
:100CE000B6010E94711426EC37E843EA5EE30E94E5
:100CF000D01421EF32E84FEB51E40E94311620E08E
:100D000030E048E455E40E94D0140E94A3166B0121
:100D10007C01161617061806190634F540E050E057
:100D200060E87EE38DE895E00E9408026FE070E0E5
:100D300080E090E00E94010C81E995E00E947A0435
:100D40009B01AC0188279927DC01821B930BA40B24
:100D5000B50B8C159D05AE05BF0544F340E050E092
:100D6000BA018DE895E029C040E050E060E87EEBF4
:100D70008FE895E00E94080260E070E0CB01F094FB
:100D8000E094D094C094C11CD11CE11CF11C6C15E2
:100D90007D058E059F055CF46FE070E080E090E0DB
:100DA0000E94010C83E995E00E947A04F0CF40E0B4
:100DB00050E060E070E88FE895E0FF90EF90DF9002
:100DC000CF900C9408024F925F926F927F928F9215
:100DD0009F92AF92BF92CF92DF92EF92FF920F93CA
:100DE0001F93CF93DF9300D000D0CDB7DEB721EFB4
:100DF00032E84FEB51E40E94311620E030E048E445
:100E000055E40E94D0140E94A3162B013C0180E0FF
:100E10000E94DF0481E00E94DF044DEC5CEC6CE496
:100E20007EE38DE895E00E9408024DEC5CEC6CE4FA
:100E30007EEB8FE895E00E9408022FE130E03A83D4
:100E400029839DECC92E9CECD92E9CE4E92E9EE3CF
:100E5000F92E2AE037ED43E25CE3C701B6010E94B8
:100E6000C5156B017C01AB01BC018DE895E00E94CA
:100E70000802B701A60170588FE895E00E940802A9
:100E800064E170E080E090E00E94010C49815A81A9
:100E9000415051095A834983452BD9F600E010E0AF
:100EA0001E821D82D301C20180589C40A109B10954
:100EB00089839A83AB83BC832D813E81C901330F23
:100EC000AA0BBB0B29813A814B815C818217930766
:100ED000A407B5070CF057C064E670E080E090E02E
:100EE0000E94010C81E995E00E947A044B015C01AB
:100EF00083E995E00E947A04B094A0949094809441
:100F0000811C911CA11CB11CA401461B570BBA01EA
:100F10008D819E81880D991D9E838D83040F151FE1
:100F2000072E000C880B990B0E94711427E137EBF8
:100F300041ED58E30E94D014A70196010E94C51507
:100F40004B015C01B801012E000C880B990B0E942B
:100F500071142CEA35EC47EA57E30E94D0149B0148
:100F6000AC01C501B4010E94C515AB01BC017058AC
:100F70008FE895E00E94080280E00E94DF0481E093
:100F80000E94DF0499CF4AE959E969E97EE38DE8D7
:100F900095E00E9408024AE959E969E97EEB8FE889
:100FA00095E00E9408028AE9882E89E9982EA92CEA
:100FB0008EE3B82E2D813E81C901330FAA0BBB0BE6
:100FC00084159505A605B7050CF057C064E670E0DA
:100FD00080E090E00E94010C81E995E00E947A0493
:100FE0006B017C0183E995E00E947A04F094E0941F
:100FF000D094C094C11CD11CE11CF11CA601461B5D
:10100000570BBA018D819E818C0D9D1D9E838D8312
:10101000040F151F072E000C880B990B0E947114EA
:1010200027E137EB41ED58E30E94D014A50194016C
:101030000E94C5156B017C01B801012E000C880BC4
:10104000990B0E9471142CEA35EC47EA57E30E9491
:10105000D014A70196010E94C5154B015C01AB019C
:10106000BC0170588FE895E00E94080280E00E9461
:10107000DF0481E00E94DF049DCF40E050E0BA0130
:101080008DE895E00E94080240E050E060E070E8E2
:101090008FE895E026960FB6F894DEBF0FBECDBF61
:1010A000DF91CF911F910F91FF90EF90DF90CF9044
:1010B000BF90AF909F908F907F906F905F904F9078
:1010C0000C94080230917A02313208F04BC08091C2
:1010D00078028111FCCF9091550622E0209378028E
:1010E00021E0209377022FEF2093330610923206EF
:1010F00030933106E5E3F6E0A1E1B6E020E03217F7
:1011000021F041914D932F5FFACF1092100620915C
:101110001006990F922B90931006909176029130C1
:1011200061F410927602909110069093BB0090911A
:10113000BC0093FDF8CF95EC01C095EE9093BC00F8
:10114000909178029230E1F3909133069F3F79F0CD
:1011500080913306803241F080913306803331F044
:1011600084E005C081E003C082E001C083E010920A
:10117000790210927A0210923406089585ED8093D8
:10118000BC008091BC0084FDFCCF109278020895D1
:101190004091ED05262F30E0240F311D213231051D
:1011A000DCF4209178022430C9F4FC0180E090E066
:1011B000861758F43091ED052191DC01A353BA4F05
:1011C000A30FB11D2C930196F3CF8091ED05680F0D
:1011D0006093ED0580E0089581E0089582E0089530
:1011E000089508950895E091710280917002E817C2
:1011F00030F4F0E0E355FA4F808190E008958FEFEE
:101200009FEF08959091710280917002981750F4A9
:10121000E92FF0E0E355FA4F208130E09F5F909393
:10122000710202C02FEF3FEFC90108958091700253
:1012300090E020917102821B91090895CF92DF9274
:10124000EF92FF920F931F93CF93DF937C01CB011B
:101250008A0120913406222389F0EB016B01C40E30
:10126000D51ECC15DD0569F06991D701ED91FC9192
:101270000190F081E02DC7011995F3CF642F0E94F2
:10128000C808C801DF91CF911F910F91FF90EF9097
:10129000DF90CF900895CF93DF931F92CDB7DEB745
:1012A0006983209134062223D1F020917A022032E2
:1012B00040F021E030E0FC013383228380E090E0C5
:1012C00015C080917902E82FF0E0EB5CF94F99812D
:1012D00090838F5F8093790280937A0205C061E0EA
:1012E000CE0101960E94C80881E090E00F90DF9146
:1012F000CF910895009769F0FC0101900020E9F773
:101300003197AF01481B590BBC0181EC93E00C9461
:101310003B0C80E090E008950F931F93CF93DF93F1
:10132000162F072FC4E7D5E09C8521E020933406D3
:10133000909355061092790210927A02AA85BB8585
:10134000ED91FC9111970190F081E02D682FCD0176
:1013500019958A859B85DC01ED91FC910190F081C6
:10136000E02D602F19958A859B85DC01ED91FC911C
:101370000190F081E02D612F1995DF91CF911F91A0
:101380000F910C946208FC01248131E03093340603
:10139000209355061092790210927A028485682B68
:1013A0008BE792E00E944B090C9462080F931F9305
:1013B000CF938C01C62F64600E94C3096C2F6B7F92
:1013C000C8010E94C30983EC90E00197F1F7CF9127
:1013D0001F910F910895FC01A089B1898C91A68974
:1013E000B78982FD0FC09C91818D8F5F8F73228D95
:1013F000821749F0218DDF01A20FB11D5D969C93EC
:10140000818F08958C9108951F920F920FB60F92BD
:1014100011240BB60F922F933F934F935F936F93CB
:101420007F938F939F93AF93BF93EF93FF9380919D
:10143000B900887F803609F49CC068F5883209F4C9
:101440005BC090F4803109F454C038F4882309F467
:10145000F6C0883009F44DC0F6C0883109F44CC09C
:10146000803209F45DC0EFC0803409F468C048F4EC
:10147000803309F455C0883309F0E5C08093330602
:10148000D8C0803509F44FC0883509F45DC0883470
:1014900009F0D9C0D6C0883909F4C7C0A8F4883784
:1014A00009F467C038F4883609F463C0803709F45A
:1014B00060C0C9C0883809F4B8C0803909F45FC079
:1014C000803809F0C0C05BC0803B09F486C038F4A6
:1014D000803A09F466C0883A09F47FC0B4C0803C01
:1014E00009F4A7C0883C09F4A4C0883B09F48AC069
:1014F000AAC08091100610C09091320680913106EA
:10150000981770F5E091320681E08E0F80933206D5
:10151000F0E0EF5EF94F80818093BB0085EC86C0E0
:10152000809333068EC0E091320681E08E0F809367
:1015300032068091BB00F0E0EF5EF94F808390911E
:101540003206809131066EC0E091320681E08E0F46
:10155000809332068091BB00F0E0EF5EF94F80830C
:101560008091770281116DC081E08093760284EAD8
:1015700061C083E08093780210920F06CFCF8091F4
:101580000F06803208F051C0E0910F0681E08E0F07
:1015900080930F068091BB00F0E0E151FA4F808309
:1015A000BDCF85EC8093BC001092780280910F062D
:1015B000803230F4E0910F06F0E0E151FA4F1082F2
:1015C00060910F0670E0E0917402F09175028FEE69
:1015D00095E0199510920F0636C084E0809378024A
:1015E0001092EE051092ED05E0917202F0917302F7
:1015F00019958091ED05811105C081E08093ED057D
:101600001092CD05E091EE0581E08E0F8093EE05FE
:10161000F0E0E353FA4F80818093BB009091EE0598
:101620008091ED05981708F479CF85E88093BC0088
:101630000AC085EC8093BC001092780204C010921E
:1016400033060E94BE08FF91EF91BF91AF919F9129
:101650008F917F916F915F914F913F912F910F905B
:101660000BBE0F900FBE0F901F9018951F920F92F8
:101670000FB60F9211240F900FBE0F901F90189568
:1016800090E0FC013197E231F10508F04EC0882767
:10169000EC57FF4F8F4F0C94BC15809180008F77D3
:1016A00003C0809180008F7D809380000895809199
:1016B0008000877FF9CF84B58F7702C084B58F7D96
:1016C00084BD08958091B0008F7703C08091B000F1
:1016D0008F7D8093B0000895809190008F7707C030
:1016E000809190008F7D03C080919000877F8093D0
:1016F000900008958091A0008F7707C08091A0008E
:101700008F7D03C08091A000877F8093A000089503
:10171000809120018F7707C0809120018F7D03C0C9
:1017200080912001877F8093200108951F93CF939C
:10173000DF93282F30E0F901E252FD4F8491F90147
:10174000E856FD4FD491F901EE5AFD4FC491CC23D8
:10175000C1F0162F81110E94400BEC2FF0E0EE0F2C
:10176000FF1FE85CFD4FA591B4919FB7F89411114C
:1017700004C08C91D095D82302C0EC91DE2BDC9371
:101780009FBFDF91CF911F910895CF93DF9390E09A
:10179000FC01E856FD4F2491FC01EE5AFD4F849167
:1017A000882361F190E0880F991FFC01E25EFD4FF4
:1017B000C591D491FC01E85CFD4FA591B4916111F4
:1017C00009C09FB7F8948881209582238883EC9183
:1017D0002E230BC0623061F49FB7F8948881322FBA
:1017E000309583238883EC912E2B2C939FBF06C0CA
:1017F0008FB7F894E8812E2B28838FBFDF91CF918C
:1018000008958F929F92AF92BF92CF92DF92EF9204
:10181000FF926B017C010E94250D4B015C01C114FC
:10182000D104E104F104F1F00E94250DDC01CB01AB
:1018300088199909AA09BB09883E9340A105B105F9
:1018400070F321E0C21AD108E108F10888EE880E91
:1018500083E0981EA11CB11CC114D104E104F10461
:1018600019F7DDCFFF90EF90DF90CF90BF90AF9052
:101870009F908F900895CF92DF92EF92FF920F93F7
:101880001F93CF93DF936C017A018B01C0E0D0E00E
:10189000CE15DF0581F0D8016D918D01D601ED9156
:1018A000FC910190F081E02DC6011995892B11F072
:1018B0002196EECF7E01C701DF91CF911F910F914D
:1018C000FF90EF90DF90CF900895FC01538D448DF1
:1018D000252F30E0842F90E0821B930B541710F0DB
:1018E000CF96089501970895FC01918D828D9817E8
:1018F00061F0828DDF01A80FB11D5D968C91928DF4
:101900009F5F9F73928F90E008958FEF9FEF0895F0
:10191000FC01918D828D981731F0828DE80FF11DB9
:10192000858D90E008958FEF9FEF08950E94E41851
:1019300087E892E00E94C80121E0892B09F420E0A9
:10194000822F089584E293E00E94C80121E0892B50
:1019500009F420E0822F089581EC93E00E94C801F1
:1019600021E0892B09F420E0822F0895EF92FF9265
:101970000F931F93CF93DF93EC0181E0888F9B8DB2
:101980008C8D981305C0E889F989808185FD26C072
:10199000F62E0B8D10E00F5F1F4F0F731127E02EF7
:1019A0008C8DE8120CC00FB607FCFACFE889F989D4
:1019B000808185FFF5CFCE010E944703F1CF8B8D4B
:1019C000FE01E80FF11DE35AFF4FF0829FB7F89434
:1019D0000B8FEA89FB89808180620AC09FB7F894E7
:1019E000EE89FF896083E889F9898081837080644A
:1019F00080839FBF81E090E0DF91CF911F910F9195
:101A0000FF90EF900895CF93DF93EC01888D8823AA
:101A1000C9F0EA89FB89808185FD05C0A889B9895B
:101A20008C9186FD0FC00FB607FCF5CF808185FF36
:101A3000F2CFA889B9898C9185FFEDCFCE010E94A4
:101A40004703E7CFDF91CF9108953FB7F894809196
:101A5000230790912407A0912507B091260726B56A
:101A6000A89B05C02F3F19F00196A11DB11D3FBFD6
:101A7000BA2FA92F982F8827820F911DA11DB11D64
:101A8000BC01CD0142E0660F771F881F991F4A9560
:101A9000D1F708951F920F920FB60F9211242F9332
:101AA0003F938F939F93AF93BF9380911F07909124
:101AB0002007A0912107B091220730911E0723E053
:101AC000230F2D3720F40196A11DB11D05C026E876
:101AD000230F0296A11DB11D20931E0780931F079F
:101AE00090932007A0932107B093220780912307AA
:101AF00090912407A0912507B09126070196A11D7A
:101B0000B11D8093230790932407A0932507B093DA
:101B10002607BF91AF919F918F913F912F910F9089
:101B20000FBE0F901F9018951F920F920FB60F9235
:101B300011240BB60F922F933F934F935F936F93A4
:101B40007F938F939F93AF93BF93EF93FF93809176
:101B5000190790911A07A0911B07B0911C07892BB8
:101B60008A2B8B2B49F190911807809100008927CF
:101B7000809300008091190790911A07A0911B078C
:101B8000B0911C07181619061A061B060CF056C051
:101B90008091190790911A07A0911B07B0911C071B
:101BA0000197A109B1098093190790931A07A0938F
:101BB0001B07B0931C0742C080910002E4E2F3E0EF
:101BC000E4919FEF90930002E230C9F050F4EE23CD
:101BD00099F0E13081F590916F009D7F90936F00B7
:101BE0002AC0E43019F1E0F0E53029F59091730056
:101BF0009D7F909373001FC010926E001CC0909147
:101C000070009D7F9093700091E09093B000909150
:101C1000B100987F94609093B1001092B3000BC014
:101C2000909171009D7F9093710005C0909172001A
:101C30009D7F9093720060E00E94960BFF91EF9160
:101C4000BF91AF919F918F917F916F915F914F91D4
:101C50003F912F910F900BBE0F900FBE0F901F90D2
:101C600018951F920F920FB60F9211240BB60F9278
:101C70002F933F934F935F936F937F938F939F9394
:101C8000AF93BF93EF93FF9387E892E00E944703DF
:101C9000FF91EF91BF91AF919F918F917F916F9144
:101CA0005F914F913F912F910F900BBE0F900FBE00
:101CB0000F901F9018951F920F920FB60F9211243C
:101CC0000BB60F922F933F934F935F936F937F9336
:101CD0008F939F93AF93BF93EF93FF9387E892E027
:101CE0000E94EB09FF91EF91BF91AF919F918F916E
:101CF0007F916F915F914F913F912F910F900BBE0C
:101D00000F900FBE0F901F9018951F920F920FB655
:101D10000F9211240BB60F922F933F934F935F9323
:101D20006F937F938F939F93AF93BF93EF93FF93A3
:101D300084E293E00E944703FF91EF91BF91AF913E
:101D40009F918F917F916F915F914F913F912F91D3
:101D50000F900BBE0F900FBE0F901F9018951F9203
:101D60000F920FB60F9211240BB60F922F933F9341
:101D70004F935F936F937F938F939F93AF93BF9393
:101D8000EF93FF9384E293E00E94EB09FF91EF91C0
:101D9000BF91AF919F918F917F916F915F914F9183
:101DA0003F912F910F900BBE0F900FBE0F901F9081
:101DB00018951F920F920FB60F9211240BB60F9227
:101DC0002F933F934F935F936F937F938F939F9343
:101DD000AF93BF93EF93FF9381EC93E00E9447038F
:101DE000FF91EF91BF91AF919F918F917F916F91F3
:101DF0005F914F913F912F910F900BBE0F900FBEAF
:101E00000F901F9018951F920F920FB60F921124EA
:101E10000BB60F922F933F934F935F936F937F93E4
:101E20008F939F93AF93BF93EF93FF9381EC93E0D6
:101E30000E94EB09FF91EF91BF91AF919F918F911C
:101E40007F916F915F914F913F912F910F900BBEBA
:101E50000F900FBE0F901F90189580916D05909177
:101E60006E050C94761710927E0210927D0288EE19
:101E700093E0A0E0B0E080937F0290938002A09373
:101E80008102B093820223E132E030937C022093FE
:101E90007B0210928A021092890280938B029093A7
:101EA0008C02A0938D02B0938E0225E232E0309333
:101EB00088022093870245E351E0509394024093B7
:101EC000930244E351E0509396024093950240E31D
:101ED00051E0509398024093970241E351E05093B0
:101EE0009A024093990242E351E050939C0240933E
:101EF0009B0246E351E050939E0240939D02109254
:101F0000A0021092A1021092A2021092A3021092BB
:101F10002703109226038093280390932903A0930C
:101F20002A03B0932B03309325032093240345ED1C
:101F300050E0509331034093300344ED50E0509310
:101F400033034093320340ED50E050933503409308
:101F5000340341ED50E0509337034093360342ED94
:101F600050E0509339034093380346ED50E05093CE
:101F70003B0340933A0310923D0310923E031092AC
:101F80003F03109240031092C4031092C303809346
:101F9000C5039093C603A093C703B093C8033093BF
:101FA000C2032093C10385EC90E09093CE0380930D
:101FB000CD0384EC90E09093D0038093CF0380EC2A
:101FC00090E09093D2038093D10381EC90E09093C2
:101FD000D4038093D30382EC90E09093D603809354
:101FE000D50386EC90E09093D8038093D7031092AA
:101FF000DA031092DB031092DC031092DD03809170
:10200000070290910802A0910902B0910A02809300
:10201000950590939605A0939705B09398058091A8
:102020000B0290910C02A0910D02B0910E028093D0
:10203000990590939A05A0939B05B0939C0584E025
:1020400080939D0587E080939E0510929F0584EB09
:102050008093A00586E18093A10588E18093A20585
:1020600087E18093A30589E18093A405E0916C0545
:10207000EC3020F08FEF8093A50510C081E08E0F2B
:1020800080936C05E093A50585E0E89FF00111249D
:10209000E05DFA4F88EB9BE092838183E0916C05D1
:1020A000EC3020F08FEF8093A60510C081E08E0FFA
:1020B00080936C05E093A60585E0E89FF00111246C
:1020C000E05DFA4F88EB9BE0928381838CE0809304
:1020D000740584E28093750586E08093760585E03B
:1020E000809377058FE1809378058EE18093790561
:1020F00083E280937A0582E280937B0585E4809376
:102100007C0584E480937D0580E4809380051092B3
:102110008505109286051092870510928805109209
:10212000890510928A0510928B0510928C05EAE5BC
:10213000F6E028E137E08FEF9FEFDC011282138297
:1021400014821582168217821086118683879487DF
:10215000A587B6878787908BA18BB28B1286118259
:10216000108273962E173F0749F78DE090E00E948A
:10217000DE16FC011382128287E392E09183808352
:10218000118687E2848384E1828784E083871486D2
:10219000F0935706E093560610925806109259068F
:1021A00085E280935F041092610410926E05109294
:1021B0006D051092700510926F05109272051092C5
:1021C000710561E070E080E090E00E94FF170097E9
:1021D00089F090936E0580936D05109270051092B2
:1021E0006F052091710530917205232BC1F4FC011C
:1021F000108215C080916D0590916E05009711F0C9
:102200000E94761710926E0510926D05109272055D
:10221000109271051092700510926F05089510923A
:1022200072051092710565E572E080916D059091DF
:102230006E050C94F218789484B5826084BD84B5E0
:10224000816084BD85B5826085BD85B5816085BDB1
:1022500080916E00816080936E0010928100809169
:1022600081008260809381008091810081608093F1
:102270008100809180008160809380008091B10016
:1022800084608093B1008091B00081608093B00041
:102290008091910082608093910080919100816093
:1022A0008093910080919000816080939000809154
:1022B000A10082608093A1008091A1008160809341
:1022C000A1008091A00081608093A00080912101F5
:1022D000826080932101809121018160809321019E
:1022E0008091200181608093200180917A00846038
:1022F00080937A0080917A00826080937A00809146
:102300007A00816080937A0080917A00806880935F
:102310007A001092C100E091D103F091D20382E0E3
:102320008083E091CD03F091CE031082E091CF0342
:10233000F091D0038FEC80831092D903E091D50304
:10234000F091D60386E08083E091D303F091D4032B
:10235000808180618083E091D303F091D4038081F8
:1023600088608083E091D303F091D40380818068FA
:102370008083E091D303F091D40380818F7D8083AB
:1023800061E0809175050E94C50B60E08091750544
:102390000E94960B60E0809174050E94C50B8BE74C
:1023A00092E090937F0580937E05109271021092C7
:1023B00070021092790210927A021092780281E0F3
:1023C000809377021092760261E084E10E94960B7E
:1023D00061E085E10E94960B8091B9008E7F809329
:1023E000B9008091B9008D7F8093B90088E4809313
:1023F000B80085E48093BC0080EF98E0909373026E
:102400008093720281EF98E090937502809374023A
:1024100080E090E1A0E0B0E0809381059093820598
:10242000A0938305B09384058AE090E0A0E0B0E03B
:102430008093850590938605A0938705B0938805C2
:1024400080E090E0A0E0B0E48093890590938A0555
:10245000A0938B05B0938C0560E070E185E00E944D
:102460008C096FE979E380E00E948C09C4E7D5E02C
:102470008E0152E0752E67E8A62E62E0B62E7DEC46
:10248000872E72E0972EEBECEE2EE7E0FE2EF801A1
:1024900094818281898F9A8F61E00E94C50B61E0EF
:1024A0008A8D0E94C50BF801908586816E01FDE141
:1024B000CF0ED11C8D8F9E8F61E00E94C50B60E016
:1024C0008E8D0E94C50B61E08D8D0E94960B6FB6BC
:1024D000F89480911D07811126C0F5018491F401C3
:1024E0002491E82FF0E0EE0FFF1FE25EFD4FA59173
:1024F000B4919C91822F892321F461E085E30E94AD
:10250000960B61E085E30E94C50B8CB580618CBDA4
:102510008CB580648CBD61E084E30E94C50B61E0F2
:1025200083E30E94C50B80911D078F5F80931D0779
:102530006FBEC7010197F1F760E08D8D0E94960B89
:1025400088E80E94480483E00E94480461E08D8D81
:102550000E94960BC7010197F1F7C6010E944F0434
:102560007A940F5F1F4F2296711091CF09E915E001
:10257000CDE9D5E060E0F80181918F010E94C50BA3
:10258000F5E00D391F07B1F705E915E08FE9E82EF1
:1025900085E0F82E95E0D92E2CE0B22E32E0C32E45
:1025A000A9908F818C3008F044C061E08A2D0E9490
:1025B000C50B8F81D89EF0011124E05DFA4F9A2D52
:1025C0009F732081207CA22EA92AA08213821482CC
:1025D0006B2D0E94B0152CE0829FA001112420E0F9
:1025E00030E0BA01620F731FD69EF001D79EF00D46
:1025F0001124E05DFA4F908196FD12C02F5F3F4F8E
:102600002C30310571F781110BC010928000C092FF
:1026100081001092850010928400C6BAC0926F00AB
:10262000EF81DE9EF0011124E05DFA4F808180642D
:1026300080839D818B81F801828B938B60E00E9467
:10264000C50B61E0F80183890E94C50B60E0F801C9
:1026500083890E94960B0E5F1F4FEC16FD0609F052
:102660009FCFF8941092200189E08093210180E2AD
:1026700093E09093290180932801109225011092F4
:10268000240182E080937300789480935E0410921A
:10269000620480915F0460E00E94C50B60E070E01E
:1026A00080EF92E40E94E30668EC70E080E090E046
:1026B0000E94010C66EA7FEF8FEF9FEF0E94630696
:1026C00068EC70E080E090E00E94010C60E070E057
:1026D0008CE892E40E94E30668EC70E080E090E011
:1026E0000E94010C6AE570E080E090E00E946306C1
:1026F00068EC70E080E090E00E94010C60E070E027
:1027000086E992E40E94E30668EC70E080E090E0E5
:102710000E94010C6DE270E080E090E00E94630690
:1027200068EC70E080E090E00E94010C60E070E0F6
:102730008FE293E40E94E30668EC70E080E090E0B2
:102740000E94010C66EA7FEF8FEF9FEF0E94630605
:1027500068EC70E080E090E00E94010C60E070E0C6
:1027600080E292E40E94E30668EC70E080E090E092
:102770000E94010C6DE270E080E090E00E94630630
:1027800068EC70E080E090E00E94010C60E070E096
:1027900088EC92E40E94E30668EC70E080E090E050
:1027A0000E94010C0E94BE0568EC70E080E090E0A1
:1027B0000E94010C60E070E088EC92E40E94E30665
:1027C00068EC70E080E090E00E94010C63ED7FEF28
:1027D0008FEF9FEF0E94630668EC70E080E090E06E
:1027E0000E94010C60E070E080E292E40E94E30647
:1027F00068EC70E080E090E00E94010C6AE570E017
:1028000080E090E00E94630668EC70E080E090E079
:102810000E94010C60E070E08FE293E40E94E30606
:1028200068EC70E080E090E00E94010C63ED7FEFC7
:102830008FEF9FEF0E94630668EC70E080E090E00D
:102840000E94010C60E070E086E992E40E94E306D9
:1028500068EC70E080E090E00E94010C66EA7FEF97
:102860008FEF9FEF0E94630668EC70E080E090E0DD
:102870000E94010C60E070E08EE892E40E94E306A2
:1028800068EC70E080E090E00E94010C6AE570E086
:1028900080E090E00E94630668EC70E080E090E0E9
:1028A0000E94010C60E070E080EF92E40E94E30679
:1028B00068EC70E080E090E00E94010C0E94BE0590
:1028C0000E94BE0560ED77E080E090E00E94010C80
:1028D0000E94BE050E94BE050E94D701FDCFE8946C
:1028E00009C097FB3EF490958095709561957F4F58
:1028F0008F4F9F4F9923A9F0F92F96E9BB27939506
:10290000F695879577956795B795F111F8CFFAF415
:10291000BB0F11F460FF1BC06F5F7F4F8F4F9F4F46
:1029200016C0882311F096E911C0772321F09EE8A4
:10293000872F762F05C0662371F096E8862F70E00A
:1029400060E02AF09A95660F771F881FDAF7880FE4
:102950009695879597F90895990F0008550FAA0B3A
:10296000E0E8FEEF16161706E807F907C0F01216A2
:102970001306E407F50798F0621B730B840B950BA5
:1029800039F40A2661F0232B242B252B21F40895FA
:102990000A2609F4A140A6958FEF811D811D089597
:1029A0000E94E3140C9454150E94461538F00E94BE
:1029B0004D1520F0952311F00C943D150C94431502
:1029C00011240C9488150E94651570F3959FC1F32E
:1029D000950F50E0551F629FF001729FBB27F00DCD
:1029E000B11D639FAA27F00DB11DAA1F649F662722
:1029F000B00DA11D661F829F2227B00DA11D621F71
:102A0000739FB00DA11D621F839FA00D611D221F2A
:102A1000749F3327A00D611D231F849F600D211D0E
:102A2000822F762F6A2F11249F5750409AF0F1F091
:102A300088234AF0EE0FFF1FBB1F661F771F881FFA
:102A400091505040A9F79E3F510580F00C943D15E0
:102A50000C9488155F3FE4F3983ED4F38695779500
:102A60006795B795F795E7959F5FC1F7FE2B880FA0
:102A7000911D9695879597F9089597F99F6780E836
:102A800070E060E008959FEF80EC089500240A94C0
:102A90001616170618060906089500240A94121639
:102AA0001306140605060895092E0394000C11F46C
:102AB000882352F0BB0F40F4BF2B11F460FF04C019
:102AC0006F5F7F4F8F4F9F4F089557FD9058440F72
:102AD000551F59F05F3F71F04795880F97FB991F7D
:102AE00061F09F3F79F0879508951216130614063A
:102AF000551FF2CF4695F1DF08C0161617061806C7
:102B0000991FF1CF86957105610508940895E894A1
:102B1000BB2766277727CB0197F90895A1E21A2EE4
:102B2000AA1BBB1BFD010DC0AA1FBB1FEE1FFF1F71
:102B3000A217B307E407F50720F0A21BB30BE40BC1
:102B4000F50B661F771F881F991F1A9469F7609508
:102B50007095809590959B01AC01BD01CF010895C2
:102B6000991B79E004C0991F961708F0961B881FDF
:102B70007A95C9F780950895EE0FFF1F881F8BBFC8
:102B80000790F691E02D19945058BB27AA270E9470
:102B9000DC150C9454150E94461538F00E944D1512
:102BA00020F039F49F3F19F426F40C9443150EF4E9
:102BB000E095E7FB0C943D15E92F0E94651558F34D
:102BC000BA17620773078407950720F079F4A6F512
:102BD0000C9487150EF4E0950B2EBA2FA02D0B0147
:102BE000B90190010C01CA01A0011124FF27591B52
:102BF00099F0593F50F4503E68F11A16F040A22F58
:102C0000232F342F4427585FF3CF469537952795C8
:102C1000A795F0405395C9F77EF41F16BA0B620BC7
:102C2000730B840BBAF09150A1F0FF0FBB1F661F0E
:102C3000771F881FC2F70EC0BA0F621F731F841F51
:102C400048F4879577956795B795F7959E3F08F077
:102C5000B0CF9395880F08F09927EE0F9795879539
:102C600008950E9445160C9454150E944D1558F075
:102C70000E94461540F029F45F3F29F00C943D1561
:102C800051110C9488150C9443150E94651568F336
:102C90009923B1F3552391F3951B550BBB27AA2715
:102CA00062177307840738F09F5F5F4F220F331F4F
:102CB000441FAA1FA9F335D00E2E3AF0E0E832D017
:102CC00091505040E695001CCAF72BD0FE2F29D01A
:102CD000660F771F881FBB1F261737074807AB07EC
:102CE000B0E809F0BB0B802DBF01FF2793585F4F61
:102CF0003AF09E3F510578F00C943D150C948815E0
:102D00005F3FE4F3983ED4F3869577956795B79542
:102D1000F7959F5FC9F7880F911D9695879597F94D
:102D20000895E1E0660F771F881FBB1F62177307C6
:102D30008407BA0720F0621B730B840BBA0BEE1FDB
:102D400088F7E09508950E94AA166894B1110C9432
:102D5000881508950E946D1588F09F5798F0B92F37
:102D60009927B751B0F0E1F0660F771F881F991FC0
:102D70001AF0BA95C9F714C0B13091F00E948715C6
:102D8000B1E008950C948715672F782F8827B85FD6
:102D900039F0B93FCCF3869577956795B395D9F718
:102DA0003EF490958095709561957F4F8F4F9F4F22
:102DB00008950E94AC1408F48FEF08950F931F93A9
:102DC000CF93DF938230910510F482E090E0E091A0
:102DD0002907F0912A0720E030E0A0E0B0E030972A
:102DE00019F1408151810281138148175907C8F0B8
:102DF0008417950769F4109731F012960C93129787
:102E000013961C9327C00093290710932A0722C00A
:102E10002115310519F04217530718F49A01BD0125
:102E2000EF01DF01F801DBCF21153105F9F0281B97
:102E3000390B2430310580F48A819B81611571053D
:102E400021F0FB019383828304C090932A0780932F
:102E50002907FE01329644C0FE01E20FF31F819361
:102E6000919322503109398328833AC02091270752
:102E700030912807232B41F4209103023091040262
:102E800030932807209327072091010230910202F6
:102E90002115310541F42DB73EB7409105025091FF
:102EA0000602241B350BE0912707F0912807E21753
:102EB000F307A0F42E1B3F0B2817390778F0AC015D
:102EC0004E5F5F4F2417350748F04E0F5F1F50933A
:102ED0002807409327078193919302C0E0E0F0E038
:102EE000CF01DF91CF911F910F910895CF93DF9381
:102EF000009709F481C0FC01329713821282A091DD
:102F00002907B0912A07109781F420813181820F1F
:102F1000931F20912707309128072817390751F56B
:102F2000F0932807E093270767C0ED0120E030E029
:102F3000CE17DF0740F44A815B819E0141155105A0
:102F4000F1F0EA01F5CFD383C28340815181840F30
:102F5000951FC817D90759F488819981840F951F47
:102F60000296918380838A819B819383828321153A
:102F7000310529F4F0932A07E09329073DC0E901C0
:102F8000FB83EA8349915991C40FD51FEC17FD07C4
:102F900061F480819181840F951F0296E9019983E4
:102FA0008883828193819B838A83E0E0F0E012969C
:102FB0008D919C911397009719F0FD01DC01F7CFDB
:102FC0008D919C9111979D012E5F3F4F820F931F12
:102FD00020912707309128072817390769F430977F
:102FE00029F410922A071092290702C01382128234
:102FF000B0932807A0932707DF91CF9108956F9290
:103000007F928F929F92AF92BF92CF92DF92EF9278
:10301000FF920F931F93CF93DF93009789F4CB0117
:10302000DF91CF911F910F91FF90EF90DF90CF90A4
:10303000BF90AF909F908F907F906F900C94DE1612
:10304000FC01E60FF71F9C0122503109E217F3073C
:1030500008F4A9C0EC01D9010D911C911197061734
:103060001707B0F00530110508F49BC0C80104979C
:103070008617970708F495C002501109061B170B15
:10308000019311936D937C93CF010E94761789C0B1
:103090005B01A01AB10A4C01800E911EA091290774
:1030A000B0912A07612C712CE12CF12C109709F4B6
:1030B00046C08D919C911197A815B905B1F56C0189
:1030C00042E0C40ED11CCA14DB0478F14C018A180A
:1030D0009B08640142E0C40ED11C1296BC9012976A
:1030E0001396AC91B5E0CB16D10440F0B282A38325
:1030F00091828082D9016D937C9309C00E5F1F4F2E
:10310000800F911FF90191838083EB2DFA2FE11439
:10311000F10431F0D7011396FC93EE93129741C05E
:10312000F0932A07E09329073CC06816790608F453
:103130003C017D0112960D90BC91A02DB7CF8091DE
:1031400027079091280788169906E1F466167706F6
:10315000C8F48091010290910202009741F48DB76A
:103160009EB74091050250910602841B950BE8170B
:10317000F907C8F4F0932807E0932707F901718352
:1031800060830FC0CB010E94DE167C01009759F0CE
:10319000A801BE010E94E918CE010E947617C7015E
:1031A00004C0CE0102C080E090E0DF91CF911F917A
:1031B0000F91FF90EF90DF90CF90BF90AF909F90D6
:1031C0008F907F906F90089581E090E0F8940C9438
:1031D000F918FB01DC0102C001900D9241505040F2
:1031E000D8F70895FB01DC0101900D920020E1F772
:1031F000089511E0C4E9D1E000E006C0802FFE018F
:103200000E94BC152196011DC539D10780E0080731
:06321000A9F7F894FFCFBE
:10321600FF00002B072000363738391B1D1A1C000B
:103226000000004B091E090502F20816090209F3FF
:103236000800000000B60C3B0C650C030DC80174B9
:103246000C880C0000000022033B0C050204024916
:103256006E76616C696420656E636F646572206961
:063266006421000D0A00C6
:00000001FF
